:100000000C94AE060C94F5060C94F5060C94F506CB
:100010000C94F5060C94F5060C94F5060C94F50674
:100020000C94F5060C94F5060C94B62C0C94882DC3
:100030000C94ED230C94F5060C94F5060C94F5063F
:100040000C94F5060C94F5060C94F5060C94F50644
:100050000C94F5060C9461240C94F5060C94F506AA
:100060000C94F5060C94F5060C94F5060C94F50624
:100070000C94F5060C94F5060C94F5060C94F50614
:100080000C94F5060C94F5060C94F5060C94F50604
:100090000C94F5060C94F5060C94F5060C94F506F4
:1000A0000C94F5060C94F5060C94F506860988095F
:1000B00093098A098C098E09900992099509970973
:1000C0009909A4099B099D099F09A109A309A609EA
:1000D000271A271A591A591A971AE51BE51BE51B07
:1000E000B71AE51B641B641BD51BE51BE51BDE1B58
:1000F000711B711B711B711B711B711B711B711BA0
:10010000711B711B711B711B711B711B711B711B8F
:10011000821B901B971B9E1BA81B701C701C821CB3
:10012000821C791C821C821C821C701C701C7E1C10
:10013000821C821C7E1CF52D1C2E0E2F1C2E0E2FB9
:10014000682E8B2E0E2FE12EF02E07634236B79BC2
:10015000D8A71A39685618AEBAAB558C1D3CB7CC27
:100160005763BD6DEDFD753EF6177231BF0000009F
:10017000803F05A84CCDB2D44EB93836A9020C50F8
:10018000B9918688083CA6AAAA2ABE000000803F32
:1001900035001E001F0020002100220023002B003C
:1001A00014001A000800150017001C00E0000400ED
:1001B0001600070009000A000B00E1001D001B00EB
:1001C000060019000500110029003900E200E300D3
:1001D000000000002C0024002500260027002D0030
:1001E0002E002A0018000C00120013002F0030000F
:1001F00031000D000E000F00330034002800000015
:100200001000360037003800520001510000000095
:1002100000000000500051004F00000001003A00B3
:100220003B003C003D003E003F000100C25CC55C5D
:10023000C75CC95C000000000100C35CC65CC85C10
:10024000CA5C000000000100000000000000000087
:10025000000000000100010001000100000000009A
:1002600001004000410042004300440045000100FD
:10027000000000000000000000000000000000007E
:10028000000000000000000001000000000000006D
:10029000000000004B000100000000000000000012
:1002A0004A004E004D00000044454255473A206543
:1002B0006E61626C65642E0A000A002530386200A7
:1002C0003A200025303258000A722F632030313234
:1002D00033343536370A0054494D4552332064696A
:1002E0007361626C65642E0A0054494D4552332097
:1002F000656E61626C65642E0A007267626C696784
:1003000068742073657420687376205B4E4F454592
:1003100050524F4D5D3A2025752C25752C25750AB8
:10032000007267626C696768742073657420687313
:1003300076205B454550524F4D5D3A2025752C2562
:10034000752C25750A007267626C69676874207283
:1003500061696E626F7720736574206873763A20E6
:1003600025752C25752C25642C25750A007267626D
:100370006C696768742064697361626C65205B45B1
:100380004550524F4D5D3A207267626C69676874E0
:100390005F636F6E6669672E656E61626C65203D96
:1003A0002025750A007267626C6967687420656E43
:1003B00061626C65205B454550524F4D5D3A20723D
:1003C00067626C696768745F636F6E6669672E65E4
:1003D0006E61626C65203D2025750A007267626C53
:1003E0006967687420746F67676C65205B4545506A
:1003F000524F4D5D3A207267626C696768745F6343
:100400006F6E6669672E656E61626C65203D2025A2
:10041000750A007267626C69676874206D6F646545
:10042000205B4E4F454550524F4D5D3A2025750A91
:10043000007267626C69676874206D6F6465205B29
:10044000454550524F4D5D3A2025750A007267624E
:100450006C696768745F696E6974207267626C6941
:100460006768745F636F6E6669672E6D6F64652081
:100470003D20302E20577269746520646566617571
:100480006C742076616C75657320746F20454550DF
:10049000524F4D2E0A007267626C696768745F691B
:1004A0006E6974206565636F6E6669672069732085
:1004B0006E6F7420656E61626C65642E0A007267EF
:1004C000626C696768745F696E69742073746172C5
:1004D00074210A007267626C696768745F696E698B
:1004E000742063616C6C65642E0A007267626C69CB
:1004F0006768745F636F6E6669672E7370656564A5
:10050000203D2025640A007267626C696768745F29
:10051000636F6E6669672E76616C203D2025640AE4
:10052000007267626C696768745F636F6E666967A3
:100530002E736174203D2025640A007267626C6925
:100540006768745F636F6E6669672E687565203DC6
:100550002025640A007267686C696768745F636F5E
:100560006E6669672E6D6F6465203D2025640A0004
:100570007267626C696768745F636F6E6669672E25
:10058000656E61626C65203D2025640A00726762B9
:100590006C696768745F636F6E6669672065707207
:1005A0006F6D0A0000047F3F1F64321464321478B8
:1005B0003C1E1E140A056801F000B40078005A00C1
:1005C000000000000001010101010101010102021E
:1005D00002020202020202030303030303030304F1
:1005E00004040404040505050505060606060607B9
:1005F000070707080808080909090A0A0A0A0B0B6D
:100600000B0C0C0C0D0D0D0E0E0F0F0F1010111109
:10061000111212131314141515161617171818198A
:10062000191A1A1B1C1C1D1D1E1F1F2020212222EF
:100630002324252526272728292A2B2B2C2D2E2F2E
:100640002F30313233343536363738393A3B3C3D4A
:100650003E3F4041424344464748494A4B4C4D4F38
:1006600050515253555657585A5B5C5E5F606263F7
:10067000646667696A6C6D6E707173747678797B85
:100680007C7E8081838486888A8B8D8F91929496DC
:10069000989A9B9D9FA1A3A5A7A9ABADAFB1B3B5F8
:1006A000B7B9BBBDBFC1C4C6C8CACCCFD1D3D6D8D9
:1006B000DADCDFE1E4E6E8EBEDF0F2F5F7FAFCFF77
:1006C0000A002530325820006B6579626F617264D0
:1006D0005F7265706F72743A20000A0025303258DC
:1006E000006B6579626F6172645F7365745F6C65DE
:1006F000643A20003F00433E20004C25640A007409
:10070000696D65725F72656164333228293A20250C
:1007100030346C580A006B6579626F6172645F698E
:10072000646C653A2025580A006B6579626F6172C6
:10073000645F70726F746F636F6C3A2025580A00A3
:10074000686F73745F6B6579626F6172645F6C650B
:10075000647328293A2025580A000A092D20537469
:1007600061747573202D0A004743433A20342E39B3
:100770002E32204156522D4C4942433A20312E38D8
:100780002E3073766E204156525F415243483A20D4
:10079000617672350A004F5054494F4E533A204CFF
:1007A0005546412045585452414B455920434F4EE0
:1007B000534F4C4520434F4D4D414E44203430392A
:1007C000360A004255494C443A2022302E362E3308
:1007D00031322D322D67653961636531222028322F
:1007E000313A31383A3337204A756E202031203281
:1007F000303139290A005649443A20307846454577
:100800004428457563616C796E29205049443A202B
:1008100030783030303028426C6F636B6579292036
:100820005645523A203078303030310A0044455332
:10083000433A204120637573746F6D206B65796254
:100840006F6172640A000A092D2056657273696F20
:100850006E202D0A000A092D20436F6E736F6C65A0
:10086000202D0A4553432F713A09717569740A00A6
:100870000A092D204D61676963202D0A443A094415
:1008800065627567204D65737361676520546F6796
:10089000676C650A583A094D61747269782044653D
:1008A000627567204D6F646520546F67676C6520C3
:1008B0002D2053686F77206B65797072657373654F
:1008C0007320696E206D6174726978206772696443
:1008D0000A4B3A094B6579626F6172642044656224
:1008E000756720546F67676C65202D2053686F779C
:1008F000206B65797072657373207265706F7274A6
:100900000A4D3A094465627567204D6F757365201D
:10091000546F67676C650A563A0956657273696F5A
:100920006E0A533A095374617475730A433A094164
:100930006374697661746520436F6E736F6C6520B4
:100940004D6F64650A46312D4631303A0953776957
:1009500074636820746F204C6179657220302D3982
:100960002028463130203D204C30290A302D393A9C
:100970000953776974636820746F204C61796572DC
:1009800020302D390A47524156453A095377697448
:10099000636820746F204C61796572203020286173
:1009A0006C7465726E617465290A423A094A756D04
:1009B0007020746F20426F6F746C6F616465720A8F
:1009C0004553433A094A756D7020746F20426F6F2A
:1009D000746C6F616465722028616C7465726E61FD
:1009E0007465290A453A095072696E74204545506C
:1009F000524F4D2053657474696E67730A425350A9
:100A00004143453A09436C65617220454550524F58
:100A10004D0A000A002575002E6E6B726F3A200099
:100A20000A002575002E737761705F6261636B73D6
:100A30006C6173685F6261636B73706163653A20B8
:100A4000000A002575002E737761705F677261760A
:100A5000655F6573633A20000A002575002E6E6F8E
:100A60005F6775693A20000A002575002E7377616B
:100A7000705F72616C745F726775693A20000A007A
:100A80002575002E737761705F6C616C745F6C67A5
:100A900075693A20000A002575002E636170736C39
:100AA0006F636B5F746F5F636F6E74726F6C3A200D
:100AB000000A002575002E737761705F636F6E7496
:100AC000726F6C5F636170736C6F636B3A20000AC6
:100AD0000025303258006B65796D61705F636F6E11
:100AE0006669672E7261773A20000A002575002E2C
:100AF0006D6F7573653A20000A002575002E6B65D1
:100B000079626F6172643A20000A002575002E6DCB
:100B100061747269783A20000A002575002E656EAE
:100B200061626C653A20000A002530325800646525
:100B30006275675F636F6E6669672E7261773A20D0
:100B4000000A0025750064656661756C745F6C61F0
:100B50007965723A20003F000A6D6F7573653A201F
:100B60006F66660A000A6D6F7573653A206F6E0ACC
:100B7000000A6B6579626F6172643A206F66660A7B
:100B8000000A6B6579626F6172643A206F6E0A00C9
:100B90000A6D61747269783A206F66660A000A6DA0
:100BA00061747269783A206F6E0A000A6465627532
:100BB000673A206F66660A000A64656275673A20C4
:100BC0006F6E0A000A0A4A756D70696E6720746F4D
:100BD00020626F6F746C6F616465722E2E2E200020
:100BE000433E2000436C656172696E672045455045
:100BF000524F4D0A006565636F6E6669673A0A0079
:100C00005B735D004B6579626F6172642073746120
:100C100072742E0A005B575D005B535D005B525D92
:100C2000005B445D005B435D000403300000001086
:100C30000342006C006F0063006B006500790000E8
:100C400000100345007500630061006C0079006EC0
:100C50000000000403090409025B00030100A0FA7C
:100C60000904000001030101000921110100012212
:100C700040000705810308000A0904010001030080
:100C8000000009211101000122360007058203201E
:100C9000000A0904020002030000000921110100FA
:100CA000012222000705830320000107050303201A
:100CB00000011201100100000008EDFE000001001B
:100CC000010203010631FF0974A10109751500260F
:100CD000FF009520750881020976150026FF009512
:100CE0002075089102C005010980A1018503160144
:100CF000002603001A81002A8300751095018100E7
:100D0000C0050C0901A1018504160100269C021AE8
:100D100001002A9C02751095018100C00501090699
:100D2000A101050719E029E71500250195087501BE
:100D300081029501750881010508190129059505AC
:100D4000750191029501750391010507190029FFAD
:100D5000150026FF00950675088100C011241FBEEE
:100D6000CFEFDAE0DEBFCDBF04B603FE27C080912F
:100D70003A0290913B02A0913C02B0913D02873033
:100D8000904BA740B04BD1F410923A0210923B0224
:100D900010923C0210923D0214BE84B7877F84BF3C
:100DA0000FB6F894A89580916000886180936000E8
:100DB000109260000FBEE0E0F8E3099511E0A0E0BA
:100DC000B1E0E6E3F6E602C005900D92AA33B10762
:100DD000D9F722E0AAE3B1E001C01D92AA33B2071D
:100DE000E1F70E94CF290C9419330C940000FF9373
:100DF000EF93E0913A01F0913B01309709F00995AA
:100E0000EF91FF910895FC018591803011F0EFDFA3
:100E1000FBCF0895FF27E0E230E247FF0CC0419589
:100E200097FF09C0EDE26095709580959095611DE2
:100E3000711D811D911D27FF02C0219530E350E2F5
:100E4000AA27660F771F881F991FAA1FA41710F0E3
:100E5000A41B63955A95A9F7AA3008F0A95FA05D75
:100E6000AF93F395611571058105910541F7ED3259
:100E700011F4EF93F395F21718F43F93F395FBCF2A
:100E80008F91B5DFFA95E1F70895E991F991859190
:100E9000803021F0853219F0AADFF9CF089520E0E3
:100EA000E89455915532C1F3503311F4689455913B
:100EB0005A3348F4505390F3220F022E220F220F80
:100EC000200D250FF4CF0EF4219589919991533679
:100ED00019F3533729F1533559F1BC018827992764
:100EE000E8945C3621F4899199916894559154362F
:100EF00039F446EF7EF077FF0DC08FEF9FEF0AC009
:100F000055374AE039F0583540E121F0523642E099
:100F100009F00895FF93EF937DDFEF91FF91B7CF35
:100F2000FF93EF93FC0181918030B9F360DFFBCF39
:100F3000FF93EF9368DFF1CFDF93CF93CDB7DEB7A9
:100F40002596A3DFCF91DF91089581E0089508955C
:100F50000895089581E008950C94A5070E94E02269
:100F6000811102C00E945A230C94CB0C0C94CD0C1E
:100F70000C94A9070C94B80708950E94601C0E9465
:100F8000BC072FEF84E39CE0215080409040E1F7C4
:100F900000C000000C948724FF920F931F93CF93FF
:100FA000DF938C01FC01C081D18180918A01811184
:100FB00013C08281882349F0CE010E949521F82E2A
:100FC000682FCE010E943A2104C0CE010E946921FF
:100FD000F82EBE018F2D04C0CE010E949521BE01C6
:100FE0000E945A0AEC01B8010E94AC07882309F458
:100FF00056C2CC3CFCE5DF0709F4E5C0E8F5C43C8B
:101000009CE5D90709F4A9C0F8F4C531FCE5DF0770
:1010100078F4C2308CE5D80708F056C1C1159CE5BC
:10102000D90709F467C0C130DC4509F46BC02AC296
:10103000C23CFCE5DF0709F47CC008F082C0C63181
:10104000DC4509F4F8C11EC2F8018281C83CFCE508
:10105000DF0709F4A0C040F4C63CECE5DE0709F464
:101060008EC008F486C091C0CA3C9CE5D90709F43B
:101070009EC008F496C0A1C0C43DFCE5DF0709F49A
:10108000FCC0C0F4F8018281C03DFCE5DF0709F433
:10109000C3C040F4CE3CECE5DE0709F4A1C008F47F
:1010A0009AC0ACC0C23D9CE5D90709F4D3C008F48E
:1010B000C3C0DEC0C93DFCE5DF0709F4A1C160F48F
:1010C000C73D9CE5D90709F451C108F072C1C53D7F
:1010D000DC4509F4E2C0D6C1CD3D8CE5D80709F462
:1010E000EAC0CE3D9CE5D907E1F0CC3DDC4509F0F6
:1010F000C9C1DAC0F8018281882309F4D0C10E94F5
:10110000BD07CDC1F8018281882309F4C8C180914F
:10111000050281608093050288EA92E00E9403073D
:10112000BEC1F8018281882309F4B9C10E945A2303
:10113000B6C1F8018281882309F4B1C10E942C1341
:10114000AEC1F8018281882309F4A9C10E94152249
:10115000827261F00E947612A2C1F8018281882316
:1011600009F49DC10E9415228272A1F30E946812A7
:1011700096C1882309F493C10E94361190C1882337
:1011800009F48DC10E945A118AC1882309F487C1CC
:101190000E947A1184C1882309F481C10E949A11A6
:1011A0007EC1882309F47BC10E94BA1178C18823CB
:1011B00009F475C10E94DA1172C1882309F46FC164
:1011C0000E94910F6CC1F8018281882309F467C1E4
:1011D0000E94A60F64C1882309F461C181E029C07F
:1011E000882309F45CC10E94880F823028F00E9495
:1011F000880F853008F4BACF82E01BC0882309F439
:101200004EC10E94880F863028F00E94880F8830D7
:1012100008F4ACCF86E00DC0882309F440C10E94D9
:10122000880F893028F00E94880F8E3008F49ECFF6
:1012300089E00E94791233C1882309F430C10E94E9
:10124000880F8F3028F00E94880F843108F48ECFE9
:101250008FE0EFCF882309F422C10E94880F8531E7
:1012600028F00E94880F873108F480CF85E1E1CF14
:10127000882309F414C188E1DCCFF8018281882336
:1012800009F40DC10E94880F893128F00E94880F4F
:10129000823208F46BCF89E1CCCFF80182818823B8
:1012A00009F4FDC083E2C5CFF8018281882309F4E7
:1012B000F6C080E006C0F8018281882309F4EFC0FF
:1012C00082E00E94792AEBC0F8018281882309F428
:1012D000DEC00E94E022811102C00E945A230E94B7
:1012E000F32290E090932C0280932B02FE01E350B6
:1012F000FC45E231F10530F4EA5AFF4F80912B02B0
:101300000C94BE3280912B02816027C0826025C080
:10131000846023C0806121C080621FC080641DC0C2
:1013200080681BC08460886018C08E7F16C08D7F67
:1013300014C08B7F12C08F7E10C08F7D0EC08F7B3C
:101340000CC08F770AC08B7F877F07C087FB22275F
:1013500020F991E0922790FB87F980932B028091EE
:101360002B020E94F7220E94601C99C0F801828122
:10137000882351F0109241010E941F2490933E0156
:1013800080933D0182E022C08091410181110FC014
:1013900080913D0190913E010E943724883C910547
:1013A00030F486E20E94551886E20E94841982E099
:1013B00024C0F8018281882361F0109242010E94CA
:1013C0001F249093400180933F0180E20E94E31923
:1013D00066C08091420181110FC080913F019091C0
:1013E00040010E943724883C910530F487E20E9436
:1013F000551887E20E94841980E20E94EA194FC0C2
:10140000F80182818111D9CF809142018111F4CFFD
:1014100080913F01909140010E943724883C9105C2
:1014200058F780E20E94EA1988E20E94551888E283
:101430000E94841934C00E941522282FF80182814D
:1014400040910D0150910E01882379F02A7A91E0A4
:1014500009F490E090933C01911102C069E201C04F
:1014600065E3CA010E948E230AC080913C0181116C
:1014700002C069E201C065E3CA010E9490230E9494
:1014800061220DC081E08093410180934201C80137
:10149000DF91CF911F910F91FF900C94AA0780E0EC
:1014A000DF91CF911F910F91FF90089580E090E020
:1014B0000895089597E0799FF001112496E4899F9B
:1014C000E00DF11D1124E60FF11DEE0FFF1FE05797
:1014D000FE4F859194910895880F991FFC01E75460
:1014E000FD4F859194910895CF93DF930E945A0AFE
:1014F0000E942B0CEC01811520E59207F0F5811577
:1015000030E4930708F024C1883E910500F5803E41
:10151000910508F09CC1883A910570F4853A9105CF
:1015200008F09FC08130910509F491C108F442C1CF
:10153000049708F08CC13EC18F3B910508F49CC014
:10154000803C910508F436C1805C9109F4C0811596
:1015500040E2940758F4C11581E0D80708F077C13C
:10156000C03FD10508F426C1D06571C1811520E3C3
:10157000920708F0E4C09F70DEC0811535E593073F
:1015800008F044C0811544E5940708F0F8C0C1157F
:1015900082E5D80708F5C11521E5D20708F0DBC0C0
:1015A0008C2F837021E030E002C0220F331F8A9518
:1015B000E2F73C68CE0174E0969587957A95E1F75D
:1015C0008370382BCF70C695C69580E2C89FE00126
:1015D0001124C22BD32B3BC12C2F26952695CE014F
:1015E00083709927C115D34508F0BAC040E2249F03
:1015F00090011124C1E0D0E002C0CC0FDD1F8A951C
:10160000E2F72C2B3D2BE901DC6821C1811549E56E
:101610009407A0F4C11588E5D80708F0B5C0C11536
:1016200026E5D20708F0C6C08C2F0E94A80C8F7147
:10163000C82FD0E0DC2FCC27D06209C181153AE554
:10164000930708F4A6C090568115904208F0B2C0E6
:101650008D2F8F710E94A80CDD27D0628F71D82B3F
:10166000F6C0853A910509F4A8C0863A910509F0BB
:10167000A7C0C2E8D0E4EBC0883A910509F4A3C042
:10168000893A910509F4A2C08A3A910509F4A1C0EA
:101690008B3A910509F4A0C08C3A910509F49FC0DA
:1016A0008B3B910509F49EC08C3B910509F49DC0CC
:1016B0008D3A910509F49CC0803B910509F49BC0CB
:1016C0008E3A910509F49AC08F3A910509F499C0B0
:1016D000813B910509F498C0823B910509F497C0BC
:1016E000833B910509F496C0843B910509F495C0AC
:1016F000853B910509F494C0863B910509F493C09C
:10170000873B910509F492C0883B910509F491C08B
:10171000893B910509F490C08D3B910509F48FC078
:101720008E3B910509F48EC08A3B910509F48DC06A
:10173000C0E0D4E48CC00E946C0AEC0188C09927F8
:10174000D3FF03C0EC01D86C82C0EC01D06C7FC029
:10175000DF70D06A7CC0DC2FCC27C16FD06A77C025
:1017600040E2249F90011124C1E0D0E002C0CC0FE0
:10177000DD1F8A95E2F7C22BD32BDA6868C0D82F19
:10178000CC27C46FD06A63C0DC2FCC27C06FD06A6F
:101790005EC08F700E94A80C94E0D695C7959A956C
:1017A000E1F7CF70D0E0DC2FCC27D06A8F70806E4D
:1017B000C82B4DC0C0E0D0E04AC0C1E8D0E447C06B
:1017C000C3E8D0E444C0C2EED4E441C0C9EED4E4DE
:1017D0003EC0CAEED4E43BC0C5EBD4E438C0C6EB8F
:1017E000D4E435C0C3EBD4E432C0C4EBD4E42FC09E
:1017F000C7EBD4E42CC0CCECD4E429C0CDECD4E4C9
:1018000026C0C3E8D5E423C0CAE8D5E420C0C2E9B5
:10181000D5E41DC0C4E9D5E41AC0C1E2D6E417C0BE
:10182000C3E2D6E414C0C4E2D6E411C0C5E2D6E4F3
:101830000EC0C6E2D6E40BC0C7E2D6E408C0CFE6CD
:10184000D4E405C0C0E7D4E402C0CAE2D6E4CE01C5
:10185000DF91CF9108958238910549F1B0F4813339
:10186000910509F458C048F48932910509F44EC035
:101870008A32910509F454C008958533910509F41D
:1018800040C08933910599F00895833E910529F16F
:1018900038F4803E910591F0823E9105A1F00895C3
:1018A000863E9105F9F0873E910531F1089520912A
:1018B0002B0220FD3AC021FD38C0089580912B02F3
:1018C00080FD35C032C080912B0282FF32C08091F2
:1018D0002B0284FD30C083EE39C080912B0282FD43
:1018E00028C0F5CF80912B0283FF27C080912B0267
:1018F00084FD21C087EE2AC080912B0283FD1DC08C
:10190000F5CF80912B0285FD1AC01BC080912B0260
:1019100085FD17C014C080912B0286FD14C015C030
:1019200080912B0286FD11C00EC080EE0FC089E3AE
:101930000DC082EE0BC080E009C086EE07C089E2D0
:1019400005C085E303C08AE201C081E390E0089509
:1019500090912B0292FF0DC0282F2871283019F486
:10196000877F846006C0282F2471243011F48B7F78
:10197000886093FF0DC0282F2871283119F4877EC5
:10198000846106C0282F2471243111F48B7E886174
:1019900094FD877E08950C94A7070C94A807E1E2B4
:1019A000F1E041E050E02AE02E0F9191A92FA2959D
:1019B000AF70B0E091963C9191979F70BA0102C0D0
:1019C000660F771F9A95E2F7CB0180958323919656
:1019D0008C932E13EACFAAE1B1E041E050E027E07A
:1019E0002A0F8D91E82FE295EF70F0E031A18F7012
:1019F000BA0102C0660F771F8A95E2F7CB01962FD6
:101A00009095932391A392A1892B82A32A13E9CFC6
:101A1000A3E4B1E0EDE4F1E08AE08E0F11921D92B3
:101A20008E13FCCF8AE00E94F00D0C94AE074F920B
:101A30005F926F927F928F929F92AF92BF92CF925E
:101A4000DF92EF92FF920F931F93CF93DF9321E2E8
:101A5000422E21E0522EADE4B1E020E001E010E0A2
:101A60003AE0932E9A0E7D018C901C92E2018991AE
:101A70002E01E82FE295EF70F0E031A18F70A80100
:101A800002C0440F551F8A95E2F7CA01342B31A3D7
:101A900042A1382F3095432342A350EA5A95F1F7DB
:101AA0009AE1C92E91E0D92E40E050E0E60179900C
:101AB0006E01672D62956F7070E0EB01A8A06C90CD
:101AC000B12C772D7F7002C0B594A7947A95E2F778
:101AD000A0FC07C0602F042E01C0660F0A94EAF72D
:101AE00001C060E066296C934F5F5F4F473051053E
:101AF000E9F691A1392331A392A1892B82A31196F2
:101B000081E0F7019081891201C080E0282B9A12B0
:101B1000AACF4AE063E471E08DE491E00E94F10D08
:101B20000E94B60781E0DF91CF911F910F91FF9046
:101B3000EF90DF90CF90BF90AF909F908F907F906D
:101B40006F905F904F900895E82FF0E0ED5BFE4FAF
:101B500080810895CF92DF92EF92FF920F931F93AF
:101B6000CF93DF9388EC92E00E94030783E4E82E92
:101B700081E0F82EC0E0D0E093ECC92E92E0D92E9F
:101B80000BEB12E0DF93CF93DF92CF920E949C0782
:101B900080EC92E00E940307F70181917F010E948F
:101BA000CA221F928F931F930F930E949C0789EB69
:101BB00092E00E94030721968DB79EB708960FB654
:101BC000F8949EBF0FBE8DBFCA30D105D9F6DF9104
:101BD000CF911F910F91FF90EF90DF90CF900895DC
:101BE0000895FF920F931F93CF93DF938C01F62EEE
:101BF000D72FC42F222349F081E0809359010E94FE
:101C00001F24909358018093570180915901882394
:101C1000C1F080915701909158010E943724069796
:101C200080F0EF2DFD2FD8014C2F50E0CD01801B0F
:101C3000910B841795071CF48D918193F7CF109227
:101C40005901DF91CF911F910F91FF900895EF926D
:101C5000FF920F931F93CF93DF93E901662309F45B
:101C60004BC0242F30E0EFEFF0E0E61BF109B901A3
:101C7000E69F9001E79F300DF69F300D1124232F32
:101C80008B01031B11095CE3E52EF12CB7010E94C7
:101C90009632FB01BC01069FC001079F900D169F65
:101CA000900D1124B7010E949632E230F105B1F097
:101CB00040F4309779F0319711F5832F242F461B8C
:101CC00021C0E430F105A1F068F03597C1F4842F0C
:101CD000861B18C0832F262F230F14C0862F830F37
:101CE000E42F03C0E42FE61B842F432F2E2F0AC0BE
:101CF000842F462F430F06C0842F242F03C080E07B
:101D000020E040E0E42FF0E0E054FA4F4491E22F6D
:101D1000F0E0E054FA4F9491E82FF0E0E054FA4FED
:101D2000E49149839883EA83DF91CF911F910F91CA
:101D3000FF90EF90089580911602282F26952F731B
:101D400030E02115310519F48178826005C0253213
:101D5000310524F081788864809316023091160250
:101D6000432F441F4427441F20911702522F550F21
:101D7000852F842B27FB992790F9893641E094071A
:101D80007CF068E671E00E94AA3280FB37F930935C
:101D9000160286952078822B90FB87F98093170294
:101DA000089588E090E00C94D932CF93DF9300D06F
:101DB00000D0CDB7DEB7AB01BC0149835A836B833A
:101DC0007C830E949B0E49815A816B817C8188E0D3
:101DD00090E00F900F900F900F90DF91CF910C94A7
:101DE000F732E6E1F2E083E08083109217028FEF92
:101DF00082838383148260817181828193810C94B8
:101E0000D50E8091050280FF08C08DE895E09F9374
:101E10008F930E949C070F900F908091050280FF86
:101E20000FC08091160281701F928F9380E795E01A
:101E30009F938F930E949C070F900F900F900F908D
:101E40008091050280FF10C08091160286958F73E5
:101E50001F928F9385E595E09F938F930E949C0737
:101E60000F900F900F900F908091050280FF19C086
:101E700080911602881F8827881F90911702292FAA
:101E8000220F822B97FB992790F99F938F938BE3D7
:101E900095E09F938F930E949C070F900F900F9057
:101EA0000F908091050280FF0EC0809118021F9252
:101EB0008F9381E295E09F938F930E949C070F90F0
:101EC0000F900F900F908091050280FF0EC08091BF
:101ED00019021F928F9387E095E09F938F930E9442
:101EE0009C070F900F900F900F908091050280FF3C
:101EF0000EC080911A021F928F938BEE94E09F93F5
:101F00008F930E949C070F900F900F900F90089551
:101F10008091160280FF03C086958F73089580E03C
:101F2000089580911A0290E001968430910514F092
:101F300083E090E080931A0260911602709117027C
:101F400080911802909119020C94D50E80911A027A
:101F500090E0019797FF02C080E090E08430910507
:101F600014F083E090E080931A0260911602709161
:101F7000170280911802909119020C94D50E80914D
:101F8000160280FF06C064E070E08BE192E00C94E2
:101F9000AA1680E090E0FC01E55EFD4F1182108200
:101FA000128203968C309105B1F7EDCF9091160215
:101FB00090FF0FC020E030E0F901E55EFD4F818326
:101FC000608342832D5F3F4F2C303105A9F70C947D
:101FD000BF0F0895CF93DF9300D01F92CDB7DEB728
:101FE0002091160220FF0AC09E012F5F3F4F0E94E2
:101FF000270E4B8169818A810E94D60F0F900F9026
:102000000F90DF91CF9108952F923F924F925F9260
:102010006F927F928F929F92AF92BF92CF92DF92F8
:10202000EF92FF920F931F93CF93DF93CDB7DEB75D
:1020300027970FB6F894DEBF0FBECDBF8C01262EBA
:10204000342E2D838091160280FFDDC0982F9E775D
:10205000923061F49E012F5F3F4FC8010E94270E0E
:102060004B8169818A810E94D60F80C0E82FE69556
:10207000EF739EE39E0F9F73943018F43090190213
:1020800075C09AE39E0F9F73993068F4881F882764
:10209000881F90911702292F220F022F082B97FBE0
:1020A000112710F963C087E28E0F8F738A3008F012
:1020B0005DC0F0E07997E0FD03C021E02C8302C011
:1020C0003FEF3C83EE7FEA54FA4F859094908C81E9
:1020D000682E880F7708C401969587959695879501
:1020E000689E2001699E500C789E500C1124580166
:1020F00098E9A91A9EEFB90A3BE1C32E32E0D32E2C
:10210000E12CF12CC50168E671E00E949632209125
:10211000050220FF18C09F928F927F92AC81AF93EF
:102120009F938F93FF92EF92A6E4B3E0BF93AF9398
:102130008E839F830E949C070FB6F894DEBF0FBE6C
:10214000CDBF9F818E819601432D622D0E94270E67
:10215000BFEFEB1AFB0AA40CB51C23E0C20ED11C86
:1021600034E0E316F10471F60E94BF0F809116026D
:1021700000FB87F980931602809117028078902FD8
:102180009695892B10FB87F98093170220921802ED
:10219000309219028D81882321F16091160270918D
:1021A000170280911802909119020E94D50E809119
:1021B00019021F928F93809118021F928F93809122
:1021C0001602881F8827881F90911702292F220F37
:1021D000822B97FB992790F99F938F9381E293E04D
:1021E00009C01F923F921F922F9211701F930F935D
:1021F0008AEF92E09F938F930E949C070FB6F8940A
:10220000DEBF0FBECDBF27960FB6F894DEBF0FBE60
:10221000CDBFDF91CF911F910F91FF90EF90DF9095
:10222000CF90BF90AF909F908F907F906F905F9076
:102230004F903F902F900895282FE6E1F2E0908193
:10224000991F9927991F30911702832F880F482FC4
:10225000492B37FB552750F9CA010A9668E671E009
:102260000E94AA32438162810C94041081E00C9494
:102270001C11282F90911602991F9927991F3091B0
:102280001702832F880F482F492B37FB552750F90A
:10229000CA014A3051051CF4825A9E4F01C00A9768
:1022A00068E671E00E94AA3240911902609118021A
:1022B0000C94041081E00C94391160911802262FBF
:1022C00030E02F3E310514F46F5E01C06FEF3091A6
:1022D0001602331F3327331F90911702592F550FC2
:1022E00097FB992790F9282F40911902852F832B6E
:1022F0000C94041081E00C945D1160911802262F5B
:1023000030E02131310514F0615101C060E03091BD
:102310001602331F3327331F90911702592F550F81
:1023200097FB992790F9282F40911902852F832B2D
:102330000C94041081E00C947D1140911902242F1B
:1023400030E02F3E310514F44F5E01C04FEF309165
:102350001602331F3327331F90911702592F550F41
:1023600097FB992790F9282F60911802852F832BCE
:102370000C94041081E00C949D1140911902242FBB
:1023800030E02131310514F0415101C040E030917D
:102390001602331F3327331F90911702592F550F01
:1023A00097FB992790F9282F60911802852F832B8E
:1023B0000C94041081E00C94BD1120E00C940410E6
:1023C00081E0809377018091050280FF08C089EE4B
:1023D00092E09F938F930E949C070F900F90089517
:1023E000109277018091050280FF08C087ED92E08E
:1023F0009F938F930E949C070F900F900895909148
:10240000160290FF58C09178811102C0926007C0F7
:10241000853210F0986403C08F73880F982B9093C7
:102420001602662399F0609116027091170280914E
:102430001802909119020E94D50E8091160286957D
:102440008F731F928F9381E394E008C080911602EE
:1024500086958F731F928F9383E194E09F938F9360
:102460000E949C070F900F900F900F9060911602A2
:1024700066956F7370E04BE050E082E091E00E945F
:10248000C432892B19F00E94F01102C00E94E011A1
:1024900080911602881F8827881F90911702292F84
:1024A000220F97FB992790F9409119026091180229
:1024B000822B0C94DD110895682F90911602969549
:1024C0009F7381E0890F853208F081E00C94FF1141
:1024D00081E00C945C12682F9091160296959F7380
:1024E0008FEF890F09F484E20C94FF1181E00C94C2
:1024F0006B1261E00C94FF11CF93DF93C6E1D2E041
:102500008881816088831F9281E08F9385EA93E0C0
:102510009F938F930E949C070F900F900F900F90A6
:10252000888186958F73DF91CF910C94791260E04A
:102530000C94FF1180917801811163C08091050294
:1025400081608093050284ED94E09F938F930E94B5
:102550009C07809105020F900F9080FF08C08EEBC2
:1025600094E09F938F930E949C070F900F900E947E
:10257000E022811110C08091050280FF08C086E929
:1025800094E09F938F930E949C070F900F900E945E
:102590005A230E94F10E0E94D10E6093160270938E
:1025A000170280931802909319026E77C1F48091FC
:1025B000050280FF08C08DE494E09F938F930E94F2
:1025C0009C070F900F900E94F10E0E94D10E609315
:1025D00016027093170280931802909319020E94BA
:1025E0009B0E0E94010F81E080937701809116027B
:1025F00080FF04C086958F730E94971281E08093BC
:1026000078010895CF93DF93C6E1D2E088818E7F71
:102610008883688179818A819B810E94D50E888117
:1026200081701F928F938DE693E09F938F930E940A
:102630009C070E94F0112FEF80E792E0215080402C
:102640009040E1F700C000000F900F900F900F90A6
:10265000DF91CF910C94BF0F80911602809581700D
:102660001F928F938CED93E09F938F930E949C0712
:10267000809116020F900F900F900F9080FD0C9498
:1026800002130C947C12CF93E82FF0E0EE54FA4F33
:10269000C49180917501909176010E943724EC2FAE
:1026A000F0E08E179F0708F443C00E941F24909308
:1026B0007601809375016091740170E080E090E094
:1026C0000E948B3020E030E04FE753E40E94AE2FB1
:1026D0002BED3FE049E450E40E94B4310E942132E6
:1026E0000E9428302BE43AE34EE25FE30E94412F40
:1026F00020EF3BEF48ED52E40E94B4310E945A3083
:10270000462F80911602881F8827881F90911702F4
:10271000292F220F97FB992790F960911802822B9D
:102720000E94EA0F8091740190E0019680937401F9
:10273000CF910895CF93E82FF0E0E155FA4FC4917F
:1027400080917201909173010E943724EC2FF0E088
:102750008E179F07E8F00E941F24909373018093C7
:10276000720140911902609118028091700190915C
:1027700071010E94EA0F80917001909171010196A0
:1027800068E671E00E949632909371018093700127
:10279000CF910895CF92DF92FF920F931F93CF9323
:1027A000DF93F82EE82FE695F0E0E455FA4FC49158
:1027B00080916E0190916F010E943724EC2FF0E020
:1027C0008E179F07F0F10E941F2490936F01809352
:1027D0006E010BE112E0C0E0D0E088E6C82EDD24F7
:1027E000D39480916C0190916D018C0F9D1FB60167
:1027F0000E949632980140911902609118020E943D
:10280000270EC65ADF4F0D5F1F4FC83681E0D8072D
:1028100041F70E94BF0F20916C0130916D01F0FED5
:102820000AC0C9010196BE010E94963290936D01C3
:1028300080936C0106C02150310930936D012093C3
:102840006C01DF91CF911F910F91FF90DF90CF909E
:102850000895AF92BF92CF92DF92EF92FF920F93C3
:102860001F93CF93DF9380FF02C01FEF01C011E0E1
:102870008695E82FF0E0E755FA4FC49180916A0100
:1028800090916B010E943724EC2FF0E08E179F0788
:1028900008F465C00E941F2490936B0180936A0125
:1028A0002BE1C22E22E0D22E3DE1E32E32E0F32EC8
:1028B000C0E0D0E0F70131971082F6011082F701F5
:1028C000108294E0A92EB12C00E080916901800F64
:1028D00087FD8C5F082E000C990BC817D907E9F407
:1028E000809119028A9DA0018B9D500D1124559550
:1028F00047955595479580911602881F8827881F10
:1029000090911702592F550F97FB992790F996012F
:1029100060911802852B0E94270E010FF1E0AF1A7B
:10292000B10899F6219683E0C80ED11CE3E0EE0EC3
:10293000F11CC430D10509F0BDCF0E94BF0F8091BA
:102940006901113031F4811102C083E006C0815069
:1029500004C090E001968370992780936901DF910C
:10296000CF911F910F91FF90EF90DF90CF90BF908C
:10297000AF900895EF92FF920F931F93CF93DF9341
:10298000E82FF0E0EA55FA4FC491809167019091E9
:1029900068010E943724EC2FF0E08E179F0708F49F
:1029A00064C00E941F24909368018093670180E0B7
:1029B00090E0FC01E55EFD4F1182108212820396C9
:1029C0008C309105B1F78BE1E82E82E0F82E0DE115
:1029D00012E0C0E0D0E080916601082E000C990B57
:1029E000C817D907ECF080910101082E000C990B53
:1029F0008C179D07ACF080911602881F8827881FCE
:102A000090911702592F550F97FB992790F997012D
:102A10004091190260911802852B0E94270E07C071
:102A2000F80131971082F7011082F8011082219687
:102A3000F3E0EF0EF11C0D5F1F4FC430D10559F6C6
:102A40000E94BF0F8091000190916601980F9093B2
:102A5000660120910101280F20930101121614F440
:102A600093301CF0819580930001DF91CF911F91ED
:102A70000F91FF90EF900895EF92FF920F931F93A5
:102A8000CF93DF9380916401909165010E94372478
:102A9000883E9340D0F10E941F249093650180935B
:102AA0006401C0916201D09163012196C170DD275C
:102AB000D0936301C09362018BE1E82E82E0F82E8F
:102AC00010E008E7812F8695FE01E80FF11DCF0188
:102AD0008170992797014091190260911802FC01B9
:102AE0000E9FC0010F9F900D11240E94270E1F5FA3
:102AF000F3E0EF0EF11C143029F7DF91CF911F9115
:102B00000F91FF90EF900C94BF0FDF91CF911F9129
:102B10000F91FF90EF900895CF93DF9300D01F9215
:102B2000CDB7DEB780916001909161010E9437249A
:102B3000E4EAF5E02591349182179307C0F1809182
:102B40005F0181110CC09E012F5F3F4F4FEF6FEF70
:102B500080E090E00E94270E8A8180935F010E94AE
:102B60001F24909361018093600180915E01813008
:102B700051F028F0823061F440915F010AC08091E9
:102B80005F0140E007C060915F0140E080E003C06A
:102B900040E080E060E00E94D60F80915E0190E00E
:102BA000019663E070E00E94AA3280935E010F906C
:102BB0000F900F90DF91CF9108950F931F93CF93B4
:102BC000DF9380915C0190915D010E943724843FE6
:102BD000914008F448C00E941F2490935D018093A7
:102BE0005C01CBE1D2E000E010E020915A0130918D
:102BF0005B018091160290911702023011051CF4BE
:102C0000232B79F002C0232B61F4881F8827881FAB
:102C1000592F550F97FB992790F99E014091190262
:102C20000AC0881F8827881F592F550F97FB99279F
:102C300090F99E0140E060911802852B0E94270EBA
:102C40000F5F1F4F23960430110579F60E94BF0FC6
:102C500080915A0190915B01019681709927909320
:102C60005B0180935A01DF91CF911F910F910895DD
:102C7000809177018823D9F190911602892F86954A
:102C80008F732EE3280F2F73243018F482500C9486
:102C900043132AE3280F2F73233018F486500C9423
:102CA0009A1327E3280F2F73263018F489500C94B9
:102CB000CA1321E3280F2F73263018F48F500C9479
:102CC00029142BE2280F2F73233018F485510C940C
:102CD000BA14892F8E77803311F40C943C15863406
:102CE00011F40C948C15883411F40C94DD150895AE
:102CF00025B1342F3095232335B1432B3FB7F894BA
:102D0000FC01680F791FE617F70789F0819198E0B9
:102D100045B9000000C087FF25B9880F000000C03A
:102D200000C000C025B900C09A9591F7ECCF3FBF15
:102D3000089524B1242B24B99B01220F331F620F65
:102D4000731F0E94781687EC90E00197F1F700C09E
:102D50000000089542E00C94991690937E018093B0
:102D60007D010895E0917D01F0917E01309721F081
:102D70000190F081E02D099480E00895EF92FF9298
:102D80000F931F93CF93DF93E0917D01F0917E012C
:102D90003097B1F18C010280F381E02D099580918B
:102DA000050282FF2DC080FF04C088EC96E00E94DF
:102DB0000307E80118E082ECE82E86E0F82E809107
:102DC000050280FF0BC088811F928F93FF92EF92C4
:102DD0000E949C070F900F900F900F90115021961A
:102DE0001111EDCF8091050280FF0AC080EC96E0C2
:102DF000DF91CF911F910F91FF90EF900C940307FB
:102E0000DF91CF911F910F91FF90EF900895209146
:102E10007B0130917C018217930771F090937C01C4
:102E200080937B01E0917D01F0917E01309721F04C
:102E30000680F781E02D0994089520917901309161
:102E40007A018217930771F090937A018093790148
:102E5000E0917D01F0917E01309721F00084F185B1
:102E6000E02D0994089585B7806885BF85B780688F
:102E700085BF0895089508950C943B1708950C9408
:102E80003E170E9433170E943A170C943C1781E0BA
:102E900008950E9416240E94CF0C0E94AB240E9429
:102EA0009A120C943F17CF93C82F8091050282FF8E
:102EB0001EC080FF04C081EE96E00E94030780914F
:102EC000050280FF0CC01F92CF938CED96E09F937C
:102ED0008F930E949C070F900F900F900F908091FE
:102EE000050280FF04C08AED96E00E9403078C2F44
:102EF000CF910C94BA07CF92DF92EF92FF920F938B
:102F00001F93CF93DF93CDB7DEB72B970FB6F8940F
:102F1000DEBF0FBECDBF0E94170D0E944717811163
:102F200011C08FEF89838A831B820E941F248160D6
:102F3000782F9D838C8349815A816B818D810E947A
:102F4000211856C080E8C82E81E0D82E00E010E09D
:102F5000E02E802F0E94A40DF60141916F01F42E06
:102F6000F82631F40F5F1F4F0A30110589F7D9CFCA
:102F70009091050291FF04C08B870E94AA0D8B855A
:102F800020E030E04F2D50E0922FBA01022E02C017
:102F9000759567950A94E2F760FF24C02E83EF824F
:102FA00021E030E0690102C0CC0CDD1C9A95E2F70B
:102FB00090E08C219D21892B09F420E028870E9434
:102FC0001F248160782F9A8789874E815F81688569
:102FD0008A850E942118F801E058FE4F8081C8269A
:102FE000C08206C02F5F3F4F2730310569F6BACF48
:102FF00010917F010E94B2161817A1F00E94B2161C
:1030000080937F012B960FB6F894DEBF0FBECDBF25
:10301000DF91CF911F910F91FF90EF90DF90CF90B4
:103020000C9453172B960FB6F894DEBF0FBECDBF8E
:10303000DF91CF911F910F91FF90EF90DF90CF9094
:103040000895CF93DF93CDB7DEB72B970FB6F894E3
:10305000DEBF0FBECDBF4F83588769877A878B87C6
:10306000DE01119686E0FD0111928A95E9F785E06F
:10307000FE01379601900D928A95E1F749815A81B8
:103080006B817C818D819E810E940A1F2B960FB6D9
:10309000F894DEBF0FBECDBFDF91CF910895FC0144
:1030A000808191810E94D6210895CF93DF931F9252
:1030B000CDB7DEB7882309F423C1682F8238C1F465
:1030C0000E94B21681FD1CC169E380910D019091AF
:1030D0000E010E948E230E9461222FEF81EE94E068
:1030E000215080409040E1F700C0000069E319C022
:1030F000833811F50E94B21680FD02C163E580910C
:103100000D0190910E010E948E230E9461222FEFEB
:1031100081EE94E0215080409040E1F700C0000033
:1031200063E580910D0190910E010E9490230F9014
:10313000DF91CF910C9461228438C1F40E94B216C1
:1031400082FDDEC067E480910D0190910E010E9426
:103150008E230E9461222FEF81EE94E02150804067
:103160009040E1F700C0000067E4DBCF8CEF860FF2
:10317000813A70F4862F69830E9447276981811103
:10318000BFC080910D0190910E010E948E23CFCF80
:1031900080E2860F883048F4677081E001C0880FB4
:1031A0006A95EAF70E941822C2CF8BE5860F83301A
:1031B00088F4653A29F0663A31F083E890E005C07A
:1031C00081E890E002C082E890E00F90DF91CF911B
:1031D0000C94071788E5860F873108F091C0683A8C
:1031E00009F445C0693A09F445C06A3A09F445C092
:1031F0006B3A09F445C06C3A09F445C06B3B09F4DD
:1032000045C06C3B09F445C06D3A09F445C0603BCC
:1032100009F445C06E3A09F445C06F3A09F445C057
:10322000613B09F445C0623B09F445C0633B09F4C6
:1032300045C0643B09F445C0653B09F445C0663BA5
:1032400009F445C0673B09F445C0683B09F445C033
:10325000693B09F445C06D3B09F445C06E3B09F478
:1032600045C06A3B09F445C080E090E044C082EE6E
:1032700090E041C089EE90E03EC08AEE90E03BC015
:1032800085EB90E038C086EB90E035C083EB90E0B2
:1032900032C084EB90E02FC087EB90E02CC08CEC28
:1032A00090E029C08DEC90E026C083E891E023C037
:1032B0008AE891E020C082E991E01DC084E991E0B4
:1032C0001AC081E292E017C083E292E014C084E267
:1032D00092E011C085E292E00EC086E292E00BC05F
:1032E00087E292E008C08FE690E005C080E790E0BA
:1032F00002C08AE292E00F90DF91CF910C941D17EB
:103300000F90DF91CF910895882309F45BC0682F57
:10331000823879F40E94B21681FF54C069E380912B
:103320000D0190910E010E948E230E94612269E39B
:1033300010C08338B1F40E94B21680FF43C063E529
:1033400080910D0190910E010E948E230E946122B6
:1033500063E580910D0190910E010E9490230C94E1
:103360006122843879F40E94B21682FF2BC067E490
:1033700080910D0190910E010E948E230E94612286
:1033800067E4E7CF8CEF860F813A18F380E2860F6F
:10339000883048F4677081E001C0880F6A95EAF7C9
:1033A0000E941E22DCCF8BE5860F833020F480E064
:1033B00090E00C940717685A673120F480E090E0A1
:1033C0000C941D170895882321F00E9418220C9454
:1033D00061220895882321F00E941E220C9461220C
:1033E00008954F925F926F927F92BF92CF92DF9239
:1033F000EF92FF920F931F93CF93DF937C01D62F11
:10340000C72FFC01058102950F70128111110E94D6
:1034100035220E940E22882379F0112369F080E280
:103420008D0F883048F082E00E94AC220E940E226C
:1034300091E0B82EB92601C0B12CCC2EC2948FE0F9
:10344000C822D12CF601E859FF4F0C94BE328C2FC4
:10345000807FCF70882311F0C295C07F112399F02F
:10346000CC2309F48DC180E28D0F883010F0D1118A
:1034700004C08C2F0E94182203C08C2F0E94282287
:103480000E9461227DC18D2F0E948419CC2309F4F2
:103490009CC180E28D0F883010F0D11104C08C2FB8
:1034A0000E941E2203C08C2F0E942E220E946122A5
:1034B0008CC18C2F807FCF70803211F0C295C07F7D
:1034C000DD2319F0D130C9F022C0112371F000239F
:1034D00041F0013031F40E9448228C2B0E944E2290
:1034E00074C10E9448228C2B04C1002319F00130C2
:1034F00009F46BC10E94572218C0112321F0063035
:1035000008F063C10EC0053008F05FC10EC0112382
:1035100051F0002331F0F701858180FF31C18F70B8
:1035200085838C2FE6C001113CC18C2FE8C08C2F05
:1035300086958695837090E0009719F0019761F069
:1035400044C1112321F08D2F9C2F937002C080E085
:1035500090E00E94071749C1112321F08D2F9C2F65
:10356000937002C080E090E00E941D173EC18C2F36
:10357000837009F050C0111134C18D2F829586954A
:103580008770880F880F9D2F9F70492E512C612CBA
:10359000712C082E04C0440C551C661C771C0A9420
:1035A000D2F7D4FF14C00FE010E020E030E0B90102
:1035B000A80104C0440F551F661F771F8A95D2F7D4
:1035C000CB01BA01609570958095909503C060E03D
:1035D00070E0CB01C695C695C370D0E0C230D1056E
:1035E00061F0C330D10581F06429752986299729B6
:1035F000219771F00E944F20F4C064297529862913
:1036000097290E946120EDC00E944F20C301B201A2
:103610000E943D20E6C0112319F08C2F817001C05B
:103620008695882309F4DDC08D2F82958695877055
:10363000880F880F9D2F9F70492E512C612C712C63
:10364000082E04C0440C551C661C771C0A94D2F743
:10365000D4FF14C00FE010E020E030E0B901A80171
:1036600004C0440F551F661F771F8A95D2F7CB0100
:10367000BA01609570958095909503C060E070E008
:10368000CB01C695C695C3704C2F50E04230510512
:1036900069F04330510589F06429752986299729F5
:1036A0004130510571F00E9415219BC06429752994
:1036B000862997290E94272194C00E941521C301C1
:1036C000B2010E9403218DC08D2F90E0FC01E05ECD
:1036D000F109E531F10508F04FC0E858FF4F0C94AF
:1036E000BE32DF708C2F8F71112331F00E949C202D
:1036F0008D2F0E94E31969C00E94BD208D2F0E946A
:10370000EA1963C0112341F0053008F05EC08C2F28
:103710008F710E94E22059C0063008F056C0F7CFE2
:10372000112339F08C2F8F710E949C204EC01123E1
:10373000C9F38C2F8F710E94BD2047C0112329F03F
:103740008C2F8F710E94872040C00E9482203DC034
:10375000112349F0CF718C2F0E949C2063E08C2FA5
:103760000E94972232C081E00E94AC22023068F1B0
:1037700082E00E94AC2229C0112331F0002391F293
:103780008D2F0E94551821C0002399F2D93349F496
:103790005FEF67EE73E0515060407040E1F700C0AA
:1037A00000008D2F0E94841910C04C2F4F706D2F78
:1037B000C7010E94560A0E94AE1F17C04C2F4F70BF
:1037C0006D2FC7010E94590A10C088E0C816D104A5
:1037D00041F05CF0EAE0CE1AD108F2E0CF16D10455
:1037E00020F40E94B2160E94BA07BB20F1F00E949A
:1037F0000A2280FD1AC0F70112820E9404220E9450
:103800009C20C7010E94231C0E940422DF91CF91BB
:103810001F910F91FF90EF90DF90CF90BF907F901E
:103820006F905F904F900C94BD20DF91CF911F91CE
:103830000F91FF90EF90DF90CF90BF907F906F90AF
:103840005F904F9008950F931F93CF93DF93EC01F8
:10385000888199812B813C81232BB9F09F3F11F402
:103860008F3F99F0CE010E94CC07882371F06881C8
:1038700079818A810E94E1218C010E9439210E9474
:103880003A20B801CE010E94F119DF91CF911F912A
:103890000F9108950E9435220E9445220E946122C4
:1038A00080E090E00E94071780E090E00C941D17E4
:1038B00080910D0190910E010E9492230C944A1C5C
:1038C0000E9425220C94581CE92FE295EF70F0E03D
:1038D0003297EE30F105B0F4E357FF4F0C94BE324F
:1038E000803F91F018F4803E68F40EC0843F51F49C
:1038F0000BC0803E48F0813F29F406C093FB882727
:1039000080F9089580E0089581E008950E94D6210D
:103910000E94641C0895CF93DF9300D000D01F92C3
:10392000CDB7DEB70F900F900F900F900F90DF91F3
:10393000CF910895CF93DF9300D000D000D0CDB7C2
:10394000DEB726960FB6F894DEBF0FBECDBFDF916F
:10395000CF9108951F93CF93DF93C0918B0116E011
:1039600080918C01C81799F0D0E01C9FF0011D9F39
:10397000F00D1124E357FE4F408151816281738124
:10398000848195810E949A1C2196C770E9CFDF91AE
:10399000CF911F9108954091BD015091BE0160915A
:1039A000BF017091C0018091C1019091C2010C943E
:1039B0009A1C8091C20182958F7009F054C0809149
:1039C000BF01882309F44FC080918B01A0918C0125
:1039D0006091BD017091BE014091C0015091C10143
:1039E000B6E08A1709F43FC090E041155105C1F1D6
:1039F0007F3F11F46F3FA1F1B89FF001B99FF00D27
:103A00001124E357FE4F218172132AC020816213D3
:103A100027C02281211124C0238134812417350736
:103A200010F421503109241B350B283C3105C0F41A
:103A30002091C2012F7020612093C20126E0289FAF
:103A4000F001299FF00D1124EE56FE4F80818F70FA
:103A5000806180838DEB91E00E94231C0C94AA1C52
:103A600001968770BECF0895CF92DF92EF92FF92BA
:103A70000F931F93CF93DF93CDB7DEB762970FB647
:103A8000F894DEBF0FBECDBF8C0185E0F801DE01EA
:103A90001D9601900D928A95E1F7D8014C911196EF
:103AA0005C91119712966C9112971396CD90DC90C1
:103AB00014973091BD017091BE018091C001909129
:103AC000C101009709F46BC17F3F19F43F3F09F42E
:103AD00066C1E090BF01EE2009F4C0C02091C20190
:103AE000C816D90628F0F601E81BF90BCF0104C06F
:103AF000809590958C0D9D1DFF24F394883C910535
:103B000078F0F12C207F09F0C6C07C2DD98AC88AB4
:103B100089890E948B1C8DEB91E00E94231CB1C00F
:103B2000822F807F09F046C0751314C0341312C071
:103B3000611110C02F7020612093C2010E94CB1C24
:103B40008DEB91E00E94231C8091C201D801159653
:103B50008C932EC0CD2819F15F3F11F44F3FF9F03F
:103B6000F62E61111CC080918B0120918C0136E0F2
:103B7000821709F45AC090E0389FF001399FF00D88
:103B80001124E357FE4F7181571306C0708147130C
:103B900003C07281711103C001968770E9CFF62EC0
:103BA000662309F427C18091C20181608093C2011C
:103BB000F12C20C1751308C0341306C0611104C074
:103BC0008091C201D801C3C04D875E878D859E85D7
:103BD0006A8B0E94861C6A898823E1F16623D1F1F1
:103BE0002091C201822F82958F7090E0029774F02D
:103BF0008091BD019091BE0198878F831986DB86E5
:103C0000CA862C87CE0107960E94231C86E0F80105
:103C1000ADEBB1E001900D928A95E1F70E94D91CBD
:103C20000E94CB1CFF24F394E5C04D875E878D85F1
:103C30009E850E94D621292F22952F7030E02230B8
:103C400031050CF0CBC09F7009F0C5C0805E883094
:103C500008F4D0C0C8010E94231CE4CFC816D906BE
:103C600008F453C0F601E81BF90BCF01883C91051D
:103C700008F450C0F12C7C2DD98AC88A89890E9409
:103C80008B1CEDEBF1E086E0DF011D928A95E9F7F0
:103C90000E94CB1CAFC0751314C0341312C0611145
:103CA00010C08091C201F8018583C8010E94231CC5
:103CB00086E0EDEBF1E0DF011D928A95E9F7FE2C3D
:103CC00099C04D875E878D859E856A8B0E94861C74
:103CD0006A89882309F4BECF662309F4BBCF2091FB
:103CE000C201822F82958F7090E002970CF48ECFE4
:103CF0008091BD019091BE019A8389831B82DD82F0
:103D0000CC822E83CE0101967FCF809590958C0D2D
:103D10009D1DACCFF62E662309F49CCF75132EC0E3
:103D200034132CC02091C20120FD1FC0822F829528
:103D30008F70D9F0D80115962C9315978F3049F0D4
:103D40008F5F982F9295907F822F8F70892B159679
:103D50008C93C8010E94231C86E0F801ADEBB1E012
:103D600001900D928A95E1F793CF86E0F801ADEBD3
:103D7000B1E001900D928A95E1F73CC04D875E87D6
:103D80008D859E850E94861C811140CF8091C20145
:103D900081608093C201C8010E94231C2BC066234E
:103DA00009F458CF4D875E878D859E850E94861CBD
:103DB000F82E882309F44ECF86E0F801ADEBB1E090
:103DC00001900D928A95E1F78DEB91E00E944F18DA
:103DD0000E94D91C5DCF811139CF0CC02430310530
:103DE0000CF038CF9F7009F431CFF8019581907FA6
:103DF00009F02CCF8F2D62960FB6F894DEBF0FBE60
:103E0000CDBFDF91CF911F910F91FF90EF90DF9089
:103E1000CF9008951F93CF93DF93CDB7DEB72C9744
:103E20000FB6F894DEBF0FBECDBF4F8358876987AA
:103E30007A878B879C87CE0107960E94341D882342
:103E400069F08F8198852A853B85232BF1F19F3F6F
:103E500009F063C08F3F09F060C037C086E0FE0103
:103E60003796DE01119601900D928A95E1F76F81E8
:103E70007885EA85FB85309741F17F3F11F46F3FEC
:103E800021F120918C0130E0C901019687709927BA
:103E900040918B0150E08417950709F447C069836E
:103EA0007A83FD83EC8396E0929FD001939FB00DBF
:103EB0001124A357BE4FFE01319601900D929A95A1
:103EC000E1F780938C010E94AA1C16E080918B017F
:103ED00090918C018917C1F1189FC001112483575B
:103EE0009E4F0E94341D882379F1E0918B011E9F23
:103EF000F0011124E357FE4F4081518162817381AB
:103F0000848195810E949A1C80918B0190E001969A
:103F10008770992780938B01D9CF4F815885698508
:103F20007A858B859C850E949A1CCFCF0E94601C4D
:103F300010928C0110928B01EDEBF1E086E0DF0135
:103F40001D928A95E9F7C1CF2C960FB6F894DEBF83
:103F50000FBECDBFDF91CF911F910895EF92FF92D9
:103F60000F931F93CF93DF938C01892B09F46CC0BF
:103F7000F12CEE24E394E8012196F8018491843732
:103F800040F4843008F051C0813081F0823019F162
:103F90005BC0853709F444C0A8F19CE7980F9037BF
:103FA00008F052C08F770E94841941C00E5F1F4FE6
:103FB000FE01C49180E28C0F883048F4C7708E2DCA
:103FC00001C0880FCA95EAF70E94382214C08C2FCE
:103FD0000E9455182DC00E5F1F4FFE01C49180E254
:103FE0008C0F883058F4C7708E2D01C0880FCA9589
:103FF000EAF70E943E220E9461221AC08C2F0E9482
:10400000841916C00E5F1F4FFE01C491CC2381F0AE
:104010008FE99FE00197F1F700C00000C150F6CF93
:104020000E5F1F4FFE01F49003C00E9455188E01D1
:104030008F2D882309F49FCFEFE9FFE03197F1F747
:1040400000C000008150F5CFDF91CF911F910F91FB
:10405000FF90EF90089508950C942B200E942C203F
:104060006093F4017093F5018093F6019093F7014A
:104070000C944A1C08950C942E200F931F930091CA
:10408000F4011091F5012091F6013091F701602BB8
:10409000712B822B932B1F910F910C942E200F9339
:1040A0001F930091F4011091F5012091F6013091D8
:1040B000F70160237123822393231F910F910C94A6
:1040C0002E200F931F930091F4011091F501209180
:1040D000F6013091F70160277127822793271F91FE
:1040E0000F910C942E2008950C9473200E9474203C
:1040F0006093F0017093F1018093F2019093F301CA
:104100000C944A1C60E070E0CB010C9476200F9375
:104110001F9341E050E060E070E08A019B0104C021
:10412000000F111F221F331F8A95D2F7C901B80152
:104130001F910F910C9476200F931F9341E050E054
:1041400060E070E004C0440F551F661F771F8A951A
:10415000D2F78091F0019091F101A091F201B0911C
:10416000F3018A019B01082B192B2A2B3B2BC90138
:10417000B8011F910F910C9476200F931F9341E08B
:1041800050E060E070E004C0440F551F661F771FC9
:104190008A95D2F740955095609570958091F00181
:1041A0009091F101A091F201B091F3018A019B017C
:1041B000082319232A233B23C901B8011F910F911A
:1041C0000C9476200F931F9341E050E060E070E084
:1041D00004C0440F551F661F771F8A95D2F7809140
:1041E000F0019091F101A091F201B091F3018A01E7
:1041F0009B01082719272A273B27C901B8011F91CE
:104200000F910C9476200F931F930091F001109161
:10421000F1012091F2013091F301602B712B822B7F
:10422000932B1F910F910C9476200F931F93009165
:10423000F0011091F1012091F2013091F30160231E
:104240007123822393231F910F910C9476200F9357
:104250001F930091F0011091F1012091F201309132
:10426000F30160277127822793271F910F910C94E8
:104270007620089527E0929F800D1124A82FA695FF
:10428000A695A695877051E001C0550F8A95EAF76B
:1042900085E0A89FD001112420E030E070E0F90112
:1042A000EA0FFB1FED53FE4F4081CB01022E02C0EF
:1042B000969587950A94E2F78170992781958427CE
:1042C0008523842780832F5F3F4F2530310539F7C1
:1042D000089527E0929F800D1124682F66956695BA
:1042E0006695982F977085E0689FB001112440E093
:1042F00050E080E0FA01E60FF71FED53FE4F2081FA
:1043000030E0092E02C0369527950A94E2F7217015
:104310003327042E01C0220F0A94EAF7822B4F5F45
:104320005F4F4530510531F70895BF92CF92DF922C
:10433000EF92FF920F931F93CF93DF938C01C09066
:10434000F401D090F501E090F601F090F701809132
:10435000F0019091F101A091F201B091F301C82A0E
:10436000D92AEA2AFB2ACFE1D0E0D701C6010C2ED8
:1043700004C0B695A795979587950A94D2F780FFC4
:1043800007C0BC2EB8018C2F0E94740A019719F443
:10439000219758F7B12C8B2DDF91CF911F910F9161
:1043A000FF90EF90DF90CF90BF900895CF93DF9371
:1043B000EC010E949521BE010E94740ADF91CF9109
:1043C00008951F93CF93DF93EB0190918A01992376
:1043D00021F0CB010E94D62113C0882349F0CB01E4
:1043E0000E949521182F682FCE010E943A2104C007
:1043F000CB010E946921182FBE01812F0E94740AEF
:10440000DF91CF911F9108958091F8018595859551
:10441000859508958091F801877008959091F8012D
:10442000977081E009F480E0089580910402089576
:1044300090910402892B80930402089580959091B5
:1044400004028923809304020895109204020895BF
:1044500090910302892B8093030208958095909197
:1044600003028923809303020895109203020895A2
:1044700090910202892B8093020208958095909179
:104480000202892380930202089510920202089585
:104490008091F901089508950C944B229091F901AF
:1044A000981721F08093F9010C944C220895809183
:1044B000F901882329F01092F90180E00C944C2234
:1044C0000895E0910D01F0910E0180910402808326
:1044D000E0910D01F0910E01908180910302892BF2
:1044E0008083E0910D01F0910E0190818091020294
:1044F000892B80838091F901882381F0E0910D015F
:10450000F0910E019081892B808380910D01909113
:104510000E010E945C2381110E94572280910D019F
:1045200090910E010C94BE1608950C94942298E07C
:10453000899F90011124262B2093F8010E949C2032
:104540008091F8018595859585950C94952210921A
:10455000F80180E00C9495222091F8018095822347
:104560008093F801982F977079F430E0482F082E47
:10457000000C550B2417350739F0859585958595E1
:104580000E94BD200C94A722089590933B01809334
:104590003A0108958295982F9C7C392F369536954F
:1045A000282F237344E0249FC0011124932F982BBC
:1045B000292F2A7A2695892F8575880F822B0895B1
:1045C00080E090E00E94DF3221E08D3E9E4F09F0B6
:1045D00020E0822F089582E090E00C94D13283E0B5
:1045E00090E00C94D13284E090E00C94D132682FAA
:1045F00084E090E00C94E532AB01BC018FE090E0E8
:104600000C94F732AB01BC0183E190E00C94F732DB
:1046100060E070E0CB010C94022360E070E0CB011D
:104620000E94FC220C9408236DEE7EEF80E090E067
:104630000E94033360E082E090E00E94E53260E097
:1046400083E090E00E94E5321092F4011092F501AF
:104650001092F6011092F70160E084E090E00E9471
:10466000E53260E085E090E00E94E53260E086E0BF
:1046700090E00E94E5326FEF87E090E00E94E53223
:1046800040E050E0BA0188E090E00E94F73260E03C
:104690008DE090E00E94E53240E050E0BA0188E110
:1046A00090E00E94F73260E087E190E00E94E532FE
:1046B0000C940D230C941423FC01329697E080E0B7
:1046C000915029F021912223D9F38F5FF9CF0895DA
:1046D0009C01FC0132969FEF80E04191461789F0E2
:1046E0009F3F19F4411101C0982F8F5F8630A9F7C1
:1046F0009F3F39F0F901E90FF11D97FDFA956283AB
:1047000008950895FC01329608962081261301C071
:1047100010823196E817F907C1F708950C946823C1
:104720000C948223029626E0FC0111922A95E9F767
:10473000089508950C9499230E949A238091310240
:10474000843049F11092060220E488E190E00FB62F
:10475000F894A895809360000FBE2093600080E0DD
:104760000E94BA070E949A2383B7817F846083BF27
:1047700083B7816083BF7894889583B78E7F83BF2A
:104780000FB6F894A89580916000886180936000CE
:10479000109260000FBE089508950895CF930E946F
:1047A000CC230E94170D0E94CD23C0E08C2F0E94C5
:1047B000A40D811104C0CF5FCA30C1F701C081E0F0
:1047C000CF91089508950C94E2230E94601C0E94EA
:1047D000B2160E94BA070C94E3231F920F920FB6F1
:1047E0000F9211248F939F93AF93BF9380910602F2
:1047F000811113C08091270290912802A091290273
:10480000B0912A024196A11DB11D80932702909379
:104810002802A0932902B0932A02BF91AF919F91E1
:104820008F910F900FBE0F901F90189582E084BD5E
:1048300093E095BD9AEF97BD80936E0008952FB7D2
:10484000F8948091270290912802A0912902B091BA
:104850002A022FBF08952FB7F89460912702709114
:1048600028028091290290912A022FBF0895CF92A9
:10487000DF92EF92FF920F931F932FB7F89440911E
:104880002702509128026091290270912A022FBFBD
:104890006A017B01EE24FF248C0120E030E0C01689
:1048A000D106E206F30610F4415051099A01281B83
:1048B000390BC9011F910F91FF90EF90DF90CF90BE
:1048C000089578941F920F920FB60F9211248F9330
:1048D0009F93AF93BF938091270290912802A0915C
:1048E0002902B0912A020196A11DB11D80932702D1
:1048F00090932802A0932902B0932A02BF91AF910E
:104900009F918F910F900FBE0F901F90189581E08F
:104910008093E00080E28093D8001092C9008FE17C
:104920009EE40197F1F700C0000087E090EBDC0106
:1049300080933A0290933B02A0933C02B0933D02D5
:104940009CE088E10FB6F894A895809360000FBEB4
:1049500090936000FFCF0E94E022811102C00E946C
:104960005A230E94EB22809305020E94F32290E0DA
:1049700090932C0280932B020E94EF22682F70E00C
:1049800080E090E00C943B20CF93C82F1F928F9330
:104990008AEF96E09F938F930E949C0781E090E0BE
:1049A000A0E0B0E0BC01CD0104C0660F771F881FF6
:1049B000991FCA95D2F70E943B200F900F900F903D
:1049C0000F90CF910C94601CCF938B3109F4D1C11F
:1049D00008F067C18B3009F48AC108F03DC1863008
:1049E00009F488C120F4853009F496C144C28730A7
:1049F00009F4A4C1883009F03EC285EF9BE00E9413
:104A0000030786E49BE00E9403070E94EF221F92A7
:104A10008F9383E49BE09F938F930E949C0781E494
:104A20009BE00E9403070E94EB22C82F8EE29BE0CE
:104A30000E9403071F92CF9389E29BE09F938F937D
:104A40000E949C0787E29BE00E9403078DE19BE0A8
:104A50000E9403078C2F81701F928F938AE19BE045
:104A60009F938F930E949C0788E19BE00E9403071D
:104A70008EE09BE00E940307C1FB882780F91F920C
:104A80008F938BE09BE09F938F930E949C0789E01C
:104A90009BE00E9403078DEF9AE00E940307C2FB90
:104AA000882780F91F928F938AEF9AE09F938F93C4
:104AB0000E949C0788EF9AE00E9403078FEE9AE01D
:104AC0000E940307C3FBCC27C0F91F92CF938CEE43
:104AD0009AE09F938F930E949C078AEE9AE00E942F
:104AE00003070E94F322C82F86ED9AE00E94030775
:104AF0001F92CF9381ED9AE09F938F930E949C0722
:104B00008FEC9AE00E94030786EB9AE00E9403076D
:104B10008C2F81701F928F9383EB9AE09F938F93DA
:104B20000E949C078DB79EB780960FB6F8949EBFE3
:104B30000FBE8DBF81EB9AE00E9403078AE99AE0DD
:104B40000E940307C1FB882780F91F928F9387E992
:104B50009AE09F938F930E949C0785E99AE00E94B8
:104B6000030783E89AE00E940307C2FB882780F9C5
:104B70001F928F9380E89AE09F938F930E949C07E7
:104B80008EE79AE00E9403078CE69AE00E940307F2
:104B9000C3FB882780F91F928F9389E69AE09F9341
:104BA0008F930E949C0787E69AE00E9403078DE599
:104BB0009AE00E940307C4FB882780F91F928F9315
:104BC0008AE59AE09F938F930E949C0788E59AE07C
:104BD0000E94030786E49AE00E940307C5FB88272A
:104BE00080F91F928F9383E49AE09F938F930E94A2
:104BF0009C0781E49AE00E94030785E29AE00E9404
:104C00000307C6FB882780F91F928F9382E29AE000
:104C10009F938F930E949C0780E29AE00E94030773
:104C200088E19AE00E940307C7FBCC27C0F91F92D6
:104C3000CF9385E19AE09F938F930E949C0783E135
:104C40009AE00E9403078DB79EB74C960FB6F89472
:104C50009EBF0FBE8DBF49C0803109F4B4C020F49F
:104C60008E3009F49AC007C1863109F4C7C0893172
:104C700009F001C186E498E00E9403078DE298E004
:104C80000E94030786EF97E00E94030783EC97E0FA
:104C90000E94030786E997E00E94030788E697E0F1
:104CA0008FC08A32E1F060F4873209F4E0C028F462
:104CB0008E3108F4E0C08D51DBC0893269F1DBC070
:104CC000833448F48A3308F0D0C0853309F4CFC068
:104CD000883369F0D0C0833409F4C9C0CCC084EEF5
:104CE0009BE00E9403070E945A23C1E0C9C080E7ED
:104CF00098E066C080910502817F8E7F80930502D7
:104D000085E598E00E94030780EE9BE00E94030780
:104D100081E080930702E9CF0E94601C84EC9BE055
:104D20000E9403079FEF23ED80E3915020408040D5
:104D3000E1F700C000000E948724D7CF80910502D0
:104D4000C82FC095C170C0FB80F980930502CC23A9
:104D500029F088EB9BE00E94030792C08BEA9BE05E
:104D60000E94030780910502897F877F8093050257
:104D7000BCCF9091050291FBCC27C0F981E0C827F8
:104D8000892FC0FB81F980930502CC2319F08EE9AD
:104D90009BE029C080E99BE013C09091050292FB43
:104DA000CC27C0F981E0C827892FC0FB82F9809306
:104DB0000502CC2319F081E89BE015C081E79BE058
:104DC0000E94030792CF9091050293FBCC27C0F974
:104DD00081E0C827892FC0FB83F980930502CC238B
:104DE00051F085E69BE00E940307809105028160F7
:104DF0008093050245C088E59BE0E2CF8AE597E015
:104E00000E9403070E94B2161F928F9380E497E0DE
:104E10009F938F930E949C07809119011F928F93FB
:104E200089E297E09F938F930E949C0780911402E0
:104E30001F928F9386E197E09F938F930E949C0728
:104E40000E942B249F938F937F936F938FEF96E015
:104E50009F938F930E949C078DB79EB742960FB683
:104E6000F8949EBF0FBE8DBF40CF895301C080E034
:104E70000E94C4243ACF86E59BE00E940307C0E06D
:104E80008C2FCF91089580E0089580E00895CF930E
:104E9000C82F80910702882319F0813031F038C083
:104EA0000E9415228232B1F504C00E94152282327E
:104EB00061F48C2F0E944327811104C08C2F0E9423
:104EC000E42424C081E090E021C08C2F0E9445277B
:104ED00081111BC0C43189F018F4CB3029F010C007
:104EE000C93259F0C83361F485E598E00E940307A0
:104EF00086EF96E00E94030708C0109207020CC0DC
:104F000084EF96E00E94030707C081E0817006C02D
:104F10001092070280E002C080E0F8CFCF910895A0
:104F200080911302089508959FB7F89410920A0291
:104F30009FBF90913102943009F057C09091E900E1
:104F40009F703091EC00232F217030FD20E8922BD0
:104F500023E02093E9002091EB0020FF43C0209143
:104F6000EE0027FF3FC020910802222321F020916C
:104F7000E80025FF37C01092080226E03091E800D3
:104F800035FD15C030913102343061F53091EB00C0
:104F900035FD28C0215021F481E08093080222C011
:104FA000EFE9FFE03197F1F700C00000E7CF809311
:104FB000F1008091E80085FD0AC08091E80080FF43
:104FC000FCCF8091E8008E778093E80006C08FB711
:104FD000F89421E020930A028FBF9F709093E9001C
:104FE00080E008959F709093E9008FEF08950F93EC
:104FF0001F93CF93DF9300D01F92CDB7DEB78C0104
:105000000E94892A823011F0843021F584E089835E
:105010001B830A8382E08093E9008FEF9091E80080
:10502000815095FD06C095ED9A95F1F7000081112C
:10503000F5CF8091E80085FF0DC040E050E063E0CF
:1050400070E0CE0101960E94A62A8091E8008E773A
:105050008093E8000F900F900F90DF91CF911F91F8
:105060000F910895CF93DF9300D01F92CDB7DEB795
:1050700020913102243031F523E0298380589109B1
:105080009B838A8382E08093E9008FEF9091E80010
:10509000815095FD06C095ED9A95F1F700008111BC
:1050A000F5CF8091E80085FF0DC040E050E063E05F
:1050B00070E0CE0101960E94A62A8091E8008E77CA
:1050C0008093E8000F900F900F90DF91CF9108959B
:1050D000CF93DF93EC010E94892A823011F0843053
:1050E00039F581E08093E9008FEF9091E8008150DD
:1050F00095FD06C095ED9A95F1F700008111F5CF69
:105100008091E80085FF14C040E050E068E070E066
:10511000CE010E94A62A8091E8008E778093E80055
:1051200088E0FE01ABE0B2E001900D928A95E1F7D4
:10513000DF91CF91089585E29CE00E940307809162
:105140003002811109C00E943B2C0E94982C809152
:10515000E20084608093E200089581E29CE00E9476
:1051600003071092300208958DE19CE00C94030730
:1051700089E19CE00C94030785E19CE00E94030711
:105180000C94E523209109022F5F822F62E30E9495
:105190008A32992319F02093090208951092090286
:1051A00080910A02882371F180913102843041F5A7
:1051B0008091E9008F702091EC00922F917020FD7A
:1051C00090E8892B93E09093E9009091EB0090FF99
:1051D00014C09091EE0097FF10C09091E80095FFE9
:1051E00003C01092F100F9CF9091E80090FF05C044
:1051F0009091E8009E779093E8008F708093E9008B
:1052000010920A02089542E061EC81E00E94B52B01
:1052100042E261EC82E00E94B52B42E261EC83E065
:105220000C94B52B80913302833009F460C030F4C4
:10523000813071F0823009F499C008958A3009F400
:1052400085C08B3009F46BC0893009F0A7C020C03D
:1052500080913202813A09F0A1C08091E800877FF5
:105260008093E8008091360290913702892B21F4D7
:1052700068E08BE092E003C060E080E090E070E0E6
:105280000E94F12A8091E8008B778093E8000895CE
:1052900080913202813209F081C080913602909172
:1052A0003702029708F07AC08091E800877F8093E8
:1052B000E8008091E80082FD05C0809131028111F3
:1052C000F8CF6CC02091F3008091F20090E0922B17
:1052D000029729F48091F1008B7F813021F4809135
:1052E000F100809313028091E8008B7753C0809186
:1052F0003202813A09F052C0809136029091370211
:10530000892B09F04BC08091E800877F8093E800EB
:105310008091E80080FFFCCF8091190136C0809118
:1053200032028132D9F58091360290913702892B71
:10533000A9F58091E800877F8093E8000E94EA2B1E
:1053400080913402809319010C94601C8091320288
:10535000813221F58091E800877F8093E8000E94E8
:10536000EA2B8091350280931402089580913202D5
:10537000813AA1F48091E800877F8093E8008091D2
:10538000E80080FFFCCF809114028093F1008091AF
:10539000E8008E778093E8000C94EA2B089584B798
:1053A000877F84BF0FB6F894A895809160008861CC
:1053B00080936000109260000FBE80E880936100CF
:1053C000109261000E9441170E943B2C0E94982C71
:1053D0008091E20084608093E20084E997E20E9479
:1053E000C52278940E94262F0E9449178FE091E0F1
:1053F0000E94AD1684E09CE00E9403078091310278
:10540000853089F480E09CE00E9403070E949C2381
:1054100080912F02882391F30E94CE23882371F379
:105420000E94902AEBCF0E947B170E943816E6CF8D
:105430000C941A2A292F332723303105C9F064F43C
:105440002130310581F02230310509F049C08BE56A
:1054500090E027E53CE048C02132310521F12232BD
:10546000310571F13DC082E190E022EB3CE03CC0AF
:1054700099278130910571F02CF4892B89F5E3E5AA
:10548000FCE00DC08230910541F0039749F5E9E257
:10549000FCE005C0E1E4FCE002C0EFE2FCE0849146
:1054A00090E09F0121C063307105D0F4660F771F33
:1054B000FB01EC5CFE4F2081318189E090E014C05B
:1054C0006330710568F4FB01EE0FFF1FE25DFE4FD4
:1054D00020813181FB01E55DFE4F808190E004C0B9
:1054E00080E090E020E030E0FA01318320830895ED
:1054F0000895CF93C82F0E94782AC0931502CF91A8
:10550000089580913102843011F081E0089582E0A5
:10551000089580911502811102C00C94812A08958A
:1055200080E189BD82E189BD09B400FEFDCF809193
:10553000D8008F7D8093D8008091E00082608093B6
:10554000E0008091E00081FDFCCF0895CF92DF92D2
:10555000EF92FF920F931F93CF93DF93EC018B0198
:105560006A010E94092C811133C0C114D10439F0A1
:10557000F60180819181081B190BC80FD91FE12CFE
:10558000F12C0115110519F18091E80085FD16C077
:105590008091E8008E778093E800C114D10449F02F
:1055A000F60180819181E80EF91EF182E08285E0AA
:1055B0000FC00E94092C882321F30AC0899180938F
:1055C000F10001501109FFEFEF1AFF0ADACF80E076
:1055D000DF91CF911F910F91FF90EF90DF90CF90CF
:1055E000089520913802309139022617370748F084
:1055F0006115710539F42091E8002E772093E800B9
:1056000001C0B90140E061157105A9F12091310295
:10561000222309F443C0253009F442C02091E80058
:1056200023FD40C02091E80022FD32C02091E80017
:1056300020FFE9CF4091F3002091F20030E0342BBD
:10564000FC01CF016115710559F02830310540F496
:1056500081918093F100615071092F5F3F4FF1CF2D
:1056600041E02830310509F040E02091E8002E7734
:105670002093E800C8CF4111C9CF0AC08091310200
:10568000882361F0853061F08091E80083FD0AC0D5
:105690008091E80082FFF2CF80E0089582E00895D3
:1056A00083E0089581E00895209138023091390215
:1056B0002617370748F06115710539F42091E80085
:1056C0002E772093E80001C0B901FC0120E06115AC
:1056D000710591F180913102882309F440C0853031
:1056E00009F43FC08091E80083FD3DC08091E8004F
:1056F00082FD2FC08091E80080FFE9CF2091F30068
:105700008091F20090E0922B6115710559F088307C
:10571000910540F424912093F10031966150710974
:105720000196F2CF21E0089709F020E08091E8008F
:105730008E778093E800CBCF2111CCCF0AC0809127
:105740003102882361F0853061F08091E80083FDAB
:105750000AC08091E80082FFF2CF80E0089582E0E5
:10576000089583E0089581E00895982F973058F5C3
:105770009093E900981739F07091EC002091ED00BA
:105780005091F00003C0242F762F50E021FF19C064
:105790003091EB003E7F3093EB003091ED003D7F88
:1057A0003093ED003091EB0031603093EB0070935B
:1057B000EC002093ED005093F0002091EE0027FFC5
:1057C00007C09F5FD3CF8F708093E90081E0089579
:1057D00080E008958091320287FF11C08091E80037
:1057E00082FD05C0809131028111F8CF11C08091F6
:1057F000E8008B770BC080913102882349F08091BB
:10580000E80080FFF8CF8091E8008E778093E80071
:1058100008952091E4003091E50095E64091EC0078
:10582000842F817040FF22C08091E80080FD1CC061
:1058300080913102882391F0853091F08091EB00C6
:1058400085FD10C04091E4005091E50042175307D8
:1058500029F39A01915011F784E0089582E00895A8
:1058600083E0089581E0089580E008954091E80084
:1058700042FFDECF08950E94A92C0E94B12CE0EED9
:10588000F0E0808181608083E8EDF0E080818F77B7
:10589000808319BCA7EDB0E08C918E7F8C938081C2
:1058A0008F7E80831092300208950F931F93CF93C1
:1058B000DF930E94A92C0E94B12CC8EDD0E0888112
:1058C0008F77888388818068888388818F7D8883AB
:1058D00019BC1092310210922D0210922F021092D8
:1058E0002E0200EE10E0F80180818B7F808388819A
:1058F0008160888342E060E080E00E94B52BE1EEA9
:10590000F0E080818E7F8083E2EEF0E08081816034
:105910008083808188608083F80180818E7F80838E
:10592000888180618883DF91CF911F910F910895C5
:10593000E8EDF0E080818F7E8083E7EDF0E080810C
:105940008160808384E082BF81E0809330020C9488
:10595000552CE8EDF0E080818E7F80831092E2008C
:1059600008951092DA001092E10008951F920F92AC
:105970000FB60F9211242F933F934F935F936F9322
:105980007F938F939F93AF93BF93EF93FF938091F8
:10599000E10082FF0BC08091E20082FF07C080918E
:1059A000E1008B7F8093E1000E94C2288091DA00A1
:1059B00080FF1FC08091D80080FF1BC08091DA005B
:1059C0008E7F8093DA008091D90080FF0DC080E146
:1059D00089BD82E189BD09B400FEFDCF81E08093DD
:1059E00031020E949B2805C019BC109231020E940E
:1059F000AD288091E10080FF19C08091E20080FF16
:105A000015C08091E2008E7F8093E2008091E200D9
:105A100080618093E2008091D80080628093D800FA
:105A200019BC85E0809331020E94B8288091E10082
:105A300084FF30C08091E20084FF2CC080E189BDEA
:105A400082E189BD09B400FEFDCF8091D8008F7D31
:105A50008093D8008091E1008F7E8093E100809157
:105A6000E2008F7E8093E2008091E200816080936B
:105A7000E20080912D02882311F084E007C080911C
:105A8000E30087FD02C081E001C083E08093310222
:105A90000E94BC288091E10083FF29C08091E20030
:105AA00083FF25C08091E100877F8093E10082E041
:105AB0008093310210922D028091E1008E7F8093BD
:105AC000E1008091E2008E7F8093E2008091E2000D
:105AD00080618093E20042E060E080E00E94B52BAC
