:100000000C942C080C947E080C947E080C947E08AA
:100010000C947E080C947E080C947E080C947E0848
:100020000C947E080C947E080C9457210C94932019
:100030000C94C0270C947E080C947E080C947E08C7
:100040000C947E080C947E080C947E080C947E0818
:100050000C947E080C9464270C947E080C947E0803
:100060000C947E080C947E080C947E080C947E08F8
:100070000C947E080C947E080C947E080C947E08E8
:100080000C947E080C947E080C947E080C947E08D8
:100090000C947E080C947E080C947E080C947E08C8
:1000A0000C947E080C947E080C947E08A21EC91E37
:1000B0007520C91E7520151F381F75203D204C2046
:1000C00041545A0041542B424C45504F5745524CD5
:1000D0004556454C3D2D31320041542B424C45484C
:1000E0004944454E3D310041542B4741504445560B
:1000F0004E414D453D6361637475735F73706C6908
:10010000745F626C650041542B474150494E544521
:100110005256414C533D31302C33302C2C0041543D
:10012000453D3000646F6E652E0A00626F6F746D1E
:1001300061676963207363616E3A202E2E2E200062
:100140000A0025303862003A200025303258000A73
:10015000722F632030313233343536370A000A00CB
:1001600025303258006B6579626F6172645F736528
:10017000745F6C65643A20006661696C6564204256
:100180004C4520636F6D6D616E643A2025533A20B3
:1001900025730A001E010601E700D900C400C00053
:1001A0000706050401002022232425212A2A2A2AC1
:1001B0002A2A20424C4520444953434F4E4E454342
:1001C00054212121210A002A2A2A2A2A2A20424CA3
:1001D0004520434F4E4E454354212121210A0041E1
:1001E000542B474150474554434F4E4E0041542BEA
:1001F0004556454E54454E41424C453D30783200BF
:1002000041542B4556454E54454E41424C453D3098
:100210007831004B6579626F61726420737461722A
:10022000742E0A0000000000000000000000000022
:1002300000000000000000000000000000000000BE
:1002400000000000000000000000000000000000AE
:10025000000000000000000000000000000000009E
:10026000000000000000000000000000000000008E
:10027000000000000000000000000000000000007E
:10028000000000000000000000000000000000006E
:10029000000000000000000000000000000000005E
:1002A000000000000000000000000000000000004E
:1002B000000000000000000000000000000000003E
:1002C0000000000000010101010101000101010124
:1002D000000000000000000000000000000001001D
:1002E00001000101010101010101010101010101FF
:1002F00001010101010101010101010101010100EF
:1003000000000101000000000000000000000000EB
:1003100000000000000000000000000000000001DC
:100320000101010000000000000000002A2B28004D
:100330000000000000000000000000000000002994
:10034000000000002C1E3420212224342627252ED4
:10035000362D3738271E1F2021222324252633330C
:10036000362E37381F0405060708090A0B0C0D0E38
:100370000F101112131415161718191A1B1C1D2F04
:100380003130232D350405060708090A0B0C0D0E24
:100390000F101112131415161718191A1B1C1D2FE4
:1003A0003130354C68747470733A2F2F716D6B2E29
:1003B000666D2F012800514D4B20697320746865CC
:1003C0002062657374207468696E67206576657253
:1003D000210044454255473A2064697361626C6567
:1003E000642E0A0044454255473A20656E61626CAE
:1003F00065642E0A00290A002575002F0025750066
:100400005D2800256400200025640020002564008C
:1004100020002564007C0025303258006D6F757314
:10042000656B6579205B62746E7C7820792076201C
:10043000685D287265702F61636C293A205B000A41
:10044000002575002E6E6B726F3A20000A0025752C
:10045000002E737761705F6261636B736C617368A8
:100460005F6261636B73706163653A20000A002507
:1004700075002E737761705F67726176655F657373
:10048000633A20000A002575002E6E6F5F6775695C
:100490003A20000A002575002E737761705F726143
:1004A0006C745F726775693A20000A002575002E2A
:1004B000737761705F6C616C745F6C6775693A200B
:1004C000000A002575002E737761705F7263746C8B
:1004D0005F726775693A20000A002575002E7377F0
:1004E00061705F6C63746C5F6C6775693A20000AB9
:1004F000002575002E636170736C6F636B5F746FA2
:100500005F636F6E74726F6C3A20000A002575008D
:100510002E737761705F636F6E74726F6C5F63616F
:1005200070736C6F636B3A20000A002530325800FC
:100530006B65796D61705F636F6E6669672E72615E
:10054000773A20000A002575002E6D6F7573653AA5
:1005500020000A002575002E6B6579626F61726458
:100560003A20000A002575002E6D61747269783A90
:1005700020000A002575002E656E61626C653A20C8
:10058000000A00253032580064656275675F636F4A
:100590006E6669672E7261773A20000A0025750041
:1005A00064656661756C745F6C617965723A200090
:1005B0000A092D204D61676963202D0A443A0944D8
:1005C00065627567204D65737361676520546F6759
:1005D000676C650A583A094D617472697820446500
:1005E000627567204D6F646520546F67676C652086
:1005F0002D2053686F77206B657970726573736512
:100600007320696E206D6174726978206772696405
:100610000A4B3A094B6579626F61726420446562E6
:10062000756720546F67676C65202D2053686F775E
:10063000206B65797072657373207265706F727468
:100640000A4D3A094465627567204D6F75736520E0
:10065000546F67676C650A563A0956657273696F1D
:100660006E0A533A095374617475730A433A094127
:100670006374697661746520436F6E736F6C652077
:100680004D6F64650A46312D4631303A095377691A
:1006900074636820746F204C6179657220302D3945
:1006A0002028463130203D204C30290A302D393A5F
:1006B0000953776974636820746F204C617965729F
:1006C00020302D390A47524156453A09537769740B
:1006D000636820746F204C61796572203020286136
:1006E0006C7465726E617465290A423A094A756DC7
:1006F0007020746F20426F6F746C6F616465720A52
:100700004553433A094A756D7020746F20426F6FEC
:10071000746C6F616465722028616C7465726E61BF
:100720007465290A453A095072696E74204545502E
:10073000524F4D2053657474696E67730A4253506B
:100740004143453A09436C65617220454550524F1B
:100750004D0A000A092D20436F6E736F6C65202DC2
:100760000A4553432F713A09717569740A6D3A0944
:100770006D6F7573656B65790A004743433A2034A2
:100780002E392E32204156522D4C4942433A2031C7
:100790002E382E3073766E204156525F41524348B8
:1007A0003A20617672350A004F5054494F4E533A01
:1007B000204C55464120424F4F544D41474943201C
:1007C0004D4F5553454B45592045585452414B4583
:1007D0005920434F4E534F4C4520434F4D4D414EB2
:1007E0004420343039360A004255494C443A2022DC
:1007F000302E372E3130392D31372D673532623872
:10080000316422202831333A35313A3132204A617D
:100810006E2032392032303230290A005649443AAB
:1008200020307846454544286B2D616F746129203E
:100830005049443A20307830303030286361637456
:1008400075735F73706C69745F626C6529205645BF
:10085000523A203078303030310A00444553433A20
:10086000204120637573746F6D206B6579626F61D1
:1008700072640A000A092D2056657273696F6E2032
:100880002D0A0074696D65725F7265616433322888
:10089000293A202530346C580A006B6579626F6103
:1008A00072645F69646C653A2025580A006B65794B
:1008B000626F6172645F70726F746F636F6C3A2005
:1008C00025580A00686F73745F6B6579626F617297
:1008D000645F6C65647328293A2025580A000A0968
:1008E0002D20537461747573202D0A003F000A6D2A
:1008F0006F7573653A206F66660A000A6D6F7573CF
:10090000653A206F6E0A000A6B6579626F617264E6
:100910003A206F66660A000A6B6579626F617264DD
:100920003A206F6E0A000A6D61747269783A206F1E
:1009300066660A000A6D61747269783A206F6E0A01
:10094000000A64656275673A206F66660A000A6489
:10095000656275673A206F6E0A000A0A4A756D7003
:10096000696E6720746F20626F6F746C6F6164656D
:10097000722E2E2E2000433E2000436C656172696A
:100980006E6720454550524F4D0A006565636F6E96
:100990006669673A0A006D6B5F776865656C5F74BE
:1009A000696D655F746F5F6D6178203D2025640A15
:1009B000006D6B5F776865656C5F6D61785F737004
:1009C000656564203D2025640A006D6B5F74696D68
:1009D000655F746F5F6D6178203D2025640A006D4E
:1009E0006B5F6D61785F7370656564203D20256481
:1009F0000A006D6B5F696E74657276616C203D20D4
:100A000025640A006D6B5F64656C6179203D20256B
:100A1000640A006D6B5F776865656C5F74696D650E
:100A20005F746F5F6D6178203D2025640A006D6BF7
:100A30005F776865656C5F6D61785F73706565642D
:100A4000203D2025640A006D6B5F74696D655F74DD
:100A50006F5F6D6178203D2025640A006D6B5F6DCE
:100A600061785F7370656564203D2025640A006DC0
:100A70006B5F696E74657276616C203D2025640A37
:100A8000006D6B5F64656C6179203D2025640A0010
:100A900077686572652064656C74613A206375726D
:100AA000736F723D25642C20776865656C3D256405
:100AB0000A53656520687474703A2F2F656E2E771F
:100AC000696B6970656469612E6F72672F77696BF6
:100AD000692F4D6F7573655F6B6579730A000A093D
:100AE0002D204D6F7573656B6579202D0A45534335
:100AF0002F713A09717569740A313A0964656C613C
:100B000079282A31306D73290A323A09696E746581
:100B10007276616C286D73290A333A096D61785FCA
:100B200073706565640A343A0974696D655F746F42
:100B30005F6D61780A353A09776865656C5F6D614C
:100B4000785F73706565640A363A09776865656C25
:100B50005F74696D655F746F5F6D61780A0A703AE2
:100B6000097072696E742076616C7565730A643AF7
:100B7000097365742064656661756C74730A7570B9
:100B80003A092B310A646F776E3A092D310A706782
:100B900075703A092B31300A7067646F776E3A09C5
:100BA0002D31300A0A7370656564203D2064656CE0
:100BB0007461202A206D61785F7370656564202AF6
:100BC0002028726570656174202F2074696D655FDF
:100BD000746F5F6D6178290A004C25640A007761A3
:100BE000697420666F722062756620737061636538
:100BF0000A000631FF0974A1010975150026FF00DE
:100C00009520750881020976150026FF009520754C
:100C1000089102C005010902A10185020901A10094
:100C200005091901290515002501950575018102A0
:100C30009501750381010501093009311581257F71
:100C400095027508810609381581257F950175087B
:100C50008106050C0A38021581257F9501750881EA
:100C600006C0C005010980A10185031A81002A83FD
:100C700000160100260300950175108100C0050CC7
:100C80000901A10185041A01002A9C02160100260F
:100C90009C02950175108100C005010906A101059E
:100CA0000719E029E71500250195087501810295CE
:100CB00001750881010507190029FF150026FF00AD
:100CC0009506750881000508190129059505750126
:100CD0009102950175039101C05B435D005B445D2A
:100CE000005B535D005B575D005B525D0009025B7A
:100CF00000030100A0FA090400000103010100093A
:100D000021110100012240000705810308000A09A2
:100D100004010001030000000921110100012285E6
:100D2000000705820320000A0904020002030000F4
:100D30000009211101000122220007058303200080
:100D40000107050303200001120110010000000843
:100D5000EDFE000001000102030104033000000069
:100D600022036300610063007400750073005F007C
:100D7000730070006C00690074005F0062006C001A
:100D8000650000000E036B002D0061006F00740011
:100D9000610000000403090477616974696E675F8C
:100DA000666F725F726573756C743A2074696D65F5
:100DB0006F75742C20726573705F6275662073693D
:100DC0007A652025640A0072656376206C6174651B
:100DD0006E63792025646D730A0041542B424C45A3
:100DE0004849444D4F555345425554544F4E3D008C
:100DF00041542B424C454849444D4F5553454D4F66
:100E000056453D25642C25642C25642C2564004121
:100E1000542B424C45484944434F4E54524F4C4B3F
:100E200045593D3078253034780041542B424C45AB
:100E30004B4559424F415244434F44453D25303282
:100E4000782D30302D253032782D253032782D25F3
:100E50003032782D253032782D253032782D2530DE
:100E600032780073656E64206C6174656E637920FE
:100E700025646D730A006661696C656420746F2077
:100E800073656E642C2077696C6C2072657472795E
:100E90000A0073656E645F6275665F73656E645F9A
:100EA0006F6E653A20686176652025642072656DF5
:100EB00061696E696E670A0077616974206F6E20E0
:100EC00062756620666F722025730A0072657375FD
:100ED0006C743A2025730A004F4B00736465705F91
:100EE000726563765F706B74206661696C65640A15
:100EF000007761697465642025646D7320666F7284
:100F000020726573705F6275660A00626C6520739B
:100F1000656E643A2025730A003F004D3E20004371
:100F20003E20000A00257500363A20776865656C1A
:100F30005F74696D655F746F5F6D61783A20000A58
:100F400000257500353A20776865656C5F6D6178BE
:100F50005F73706565643A20000A00257500343AB5
:100F60002074696D655F746F5F6D61783A20000A67
:100F700000257500333A206D61785F737065656494
:100F80003A20000A00257500323A20696E746572B5
:100F900076616C286D73293A20000A0025750031AE
:100FA0003A2064656C6179282A31306D73293A20C2
:100FB000000A092D2056616C756573202D0A004DBD
:100FC0003E004D25643E20003F007365742064653B
:100FD0006661756C740A00433E20000A00253032B9
:100FE0005820006B6579626F6172645F7265706F23
:100FF00072743A2000290029003A003B003C003D71
:10100000003E003F00E00035001E001F00200021D0
:101010000022002300E0002B0014001A0008001535
:101020000017001C00E0003900040016000700094A
:10103000000A002900E000E1001D001B0006001965
:101040000005002900E000E000E200E300E2002CDF
:10105000002C002900003A2311241FBECFEFDAE054
:10106000DEBFCDBF04B603FE27C080914803909138
:101070004903A0914A03B0914B038730904BA7409E
:10108000B04BD1F4109248031092490310924A03D6
:1010900010924B0314BE84B7877F84BF0FB6F894B9
:1010A000A895809160008861809360001092600034
:1010B0000FBEE0E0F8E3099523E0A2E4B1E001C04F
:1010C0001D92A834B207E1F711E0A0E0B1E0EAE731
:1010D000F0E602C005900D92A234B107D9F718E0EE
:1010E000CCE2D8E004C02197FE010E94542DCB32FF
:1010F000D107C9F70E942E090C943B300C940000D4
:10110000FF93EF93E0914201F0914301309709F092
:101110000995EF91FF910895FC018591803011F0C0
:10112000EFDFFBCF0895FF27E0E230E247FF0CC07E
:10113000419597FF09C0EDE2609570958095909577
:10114000611D711D811D911D27FF02C0219530E396
:1011500050E2AA27660F771F881F991FAA1FA4179E
:1011600010F0A41B63955A95A9F7AA3008F0A95F5F
:10117000A05DAF93F395611571058105910541F768
:10118000ED3211F4EF93F395F21718F43F93F395C2
:10119000FBCF8F91B5DFFA95E1F70895E991F991C9
:1011A0008591803021F0853219F0AADFF9CF0895BA
:1011B00020E0E89455915532C1F3503311F468940E
:1011C00055915A3348F4505390F3220F022E220FB8
:1011D000220F200D250FF4CF0EF4219589919991BE
:1011E000533619F3533729F1533559F1BC01882788
:1011F0009927E8945C3621F48991999168945591E6
:10120000543639F446EF7EF077FF0DC08FEF9FEF35
:101210000AC055374AE039F0583540E121F05236DE
:1012200042E009F00895FF93EF937DDFEF91FF9186
:10123000B7CFFF93EF93FC0181918030B9F360DF6A
:10124000FBCFFF93EF9368DFF1CFDF93CF93CDB761
:10125000DEB72596A3DFCF91DF910895CF93DF937B
:10126000CDB7DEB7C458D1090FB6F894DEBF0FBEB4
:10127000CDBF84B7877F84BF0FB6F894A8958091BF
:101280006000886180936000109260000FBE90E063
:1012900080E80FB6F89480936100909361000FBED0
:1012A00085B7806885BF85B7806885BF0E94D720D5
:1012B0000E94F6208091E20084608093E2008EE537
:1012C00095E1909343018093420178948091870146
:1012D0008823A1F01091E9001F709091EC00892FF4
:1012E000817090FD80E8182B1092E9008091E80051
:1012F00083FD0E94BE1D1F701093E90082E084BD33
:1013000093E095BD9DE797BD80936E00A2E1B1E0AB
:1013100041E050E026E02A0F8D91E82FE295EF7032
:10132000F0E031A18F70BA0102C0660F771F8A9575
:10133000E2F7CB01962F9095932391A392A1892B4D
:1013400082A32A13E9CFA8E1B1E041E050E028E010
:101350002A0F8D91E82FE295EF70F0E031A18F70A8
:10136000BA0102C0660F771F8A95E2F7CB01962F6C
:101370009095932391A392A1892B82A32A13E9CF5D
:10138000AEE4B1E0E4E4F1E086E08E0F11921D924C
:101390008E13FCCF80E090E00E94C32C8C3E9E4FC9
:1013A00011F00E94102880E090E00E94C32C8C3E37
:1013B0009E4F11F00E9410288BE291E00E948C0851
:1013C00015E6115049F00E94A914EFE1FEE43197AF
:1013D000F1F700C00000F5CF84E291E00E948C0894
:1013E00089E20E945C1D811132C18AE20E945C1D6B
:1013F00081110E94102885E00E945C1D81110E94CD
:10140000402782E090E00E94BB2C80939F0187E000
:101410000E945C1D8823A9F18BE10E945C1D88233A
:1014200051F080919F0181FB222720F991E09227C2
:1014300090FB81F90EC08EE00E945C1D882361F054
:1014400080919F0182FB222720F991E0922790FB57
:1014500082F980939F0115C080E10E945C1D9091EC
:101460009F01882341F093FB222720F981E0822706
:1014700080FB93F904C0892F809580FB90F99093AD
:101480009F0160919F0182E090E00E94C92C0E9420
:10149000FF2790934B0180934A0180EE0E945C1DD0
:1014A000882341F080914A01982F909590FB80F914
:1014B00080934A0189E30E945C1D882359F0809142
:1014C0004A0181FB222720F991E0922790FB81F9C4
:1014D00080934A0182EE0E945C1D882359F080911E
:1014E0004A0182FB222720F991E0922790FB82F9A2
:1014F00080934A0186EE0E945C1D882359F08091FA
:101500004A0183FB222720F991E0922790FB83F97F
:1015100080934A0183EE0E945C1D882359F08091DC
:101520004A0184FB222720F991E0922790FB84F95D
:1015300080934A0185E30E945C1D882359F08091C5
:101540004A0185FB222720F991E0922790FB85F93B
:1015500080934A0181E30E945C1D882359F08091A9
:101560004A0186FB222720F991E0922790FB86F919
:1015700080934A0181E10E945C1D882359F080918B
:101580004A0187FB222720F991E0922790FB87F9F7
:1015900080934A0160914A0110914B0184E090E0F0
:1015A0000E94C92C612F81E290E00E94C92C87E241
:1015B0000E945C1D182F8EE10E945C1D811112603B
:1015C0008FE10E945C1D8111146080E20E945C1D0D
:1015D0008111186081E20E945C1D8111106182E21C
:1015E0000E945C1D8111106283E20E945C1D8111CA
:1015F000106484E20E945C1D882311F0106802C010
:10160000112339F0612F83E090E00E94C92C612FF3
:1016100005C083E090E00E94BB2C682F70E080E062
:1016200090E00E942F298FE00E945C1D882329F002
:1016300061E08EE090E00E94C92C85E10E945C1D73
:10164000882329F060E08EE090E00E94C92C82E0BF
:1016500091E090934D0180934C0183E192E00E94D0
:101660008C0872E4672E71E0772E552453949E0106
:101670002F5F3F4F79010E94A9145EE5A52E51E02E
:10168000B52E6EE4C62E61E0D62E00E010E0CC57F9
:10169000DF4F0883C458D040D6014D906D01F5014D
:1016A00081915F018425CD57DF4F8883C358D04097
:1016B000811112C00F5F1F4F0630110541F70E94C4
:1016C000B4272FEF29832A831B8281609D838C831B
:1016D000C7010E94FD0E71C080919F0181FD04C071
:1016E000812C9924939448C08FE491E00E948C0847
:1016F0004EE4842E41E0942E212C312C3F922F92E7
:10170000AAE4B1E0BF93AF930E94250987E491E07A
:101710000E948C08D4019D914D019295892F8C7C5B
:10172000282F269526959373B4E09B9FC001112422
:10173000822B982F9A7A96958575880F892B1F9200
:101740008F937F926F920E94250980E491E00E941E
:101750008C08EFEF2E1A3E0A0FB6F894DEBF0FBECC
:10176000CDBF36E02316310449F6BACF990C8394E5
:1017700068E0861609F49ECFCD57DF4F8881C358A5
:10178000D040892199F30E94B4278982CC57DF4F3A
:101790004881C458D0404A83492021E009F420E020
:1017A0002B8381609D838C83C7010E94FD0EF8010D
:1017B000E25AFE4F80819826908280915B01909141
:1017C0005C010E948A27AC0190915A01992321F073
:1017D0002091010130E006C0209100017AE0279FAE
:1017E000900111244217530708F47CC080915601E0
:1017F0001091570181110BC01111BAC120915801EC
:101800002111B6C1209159012111B2C16BC09F3F76
:1018100019F09F5F90935A01181624F40E94AB1C94
:10182000809356018091560187FF05C00E94AB1C32
:10183000819580935601111624F40E94AB1C80936D
:1018400057018091570187FF05C00E94AB1C81950D
:101850008093570130915601332301F120915701B4
:101860002223E1F045EB3403C0011124892F990FA5
:10187000990B009719F08093560102C050925601BF
:1018800065EB2603C0011124892F990F990B00974E
:1018900019F08093570102C050925701809158016E
:1018A000181624F40E94721C8093580180915801EC
:1018B00087FF05C00E94721C81958093580180911A
:1018C0005901181624F40E94721C809359018091CA
:1018D000590187FF05C00E94721C819580935901B0
:1018E0000E94551B10915D010E949D14181739F13B
:1018F0000E949D14182F80935D0180919F0182FFAB
:101900001EC080FF04C085E691E00E948C08809193
:101910009F0180FF0CC01F921F93A0E6B1E0BF9310
:10192000AF930E9425090F900F900F900F90809118
:101930009F0180FF04C08EE591E00E948C08809199
:101940009501811180C080919401811131C0109264
:10195000940110929501109293016E987698249AB2
:101960002C9A80E580939101509292019FB7F89450
:10197000289A209A8CB580618CBD8CB580648CBD12
:10198000219A229A9FBF549A5C9A5C988FE19EE4B8
:101990000197F1F700C000005C9A9FEFA9E6B8E15B
:1019A0009150A040B040E1F700C000005092940177
:1019B0001092950104E911E042E050E0B801CE0137
:1019C0008F579F4F0E94912C40E850E0B701CF57AE
:1019D000DF4F88819981C158D0400E944F258111E5
:1019E0001FC080919F0180FF29C0FF92EF92CE57C8
:1019F000DF4F8881C258D0408F93CF57DF4F888107
:101A0000C158D0408F9388E791E09F938F930E94B5
:101A100025090F900F900F900F900F900F900EC010
:101A20000E5F1F4FE1E0003A1E0731F6509295011C
:101A30000E94B42790939E0180939D01809195010F
:101A4000882309F418CE81E00E9443238AE090E0C5
:101A50000E94902580919D0190919E010E948A276D
:101A6000893E934008F443C080919601811117C0CC
:101A700040E350E0BE016F5F7F4F80E092E00E9444
:101A80004F25882349F040E350E0BE016F5F7F4F50
:101A90008DEE91E00E944F2581E0809396010E9497
:101AA000B42790939E0180939D0140E350E0BE01D6
:101AB0006F5F7F4F8FED91E00E944F258823B9F033
:101AC000CE0101960E94732C11E0892B09F410E0DD
:101AD00080919301181759F0112319F087EC91E0C8
:101AE00002C08CEA91E00E948C08109393018091CF
:101AF0009701909198010E948A278131974208F4BA
:101B0000B4CD9091A4018091A5019813AECD0E940F
:101B1000B4279093980180939701E7EAF1E0E4916C
:101B200085E880937A008E2F8072806880937B0096
:101B3000EF71E064E0937C0080917A008064809390
:101B40007A0080917A0086FDFCCF80917800209108
:101B5000790090E0922B092E000CAA0BBB0B80930E
:101B6000990190939A01A0939B01B0939C017DCD24
:101B70009F3F09F04ECE56CE90914A0192FF0DC084
:101B8000282F2871283019F4877F846006C0282FF9
:101B90002471243011F48B7F886093FF0DC0282FAF
:101BA0002871283119F4877E846106C0282F24719A
:101BB000243111F48B7E886120914B0120FF0DC0F0
:101BC000382F3871383019F4877F816006C0382F7C
:101BD0003171313011F48E7F886021FF0DC0282FC4
:101BE0002871283119F4877E816106C0282F217160
:101BF000213111F48E7E886194FD877E0895FF92D5
:101C00000F931F93CF93DF93EC01FE0124912223C6
:101C100009F448C0CE010196213041F4EC01FC01E9
:101C20001491812F0E948E29812F38C0223031F4E7
:101C3000EC01FC0184910E948E2932C0233021F4F2
:101C4000EC01FC0184912AC030E0F901EC5DFC4F0D
:101C5000F490F901EC55FD4FE49111E0E11101C060
:101C600010E0F901EC5DFD4F249101E0211101C06C
:101C700000E0112319F081EE0E948E29002319F053
:101C800086EE0E948E298F2D0E949D2B002319F035
:101C900086EE0E944F29112319F081EE0E944F29F0
:101CA0002196B3CFDF91CF911F910F91FF900895AF
:101CB0000F931F93CF93DF93C62FD42F022FFC01D6
:101CC00082818823F9F060936D010E94B42790937C
:101CD00068018093670180E28C0F883008F05CC057
:101CE000C77081E090E001C0880FCA95EAF7909133
:101CF0004303892B80934303DF91CF911F910F9171
:101D00000C94732810916D01161336C080916701F1
:101D1000909168010E948A27883C910568F5C0E28D
:101D2000CD0F1D17E9F080E2810F883040F4177065
:101D300081E001C0880F1A95EAF70E944429C83053
:101D400078F48D2F877041E050E001C0440F8A95F0
:101D5000EAF780914303482B409343030E94732882
:101D6000802F0E949D2BC830B8F4D77081E001C04D
:101D7000880FDA95EAF70AC080E28C0F883060F4A9
:101D8000C77081E001C0880FCA95EAF7DF91CF9153
:101D90001F910F910C944429DF91CF911F910F91C6
:101DA000089520916B0130916C018217930771F0B7
:101DB00090936C0180936B01E0914C01F0914D0187
:101DC000309721F00084F185E02D09940895209149
:101DD000690130916A018217930771F090936A014B
:101DE00080936901E0914C01F0914D01309721F011
:101DF0000680F781E02D09940895EF92FF920F93EA
:101E00001F93CF93DF9300D000D01F92CDB7DEB7E2
:101E1000FC010081118183819481892B09F481C5A2
:101E20001F3F19F40F3F09F47CC57F0185E0DE01F7
:101E3000119601900D928A95E1F789819A810E940D
:101E4000DF28E12FF0E026E0829FE00DF11D112454
:101E5000B3E0EE0FFF1FBA95E1F7E00FF11DEE0FB3
:101E6000FF1FEB50F04F0591149109303DE513072A
:101E700029F00A306DE5160749F012C0F70182819A
:101E8000882309F44FC086EB93E007C0F7018281F5
:101E9000882309F447C084EA93E00E94FF0D42C002
:101EA000043FFCE51F0779F180F4083D3CE513078A
:101EB000C9F0093D6CE5160791F1073D7CE5170770
:101EC00089F526E241EE61EE10C0063F8CE5180769
:101ED00011F1E8F0073FECE51E0721F527E245EE9A
:101EE00066EE03C027E245EE65EEC7010F900F9046
:101EF0000F900F900F90DF91CF911F910F91FF9056
:101F0000EF900C94580E26E241EE60EEEECF27E201
:101F100045EE64EEEACF26E241EE62EEE6CF28E23D
:101F200041E0E2CFF7018281882309F48EC110924B
:101F30006D010230FCE51F0708F42CC106312CE5C9
:101F4000120738F098012B5F3C452930310508F025
:101F500021C10E94FF2790934B0180934A010031D9
:101F60003CE5130709F4C3C008F041C008307CE524
:101F7000170709F49AC0F0F404309CE5190709F436
:101F800087C068F40230FCE51F0709F477C003300E
:101F90001C4509F0E5C080914A01826076C0063098
:101FA0003CE5130709F46EC008F07BC080914A013C
:101FB00088606BC00C307CE5170709F485C068F4B5
:101FC0000A309CE5190709F474C008F079C00E9432
:101FD000392980914A01806858C00E30FCE51F07FE
:101FE00009F476C008F07FC080914A018BC00C3F95
:101FF0003CE5130709F44FC018F503317CE51707DA
:1020000009F47DC078F401319CE5190709F473C027
:1020100002311C4509F0A4C00E94392980914A016F
:102020008F7733C00531FCE51F0709F472C008F44F
:1020300086C00B3F1C4509F093C080914B013EC008
:1020400001156DE5160709F45FC058F40E3F8CE5E5
:10205000180709F444C008F43FC080914B01826026
:102060002DC00230EDE51E0709F475C008F45DC00F
:1020700003301D4509F074C060E06EC080914A01D4
:10208000816003C080914A01806180934A0168C0E9
:1020900080914A0111C080914B01826080934B0175
:1020A0005FC080914A018062F0CF80914A018064D4
:1020B000ECCF80914A0188608460E7CF8160EECFE9
:1020C00080914A018E7FE1CF80914A018D7FDDCFE3
:1020D00080914A01877FD9CF80914B0118C08091B0
:1020E0004B018D7FDBCF80914A018F7ECECF8091D7
:1020F0004A018F7DCACF80914A018F7BC6CF8091E4
:102100004A01877F8B7FC1CF80914B018D7F8E7F6E
:10211000C5CF80914A0182FB222720F991E09227C6
:1021200090FB82F990FB83F9B0CF80914B01982FFF
:10213000909591708E7F892B90FB81F9AFCF0E9493
:10214000392980914A0187FB222720F991E09227C3
:1021500090FB87F99ACF61E08EE090E00E94C92C55
:1021600060914A0110914B0184E090E00E94C92CDB
:10217000612F81E290E00E94C92C0F900F900F9088
:102180000F900F90DF91CF911F910F91FF90EF90E3
:102190000C9439290C3D3CE5130709F44DC048F473
:1021A00001157CE51707F1F001309CE5190739F1BD
:1021B0004CC00E3DECE51E0709F443C008F43FC0D7
:1021C0000F3D2CE5120709F040C00F900F900F90C3
:1021D0000F900F90DF91CF911F910F91FF90EF9093
:1021E0000C9410280E9439293FE76AE176E03150CB
:1021F00060407040E1F700C000000E9440278091DD
:102200009F01982F9095917090FB80F980939F018A
:10221000992319F084EE93E002C082ED93E00F90D1
:102220000F900F900F900F90DF91CF911F910F9112
:10223000FF90EF900C948C081092110172C382E011
:1022400001C083E0809311016CC306311C4539F550
:1022500090914303882381F09A7A81E009F480E029
:1022600080936E01811102C069E201C065E388E3D9
:1022700093E00E94E52766C080916E01811102C043
:1022800089E201C085E3EAE3F3E096E09E0F208156
:10229000281301C0108231969E13F9CF53C0F70165
:1022A00000811181C8010E94DF28E12FF0E026E0C3
:1022B000829FE00DF11D112483E0EE0FFF1F8A9530
:1022C000E1F7E00FF11DEE0FFF1FEB50F04F05910E
:1022D000149198010238110509F0F1C080914A016A
:1022E00080FD19C381FD17C3022F932FF70142818F
:1022F000411110924203292F22952F7030E0243093
:10230000310509F45CC05CF52230310508F009C3E1
:10231000892F807F192F1F70882311F01295107F4D
:10232000411122C0802F0E944F29112309F4F9C2C4
:10233000109580E2800F8830D0F5909143031923E7
:10234000109343030F900F900F900F900F90DF9119
:10235000CF911F910F91FF90EF900C94732825302F
:10236000310509F460C0DDC2112399F080E2800FCD
:10237000883010F0011106C090914303192B10937F
:10238000430305C090914203192B109342030E940E
:102390007328802F0F900F900F900F900F90DF9168
:1023A000CF911F910F91FF90EF900C948E290023F5
:1023B00021F290914203192310934203C3CF292F96
:1023C00026952695237030E02115310521F0213026
:1023D0003105A9F0A6C2442319F0802F937002C0E2
:1023E00080E090E00F900F900F900F900F90DF9192
:1023F000CF911F910F91FF90EF900C94E70E442323
:1024000019F0802F937002C080E090E00F900F9041
:102410000F900F900F90DF91CF911F910F91FF9030
:10242000EF900C94D10E4423F9F0053F51F0063F94
:1024300071F0043FA9F480916F0190917001816067
:102440000BC080916F0190917001826005C08091F6
:102450006F019091700184609093700180936F017F
:10246000802F0E94F41C1EC0053F51F0063F71F002
:10247000043FA9F480916F01909170018E7F0BC091
:1024800080916F01909170018D7F05C080916F01E7
:10249000909170018B7F9093700180936F01802FDA
:1024A0000E94ED1B0F900F900F900F900F90DF91F7
:1024B000CF911F910F91FF90EF900C94551B033813
:1024C000110508F0D3C10133110539F480914A0197
:1024D00086FF0ACF2AE230E007CF02331105A0F4CD
:1024E0000932110539F480914A0185FFFDCE25E3BB
:1024F00030E0FACE0A32110579F480914A0186FF64
:10250000F3CE21E330E0F0CE0533110509F4A7C185
:102510000933110509F4E2CE0115E1E51E07E0F5E6
:102520000115F0E51F0708F0E6C0083E1105D8F4D4
:10253000003E110508F0D8CE083A110578F4053AA6
:10254000110508F06EC00130110509F4CDCE08F474
:1025500038C10430110508F434C1C6CE0F3B110553
:1025600008F46AC02EC1011560E2160760F4011577
:1025700071E0170708F0B8CE003F110508F421C13B
:1025800098013065B1CE011580E4180708F419C12F
:1025900098013F70306AA8CE011595E51907A0F49F
:1025A0000115E4E51E0708F0F1C00115F3E51F076A
:1025B00008F0D5C0011522E5120708F0B9C0302F88
:1025C0002227216F306A90CE011539E51307A0F458
:1025D000011568E5160708F0DEC0011576E5170756
:1025E00008F0EFC0802F0E94BC0D8F71282F30E0C3
:1025F000322F2227306278CE01158AE5180708F4B9
:10260000CFC0C80190568115904208F0DAC0812FE2
:102610008F710E94BC0D9801332730628F71382B67
:1026200063CE053A110509F4CFC0063A110509F049
:10263000CEC022E830E458CE083A110509F4CAC0E9
:10264000093A110509F4C9C00A3A110509F4C8C0CC
:102650000B3A110509F4C7C00C3A110509F4C6C0BC
:102660000B3B110509F4C5C00C3B110509F4C4C0AE
:102670000D3A110509F4C3C0003B110509F4C2C0AD
:102680000E3A110509F4C1C00F3A110509F4C0C092
:10269000013B110509F4BFC0023B110509F4BEC09E
:1026A000033B110509F4BDC0043B110509F4BCC08E
:1026B000053B110509F4BBC0063B110509F4BAC07E
:1026C000073B110509F4B9C0083B110509F4B8C06E
:1026D000093B110509F4B7C00D3B110509F4B6C05B
:1026E0000E3B110509F4B5C00A3B110509F4B4C04D
:1026F00020E034E4F9CD802F837041E050E002C047
:10270000440F551F8A95E2F75C68C801A4E09695CE
:102710008795AA95E1F78370582B202F2F70269567
:102720002695F0E22F9F90011124242B352BDCCD30
:10273000202F2695269530E2239FC0011124980171
:102740002370332741E050E0BA0102C0660F771FC3
:102750002A95E2F79B01282B392B3C68C5CD202F09
:102760002695269570E2279FC001112498012370B9
:10277000332741E050E0FA0102C0EE0FFF1F2A9517
:10278000E2F79F01282B392B3A68AECD302F222754
:10279000246F306AA9CD302F2227206F306AA4CD54
:1027A000802F8F700E94BC0D980144E036952795CC
:1027B0004A95E1F72F7030E0322F22273069282B1D
:1027C00093CD20E030E090CD21E830E48DCD23E8BA
:1027D00030E48ACD22EE34E487CD29EE34E484CD92
:1027E0002AEE34E481CD25EB34E47ECD26EB34E4CF
:1027F0007BCD23EB34E478CD24EB34E475CD27EBAB
:1028000034E472CD2CEC34E46FCD2DEC34E46CCD9B
:1028100023E835E469CD2AE835E466CD22E935E4DC
:1028200063CD24E935E460CD21E236E45DCD23E2D9
:1028300036E45ACD24E236E457CD25E236E454CDD1
:1028400026E236E451CD27E236E44ECD2FE634E4DD
:102850004BCD20E734E448CD2AE236E445CD8091E3
:102860004A0185FF41CD29E230E03ECD033E11050E
:1028700079F480914A0182FD4BC080914B0180FD2B
:102880004AC080914A0184FD9CCF23EE30E02CCDDC
:10289000043E1105A8F4003E110549F480914A0157
:1028A00080FD33C080914B0180FF1ECDEACF023EF8
:1028B000110509F031CE80914A0182FF15CDE1CF9B
:1028C000063E110559F480914A0183FF0DCD809198
:1028D0004A0184FD76CF27EE30E006CD073E110594
:1028E00059F480914A0183FD19C080914B0181FF09
:1028F000EECF24EE30E0F8CC043E110509F00CCE0A
:1029000080914B0181FFF0CCE2CF29E330E0ECCCA9
:1029100022EE30E0E9CC20EE30E0E6CC26EE30E0EE
:10292000E3CC0F900F900F900F900F90DF91CF910D
:102930001F910F91FF90EF900895E0914C01F0915D
:102940004D01309721F00190F081E02D099480E055
:1029500008954F925F926F927F928F929F92AF9263
:10296000BF92CF92DF92EF92FF920F931F93CF937C
:10297000DF9342E1442E41E0542EA4E4B1E0912CD7
:1029800001E010E086E08A0F7D018C901C92E2014C
:1029900099912E01E92FE295EF70F0E041A19F702F
:1029A000980101C0220F9A95EAF7942F922B91A3D8
:1029B00042A1922F9095492342A3D0E5DA95F1F7F1
:1029C00038E1C32E31E0D32E40E050E0E6017990AB
:1029D0006E01672D62956F7070E0EB01A8A06C909E
:1029E000B12C772D7F7002C0B594A7947A95E2F749
:1029F000A0FC07C0602F042E01C0660F0A94EAF7FE
:102A000001C060E066296C934F5F5F4F483051050D
:102A1000E9F631A1932391A392A1292B22A3119628
:102A200091E0F7012081821201C090E0992A8A1377
:102A3000ABCF49F081E0809366010E94B427909368
:102A400065018093640180916601882311F1809172
:102A50006401909165010E948A270697D0F08091C9
:102A6000440180934E018091450180934F018091F4
:102A700046018093500180914701809351018091DC
:102A80004801809352018091490180935301109233
:102A90006601892DDF91CF911F910F91FF90EF90EB
:102AA000DF90CF90BF90AF909F908F907F906F906E
:102AB0005F904F90089580917C0108959FB7F8949E
:102AC000109278019FBF90918701943009F057C010
:102AD0009091E9009F703091EC00232F217030FD20
:102AE00020E8922B23E02093E9002091EB0020FFC7
:102AF00043C02091EE0027FF3FC0209177012223A1
:102B000021F02091E80025FF37C01092770126E0E0
:102B10003091E80035FD15C030918701343061F502
:102B20003091EB0035FD28C0215021F481E08093E5
:102B3000770122C0EFECF7E03197F1F700C0000019
:102B4000E7CF8093F1008091E80085FD0AC0809175
:102B5000E80080FFFCCF8091E8008E778093E8004A
:102B600006C08FB7F89421E0209378018FBF9F7043
:102B70009093E90080E008959F709093E9008FEFB3
:102B80000895CF93DF9300D01F92CDB7DEB7209189
:102B90008701243031F523E02983805891099B83F4
:102BA0008A8382E08093E9008FEF9091E800815062
:102BB00095FD06C09AE69A95F1F700C08111F5CF10
:102BC0008091E80085FF0DC040E050E063E070E0D8
:102BD000CE0101960E9403238091E8008E778093B6
:102BE000E8000F900F900F90DF91CF910895CF9252
:102BF000DF92EF92FF921F93CF93DF9300D01F924B
:102C0000CDB7DEB77C010E94672C182F8DEF810FA6
:102C1000823028F588E2C82ED12C2091360330E08E
:102C2000C9010196B6010E94402D90913703981377
:102C300005C086E990E00E949025EFCF9AE0929F30
:102C4000F001939FF00D1124EA55FE4F91E090831F
:102C5000F482E38280933603143019F026C01230D8
:102C600021F584E08983FB82EA8282E08093E90097
:102C70008FEF9091E800815095FD06C09AE69A95F5
:102C8000F1F700C08111F5CF8091E80085FF0DC0FC
:102C900040E050E063E070E0CE0101960E94032323
:102CA0008091E8008E778093E8000F900F900F904E
:102CB000DF91CF911F91FF90EF90DF90CF9008951B
:102CC000AF92BF92CF92DF92EF92FF920F931F933A
:102CD000CF93DF93EC010E94672C182F8DEF810FAB
:102CE000823068F50981FD80EC80BB80AA8088E293
:102CF000C82ED12C2091360330E0C9010196B601CF
:102D00000E94402D90913703981305C086E990E00A
:102D10000E949025EFCF9AE0929FF001939FF00DD3
:102D20001124EA55FE4F92E09083A382B482E5829B
:102D3000F682078380933603143019F021C01230D5
:102D4000F9F482E08093E9008FEF9091E8008150E0
:102D500095FD06C09AE69A95F1F700C08111F5CF6E
:102D60008091E80085FF0CC040E050E066E070E034
:102D7000CE010E9403238091E8008E778093E800C3
:102D8000DF91CF911F910F91FF90EF90DF90CF9047
:102D9000BF90AF9008958F929F92AF92BF92CF92C3
:102DA000DF92EF92FF920F931F93CF93DF93EC018B
:102DB0000E94672C182F8DEF810F823008F041C0E0
:102DC00008810E94B4277C0140E088E2C82ED12C03
:102DD0008A809B80AC80BD80FE81EF81209136038C
:102DE00030E0C9010196B6010E94402D9091370351
:102DF000981709F450C09AE0929FD001939FB00DAC
:102E00001124AA55BE4F1C921296FC92EE92119775
:102E100013960C93139714968C92149715969C9274
:102E200015971696AC9216971796BC921797189608
:102E3000FC9318971996EC9380933603143019F08D
:102E40003AC01230C1F581E08093E9008FEF909194
:102E5000E800815095FD06C09AE69A95F1F700C00A
:102E60008111F5CF8091E80085FF25C040E050E05A
:102E700068E070E0CE010E9403238091E8008E7725
:102E80008093E80088E0FE01ADE7B1E001900D928B
:102E90008A95E1F710C0411108C080919F0180FF21
:102EA00004C08EED9BE00E948C0886E990E00E94B1
:102EB000902541E08DCFDF91CF911F910F91FF9031
:102EC000EF90DF90CF90BF90AF909F908F9008953C
:102ED000CF93C82F1F928F9389ED9BE09F938F9381
:102EE0000E94250981E090E0A0E0B0E0BC01CD01A6
:102EF00004C0660F771F881F991FCA95D2F70E94DA
:102F00002F290F900F900F900F90CF910C9439298B
:102F10008EED9AE00E948C081F9281E08F931F92A1
:102F200085E08F9380E99AE09F938F930E94250913
:102F30000F900F900F900F900F900F900895833087
:102F400081F128F4813059F08230D1F00895853034
:102F500009F449C0B8F1863009F456C0089580914B
:102F60000001681720F4861B8093000102C01092B4
:102F70000001809100011F928F9381E89AE054C074
:102F800080910101681720F4861B8093010102C023
:102F900010920101809101011F928F938FE69AE0B8
:102FA00043C080910F01681720F4861B80930F01A6
:102FB00002C010920F0180910F011F928F938CE538
:102FC0009AE032C080910E01681720F4861B80932E
:102FD0000E0102C010920E0180910E011F928F937C
:102FE00087E49AE021C080910D01681720F4861BC8
:102FF00080930D0102C010920D0180910D011F926E
:103000008F938EE29AE010C080910C01681720F433
:10301000861B80930C0102C010920C0180910C0160
:103020001F928F9383E19AE09F938F930E942509CB
:103030000F900F900F900F9008958330E9F128F4CE
:10304000813061F0823009F10895853009F462C061
:1030500008F449C0863009F474C0089580910001D5
:10306000262F30E0280F311D2F3F310524F4680F43
:103070006093000103C08FEF8093000180910001F5
:103080001F928F9384E09AE072C080910101262FF5
:1030900030E0280F311D2F3F310524F4680F609375
:1030A000010103C08FEF80930101809101011F9204
:1030B0008F9382EF99E05BC080910F01262F30E063
:1030C000280F311D2F3F310524F4680F60930F0145
:1030D00003C08FEF80930F0180910F011F928F9398
:1030E0008FED99E044C080910E01262F30E0280F2B
:1030F000311D2F3F310524F4680F60930E0103C08A
:103100008FEF80930E0180910E011F928F938AECB6
:1031100099E02DC080910D01262F30E0280F311D40
:103120002F3F310524F4680F60930D0103C08FEF2A
:1031300080930D0180910D011F928F9381EB99E097
:1031400016C080910C01262F30E0280F311D2F3F33
:10315000310524F4680F60930C0103C08FEF809356
:103160000C0180910C011F928F9386E999E09F9347
:103170008F930E9425090F900F900F900F90089544
:10318000CF93DF938B3109F4FBC108F093C18B30EF
:1031900009F4B5C108F069C1863009F4B3C120F45F
:1031A000853009F4C1C178C2873009F4CEC18830B6
:1031B00009F072C28BE899E00E948C0880EA95E0E1
:1031C0000E948C0883E090E00E94BB2C1F928F939A
:1031D0008DE995E09F938F930E9425098BE995E0F7
:1031E0000E948C0882E090E00E94BB2CC82F88E8E7
:1031F00095E00E948C081F92CF9383E895E09F93FF
:103200008F930E94250981E895E00E948C0887E74A
:1032100095E00E948C088C2F81701F928F9384E719
:1032200095E09F938F930E94250982E795E00E9485
:103230008C0888E695E00E948C08C1FB882780F9FD
:103240001F928F9385E695E09F938F930E942509A7
:1032500083E695E00E948C0887E595E00E948C0843
:10326000C2FB882780F91F928F9384E595E09F9396
:103270008F930E94250982E595E00E948C0889E4DD
:1032800095E00E948C08C3FBCC27C0F91F92CF9316
:1032900086E495E09F938F930E94250984E495E04E
:1032A0000E948C080E94FF27EC0180E395E00E94B9
:1032B0008C08DF93CF938BE295E09F938F930E94CE
:1032C000250989E295E00E948C0880E195E00E9442
:1032D0008C088C2F81701F928F938DE095E09F93C7
:1032E0008F930E9425098DB79EB780960FB6F894EC
:1032F0009EBF0FBE8DBF8BE095E00E948C0884EFCF
:1033000094E00E948C08C1FB882780F91F928F935C
:1033100081EF94E09F938F930E9425098FEE94E0B4
:103320000E948C088DED94E00E948C088D2F817096
:103330001F928F938AED94E09F938F930E942509AB
:1033400088ED94E00E948C0886EC94E00E948C0842
:10335000D695D1701F92DF9383EC94E09F938F9367
:103360000E94250981EC94E00E948C088FEA94E089
:103370000E948C08C2FB882780F91F928F938CEAE9
:1033800094E09F938F930E9425098AEA94E00E941B
:103390008C0888E994E00E948C08C3FB882780F998
:1033A0001F928F9385E994E09F938F930E94250944
:1033B00083E994E00E948C0889E894E00E948C08DC
:1033C000C4FB882780F91F928F9386E894E09F932F
:1033D0008F930E94250984E894E00E948C0882E77C
:1033E00094E00E948C08C5FB882780F91F928F9378
:1033F0008FE694E09F938F930E9425098DE694E0D9
:103400000E948C0881E594E00E948C08C6FB882706
:1034100080F91F928F938EE494E09F938F930E9484
:1034200025098DB79EB780960FB6F8949EBF0FBE44
:103430008DBF8CE494E00E948C0884E494E00E94A8
:103440008C08C7FBCC27C0F91F92CF9381E494E08E
:103450009F938F930E9425098FE394E00E948C082C
:103460000F900F900F900F9015C1803109F4B0C0EC
:1034700020F48E3009F498C00FC1863109F4C5C01C
:10348000893109F009C184E798E00E948C088BE536
:1034900098E00E948C088CE198E00E948C0888EEED
:1034A00097E00E948C0888EA97E00E948C088AE7DF
:1034B00097E0A8C08A32E1F060F4873209F4E7C0EF
:1034C00028F48E3108F4E8C08D51E2C0893261F1F0
:1034D000E3C0833448F48A3308F0D7C0853309F455
:1034E000D6C0883361F0D8C0833409F4D0C0D4C0CA
:1034F0008AE799E00E948C080E941028CBC080EBDC
:1035000095E080C080919F01817F8E7F80939F0195
:1035100083E597E00E948C0886E799E00E948C087A
:1035200081E080937601B6C00E9439298AE599E04E
:103530000E948C089FEF29E688E19150204080404E
:10354000E1F700C000000E94402780919F01C82F32
:10355000C095C170C0FB80F980939F01CC2329F0F6
:103560008EE499E00E948C089CC081E499E00E945E
:103570008C0880919F01897F877F80939F018AC0FB
:1035800090919F0191FBCC27C0F981E0C827892F3A
:10359000C0FB81F980939F01CC2319F084E399E06B
:1035A00027C086E299E02EC090919F0192FBCC2724
:1035B000C0F981E0C827892FC0FB82F980939F0161
:1035C000CC2319F087E199E013C087E099E01AC095
:1035D00090919F0193FBCC27C0F981E0C827892FE8
:1035E000C0FB83F980939F01CC2351F08BEF98E0CF
:1035F0000E948C0880919F01816080939F0151C03F
:103600008EEE98E00E948C0845C08EED98E00E94F6
:103610008C080E949D141F928F9384EC98E09F93D6
:103620008F930E942509809110011F928F938DEA3C
:1036300098E09F938F930E94250980917B011F92B0
:103640008F938AE998E09F938F930E9425092FB763
:10365000F8948091720190917301A0917401B091DE
:1036600075012FBFBF93AF939F938F9383E898E02B
:103670009F938F930E9425098DB79EB742960FB6F0
:10368000F8949EBF0FBE8DBF05C0895301C080E076
:103690000E946817C1E005C08CEE98E00E948C087B
:1036A000C0E08C2FDF91CF91089580919F0183FF1F
:1036B0007EC08CE194E00E948C08809155011F929D
:1036C0008F9387E194E09F938F930E94250985E172
:1036D00094E00E948C0880915601282F082E000C3F
:1036E000330B3F938F9382E194E09F938F930E94DB
:1036F000250980E194E00E948C0880915701282FD1
:10370000082E000C330B3F938F938DE094E09F9332
:103710008F930E9425098BE094E00E948C08809191
:103720005801282F082E000C330B3F938F9388E00D
:1037300094E09F938F930E94250986E094E00E9475
:103740008C0880915901282F082E000C330B3F93D1
:103750008F9383E094E09F938F930E94250980E0EC
:1037600094E00E948C0880915A011F928F938DEFF4
:1037700093E09F938F930E9425098BEF93E00E9423
:103780008C08809171011F928F9388EF93E09F9333
:103790008F930E94250985EF93E00E948C088DB7D6
:1037A0009EB74C960FB6F8949EBF0FBE8DBFE091AA
:1037B0004C01F0914D01309749F082E08093540123
:1037C0000480F581E02D84E591E009950E94B427FD
:1037D00090935C0180935B010895803F39F4809160
:1037E000570187FF6CC01092570169C0813F29F4CF
:1037F000809157011816BCF362C090915601823F28
:1038000029F497FF5CC01092560159C0833F19F408
:103810001916CCF354C0893F41F480915801181611
:103820000CF04DC0109258014AC08A3F29F4809193
:10383000580187FF44C0F6CF8B3F39F4809159017E
:1038400087FF3DC0109259013AC08C3F29F4809106
:1038500059011816BCF333C0843F21F480915501FF
:103860008E7F17C0853F21F4809155018D7F11C057
:10387000863F21F4809155018B7F0BC0873F21F457
:1038800080915501877F05C0883F31F480915501B3
:103890008F7E8093550113C08D3F21F4809171017B
:1038A0008E7F0BC08E3F21F4809171018D7F05C00A
:1038B0008F3F29F4809171018B7F809371018091FA
:1038C000560181110EC08091570181110AC080916B
:1038D0005801811106C080915901811102C01092D6
:1038E0005A0108958091710180FF08C060910D0117
:1038F00070E0759567957595679521C081FF06C045
:1039000060910D0170E07595679519C082FF04C044
:1039100060910D0170E010C090915A019923C1F09F
:1039200060910C019617A0F780910D01899FC0014D
:10393000112470E00E94402D6038710528F4611553
:10394000710521F0862F08958FE7089581E008958D
:1039500061E070E0F4CF8091710180FF0BC0609155
:103960000F0185E0689FB0011124759567957595E5
:1039700067952BC081FF09C060910F0185E0689FAA
:10398000B00111247595679520C082FF07C0609132
:103990000F0185E0689FB001112417C090915A0172
:1039A0009923D1F060910E01961788F720910F01AD
:1039B00085E0289F90011124929FA001939F500DB4
:1039C000112470E0CA010E94402D6038710540F456
:1039D0006115710539F002C065E070E0862F089529
:1039E0008FE7089581E00895803F21F40E94AB1C89
:1039F000819504C0813F29F40E94AB1C809357013C
:103A00000895823F21F40E94AB1C819504C0833F3E
:103A100029F40E94AB1C809356010895893F19F444
:103A20000E94721C05C08A3F31F40E94721C81956D
:103A30008093580108958B3F21F40E94721C819558
:103A400004C08C3F29F40E94721C80935901089590
:103A5000843F21F480915501816017C0853F21F496
:103A600080915501826011C0863F21F480915501FB
:103A700084600BC0873F21F480915501886005C0A8
:103A8000883F31F4809155018061809355010895FC
:103A90008D3F21F48091710181600BC08E3F21F434
:103AA00080917101826005C08F3F29F4809171017E
:103AB0008460809371010895CF93C82F8CE20E9497
:103AC0001027882321F08C2FCF910C94102780E0B1
:103AD000CF910895EF92FF920F931F93CF93DF93AF
:103AE000EC018B01809191018CBD809192018DBD83
:103AF0002C980E94B4277C0188818EBD00000DB4F3
:103B000007FEFDCF8EB58E3FB9F42C9A22E42A959C
:103B1000F1F700C02C98C7010E948A2780179107EF
:103B200058F380E001C081E02C9ADF91CF911F9182
:103B30000F91FF90EF900895FE0131968B818F7762
:103B40008D5F9F01280F311DC901E817F90758F74C
:103B500021912EBD0DB407FEFDCFF7CF662369F08E
:103B6000FC01860F911DE817F90738F41EBC0DB44F
:103B700007FEFDCF2EB52193F6CF08951F93CF9367
:103B8000DF93CDB7DEB7AA970FB6F894DEBF0FBEAE
:103B9000CDBFE9E8F1E088E08E0F9091F1009193BC
:103BA0008E13FBCF80918A01833009F460C030F41A
:103BB000813071F0823009F49AC0B1C08A3009F4C2
:103BC00086C08B3009F46BC0893009F0A8C020C0D2
:103BD00080918901813A09F0A2C08091E800877F35
:103BE0008093E80080918D0190918E01892B21F4C2
:103BF00068E08DE791E003C060E080E090E070E075
:103C00000E94042C8091E8008B778093E80087C0A5
:103C100080918901813209F082C080918D0190915B
:103C20008E01029708F07BC08091E800877F809327
:103C3000E8008091E80082FD05C080918701811134
:103C4000F8CF6DC02091F3008091F20090E0922BAC
:103C5000029729F48091F1008B7F813021F48091CB
:103C6000F10080937C018091E8008B7754C08091B3
:103C70008901813A09F053C080918D0190918E01A4
:103C8000892B09F04CC08091E800877F8093E80081
:103C90008091E80080FFFCCF8091100137C08091B7
:103CA00089018132E1F580918D0190918E01892BFE
:103CB000B1F58091E800877F8093E8000E94B02BE7
:103CC00080918B01809310010E94392928C0809136
:103CD0008901813221F58091E800877F8093E80097
:103CE0000E94B02B80918C0180937B0118C0809141
:103CF0008901813AA1F48091E800877F8093E800F0
:103D00008091E80080FFFCCF80917B018093F100DF
:103D10008091E8008E778093E8000E94B02B80911C
:103D2000E80083FFE2C18091890190918A01492FC7
:103D300050E04A30510508F0D8C1FA01EA5AFF4F65
:103D40000C94542D803821F0823809F0CEC108C07F
:103D50008091850190918601992389F082600FC03E
:103D600080918D018F70873008F0BFC18093E9008A
:103D70008091EB0085FB882780F91092E9009091F3
:103D8000E800977F9093E8008093F1001092F10093
:103D90007FC1282F2D7F09F0A8C1882319F0823018
:103DA00061F0A3C180918B01813009F09EC19330F5
:103DB00009F080E0809386012EC080918B018111F3
:103DC0002AC080918D018F702FEF280F263008F0C8
:103DD0008CC18093E9002091EB0020FF1CC0933040
:103DE00021F48091EB00806214C09091EB0090610F
:103DF0009093EB0021E030E0A90102C0440F551F71
:103E00008A95E2F74093EA001092EA008091EB0075
:103E100088608093EB001092E9008091E800877F32
:103E20008093E8000E94B02B60C181115EC11091A7
:103E30008B011F778091E3008078812B8093E300D2
:103E40008091E800877F8093E8000E94B02B8091EA
:103E5000E80080FFFCCF8091E30080688093E3005E
:103E6000111102C082E001C083E0809387013DC14F
:103E70008058823008F039C120918B0130918C013B
:103E80002C3D53E0350779F583E08A838AE2898304
:103E90004FB7F894DE01139620E03EE051E2E32FA5
:103EA000F0E050935700E49120FF03C0E295EF70DB
:103EB0003F5FEF708E2F90E0EA3010F0C79601C0A0
:103EC000C0968D939D932F5F243149F74FBF80910A
:103ED000E800877F8093E8006AE270E0CE010196F7
:103EE0000E94042CC4C080918D0190918E01432FBB
:103EF000552743305105B9F06CF44130510509F4B0
:103F000003C14230510509F0F0C08BE590E0EDEEC1
:103F1000FCE05BC04132510509F434C04232510526
:103F200009F43FC0E2C0C901992781309105D1F061
:103F30005CF4892B09F0D9C0E4E9FDE0E4918E2F0F
:103F400090E0E4E9FDE03EC08230910599F00397EE
:103F500009F0CBC0EAE5FDE0E4918E2F90E0EAE5C0
:103F6000FDE030C0E4E8FDE0E4918E2F90E0E4E86D
:103F7000FDE028C0E0E6FDE0E4918E2F90E0E0E671
:103F8000FDE020C08330910508F0AFC0880F991F75
:103F9000FC01E75DFE4F0190F081E02D89E090E0AB
:103FA00014C08330910508F0A0C0FC01EE0FFF1F84
:103FB000ED5DFE4F0190F081E02DDC01A05EBE4F73
:103FC0008C9190E0009709F490C02091E800277F41
:103FD0002093E80020918F01309190012817390734
:103FE00008F4C90140E0009789F12091870122235C
:103FF00009F43DC02530D9F12091E80023FD37C0F8
:104000002091E80022FD2FC02091E80020FFEBCF97
:104010004091F3002091F20030E0342B009759F0EA
:104020002830310540F444914093F10031960197D6
:104030002F5F3F4FF3CF41E02830310509F040E0DA
:104040002091E8002E772093E800CDCF4111CDCF0D
:104050000AC080918701882351F0853041F080911A
:10406000E80083FD04C08091E80082FFF2CF8091D8
:10407000E8008B778093E80038C08038B1F58091F4
:10408000E800877F8093E800809188018093F100A9
:104090008091E8008E77C4CE811127C010918B01EA
:1040A000123018F58091E800877F8093E800109324
:1040B00088010E94B02B111106C08091E30087FD9A
:1040C00002C081E001C084E08093870142E061EC9E
:1040D00081E00E94CF2B42E261EC82E00E94CF2B74
:1040E00042E261EC83E00E94CF2B8091E80083FFE5
:1040F00010C08091E800877F8093E8008091EB00FA
:1041000080628093EB0005C082E190E0E8E4FDE08E
:104110005CCFAA960FB6F894DEBF0FBECDBFDF917D
:10412000CF911F9108951F920F920FB60F921124F5
:104130002F933F934F935F936F937F938F939F93AF
:10414000AF93BF93CF93DF93EF93FF93C091E900B9
:10415000CF708091EC00D82FD17080FDD0E8109204
:10416000E9008091F000877F8093F00078940E94AE
:10417000BE1D1092E9008091F00088608093F000ED
:10418000CD2BCF70C093E900FF91EF91DF91CF91DC
:10419000BF91AF919F918F917F916F915F914F915F
:1041A0003F912F910F900FBE0F901F901895E8ED43
:1041B000F0E080818E7F80831092E2001092DA001E
:1041C0001092E100A0EEB0E08C9181608C93808130
:1041D0008F77808319BCA7EDB0E08C918E7F8C9394
:1041E00080818F7E808310927A010895CF92DF9232
:1041F000EF92FF920F931F93CF93DF93C8EDD0E020
:1042000088818F7E8883E7EDF0E080818160808304
:1042100084E082BF81E080937A0188818E7F8883E9
:1042200002EE10E0F80110821092DA0081EEC82E42
:10423000D12CF601108288818F77888388818068ED
:10424000888388818F7D888319BC109287011092A2
:104250008801109286011092850190EEE92EF12CD2
:10426000F70180818B7F808388818160888342E031
:1042700060E080E00E94CF2BF60180818E7F8083FA
:10428000F801808181608083808188608083F7016C
:1042900080818E7F8083888180618883DF91CF9148
:1042A0001F910F91FF90EF90DF90CF9008951F9294
:1042B0000F920FB60F9211242F933F934F935F935A
:1042C0006F937F938F939F93AF93BF93EF93FF93DE
:1042D0008091E10082FF49C08091E20082FF45C0E9
:1042E0008091E1008B7F8093E100209179012F5F25
:1042F000822F62E30E94342D992319F020937901D3
:1043000034C01092790180917801882371F18091F5
:104310008701843041F58091E9008F702091EC0095
:10432000922F917020FD90E8892B93E09093E90003
:104330009091EB0090FF14C09091EE0097FF10C099
:104340009091E80095FF03C01092F100F9CF909191
:10435000E80090FF05C09091E8009E779093E800F8
:104360008F708093E900109278018091DA0080FFCD
:1043700030C08091D80080FF2CC08091DA008E7F01
:104380008093DA008091D90019BC80FF1AC082E0C6
:1043900089BD09B400FEFDCF81E08093870189EDDE
:1043A0009CE00E948C0880917A01811112C00E94C9
:1043B000D7200E94F6208091E20084608093E20082
:1043C00008C0109287018DED9CE00E948C0810922D
:1043D0007A018091E10080FF1BC08091E20080FFA4
:1043E00017C08091E2008E7F8093E2008091E2000E
:1043F00080618093E2008091D80080628093D80031
:1044000019BC85E08093870181EE9CE00E948C08B6
:104410008091E10084FF35C08091E20084FF31C0CB
:1044200019BC82E089BD09B400FEFDCF8091D8009F
:104430008F7D8093D8008091E1008F7E8093E10092
:104440008091E2008F7E8093E2008091E2008160A3
:104450008093E20080918801882311F084E007C0F6
:104460008091E30087FD02C081E001C083E080937A
:10447000870185EE9CE00E948C080E9439290E94E9
:104480009D148091E10083FF2BC08091E20083FFA7
:1044900027C08091E100877F8093E10082E08093D4
:1044A0008701109288018091E1008E7F8093E10066
:1044B0008091E2008E7F8093E2008091E200806133
:1044C0008093E20042E060E080E00E94CF2B809188
:1044D000F00088608093F00089EE9CE00E948C08D8
:1044E000FF91EF91BF91AF919F918F917F916F91CC
:1044F0005F914F913F912F910F900FBE0F901F90A2
:1045000018952091E4003091E50095E64091EC008B
:10451000842F817040FF22C08091E80080FD1CC084
:1045200080918701882391F0853091F08091EB0094
:1045300085FD10C04091E4005091E50042175307FB
:1045400029F39A01915011F784E0089582E00895CB
:1045500083E0089581E0089580E008954091E800A7
:1045600042FFDECF0895EF92FF920F931F93CF93F8
:10457000DF93EC017B010E94B4278C0166990CC08B
:1045800082E08A95F1F700C0C8010E948A278E1543
:104590009F05A0F380E030C0809191018CBD809197
:1045A00092018DBD2C981EBC00000DB407FEFDCFFE
:1045B0009EB598839E5F923070F42C9A82E48A951F
:1045C000F1F700C02C98C8010E948A278E159F051C
:1045D00050F380E010C063E0CE0101960E94AE1D52
:1045E0006B816F77862F90E0419724F4CE0104967B
:1045F0000E94AE1D81E02C9ADF91CF911F910F9107
:10460000FF90EF900895CF92DF92FF920F931F9348
:10461000CF93DF931F92CDB7DEB7F82E8B0199832E
:104620000E948122998181111CC0CF2CD92E0115A5
:104630001105B1F08091E80085FD0AC08091E80085
:104640008E778093E8000E948122882381F309C03D
:10465000F60181916F018093F10001501109E7CFBC
:1046600080E00F90DF91CF911F910F91FF90DF902D
:10467000CF9008951092360310923703E0EAF1E0EC
:10468000148215820895DF92EF92FF920F931F9389
:10469000CF93DF93CDB7DEB764970FB6F894DEBF44
:1046A0000FBECDBFE091A5019091A401E91709F4D7
:1046B00086C0D82EF0E0EE0FFF1FE056FE4FE080E0
:1046C000F180669B51C007EC1DE066E970E0CE0109
:1046D00001960E94B322882309F471C08C8187FD62
:1046E00031C02091A5018091A401281771F030E01C
:1046F000F901EE0FFF1FE056FE4FE080F1802F5FC3
:104700003F4F217033272093A50180919F0180FFA7
:1047100019C00E94B4278E159F0528F00E94B42767
:104720008E199F0905C00E94B4278E199F09019711
:104730009F938F931F930F930E9425090F900F90C3
:104740000F900F90DD20D9F1E091A5018091A40197
:10475000E817A9F1F0E0EE0FFF1FE056FE4FE080F2
:10476000F1806699B2CF2BC0C7010E948A278D3293
:10477000914028F180919F0180FF15C08091A40194
:1047800090E02091A501821B910997FD8E5F1F92F9
:104790008F9388E99DE09F938F930E9425090F9046
:1047A0000F900F900F908091A5019091A40189170F
:1047B00031F090E00196817099278093A50164966D
:1047C0000FB6F894DEBF0FBECDBFDF91CF911F9122
:1047D0000F91FF90EF90DF9008955F926F927F921C
:1047E0008F929F92AF92BF92CF92DF92EF92FF9201
:1047F0000F931F93CF93DF93CDB7DEB7A8970FB674
:10480000F894DEBF0FBECDBF6C017B015A01522E62
:10481000FC0101900020E9F7CF0101973C01222320
:1048200081F080919F0180FF0CC0DF92CF928BE0DE
:104830009FE09F938F930E9425090F900F900F90F8
:104840000F90E114F10411F180E048EB842E4EE06A
:10485000942E2091A4019091A5012917A9F081110E
:104860000EC080919F0180FF0AC0DF92CF929F927D
:104870008F920E9425090F900F900F900F9081E06A
:104880000E94432381E0E5CFF701108220E1922EC0
:104890003AE0832EA3014C195D09888D4131510501
:1048A000DCF09D8A1E8A8F8A807880618068888F7C
:1048B000F601DE015996892D01900D928A95E1F756
:1048C000B801CE0145960E946A1D882309F49AC05A
:1048D000F0E1CF0ED11CDECF80E18D8B1E8A8AE005
:1048E0008F8B842F8F77888F5527B601CE014996FD
:1048F0000E946E2DB801CE0145960E946A1DD82EE9
:10490000882309F47FC0E114F10409F049C00E9432
:10491000B4278C012091A40130E0C9010196817077
:1049200099274091A501481304C080E00E944323C9
:10493000F1CF220F331FF901E056FE4F11830083A0
:104940008093A4010E94B4279C018017910720F056
:104950008017910731F48CC0801B910B019709F4EB
:1049600087C080919F0180FBFF24F0F880FF80C00A
:104970002017310718F0201B310B04C0009510954B
:10498000200F311F3F932F9381EF9EE09F938F93D2
:104990000E9425090F900F900F900F90DF2C68C098
:1049A000AE0CBF1C87016CE271E0CE0101960E9443
:1049B000B322811109C080919F0180FF23C08BED3C
:1049C0009EE00E948C081EC08981803219F0F70198
:1049D000108218C08C818F778A2C801A881508F471
:1049E000882E882051F0912CA401BE016B5F7F4F6F
:1049F000C8010E946E2D080D191D8C8187FDD3CF33
:104A0000F80106C0D12C34C08F0180818A3039F47E
:104A10001082F8013197EE16FF06B0F302C08D3018
:104A2000B9F36AE070E0C7010E94822D009711F08F
:104A3000019601C0C70168ED7EE00E949A2C11E04A
:104A4000892B09F010E0511002C0111111C08091A2
:104A50009F0180FF0CC0FF92EF928CEC9EE09F9331
:104A60008F930E9425090F900F900F900F90D12ED9
:104A70008D2DA8960FB6F894DEBF0FBECDBFDF9187
:104A8000CF911F910F91FF90EF90DF90CF90BF904B
:104A9000AF909F908F907F906F905F900895AF92AE
:104AA000BF92CF92DF92EF92FF920F931F93CF931B
:104AB000DF9300D0CDB7DEB78C015B01CDB6DEB69B
:104AC00049835A830E94AA2C01962DB73EB7281B12
:104AD000390B0FB6F8943EBF0FBE2DBF8DB79EB7F2
:104AE00001967C01B8010E94A32C06E910E020E0A9
:104AF00049815A81B501C7010E94ED230FB6F89490
:104B0000DEBE0FBECDBE0F900F90DF91CF911F91F3
:104B10000F91FF90EF90DF90CF90BF90AF900895EE
:104B20008F929F92AF92BF92CF92DF92EF92FF92BD
:104B30000F931F93CF93DF93CDB7DEB7CA57D10939
:104B40000FB6F894DEBF0FBECDBF3091A401209107
:104B5000A501321351C12091370330913603231739
:104B600009F44AC16C018AE0829F900111242A5500
:104B70003E4FF901DE01AF58BF4F01900D928A956B
:104B8000E1F7F9019080E180F28015810681B7801C
:104B9000A08481840E94B4279C0190939E018093FD
:104BA0009D018E159F0520F08E159F0529F41BC0D1
:104BB0008E199F090197B9F080919F0180FF13C062
:104BC000C9018E199F092E153F0508F401979F937F
:104BD0008F9383E69EE09F938F930E9425090F9009
:104BE0000F900F900F9081E09812D3C06FE07EE09D
:104BF0008E010F5F1F4FC8010E94A32CE6968FAD58
:104C0000E6978F93E5968FADE5978F931F930F935C
:104C10001F9280E38F937E01F1E4EF0EF11CFF926F
:104C2000EF920E948D2D860121E040E050E060E08F
:104C300070E0C7010E94ED230FB6F894DEBF0FBEEF
:104C4000CDBF69C092E0991268C060EF7DE0CE01EF
:104C500001967C010E94A32C802F002E000C990B42
:104C60009F930F93812F012E000C990B9F931F93FD
:104C7000E6968FADE697282F082E000C330B3F9356
:104C80008F93E5968FADE597282F082E000C330BF8
:104C90003F938F93FF92EF921F9280E38F937E0159
:104CA00091E4E90EF11CFF92EF920E948D2D860196
:104CB00021E040E050E060E070E0C7010E94ED2399
:104CC0000FB6F894DEBF0FBECDBF882309F44CC0E9
:104CD0006AED7DE0C7010E94A32CB0FE05C06FE223
:104CE00071E0C7010E94772DB1FE05C061E371E05C
:104CF000C7010E94772DB2FE7AC063E371E0C7015D
:104D00000E94772D860121E040E050E060E070E0F5
:104D1000C7010E94ED23882339F180913703209148
:104D20003603821741F090E0019668E270E00E943D
:104D3000402D8093370380919F0180FF5DC0822FBB
:104D400090E020913703821B910997FD885D1F92A7
:104D50008F9382E99EE09F938F930E9425090F9085
:104D60000F900F900F9048C080919F0180FF04C06A
:104D700086E79EE00E948C08FFE729EA33E0F150C5
:104D800020403040E1F700C0000081E00E94432352
:104D900033C0981608F056CF6AE27EE09E012F5F7E
:104DA0003F4F7901C9010E94A32C1F928F921F923D
:104DB000AF921F92BF921F920F931F921F93E6967E
:104DC0008FADE6971F928F93E5968FADE5971F9273
:104DD0008F93FF92EF921F9280E38F937E0131E4D5
:104DE000E30EF11CFF92EF920E948D2D1CCFB110AB
:104DF00089CF65E371E083CFC658DF4F0FB6F894D3
:104E0000DEBF0FBECDBFDF91CF911F910F91FF90FD
:104E1000EF90DF90CF90BF90AF909F908F900895CC
:104E2000CF93DF93AEE4B1E040E050E090E06D91CD
:104E300020E030E070E0FB01022E02C0F595E7951E
:104E40000A94E2F7E0FF0CC0F901E40FF51FEE0F42
:104E5000FF1FEB50F04FC591D4918C179D0761F067
:104E60002F5F3F4F2830310531F7485F5F4F4033A8
:104E70005105E9F680E001C081E0DF91CF9108950E
:104E800081E08093E00080E28093D8001092C90016
:104E90008FE097E20197F1F700C0000087E090EB08
:104EA000DC018093480390934903A0934A03B09395
:104EB0004B039CE088E10FB6F894A89580936000BE
:104EC0000FBE90936000FFCF78941F920F920FB6A1
:104ED0000F9211248F939F93AF93BF938091720190
:104EE00090917301A0917401B09175010196A11D7B
:104EF000B11D8093720190937301A0937401B093DC
:104F00007501BF91AF919F918F910F900FBE0F9040
:104F10001F901895CF92DF92EF92FF920F931F93FD
:104F20002FB7F89440917201509173016091740110
:104F3000709175012FBF6A017B01EE24FF248C0163
:104F400020E030E0C016D106E206F30610F441502E
:104F500051099A01281B390BC9011F910F91FF902C
:104F6000EF90DF90CF9008952FB7F8948091720161
:104F700090917301A0917401B09175012FBF0895B4
:104F80001F920F920FB60F9211248F939F93AF939E
:104F9000BF938091720190917301A0917401B091BF
:104FA00075014196A11DB11D80937201909373010B
:104FB000A0937401B0937501BF91AF919F918F91B0
:104FC0000F900FBE0F901F9018959C01FC01329618
:104FD0009FEF80E04191461789F09F3F19F44111FE
:104FE00001C0982F8F5F8630A9F79F3F39F0F901F4
:104FF000E90FF11D97FDFA95628308950895CF9307
:1050000084E090E00E94BB2CC82F81E290E00E94D7
:10501000BB2C2C2F30E0A901582BCA01CF91089549
:105020006CEE7EEF80E090E00E94E72C60E082E092
:1050300090E00E94C92C60E083E090E00E94C92CBF
:1050400010924403109245031092460310924703B6
:1050500060E084E090E00E94C92C60E081E290E092
:105060000E94C92C60E085E090E00E94C92C60E0BD
:1050700086E090E00E94C92C6FEF87E090E00E94EC
:10508000C92C40E050E0BA0188E090E00E94DB2C9F
:1050900060E08DE090E00E94C92C40E050E0BA0151
:1050A00088E190E00E94DB2C60E087E190E00E94C4
:1050B000C92C40E050E0BA018CE190E00E94DB2C6A
:1050C00060E080E290E00E94C92C40E050E0BA012C
:1050D0008FE090E00E94DB2C40E050E0BA0183E1D9
:1050E00090E00C94DB2CFF920F931F93CF93DF93F0
:1050F0009091420380914303892B90914103892B26
:1051000080933803E0914C01F0914D013097B1F15B
:105110000280F381E02D88E393E0099580919F015F
:1051200082FF2CC080FF04C083EE9FE00E948C08A9
:10513000C8E3D3E00DED1FE0FC2E88E0F80E80916F
:105140009F0180FF0BC088811F928F931F930F9345
:105150000E9425090F900F900F900F902196FC123E
:10516000EECF80919F0180FF09C08BED9FE0DF9122
:10517000CF911F910F91FF900C948C08DF91CF91EC
:105180001F910F91FF9008951092420310924103D6
:105190000E947328E4E5F1E086E0DF011D928A9524
:1051A000E9F710925A01109271010E94551B80E09C
:1051B00090E00E94E70E80E090E00C94D10E0F93F7
:1051C0001F934091440350914503609146037091B1
:1051D0004703CB01AA27BB270097A105B10521F002
:1051E000AC01BD0180E101C080E0052F162F272F03
:1051F0003327011511052105310519F0885FB90123
:10520000A8018A019B01F4E036952795179507952B
:10521000FA95D1F7011511052105310519F08C5FBB
:10522000B901A8018A019B01E2E0369527951795FF
:105230000795EA95D1F7011511052105310519F0FA
:105240008E5FB901A8017695679557954795452BCF
:10525000462B472B09F08F5F1F910F9108956093A4
:1052600044037093450380934603909347030C9443
:10527000C4281092430386E0EAE3F3E0DF011D92C5
:105280008A95E9F70C94C428882341F08095909181
:1052900043038923809343030C9473280895882340
:1052A000E1F19CEF980F913A60F4EAE3F3E096E0C5
:1052B0009E0F2081281301C0108231969E13F9CFD2
:1052C00014C090E2980F983090F4877021E030E09D
:1052D000A90102C0440F551F8A95E2F7CA018095C3
:1052E000909143038923809343030C9473289BE597
:1052F000980F933020F480E090E00C94E70E98E54E
:10530000980F973120F480E090E00C94D10E803F0C
:1053100020F00E94ED1B0C94551B0895CF93882319
:1053200009F409C2C82F8CEF8C0F813A08F03FC1F5
:1053300080917601813069F018F08230A1F12AC1A4
:1053400080914303823209F02CC18C2F0E94C01837
:1053500026C1809143038232C1F3C431E1F070F47D
:10536000CB3081F0C031D1F40E9488178BE19FE0EF
:105370000E948C0882E080937601DBC1C93259F02B
:10538000C83361F483E597E00E948C088FE19FE0C9
:105390000E948C08CEC110927601FFC089E19FE087
:1053A0000E948C08FAC0C43228F5CE3108F0C1C082
:1053B000CB30A1F1D0F4C73009F0D3C08EE1809397
:1053C000000182E3809301018AE080930F0184E170
:1053D00080930E0188E080930D0188E280930C0198
:1053E0008AEC9FE00E948C08BFC0C33149F1C431F0
:1053F000C1F0B7C0CB3409F4A9C028F4C93289F090
:10540000C83361F0AEC0C13509F49EC0C23509F49D
:1054100099C0CE3409F0A5C06AE09EC00E948817EA
:10542000A3C080914003882319F0109240039CC0D0
:1054300087ED9FE00E948C0881E0809376017BC11C
:1054400081EB9FE00E948C088FE99FE00E948C080E
:10545000809100011F928F938CE99FE09F938F931F
:105460000E9425098AE99FE00E948C0888E89FE055
:105470000E948C08809101011F928F9385E89FE024
:105480009F938F930E94250983E89FE00E948C08D8
:1054900084E79FE00E948C0880910F011F928F93F8
:1054A00081E79FE09F938F930E9425098FE69FE0FD
:1054B0000E948C088EE59FE00E948C0880910E016E
:1054C0001F928F938BE59FE09F938F930E942509F6
:1054D00089E59FE00E948C0884E49FE00E948C088C
:1054E00080910D011F928F9381E49FE09F938F9392
:1054F0000E9425098FE39FE00E948C0888E29FE0CC
:105500000E948C0880910C011F928F9385E29FE08E
:105510009F938F930E94250983E29FE00E948C084D
:105520008DB79EB748960FB6F8949EBF0FBE8DBF3D
:105530001BC0CE51EC2FF0E0E95CFE4F80818093E0
:10554000400312C061E003C061E006C06AE08091E0
:1055500040030E941D1808C0809140030E949F17BD
:1055600003C088EC9FE013C080914003882369F05A
:105570001F928F9382EC9FE09F938F930E94250947
:105580000F900F900F900F90D6C08FEB9FE0CF91B0
:105590000C948C081092760104C080E08170811117
:1055A000CAC06C2F88E393E00E94E52710C080E218
:1055B0008C0F883078F4C77081E090E001C0880FCC
:1055C000CA95EAF790914303892B80934303CF91C7
:1055D0000C9473288BE58C0F833078F4C53A29F04E
:1055E000C63A31F083E890E005C081E890E002C05F
:1055F00082E890E0CF910C94E70E88E58C0F87311C
:1056000008F08FC0C83A09F445C0C93A09F445C04A
:10561000CA3A09F445C0CB3A09F445C0CC3A09F47A
:1056200045C0CB3B09F445C0CC3B09F445C0CD3A5D
:1056300009F445C0C03B09F445C0CE3A09F445C061
:10564000CF3A09F445C0C13B09F445C0C23B09F457
:1056500045C0C33B09F445C0C43B09F445C0C53B44
:1056600009F445C0C63B09F445C0C73B09F445C031
:10567000C83B09F445C0C93B09F445C0CD3B09F41A
:1056800045C0CE3B09F445C0CA3B09F445C080E0A3
:1056900090E044C082EE90E041C089EE90E03EC0D0
:1056A0008AEE90E03BC085EB90E038C086EB90E05E
:1056B00035C083EB90E032C084EB90E02FC087EBE5
:1056C00090E02CC08CEC90E029C08DEC90E026C0DE
:1056D00083E891E023C08AE891E020C082E991E06C
:1056E0001DC084E991E01AC081E292E017C083E214
:1056F00092E014C084E292E011C085E292E00EC014
:1057000086E292E00BC087E292E008C08FE690E06C
:1057100005C080E790E002C08AE292E0CF910C944D
:10572000D10EC03F40F08C2F0E94F41CCF910C94FE
:10573000551B81E033CFCF910895CF93C82F0E949E
:105740008E29C93349F42FEF83EF91E02150804037
:105750009040E1F700C000008C2FCF910C944F29AE
:105760008091890187FF11C08091E80082FD05C00A
:10577000809187018111F8CF11C08091E8008B776B
:105780000BC080918701882349F08091E80080FF59
:10579000F8CF8091E8008E778093E8000895982FE5
:1057A000973058F59093E900981739F07091EC0014
:1057B0002091ED005091F00003C0242F762F50E08F
:1057C00021FF19C03091EB003E7F3093EB00309108
:1057D000ED003D7F3093ED003091EB003160309370
:1057E000EB007093EC002093ED005093F0002091BB
:1057F000EE0027FF07C09F5FD3CF8F708093E90033
:1058000081E0089580E0089520918F01309190010A
:105810002617370748F06115710539F42091E80023
:105820002E772093E80001C0B90140E061157105B1
:10583000A9F120918701222309F443C0253009F4FE
:1058400042C02091E80023FD40C02091E80022FDE5
:1058500032C02091E80020FFE9CF4091F300209171
:10586000F20030E0342BFC01CF016115710559F0D5
:105870002830310540F481918093F1006150710925
:105880002F5F3F4FF1CF41E02830310509F040E074
:105890002091E8002E772093E800C8CF4111C9CFAE
:1058A0000AC080918701882361F0853061F0809182
:1058B000E80083FD0AC08091E80082FFF2CF80E01B
:1058C000089582E0089583E0089581E0089580912D
:1058D0001101811107C080918701843011F083E0AC
:1058E000089582E00895FC0188279927E894219182
:1058F0002032E9F3293010F02E30C8F32B3241F07A
:105900002D3239F4689404C00E94B32C820F911D8B
:10591000219120532A30C0F31EF4909581959F4F1A
:105920000895FB01DC0102C005900D9241505040EA
:10593000D8F70895FB01DC018D91059080190110C5
:10594000D9F3990B0895FB01DC0105900D9200201D
:10595000E1F70895FC0105900020E9F78095909506
:105960008E0F9F1F08957AE0979F902D879F802D1F
:10597000910D11240895F999FECF92BD81BDF89A39
:10598000992780B50895A8E1B0E042E050E00C947A
:10599000EF2C262FF999FECF92BD81BDF89A019781
:1059A00000B4021639F01FBA20BD0FB6F894FA9A67
:1059B000F99A0FBE08950396272F0E94CA2C0E94C1
:1059C000C92C252F0E94CA2C242F0C94CA2C019676
:1059D000272F0E94CA2C0C94C92CDC01CB01FC019E
:1059E000F999FECF06C0F2BDE1BDF89A319600B438
:1059F0000D9241505040B8F708952F923F924F9228
:105A00005F926F927F928F929F92AF92BF92CF924E
:105A1000DF92EF92FF920F931F93CF93DF93CDB757
:105A2000DEB7CA1BDB0B0FB6F894DEBF0FBECDBFCF
:105A300009942A88398848885F846E847D848C84A0
:105A40009B84AA84B984C884DF80EE80FD800C81A9
:105A50001B81AA81B981CE0FD11D0FB6F894DEBF8C
:105A60000FBECDBFED010895991B79E004C0991FC9
:105A7000961708F0961B881F7A95C9F780950895A8
:105A800097FB072E16F4009407D077FD09D00E94EB
:105A90005A2D07FC05D03EF4909581959F4F0895AF
:105AA000709561957F4F0895EE0FFF1F0590F4915B
:105AB000E02D0994AA1BBB1B51E107C0AA1FBB1F05
:105AC000A617B70710F0A61BB70B881F991F5A958A
:105AD000A9F780959095BC01CD010895FB01DC01EB
