:100000000C942E080C9480080C9480080C948008A2
:100010000C9480080C9480080C9480080C94800840
:100020000C9480080C9480080C942B190C9467187D
:100030000C944D0E0C9480080C9480080C9480084D
:100040000C9480080C9480080C9480080C94800810
:100050000C9480080C946A0D0C9480080C94800811
:100060000C9480080C9480080C9480080C948008F0
:100070000C9480080C9480080C9480080C948008E0
:100080000C9480080C9480080C9480080C948008D0
:100090000C9480080C9480080C9480080C948008C0
:1000A0000C9480080C9480080C94800881138313AE
:1000B0008E138513871389138B138D13901392134B
:1000C00094139F13961398139A139C139E13A113C2
:1000D00076169D1649189D164918E9160C174918E9
:1000E00011182018000000000000000000000000AF
:1000F0000000000000000000000000000000000000
:1001000000000000000000000000000000000000EF
:1001100000000000000000000000000000000000DF
:1001200000000000000000000000000000000000CF
:1001300000000000000000000000000000000000BF
:1001400000000000000000000000000000000000AF
:10015000000000000000000000000000000000009F
:10016000000000000000000000000000000000008F
:10017000000000000000000000000000000000007F
:100180000000000000010101010101000101010165
:10019000000000000000000000000000000001005E
:1001A0000100010101010101010101010101010140
:1001B0000101010101010101010101010101010030
:1001C000000001010000000000000000000000002D
:1001D000000000000000000000000000000000011E
:1001E0000101010000000000000000002A2B28008F
:1001F00000000000000000000000000000000029D6
:10020000000000002C1E3420212224342627252E15
:10021000362D3738271E1F2021222324252633334D
:10022000362E37381F0405060708090A0B0C0D0E79
:100230000F101112131415161718191A1B1C1D2F45
:100240003130232D350405060708090A0B0C0D0E65
:100250000F101112131415161718191A1B1C1D2F25
:100260003130354C68747470733A2F2F716D6B2E6A
:10027000666D2F012800514D4B206973207468650D
:100280002062657374207468696E67206576657294
:10029000210044454255473A2064697361626C65A8
:1002A000642E0A0044454255473A20656E61626CEF
:1002B00065642E0A003F004D3E2000433E20000AA8
:1002C00000257500363A20776865656C5F74696D46
:1002D000655F746F5F6D61783A20000A00257500D4
:1002E000353A20776865656C5F6D61785F7370651E
:1002F00065643A20000A00257500343A2074696D5F
:10030000655F746F5F6D61783A20000A00257500A3
:10031000333A206D61785F73706565643A20000A36
:1003200000257500323A20696E74657276616C281A
:100330006D73293A20000A00257500313A20646562
:100340006C6179282A31306D73293A20000A092D11
:100350002056616C756573202D0A004D3E004D25B9
:10036000643E20003F007365742064656661756CAF
:10037000740A00433E20000A002530325820006BEA
:100380006579626F6172645F7265706F72743A2032
:1003900000290029003A003B003C003D003E003FA0
:1003A00000E00035001E001F002000210022002375
:1003B00000E0002B0014001A000800150017001CB4
:1003C00000E000390004001600070009000A0029B7
:1003D00000E000E1001D001B0006001900050029D7
:1003E00000E000E000E200E300E2002C002C002925
:1003F000000631FF0974A1010975150026FF00955B
:1004000020750881020976150026FF0095207508E1
:100410009102C005010902A10185020901A100059F
:100420000919012905150025019505750181029518
:1004300001750381010501093009311581257F9579
:10044000027508810609381581257F950175088197
:1004500006050C0A38021581257F9501750881066D
:10046000C0C005010980A101850316010026030013
:100470001A81002A8300751095018100C0050C09BE
:1004800001A1018504160100269C021A01002A9C84
:1004900002751095018100C005010906A10105073B
:1004A00019E029E7150025019508750181029501DC
:1004B0007508810105081901290595057501910245
:1004C0009501750391010507190029FF150026FF05
:1004D00000950675088100C05B435D005B445D00CC
:1004E0005B535D005B575D005B525D0009025B0082
:1004F000030100A0FA090400000103010100092121
:10050000110100012240000705810308000A0904C7
:1005100001000103000000092111010001228500F2
:100520000705820320000A090402000203000000FC
:100530000921110100012222000705830320000187
:10054000070503032000011201100100000008ED5F
:10055000FE0000010001020301040330000000223C
:10056000036300610063007400750073005F007333
:100570000070006C00690074005F0062006C006530
:100580000000000E036B002D0061006F007400611D
:1005900000000004030904290A002575002F002526
:1005A00075005D28002564002000256400200025DA
:1005B000640020002564007C0025303258006D6FF7
:1005C0007573656B6579205B62746E7C7820792029
:1005D0007620685D287265702F61636C293A205B14
:1005E000000A002575002E6E6B726F3A20000A001B
:1005F0002575002E737761705F6261636B736C6148
:1006000073685F6261636B73706163653A20000AAF
:10061000002575002E737761705F67726176655F84
:100620006573633A20000A002575002E6E6F5F67C0
:1006300075693A20000A002575002E737761705F96
:1006400072616C745F726775693A20000A002575E3
:10065000002E737761705F6C616C745F6C67756995
:100660003A20000A002575002E636170736C6F6379
:100670006B5F746F5F636F6E74726F6C3A20000A09
:10068000002575002E737761705F636F6E74726FF3
:100690006C5F636170736C6F636B3A20000A0025B6
:1006A000303258006B65796D61705F636F6E66699B
:1006B000672E7261773A20000A002575002E6D6F53
:1006C0007573653A20000A002575002E6B65796206
:1006D0006F6172643A20000A002575002E6D617406
:1006E0007269783A20000A002575002E656E6162F5
:1006F0006C653A20000A0025303258006465627546
:10070000675F636F6E6669672E7261773A20000AD1
:100710000025750064656661756C745F6C61796550
:10072000723A20000A092D204D61676963202D0A65
:10073000443A094465627567204D65737361676566
:1007400020546F67676C650A583A094D6174726985
:1007500078204465627567204D6F646520546F672B
:10076000676C65202D2053686F77206B65797072F8
:10077000657373657320696E206D6174726978208A
:10078000677269640A4B3A094B6579626F617264FA
:1007900020446562756720546F67676C65202D2063
:1007A00053686F77206B657970726573732072651B
:1007B000706F72740A4D3A094465627567204D6F17
:1007C00075736520546F67676C650A563A095665FC
:1007D0007273696F6E0A533A095374617475730AC0
:1007E000433A09416374697661746520436F6E739F
:1007F0006F6C65204D6F64650A46312D4631303A85
:100800000953776974636820746F204C617965724D
:1008100020302D392028463130203D204C30290A07
:10082000302D393A0953776974636820746F204C0E
:100830006179657220302D390A47524156453A098F
:1008400053776974636820746F204C6179657220F6
:10085000302028616C7465726E617465290A423AB1
:10086000094A756D7020746F20426F6F746C6F61F0
:100870006465720A4553433A094A756D7020746F76
:1008800020426F6F746C6F616465722028616C74B4
:1008900065726E617465290A453A095072696E7411
:1008A00020454550524F4D2053657474696E6773EF
:1008B0000A4253504143453A09436C6561722045F1
:1008C0004550524F4D0A000A092D20436F6E736F39
:1008D0006C65202D0A4553432F713A09717569746F
:1008E0000A6D3A096D6F7573656B65790A00474348
:1008F000433A20342E392E32204156522D4C494253
:10090000433A20312E382E3073766E204156525F96
:10091000415243483A20617672350A004F5054499B
:100920004F4E533A204C55464120424F4F544D4173
:10093000474943204D4F5553454B45592045585441
:1009400052414B455920434F4E534F4C4520434F46
:100950004D4D414E4420343039360A004255494C01
:10096000443A2022627265616B706F696E745F3207
:100970003031395F30385F33302E312E372D312D05
:100980006733646432393022202832313A33393ABD
:100990003131204F63742033302032303139290A0D
:1009A000005649443A20307846454544286B2D612D
:1009B0006F746129205049443A203078303030300B
:1009C000286361637475735F73706C69745F626CC4
:1009D0006529205645523A203078303030310A00AF
:1009E000444553433A204120637573746F6D206B07
:1009F0006579626F6172640A000A092D205665727A
:100A000073696F6E202D0A0074696D65725F72657F
:100A10006164333228293A202530346C580A006B3F
:100A20006579626F6172645F69646C653A2025580C
:100A30000A006B6579626F6172645F70726F746FC8
:100A4000636F6C3A2025580A00686F73745F6B659A
:100A500079626F6172645F6C65647328293A20253E
:100A6000580A000A092D20537461747573202D0AE9
:100A7000003F000A6D6F7573653A206F66660A0065
:100A80000A6D6F7573653A206F6E0A000A6B65799F
:100A9000626F6172643A206F66660A000A6B65795C
:100AA000626F6172643A206F6E0A000A6D6174723F
:100AB00069783A206F66660A000A6D617472697817
:100AC0003A206F6E0A000A64656275673A206F66A5
:100AD000660A000A64656275673A206F6E0A000A4A
:100AE0000A4A756D70696E6720746F20626F6F744B
:100AF0006C6F616465722E2E2E2000433E200043F1
:100B00006C656172696E6720454550524F4D0A0011
:100B10006565636F6E6669673A0A006D6B5F77683B
:100B200065656C5F74696D655F746F5F6D6178207A
:100B30003D2025640A006D6B5F776865656C5F6DAD
:100B400061785F7370656564203D2025640A006DDF
:100B50006B5F74696D655F746F5F6D6178203D20B8
:100B600025640A006D6B5F6D61785F737065656405
:100B7000203D2025640A006D6B5F696E7465727696
:100B8000616C203D2025640A006D6B5F64656C61BB
:100B900079203D2025640A006D6B5F776865656C80
:100BA0005F74696D655F746F5F6D6178203D2025AE
:100BB000640A006D6B5F776865656C5F6D61785F77
:100BC0007370656564203D2025640A006D6B5F7459
:100BD000696D655F746F5F6D6178203D2025640AE3
:100BE000006D6B5F6D61785F7370656564203D209B
:100BF00025640A006D6B5F696E74657276616C20A6
:100C00003D2025640A006D6B5F64656C6179203D51
:100C10002025640A0077686572652064656C7461DC
:100C20003A20637572736F723D25642C2077686576
:100C3000656C3D25640A53656520687474703A2FAD
:100C40002F656E2E77696B6970656469612E6F72AE
:100C5000672F77696B692F4D6F7573655F6B65796A
:100C6000730A000A092D204D6F7573656B65792035
:100C70002D0A4553432F713A09717569740A313A47
:100C80000964656C6179282A31306D73290A323A1A
:100C900009696E74657276616C286D73290A333A3E
:100CA000096D61785F73706565640A343A09746927
:100CB0006D655F746F5F6D61780A353A09776865B5
:100CC000656C5F6D61785F73706565640A363A09BB
:100CD000776865656C5F74696D655F746F5F6D6182
:100CE000780A0A703A097072696E742076616C75C0
:100CF00065730A643A097365742064656661756C8E
:100D000074730A75703A092B310A646F776E3A0969
:100D10002D310A706775703A092B31300A7067649B
:100D20006F776E3A092D31300A0A73706565642059
:100D30003D2064656C7461202A206D61785F73705A
:100D4000656564202A2028726570656174202F20F3
:100D500074696D655F746F5F6D6178290A004C2559
:100D6000640A007761697420666F7220627566207C
:100D700073706163650A0041545A0041542B424C20
:100D800045504F5745524C4556454C3D2D3132004C
:100D900041542B424C45484944454E3D3100415455
:100DA0002B4741504445564E414D453D6361637468
:100DB00075735F73706C69745F626C650041542B6E
:100DC000474150494E54455256414C533D31302CC9
:100DD00033302C2C004154453D3000646F6E652E3D
:100DE0000A00626F6F746D61676963207363616E7F
:100DF0003A202E2E2E20000A0025303862003A209C
:100E00000025303258000A722F63203031323334DB
:100E10003536370A000A0025303258006B65796292
:100E20006F6172645F7365745F6C65643A2000661D
:100E300061696C656420424C4520636F6D6D616E25
:100E4000643A2025533A2025730A00D50DBD0D9E26
:100E50000D900D7B0D770D2A2A2A2A2A2A20424C32
:100E60004520444953434F4E4E45435421212121AF
:100E70000A002A2A2A2A2A2A20424C4520434F4E79
:100E80004E454354212121210A0041542B485756F5
:100E90004241540041542B474150474554434F4E23
:100EA0004E0041542B4556454E54454E41424C450B
:100EB0003D3078320041542B4556454E54454E4105
:100EC000424C453D307831004B6579626F61726408
:100ED0002073746172742E0A0077616974696E6799
:100EE0005F666F725F726573756C743A2074696DBA
:100EF000656F75742C20726573705F627566207300
:100F0000697A652025640A0072656376206C6174D5
:100F1000656E63792025646D730A0041542B424C41
:100F2000454849444D4F555345425554544F4E3D05
:100F30000041542B424C454849444D4F5553454D73
:100F40004F56453D25642C25642C25642C256400D2
:100F500041542B424C45484944434F4E54524F4C08
:100F60004B45593D3078253034780041542B424C64
:100F7000454B4559424F415244434F44453D25302E
:100F800032782D30302D253032782D253032782DA5
:100F9000253032782D253032782D253032782D25A8
:100FA0003032780073656E64206C6174656E6379AD
:100FB0002025646D730A006661696C656420746F36
:100FC0002073656E642C2077696C6C207265747276
:100FD000790A0073656E645F6275665F73656E643F
:100FE0005F6F6E653A2068617665202564207265C2
:100FF0006D61696E696E670A0077616974206F6E52
:101000002062756620666F722025730A0072657310
:10101000756C743A2025730A004F4B007364657039
:101020005F726563765F706B74206661696C65647E
:101030000A007761697465642025646D7320666FAA
:101040007220726573705F6275660A00626C65205B
:1010500073656E643A2025730A007F2711241FBE32
:10106000CFEFDAE0DEBFCDBF04B603FE27C080912C
:10107000480390914903A0914A03B0914B038730F4
:10108000904BA740B04BD1F4109248031092490303
:1010900010924A0310924B0314BE84B7877F84BF1B
:1010A0000FB6F894A89580916000886180936000E5
:1010B000109260000FBEE0E0F8E3099523E0A2E49F
:1010C000B1E001C01D92A834B207E1F711E0A0E041
:1010D000B1E0EEE3FEE502C005900D92A234B10747
:1010E000D9F718E0CEE2D8E004C02197FE010E94B3
:1010F000362CCD32D107C9F70E947A220C941D2FCD
:101100000C940000FF93EF93E0914201F0914301B2
:10111000309709F00995EF91FF910895FC018591B1
:10112000803011F0EFDFFBCF0895FF27E0E230E2DF
:1011300047FF0CC0419597FF09C0EDE2609570959F
:1011400080959095611D711D811D911D27FF02C025
:10115000219530E350E2AA27660F771F881F991F59
:10116000AA1FA41710F0A41B63955A95A9F7AA30DB
:1011700008F0A95FA05DAF93F39561157105810536
:10118000910541F7ED3211F4EF93F395F21718F44E
:101190003F93F395FBCF8F91B5DFFA95E1F7089573
:1011A000E991F9918591803021F0853219F0AADF1B
:1011B000F9CF089520E0E89455915532C1F35033AA
:1011C00011F4689455915A3348F4505390F3220F18
:1011D000022E220F220F200D250FF4CF0EF42195A1
:1011E00089919991533619F3533729F1533559F1B0
:1011F000BC0188279927E8945C3621F4899199915C
:1012000068945591543639F446EF7EF077FF0DC05F
:101210008FEF9FEF0AC055374AE039F0583540E16B
:1012200021F0523642E009F00895FF93EF937DDFFD
:10123000EF91FF91B7CFFF93EF93FC018191803045
:10124000B9F360DFFBCFFF93EF9368DFF1CFDF935C
:10125000CF93CDB7DEB72596A3DFCF91DF91089569
:101260009C01FC0132969FEF80E04191461789F086
:101270009F3F19F4411101C0982F8F5F8630A9F765
:101280009F3F39F0F901E90FF11D97FDFA9562834F
:10129000089508950F931F9340915D0150915E0151
:1012A00060915F0170916001CB01AA27BB27009775
:1012B000A105B10521F0AC01BD0180E101C080E0D4
:1012C000052F162F272F332701151105210531056D
:1012D00019F0885FB901A8018A019B01F4E03695F5
:1012E000279517950795FA95D1F701151105210551
:1012F000310519F08C5FB901A8018A019B01E2E078
:101300003695279517950795EA95D1F7011511059B
:101310002105310519F08E5FB901A8017695679511
:1013200057954795452B462B472B09F08F5F1F910B
:101330000F91089520915301309154018217930722
:1013400071F09093540180935301E0918901F091E1
:101350008A01309721F00084F185E02D09940895E9
:1013600020915101309152018217930771F09093AF
:10137000520180935101E0918901F0918A013097E7
:1013800021F00680F781E02D09940895909187015E
:1013900092FF0DC0282F2871283019F4877F8460B0
:1013A00006C0282F2471243011F48B7F886093FFAE
:1013B0000DC0282F2871283119F4877E846106C05A
:1013C000282F2471243111F48B7E886194FD877E4F
:1013D0000895FF920F931F93CF93DF9390915B013A
:1013E00080915C01892B90915A01892B8093440153
:1013F000E0918901F0918A013097B1F10280F38187
:10140000E02D84E491E009958091AF0182FF2CC02A
:1014100080FF04C08FE793E00E948E08C4E4D1E00F
:1014200009E713E0FC2E88E0F80E8091AF0180FF01
:101430000BC088811F928F931F930F930E942709DF
:101440000F900F900F900F902196FC12EECF80918D
:10145000AF0180FF09C087E793E0DF91CF911F9133
:101460000F91FF900C948E08DF91CF911F910F91F7
:10147000FF900895882341F0809590915C01892325
:1014800080935C010C94E909089510925B0110921D
:101490005A010E94E909E1E9F1E086E0DF011D92CD
:1014A0008A95E9F71092970110927A010E946520BF
:1014B00080E090E00E94B00980E090E00C949A09EE
:1014C0008823E1F19CEF980F913A60F4E6E4F1E0B3
:1014D00096E09E0F2081281301C0108231969E1342
:1014E000F9CF14C090E2980F983090F4877021E003
:1014F00030E0A90102C0440F551F8A95E2F7CA01E6
:10150000809590915C01892380935C010C94E9099A
:101510009BE5980F933020F480E090E00C94B009A4
:1015200098E5980F973120F480E090E00C949A09A8
:10153000803F20F00E94FD200C9465200895CF93F9
:10154000882309F409C2C82F8CEF8C0F813A08F068
:101550003FC180917F01813069F018F08230A1F1A4
:101560002AC180915C01823209F02CC18C2F0E942B
:10157000F81D26C180915C018232C1F3C431E1F0D3
:1015800070F4CB3081F0C031D1F40E94C01C87EBE5
:1015900092E00E948E0882E080937F01DBC1C93215
:1015A00059F0C83361F487EC98E00E948E088BEB09
:1015B00092E00E948E08CEC110927F01FFC085EBA1
:1015C00092E00E948E08FAC0C43228F5CE3108F0AD
:1015D000C1C0CB30A1F1D0F4C73009F0D3C08EE147
:1015E0008093060182E3809307018AE080930501DE
:1015F00084E18093040188E08093030188E2809372
:10160000020186E693E00E948E08BFC0C33149F113
:10161000C431C1F0B7C0CB3409F4A9C028F4C93231
:1016200089F0C83361F0AEC0C13509F49EC0C2353F
:1016300009F499C0CE3409F0A5C06AE09EC00E94AA
:10164000C01CA3C080915901882319F01092590140
:101650009CC083E793E00E948E0881E080937F0125
:101660007BC18DE493E00E948E088BE393E00E949F
:101670008E08809106011F928F9388E393E09F93D9
:101680008F930E94270986E393E00E948E0884E2EC
:1016900093E00E948E08809107011F928F9381E250
:1016A00093E09F938F930E9427098FE193E00E941C
:1016B0008E0880E193E00E948E08809105011F92C0
:1016C0008F938DE093E09F938F930E9427098BE087
:1016D00093E00E948E088AEF92E00E948E0880912B
:1016E00004011F928F9387EF92E09F938F930E9444
:1016F000270985EF92E00E948E0880EE92E00E941A
:101700008E08809103011F928F938DED92E09F933D
:101710008F930E9427098BED92E00E948E0884EC43
:1017200092E00E948E08809102011F928F9381ECBB
:1017300092E09F938F930E9427098FEB92E00E9483
:101740008E088DB79EB748960FB6F8949EBF0FBE11
:101750008DBF1BC0CE51EC2FF0E0EE5EFE4F8081BE
:101760008093590112C061E003C061E006C06AE0E5
:10177000809159010E94551D08C0809159010E9415
:10178000D71C03C084E693E013C0809159018823DD
:1017900069F01F928F938EE593E09F938F930E9441
:1017A00027090F900F900F900F90D6C08BE593E014
:1017B000CF910C948E0810927F0104C080E081705C
:1017C0008111CAC06C2F84E491E00E94300910C0DE
:1017D00080E28C0F883078F4C77081E090E001C01F
:1017E000880FCA95EAF790915C01892B80935C0180
:1017F000CF910C94E9098BE58C0F833078F4C53ACE
:1018000029F0C63A31F083E890E005C081E890E025
:1018100002C082E890E0CF910C94B00988E58C0F6B
:10182000873108F08FC0C83A09F445C0C93A09F4B5
:1018300045C0CA3A09F445C0CB3A09F445C0CC3A90
:1018400009F445C0CB3B09F445C0CC3B09F445C085
:10185000CD3A09F445C0C03B09F445C0CE3A09F47D
:1018600045C0CF3A09F445C0C13B09F445C0C23B6D
:1018700009F445C0C33B09F445C0C43B09F445C065
:10188000C53B09F445C0C63B09F445C0C73B09F454
:1018900045C0C83B09F445C0C93B09F445C0CD3B30
:1018A00009F445C0CE3B09F445C0CA3B09F445C024
:1018B00080E090E044C082EE90E041C089EE90E08C
:1018C0003EC08AEE90E03BC085EB90E038C086EBEE
:1018D00090E035C083EB90E032C084EB90E02FC005
:1018E00087EB90E02CC08CEC90E029C08DEC90E070
:1018F00026C083E891E023C08AE891E020C082E915
:1019000091E01DC084E991E01AC081E292E017C025
:1019100083E292E014C084E292E011C085E292E09A
:101920000EC086E292E00BC087E292E008C08FE62C
:1019300090E005C080E790E002C08AE292E0CF919B
:101940000C949A09C03F40F08C2F0E940422CF9142
:101950000C94652081E033CFCF910895FF920F93CF
:101960001F93CF93DF93EC01FE012491222309F40E
:1019700057C0CE010196213041F4EC01FC011491D5
:10198000812F0E949F0A812F47C0223031F4EC0141
:10199000FC0184910E949F0A41C0233021F4EC0194
:1019A000FC01849139C030E0F901EC51FE4F1491F3
:1019B000F901EC59FE4FE49101E0E11101C000E0B2
:1019C000F901EC51FF4F2491FF24F394211101C040
:1019D000F12C002319F081EE0E949F0AFF2019F0DC
:1019E00086EE0E949F0A812F0E949F0A193349F4B4
:1019F000FFEF21EE84E0F15020408040E1F700C08D
:101A00000000812F0E94600AFF2019F086EE0E94DC
:101A1000600A002319F081EE0E94600A2196A4CF8B
:101A2000DF91CF911F910F91FF900895CF93DF9396
:101A3000ABE8B1E040E050E090E06D9120E030E0B4
:101A400070E0FB01022E02C0F595E7950A94E2F7DB
:101A5000E0FF0CC0F901E40FF51FEE0FFF1FEF567A
:101A6000FC4FC591D4918C179D0761F02F5F3F4FBC
:101A70002830310531F7485F5F4F40335105E9F6B3
:101A800080E001C081E0DF91CF91089581E08093F3
:101A9000E00080E28093D8001092C9008FE097E2C6
:101AA0000197F1F700C0000087E090EBDC01809324
:101AB000480390934903A0934A03B0934B039CE0DF
:101AC00088E10FB6F894A895809360000FBE9093BC
:101AD0006000FFCF78941F920F920FB60F921124DF
:101AE0008F939F93AF93BF9380917B0190917C01E3
:101AF000A0917D01B0917E010196A11DB11D809341
:101B00007B0190937C01A0937D01B0937E01BF91F6
:101B1000AF919F918F910F900FBE0F901F901895CE
:101B2000CF92DF92EF92FF920F931F932FB7F8940B
:101B300040917B0150917C0160917D0170917E010B
:101B40002FBF6A017B01EE24FF248C0120E030E0EE
:101B5000C016D106E206F30610F4415051099A016D
:101B6000281B390BC9011F910F91FF90EF90DF9057
:101B7000CF9008952FB7F89480917B0190917C01CC
:101B8000A0917D01B0917E012FBF08950F931F9307
:101B9000CF93DF93C62FD42F022FFC01828188239D
:101BA000F9F0609355010E94BA0D90935001809313
:101BB0004F0180E28C0F883008F06AC0C77081E066
:101BC00090E001C0880FCA95EAF790915C01892BDB
:101BD00080935C01DF91CF911F910F910C94E909E3
:101BE00010915501161344C080914F0190915001FE
:101BF0000E94900D883C9105D8F5C0E2CD0F1D17CD
:101C0000E9F080E2810F883040F4177081E001C074
:101C1000880F1A95EAF70E943A0AC83078F48D2F97
:101C2000877041E050E001C0440F8A95EAF7809147
:101C30005C01482B40935C010E94E909802F0E94BF
:101C40009F0A093349F4FFEF21EE84E0F150204070
:101C50008040E1F700C00000802F0E94600AC83079
:101C6000B8F4D77081E001C0880FDA95EAF70AC0AE
:101C700080E28C0F883060F4C77081E001C0880F6B
:101C8000CA95EAF7DF91CF911F910F910C943A0A10
:101C9000DF91CF911F910F9108951F920F920FB670
:101CA0000F9211248F939F93AF93BF9380917B01E9
:101CB00090917C01A0917D01B0917E014196A11D82
:101CC000B11D80937B0190937C01A0937D01B09323
:101CD0007E01BF91AF919F918F910F900FBE0F909A
:101CE0001F9018956DEE7EEF80E090E00E94C92B6A
:101CF00060E082E090E00E94AB2B60E083E090E047
:101D00000E94AB2B10925D0110925E0110925F0158
:101D10001092600160E084E090E00E94AB2B60E0F4
:101D200085E090E00E94AB2B60E086E090E00E94AE
:101D3000AB2B6FEF87E090E00E94AB2B40E050E0D0
:101D4000BA0188E090E00E94BD2B60E08DE090E059
:101D50000E94AB2B40E050E0BA0188E190E00E9485
:101D6000BD2B60E087E190E00E94AB2B40E050E0AB
:101D7000BA018FE090E00E94BD2B40E050E0BA0134
:101D800083E190E00C94BD2B60935D0170935E0144
:101D900080935F01909360010C94450A10925C015E
:101DA00086E0E6E4F1E0DF011D928A95E9F70C9404
:101DB000450AEF92FF920F931F93CF93DF9300D0CA
:101DC00000D01F92CDB7DEB7FC0100811181838165
:101DD0009481892B09F4D1C41F3F19F40F3F09F4F2
:101DE000CCC47F0185E0DE01119601900D928A95A9
:101DF000E1F789819A810E944A09E12FF0E026E00B
:101E0000829FE00DF11D112483E0EE0FFF1F8A95E4
:101E1000E1F7E00FF11DEE0FFF1FEF56FC4F0591AC
:101E20001491053F8CE5180729F0063F9CE519073A
:101E300049F012C0F7018281882309F44FC086E778
:101E400092E007C0F7018281882309F447C084E645
:101E500092E00E94AE0C42C0013FFCE51F0779F101
:101E600080F4083D8CE51807C9F0093D9CE5190789
:101E700091F1073DECE51E0789F526E241EE61EEA2
:101E800010C0033FFCE51F0711F1E8F0043F8CE5AB
:101E9000180721F527E245EE66EE03C027E245EE7E
:101EA00065EEC7010F900F900F900F900F90DF918C
:101EB000CF911F910F91FF90EF900C94C60D26E2E9
:101EC00041EE60EEEECF27E245EE64EEEACF26E289
:101ED00041EE62EEE6CF28E241E0E2CFF7018281F7
:101EE0008823C9F1109255010631FCE51F07B9F1AD
:101EF000E8F401308CE5180709F4AEC388F4011545
:101F00001C4509F05DC00E94CE0E2FE78AE196E0E5
:101F1000215080409040E1F700C000000E94460D33
:101F20000531FCE51F0708F4CAC34AC00D3D2CE586
:101F3000120709F4BEC328F40C3D1C4509F4B6C3CE
:101F40003FC00E3DECE51E0709F4B5C30F3D1C452F
:101F500009F49FC335C006319CE5190739F5909106
:101F60005C01882381F09A7A81E009F480E0809313
:101F70005601811102C069E201C065E384E491E089
:101F80000E94300970C080915601811102C089E21F
:101F900001C085E3E6E4F1E096E09E0F208128137E
:101FA00001C0108231969E13F9CF5DC00731ECE578
:101FB0001E0708F04AC31C550230110508F4DDC3A2
:101FC000F70100811181C8010E944A09E12FF0E068
:101FD00026E0829FE00DF11D112483E0EE0FFF1F2C
:101FE0008A95E1F7E00FF11DEE0FFF1FEF56FC4F52
:101FF0000591149198010238110509F0F1C0809102
:10200000870180FD1CC381FD1AC3022F932FF701A6
:102010004281411110925B01292F22952F7030E0EF
:102020002430310509F45CC05CF52230310508F03C
:10203000A4C3892F807F192F1F70882311F0129558
:10204000107F411122C0802F0E94600A112309F4E1
:1020500094C3109580E2800F8830D0F590915C0198
:10206000192310935C010F900F900F900F900F9019
:10207000DF91CF911F910F91FF90EF900C94E909A0
:102080002530310509F460C078C3112399F080E24E
:10209000800F883010F0011106C090915C01192B5F
:1020A00010935C0105C090915B01192B10935B01AB
:1020B0000E94E909802F0F900F900F900F900F90C2
:1020C000DF91CF911F910F91FF90EF900C949F0A99
:1020D000002321F290915B01192310935B01C3CF80
:1020E000292F26952695237030E02115310521F002
:1020F00021303105A9F041C3442319F0802F93709A
:1021000002C080E090E00F900F900F900F900F9022
:10211000DF91CF911F910F91FF90EF900C94B00938
:10212000442319F0802F937002C080E090E00F905C
:102130000F900F900F900F90DF91CF911F910F9103
:10214000FF90EF900C949A094423F9F0053F51F069
:10215000063F71F0043FA9F4809157019091580116
:1021600081600BC08091570190915801826005C039
:102170008091570190915801846090935801809309
:102180005701802F0E9404221EC0053F51F0063FD8
:1021900071F0043FA9F480915701909158018E7F0E
:1021A0000BC080915701909158018D7F05C080919F
:1021B0005701909158018B7F90935801809357015C
:1021C000802F0E94FD200F900F900F900F900F9086
:1021D000DF91CF911F910F91FF90EF900C946520AC
:1021E0000338110508F0EEC10133110539F480916F
:1021F000870186FF0ACF2AE230E007CF02331105BC
:10220000A0F40932110539F48091870185FFFDCED4
:1022100025E330E0FACE0A32110579F48091870186
:1022200086FFF3CE21E330E0F0CE0533110509F44B
:10223000C2C10933110509F4E2CE0115E0E51E071C
:1022400008F049C00115F0E41F0708F031C1083E4D
:10225000110528F5003E110508F0D7CE083A110502
:1022600078F4053A110508F0AEC00130110509F403
:10227000CCCE08F452C10430110508F44EC1C5CECD
:102280000F3B110508F4AAC0003C110508F445C134
:102290009801220F331FF901EB5CFE4FFEC00115C0
:1022A00080E2180760F4011591E0190708F0ADCE3F
:1022B000003F110508F431C198013065A6CE011523
:1022C000E0E31E0708F0ECC0F801FF70EE0FFF1FFF
:1022D000EB54FD4FE2C00115F5E51F0708F046C0BD
:1022E000011524E5120708F0FBC0011582E5180767
:1022F00018F5011591E5190708F0DEC0802F8370ED
:1023000021E030E002C0220F331F8A95E2F73C68DB
:10231000C801A4E096958795AA95E1F78370A90175
:10232000582B202F2F7026952695F0E22F9F900195
:102330001124242B352B69CE802F86958695A801F4
:10234000437055270115134508F0BBC020E2829F5A
:10235000C001112421E030E002C0220F331F4A9552
:10236000E2F7822B932B9C013C684FCE0115F9E5D7
:102370001F07A0F4011528E5120708F0B6C00115E3
:1023800086E5180708F0C9C0802F0E94C6098F7122
:10239000282F30E0322F2227306237CE01159AE500
:1023A000190708F4A7C0C80190568115904208F09B
:1023B000B4C0812F8F710E94C60998013327306203
:1023C0008F71382B22CE053A110509F4A9C0063ABF
:1023D000110509F0A8C022E830E417CE083A11052B
:1023E00009F4A4C0093A110509F4A3C00A3A110579
:1023F00009F4A2C00B3A110509F4A1C00C3A110569
:1024000009F4A0C00B3B110509F49FC00C3B11055A
:1024100009F49EC00D3A110509F49DC0003B110559
:1024200009F49CC00E3A110509F49BC00F3A11053E
:1024300009F49AC0013B110509F499C0023B11054A
:1024400009F498C0033B110509F497C0043B11053A
:1024500009F496C0053B110509F495C0063B11052A
:1024600009F494C0073B110509F493C0083B11051A
:1024700009F492C0093B110509F491C00D3B110507
:1024800009F490C00E3B110509F48FC00A3B1105F9
:1024900009F48EC020E034E4B8CD25913491B5CD57
:1024A0009801332713FF02C0386CAFCD306CADCD2F
:1024B00098013F70306AA9CD302F2227216F306AF2
:1024C000A4CDE0E28E9FC001112421E030E002C0E3
:1024D000220F331F4A95E2F7282B392B3A6895CD06
:1024E000302F2227246F306A90CD302F2227206F83
:1024F000306A8BCD802F8F700E94C609980144E00E
:10250000369527954A95E1F72F7030E0322F222734
:10251000306A8F70806E282B78CD20E030E075CD4A
:1025200021E830E472CD23E830E46FCD22EE34E4CC
:102530006CCD29EE34E469CD2AEE34E466CD25EB8A
:1025400034E463CD26EB34E460CD23EB34E45DCD9D
:1025500024EB34E45ACD27EB34E457CD2CEC34E4AF
:1025600054CD2DEC34E451CD23E835E44ECD2AE8AA
:1025700035E44BCD22E935E448CD24E935E445CDB9
:1025800021E236E442CD23E236E43FCD24E236E4D4
:102590003CCD25E236E439CD26E236E436CD27E2DD
:1025A00036E433CD2FE634E430CD20E734E42DCDCE
:1025B0002AE236E42ACD8091870185FF26CD29E2E3
:1025C00030E023CD033E110559F48091870182FD4F
:1025D00039C08091870184FDA0CF23EE30E015CD76
:1025E000043E110598F4003E110539F480918701ED
:1025F00080FF0BCD29E330E008CD023E110509F044
:102600001CCE8091870182FF00CDE3CF063E1105ED
:1026100059F48091870183FFF8CC8091870184FD74
:102620007CCF27EE30E0F1CC073E110509F005CE56
:102630008091870183FFF1CF26EE30E0E6CC20EEDB
:1026400030E0E3CC22EE30E0E0CC0C5D1C45043001
:10265000110508F492C0B4CC8091AF01982F9095E9
:10266000917090FB80F98093AF01992319F084EA6F
:1026700092E002C082E992E00F900F900F900F90CD
:102680000F90DF91CF911F910F91FF90EF900C94DD
:102690008E080F900F900F900F900F90DF91CF91B9
:1026A0001F910F91FF90EF900C94720E1092000109
:1026B00064C082E001C083E0809300015EC080E0DE
:1026C00090E00E94A52B8D3E9E4F11F00E94720E4D
:1026D00084E090E00E949D2B90E09093880180938D
:1026E0008701F801E350FC45E231F10530F4EA5A84
:1026F000FF4F809187010C94362C80918701816077
:1027000027C0826025C0846023C0806121C08062B0
:102710001FC080641DC080681BC08460886018C0B2
:102720008E7F16C08D7F14C08B7F12C08F7E10C02D
:102730008F7D0EC08F7B0CC08F770AC08B7F877F09
:1027400007C087FB222720F991E0922790FB87F9A9
:10275000809387016091870184E090E00E94AB2B19
:102760000F900F900F900F900F90DF91CF911F91CE
:102770000F91FF90EF900C94CE0E0F900F900F9052
:102780000F900F90DF91CF911F910F91FF90EF90DD
:102790000895E0918901F0918A01309721F001902C
:1027A000F081E02D099480E008954F925F926F923E
:1027B0007F928F929F92AF92BF92CF92DF92EF92D1
:1027C000FF920F931F93CF93DF934BE2442E41E090
:1027D000542EA1E8B1E0912C01E010E086E08A0FD0
:1027E0007D018C901C92E20199912E01E92FE295D6
:1027F000EF70F0E041A19F70980101C0220F9A95FF
:10280000EAF7942F922B91A342A1922F90954923FE
:1028100042A3D0E5DA95F1F731E3C32E31E0D32EB0
:1028200040E050E0E60179906E01672D62956F708F
:1028300070E0EB01A8A06C90B12C772D7F7002C0E6
:10284000B594A7947A95E2F7A0FC07C0602F042EF8
:1028500001C0660F0A94EAF701C060E066296C9334
:102860004F5F5F4F48305105E9F631A1932391A3A3
:1028700092A1292B22A3119691E0F70120818212C7
:1028800001C090E0992A8A13ABCF49F081E0809390
:102890004E010E94BA0D90934D0180934C0180919E
:1028A0004E01882311F180914C0190914D010E94BD
:1028B000900D0697D0F08091810180938B018091DB
:1028C000820180938C018091830180938D0180919E
:1028D000840180938E018091850180938F01809186
:1028E00086018093900110924E01892DDF91CF9146
:1028F0001F910F91FF90EF90DF90CF90BF90AF901E
:102900009F908F907F906F905F904F9008958091EF
:10291000720187FF11C08091E80082FD05C080919F
:1029200070018111F8CF11C08091E8008B770BC046
:1029300080917001882349F08091E80080FFF8CFF2
:102940008091E8008E778093E8000895982F973063
:1029500058F59093E900981739F07091EC002091A8
:10296000ED005091F00003C0242F762F50E021FF9E
:1029700019C03091EB003E7F3093EB003091ED00B9
:102980003D7F3093ED003091EB0031603093EB00F0
:102990007093EC002093ED005093F0002091EE0036
:1029A00027FF07C09F5FD3CF8F708093E90081E03E
:1029B000089580E0089520917801309179012617DB
:1029C000370748F06115710539F42091E8002E773A
:1029D0002093E80001C0B90140E061157105A9F13B
:1029E00020917001222309F443C0253009F442C02C
:1029F0002091E80023FD40C02091E80022FD32C074
:102A00002091E80020FFE9CF4091F3002091F200EF
:102A100030E0342BFC01CF016115710559F02830ED
:102A2000310540F481918093F100615071092F5F6D
:102A30003F4FF1CF41E02830310509F040E02091CF
:102A4000E8002E772093E800C8CF4111C9CF0AC013
:102A500080917001882361F0853061F08091E800F9
:102A600083FD0AC08091E80082FFF2CF80E00895E4
:102A700082E0089583E0089581E00895EF92FF9247
:102A80000F931F93CF93DF93EC018B018091A101F2
:102A90008CBD8091A2018DBD2C980E94BA0D7C0145
:102AA00088818EBD00000DB407FEFDCF8EB58E3F30
:102AB000B9F42C9A22E42A95F1F700C02C98C701AA
:102AC0000E94900D8017910758F380E001C081E0CB
:102AD0002C9ADF91CF911F910F91FF90EF90089565
:102AE000FE0131968B818F778D5F9F01280F311DFD
:102AF000C901E817F90758F721912EBD0DB407FE5B
:102B0000FDCFF7CF662369F0FC01860F911DE81712
:102B1000F90738F41EBC0DB407FEFDCF2EB5219386
:102B2000F6CF08951F93CF93DF93CDB7DEB7AA9763
:102B30000FB6F894DEBF0FBECDBFE2E7F1E088E04C
:102B40008E0F9091F10091938E13FBCF80917301C2
:102B5000833009F460C030F4813071F0823009F4C0
:102B60009AC0B1C08A3009F486C08B3009F46BC0BA
:102B7000893009F0A8C020C080917201813A09F023
:102B8000A2C08091E800877F8093E8008091760161
:102B900090917701892B21F468E086E691E003C0EB
:102BA00060E080E090E070E00E94DB148091E8003B
:102BB0008B778093E80087C080917201813209F0A1
:102BC00082C08091760190917701029708F07BC0D6
:102BD0008091E800877F8093E8008091E80082FD83
:102BE00005C0809170018111F8CF6DC02091F30074
:102BF0008091F20090E0922B029729F48091F100ED
:102C00008B7F813021F48091F10080936501809168
:102C1000E8008B7754C080917201813A09F053C06B
:102C20008091760190917701892B09F04CC08091B9
:102C3000E800877F8093E8008091E80080FFFCCF68
:102C40008091010137C0809172018132E1F580915C
:102C5000760190917701892BB1F58091E800877F0B
:102C60008093E8000E948714809174018093010191
:102C70000E94CE0E28C080917201813221F5809190
:102C8000E800877F8093E8000E9487148091750197
:102C90008093640118C080917201813AA1F48091FF
:102CA000E800877F8093E8008091E80080FFFCCFF8
:102CB000809164018093F1008091E8008E77809389
:102CC000E8000E9487148091E80083FFE2C18091B0
:102CD000720190917301492F50E04A30510508F07C
:102CE000D8C1FA01E859FF4F0C94362C803821F0F6
:102CF000823809F0CEC108C080916E0190916F01B9
:102D0000992389F082600FC0809176018F7087309F
:102D100008F0BFC18093E9008091EB0085FB882714
:102D200080F91092E9009091E800977F9093E80075
:102D30008093F1001092F1007FC1282F2D7F09F0C0
:102D4000A8C1882319F0823061F0A3C18091740179
:102D5000813009F09EC1933009F080E080936F01CB
:102D60002EC08091740181112AC0809176018F70EC
:102D70002FEF280F263008F08CC18093E9002091B6
:102D8000EB0020FF1CC0933021F48091EB008062A7
:102D900014C09091EB0090619093EB0021E030E043
:102DA000A90102C0440F551F8A95E2F74093EA003B
:102DB0001092EA008091EB0088608093EB00109203
:102DC000E9008091E800877F8093E8000E948714E3
:102DD00060C181115EC1109174011F778091E30081
:102DE0008078812B8093E3008091E800877F809337
:102DF000E8000E9487148091E80080FFFCCF80915A
:102E0000E30080688093E300111102C082E001C0FA
:102E100083E0809370013DC18058823008F039C151
:102E200020917401309175012C3D53E0350779F5FF
:102E300083E08A838AE289834FB7F894DE01139690
:102E400020E03EE051E2E32FF0E050935700E491A0
:102E500020FF03C0E295EF703F5FEF708E2F90E090
:102E6000EA3010F0C79601C0C0968D939D932F5FF6
:102E7000243149F74FBF8091E800877F8093E800B5
:102E80006AE270E0CE0101960E94DB14C4C080911A
:102E9000760190917701432F552743305105B9F0C2
:102EA0006CF44130510509F403C14230510509F079
:102EB000F0C08BE590E0ECEEF4E05BC041325105F0
:102EC00009F434C04232510509F43FC0E2C0C901DF
:102ED000992781309105D1F05CF4892B09F0D9C094
:102EE000E3E9F5E0E4918E2F90E0E3E9F5E03EC000
:102EF0008230910599F0039709F0CBC0E9E5F5E040
:102F0000E4918E2F90E0E9E5F5E030C0E3E8F5E0EC
:102F1000E4918E2F90E0E3E8F5E028C0EFE5F5E0DE
:102F2000E4918E2F90E0EFE5F5E020C0833091052D
:102F300008F0AFC0880F991FFC01EB5DFE4F0190B8
:102F4000F081E02D89E090E014C08330910508F015
:102F5000A0C0FC01EE0FFF1FE15EFE4F0190F0816B
:102F6000E02DDC01A45EBE4F8C9190E0009709F447
:102F700090C02091E800277F2093E80020917801FD
:102F8000309179012817390708F4C90140E000970A
:102F900089F120917001222309F43DC02530D9F137
:102FA0002091E80023FD37C02091E80022FD2FC0CA
:102FB0002091E80020FFEBCF4091F3002091F20038
:102FC00030E0342B009759F02830310540F444911B
:102FD0004093F100319601972F5F3F4FF3CF41E0CF
:102FE0002830310509F040E02091E8002E77209349
:102FF000E800CDCF4111CDCF0AC080917001882368
:1030000051F0853041F08091E80083FD04C080914B
:10301000E80082FFF2CF8091E8008B778093E80090
:1030200038C08038B1F58091E800877F8093E80050
:10303000809171018093F1008091E8008E77C4CE79
:10304000811127C010917401123018F58091E800A9
:10305000877F8093E800109371010E9487141111FB
:1030600006C08091E30087FD02C081E001C084E0DA
:103070008093700142E061EC81E00E94A61442E27C
:1030800061EC82E00E94A61442E261EC83E00E94BF
:10309000A6148091E80083FF10C08091E800877F2C
:1030A0008093E8008091EB0080628093EB0005C084
:1030B00082E190E0E7E4F5E05CCFAA960FB6F894E1
:1030C000DEBF0FBECDBFDF91CF911F9108951F923C
:1030D0000F920FB60F9211242F933F934F935F934C
:1030E0006F937F938F939F93AF93BF93CF93DF9310
:1030F000EF93FF93C091E900CF708091EC00D82F3F
:10310000D17080FDD0E81092E9008091F000877FB7
:103110008093F00078940E9492151092E9008091BB
:10312000F00088608093F000CD2BCF70C093E90051
:10313000FF91EF91DF91CF91BF91AF919F918F91CF
:103140007F916F915F914F913F912F910F900FBEA3
:103150000F901F901895E8EDF0E080818E7F8083BE
:103160001092E2001092DA001092E100A0EEB0E0BE
:103170008C9181608C9380818F77808319BCA7EDBF
:10318000B0E08C918E7F8C9380818F7E80831092B3
:1031900063010895CF92DF92EF92FF920F931F93F6
:1031A000CF93DF93C8EDD0E088818F7E8883E7EDF1
:1031B000F0E080818160808384E082BF81E0809341
:1031C000630188818E7F888302EE10E0F80110820F
:1031D0001092DA0081EEC82ED12CF601108288817F
:1031E0008F77888388818068888388818F7D8883B2
:1031F00019BC109270011092710110926F0110921F
:103200006E0190EEE92EF12CF70180818B7F808397
:1032100088818160888342E060E080E00E94A6149B
:10322000F60180818E7F8083F801808181608083B8
:10323000808188608083F70180818E7F8083888190
:1032400080618883DF91CF911F910F91FF90EF9064
:10325000DF90CF9008951F920F920FB60F92112416
:103260002F933F934F935F936F937F938F939F938E
:10327000AF93BF93EF93FF938091E10082FF49C02A
:103280008091E20082FF45C08091E1008B7F8093B6
:10329000E100209162012F5F822F62E30E94162CD1
:1032A000992319F02093620134C010926201809139
:1032B0006101882371F180917001843041F5809122
:1032C000E9008F702091EC00922F917020FD90E822
:1032D000892B93E09093E9009091EB0090FF14C04C
:1032E0009091EE0097FF10C09091E80095FF03C009
:1032F0001092F100F9CF9091E80090FF05C09091F5
:10330000E8009E779093E8008F708093E900109218
:1033100061018091DA0080FF30C08091D80080FF89
:103320002CC08091DA008E7F8093DA008091D900E2
:1033300019BC80FF1AC082E089BD09B400FEFDCF30
:1033400081E08093700188ED94E00E948E08809166
:103350006301811112C00E94AB180E94CA188091AB
:10336000E20084608093E20008C0109270018CED4E
:1033700094E00E948E08109263018091E10080FF2A
:103380001BC08091E20080FF17C08091E2008E7F19
:103390008093E2008091E20080618093E20080915E
:1033A000D80080628093D80019BC85E080937001BA
:1033B00080EE94E00E948E088091E10084FF35C089
:1033C0008091E20084FF31C019BC82E089BD09B45C
:1033D00000FEFDCF8091D8008F7D8093D800809132
:1033E000E1008F7E8093E1008091E2008F7E8093E8
:1033F000E2008091E20081608093E200809171019F
:10340000882311F084E007C08091E30087FD02C0AB
:1034100081E001C083E08093700184EE94E00E941B
:103420008E080E94CE0E0E94C9138091E10083FF96
:103430002BC08091E20083FF27C08091E100877F4D
:103440008093E10082E0809370011092710180917D
:10345000E1008E7F8093E1008091E2008E7F809377
:10346000E2008091E20080618093E20042E060E04F
:1034700080E00E94A6148091F00088608093F000A4
:1034800088EE94E00E948E08FF91EF91BF91AF917A
:103490009F918F917F916F915F914F913F912F916C
:1034A0000F900FBE0F901F9018952091E40030915F
:1034B000E50095E64091EC00842F817040FF22C02A
:1034C0008091E80080FD1CC080917001882391F0FC
:1034D000853091F08091EB0085FD10C04091E400B3
:1034E0005091E5004217530729F39A01915011F7C3
:1034F00084E0089582E0089583E0089581E00895CE
:1035000080E008954091E80042FFDECF0895809169
:103510000001811107C080917001843011F083E0B7
:10352000089582E008958091650108959FB7F89409
:10353000109261019FBF90917001943009F057C0C3
:103540009091E9009F703091EC00232F217030FDA5
:1035500020E8922B23E02093E9002091EB0020FF4C
:1035600043C02091EE0027FF3FC02091800122231D
:1035700021F02091E80025FF37C01092800126E05D
:103580003091E80035FD15C030917001343061F59F
:103590003091EB0035FD28C0215021F481E080936B
:1035A000800122C0EFECF7E03197F1F700C0000096
:1035B000E7CF8093F1008091E80085FD0AC08091FB
:1035C000E80080FFFCCF8091E8008E778093E800D0
:1035D00006C08FB7F89421E0209361018FBF9F70E0
:1035E0009093E90080E008959F709093E9008FEF39
:1035F0000895CF93DF9300D01F92CDB7DEB720910F
:103600007001243031F523E02983805891099B8390
:103610008A8382E08093E9008FEF9091E8008150E7
:1036200095FD06C09AE69A95F1F700C08111F5CF95
:103630008091E80085FF0DC040E050E063E070E05D
:10364000CE0101960E9448278091E8008E778093F2
:10365000E8000F900F900F90DF91CF910895CF92D7
:10366000DF92EF92FF921F93CF93DF9300D01F92D0
:10367000CDB7DEB77C010E94871A182F8DEF810F1E
:10368000823028F588E2C82ED12C2091460330E004
:10369000C9010196B6010E94222C9091470398130C
:1036A00005C086E990E00E94D529EFCF9AE0929F6D
:1036B000F001939FF00D1124EA54FE4F91E09083A6
:1036C000F482E38280934603143019F026C012304E
:1036D00021F584E08983FB82EA8282E08093E9001D
:1036E0008FEF9091E800815095FD06C09AE69A957B
:1036F000F1F700C08111F5CF8091E80085FF0DC082
:1037000040E050E063E070E0CE0101960E9448275F
:103710008091E8008E778093E8000F900F900F90D3
:10372000DF91CF911F91FF90EF90DF90CF900895A0
:10373000AF92BF92CF92DF92EF92FF920F931F93BF
:10374000CF93DF93EC010E94871A182F8DEF810F22
:10375000823068F50981FD80EC80BB80AA8088E218
:10376000C82ED12C2091460330E0C9010196B60144
:103770000E94222C90914703981305C086E990E09F
:103780000E94D529EFCF9AE0929FF001939FF00D10
:103790001124EA54FE4F92E09083A382B482E58222
:1037A000F682078380934603143019F021C012304B
:1037B000F9F482E08093E9008FEF9091E800815066
:1037C00095FD06C09AE69A95F1F700C08111F5CFF4
:1037D0008091E80085FF0CC040E050E066E070E0BA
:1037E000CE010E9448278091E8008E778093E80000
:1037F000DF91CF911F910F91FF90EF90DF90CF90CD
:10380000BF90AF9008958F929F92AF92BF92CF9248
:10381000DF92EF92FF920F931F93CF93DF93EC0110
:103820000E94871A182F8DEF810F823008F041C057
:1038300008810E94BA0D7C0140E088E2C82ED12C9C
:103840008A809B80AC80BD80FE81EF812091460301
:1038500030E0C9010196B6010E94222C90914703E5
:10386000981709F450C09AE0929FD001939FB00D31
:103870001124AA54BE4F1C921296FC92EE921197FC
:1038800013960C93139714968C92149715969C92FA
:1038900015971696AC9216971796BC92179718968E
:1038A000FC9318971996EC9380934603143019F003
:1038B0003AC01230C1F581E08093E9008FEF90911A
:1038C000E800815095FD06C09AE69A95F1F700C090
:1038D0008111F5CF8091E80085FF25C040E050E0E0
:1038E00068E070E0CE010E9448278091E8008E7762
:1038F0008093E80088E0FE01A6E6B1E001900D9219
:103900008A95E1F710C0411108C08091AF0180FF96
:1039100004C083E69DE00E948E0886E990E00E9444
:10392000D52941E08DCFDF91CF911F910F91FF906D
:10393000EF90DF90CF90BF90AF909F908F900895C1
:10394000CF93C82F1F928F938EE59DE09F938F9307
:103950000E94270981E090E0A0E0B0E0BC01CD0129
:1039600004C0660F771F881F991FCA95D2F70E945F
:10397000C40E0F900F900F900F90CF910C94CE0E1D
:1039800083E69CE00E948E081F9281E08F931F9235
:1039900085E08F9385E19CE09F938F930E94270998
:1039A0000F900F900F900F900F900F90089583300D
:1039B00081F128F4813059F08230D1F008958530BA
:1039C00009F449C0B8F1863009F456C008958091D1
:1039D0000601681720F4861B8093060102C010922E
:1039E0000601809106011F928F9386E09CE054C0EF
:1039F00080910701681720F4861B8093070102C09D
:103A000010920701809107011F928F9384EF9BE032
:103A100043C080910501681720F4861B809305013F
:103A200002C010920501809105011F928F9381EED3
:103A30009BE032C080910401681720F4861B8093BC
:103A4000040102C010920401809104011F928F931F
:103A50008CEC9BE021C080910301681720F4861B49
:103A60008093030102C010920301809103011F9211
:103A70008F9383EB9BE010C080910201681720F4C4
:103A8000861B8093020102C0109202018091020104
:103A90001F928F9388E99BE09F938F930E94270941
:103AA0000F900F900F900F9008958330E9F128F454
:103AB000813061F0823009F10895853009F462C0E7
:103AC00008F449C0863009F474C008958091060155
:103AD000262F30E0280F311D2F3F310524F4680FC9
:103AE0006093060103C08FEF809306018091060169
:103AF0001F928F9389E89BE072C080910701262F67
:103B000030E0280F311D2F3F310524F4680F6093FA
:103B1000070103C08FEF80930701809107011F9277
:103B20008F9387E79BE05BC080910501262F30E0F3
:103B3000280F311D2F3F310524F4680F60930501D4
:103B400003C08FEF80930501809105011F928F9331
:103B500084E69BE044C080910401262F30E0280FCA
:103B6000311D2F3F310524F4680F6093040103C019
:103B70008FEF80930401809104011F928F938FE453
:103B80009BE02DC080910301262F30E0280F311DCE
:103B90002F3F310524F4680F6093030103C08FEFBA
:103BA00080930301809103011F928F9386E39BE032
:103BB00016C080910201262F30E0280F311D2F3FC3
:103BC000310524F4680F6093020103C08FEF8093E6
:103BD0000201809102011F928F938BE19BE09F93E2
:103BE0008F930E9427090F900F900F900F900895C8
:103BF000CF938B3109F4D5C108F06DC18B3009F436
:103C00008FC108F043C1863009F48DC120F485309E
:103C100009F49BC152C2873009F4A8C1883009F069
:103C20004CC280E19BE00E948E0884E197E00E94F4
:103C30008E0883E090E00E949D2B1F928F9381E17C
:103C400097E09F938F930E9427098FE097E00E944F
:103C50008E0882E090E00E949D2BC82F8CEF96E0AA
:103C60000E948E081F92CF9387EF96E09F938F93C9
:103C70000E94270985EF96E00E948E088BEE96E061
:103C80000E948E088C2F81701F928F9388EE96E091
:103C90009F938F930E94270986EE96E00E948E08DC
:103CA0008CED96E00E948E08C1FB882780F91F9258
:103CB0008F9389ED96E09F938F930E94270987ED5C
:103CC00096E00E948E088BEC96E00E948E08C2FB64
:103CD000882780F91F928F9388EC96E09F938F93AB
:103CE0000E94270986EC96E00E948E088DEB96E0F4
:103CF0000E948E08C3FBCC27C0F91F92CF938AEB9A
:103D000096E09F938F930E94270988EB96E00E948C
:103D10008E0884E090E00E949D2BC82F84EA96E0F4
:103D20000E948E081F92CF938FE996E09F938F9306
:103D30000E9427098DE996E00E948E0884E896E0AB
:103D40000E948E088C2F81701F928F9381E896E0DD
:103D50009F938F930E9427098DB79EB780960FB6C9
:103D6000F8949EBF0FBE8DBF8FE796E00E948E082D
:103D700088E696E00E948E08C1FB882780F91F9292
:103D80008F9385E696E09F938F930E94270983E6A1
:103D900096E00E948E0881E596E00E948E08C2FBA4
:103DA000882780F91F928F938EE496E09F938F93DC
:103DB0000E9427098CE496E00E948E088AE396E030
:103DC0000E948E08C3FB882780F91F928F9387E398
:103DD00096E09F938F930E94270985E396E00E94C7
:103DE0008E088BE296E00E948E08C4FB882780F93B
:103DF0001F928F9388E296E09F938F930E942709EA
:103E000086E296E00E948E0884E196E00E948E0889
:103E1000C5FB882780F91F928F9381E196E09F93DD
:103E20008F930E9427098FE096E00E948E0883EF0F
:103E300095E00E948E08C6FB882780F91F928F9319
:103E400080EF95E09F938F930E9427098EEE95E077
:103E50000E948E0886EE95E00E948E08C7FBCC2754
:103E6000C0F91F92CF9383EE95E09F938F930E94AA
:103E7000270981EE95E00E948E088DB79EB74C967B
:103E80000FB6F8949EBF0FBE8DBF15C1803109F4E7
:103E9000B0C020F48E3009F498C00FC1863109F407
:103EA000C5C0893109F009C189EF99E00E948E08E7
:103EB00080EE99E00E948E0881EA99E00E948E08C7
:103EC0008CE599E00E948E088CE199E00E948E08B2
:103ED0008EEE98E0A8C08A32E1F060F4873209F4EF
:103EE000E7C028F48E3108F4E8C08D51E2C0893271
:103EF00061F1E3C0833448F48A3308F0D7C08533D6
:103F000009F4D6C0883361F0D8C0833409F4D0C036
:103F1000D4C08FEF9AE00E948E080E94720ECBC030
:103F200084E297E080C08091AF01817F8E7F809393
:103F3000AF0187EC98E00E948E088BEF9AE00E9418
:103F40008E0881E080937F01B6C00E94CE0E8FED77
:103F50009AE00E948E089FEF29E688E19150204068
:103F60008040E1F700C000000E94460D8091AF0143
:103F7000C82FC095C170C0FB80F98093AF01CC23DE
:103F800029F083ED9AE00E948E089CC086EC9AE0AE
:103F90000E948E088091AF01897F877F8093AF0157
:103FA0008AC09091AF0191FBCC27C0F981E0C8276E
:103FB000892FC0FB81F98093AF01CC2319F089EBE5
:103FC0009AE027C08BEA9AE02EC09091AF0192FB55
:103FD000CC27C0F981E0C827892FC0FB82F98093E4
:103FE000AF01CC2319F08CE99AE013C08CE89AE079
:103FF0001AC09091AF0193FBCC27C0F981E0C8278C
:10400000892FC0FB83F98093AF01CC2351F080E866
:104010009AE00E948E088091AF0181608093AF0189
:1040200051C083E79AE00E948E0845C083E69AE07B
:104030000E948E080E94C9131F928F9389E49AE010
:104040009F938F930E942709809101011F928F9364
:1040500082E39AE09F938F930E94270980916401E5
:104060001F928F938FE19AE09F938F930E9427096D
:104070002FB7F89480917B0190917C01A0917D01F4
:10408000B0917E012FBFBF93AF939F938F9388E032
:104090009AE09F938F930E9427098DB79EB742960F
:1040A0000FB6F8949EBF0FBE8DBF05C0895301C0E7
:1040B00080E00E94A01CC1E005C081E79AE00E9458
:1040C0008E08C0E08C2FCF9108958091AF0183FFBF
:1040D0007EC08EEB95E00E948E08809192011F9227
:1040E0008F9389EB95E09F938F930E94270987EB2D
:1040F00095E00E948E0880919301282F082E000CD5
:10410000330B3F938F9384EB95E09F938F930E94A3
:10411000270982EB95E00E948E0880919401282F58
:10412000082E000C330B3F938F938FEA95E09F93FB
:104130008F930E9427098DEA95E00E948E08809156
:104140009501282F082E000C330B3F938F938AEA9A
:1041500095E09F938F930E94270988EA95E00E943B
:104160008E0880919601282F082E000C330B3F9368
:104170008F9385EA95E09F938F930E94270982EAA7
:1041800095E00E948E08809197011F928F938FE98E
:1041900095E09F938F930E9427098DE995E00E94F7
:1041A0008E0880917A011F928F938AE995E09F9300
:1041B0008F930E94270987E995E00E948E088DB7AA
:1041C0009EB74C960FB6F8949EBF0FBE8DBFE09180
:1041D0008901F0918A01309749F082E08093910142
:1041E0000480F581E02D81E991E009950E94BA0DE6
:1041F00090939901809398010895803F39F48091BC
:10420000940187FF6CC01092940169C0813F29F42A
:10421000809194011816BCF362C090919301823F83
:1042200029F497FF5CC01092930159C0833F19F4A1
:104230001916CCF354C0893F41F4809195011816AA
:104240000CF04DC0109295014AC08A3F29F480912C
:10425000950187FF44C0F6CF8B3F39F480919601DA
:1042600087FF3DC0109296013AC08C3F29F480919F
:1042700096011816BCF333C0843F21F4809192015B
:104280008E7F17C0853F21F4809192018D7F11C0F0
:10429000863F21F4809192018B7F0BC0873F21F4F0
:1042A00080919201877F05C0883F31F4809192010F
:1042B0008F7E8093920113C08D3F21F480917A010B
:1042C0008E7F0BC08E3F21F480917A018D7F05C0D7
:1042D0008F3F29F480917A018B7F80937A018091BE
:1042E000930181110EC08091940181110AC08091C7
:1042F0009501811106C080919601811102C0109232
:104300009701089580917A0180FF08C060910301B0
:1043100070E0759567957595679521C081FF06C01A
:104320006091030170E07595679519C082FF04C024
:104330006091030170E010C0909197019923C1F042
:10434000609102019617A0F780910301899FC00137
:10435000112470E00E94222C6038710528F4611548
:10436000710521F0862F08958FE7089581E0089563
:1043700061E070E0F4CF80917A0180FF0BC0609122
:10438000050185E0689FB0011124759567957595C5
:1043900067952BC081FF09C06091050185E0689F8A
:1043A000B00111247595679520C082FF07C0609108
:1043B000050185E0689FB001112417C09091970115
:1043C0009923D1F060910401961788F72091050197
:1043D00085E0289F90011124929FA001939F500D8A
:1043E000112470E0CA010E94222C6038710540F44B
:1043F0006115710539F002C065E070E0862F0895FF
:104400008FE7089581E00895803F21F40E94BB2149
:10441000819504C0813F29F40E94BB2180939401BF
:104420000895823F21F40E94BB21819504C0833FFF
:1044300029F40E94BB21809393010895893F19F4C8
:104440000E94822105C08A3F31F40E948221819519
:104450008093950108958B3F21F40E9482218195DC
:1044600004C08C3F29F40E94822180939601089514
:10447000843F21F480919201816017C0853F21F42F
:1044800080919201826011C0863F21F48091920157
:1044900084600BC0873F21F480919201886005C041
:1044A000883F31F480919201806180939201089558
:1044B0008D3F21F480917A0181600BC08E3F21F401
:1044C00080917A01826005C08F3F29F480917A0142
:1044D000846080937A010895CF93C82F8CE20E9464
:1044E000160D882321F08C2FCF910C94160D80E0AF
:1044F000CF910895CF93DF93CDB7DEB7C558D109DB
:104500000FB6F894DEBF0FBECDBF84B7877F84BFE0
:104510000FB6F894A8958091600088618093600040
:10452000109260000FBE80E88093610010926100DD
:1045300085B7806885BF85B7806885BF0E94AB1846
:104540000E94CA188091E20084608093E20086E9AC
:104550009AE1909343018093420178948091700195
:104560008823A1F01091E9001F709091EC00892F31
:10457000817090FD80E8182B1092E9008091E8008E
:1045800083FD0E9492151F701093E90082E084BDA4
:1045900093E095BD9DE797BD80936E00ABE2B1E0DF
:1045A00041E050E026E02A0F8D91E82FE295EF7070
:1045B000F0E031A18F70BA0102C0660F771F8A95B3
:1045C000E2F7CB01962F9095932391A392A1892B8B
:1045D00082A32A13E9CFA1E3B1E041E050E028E053
:1045E0002A0F8D91E82FE295EF70F0E031A18F70E6
:1045F000BA0102C0660F771F8A95E2F7CB01962FAA
:104600009095932391A392A1892B82A32A13E9CF9A
:10461000ABE8B1E0E1E8F1E086E08E0F11921D9287
:104620008E13FCCF80E090E00E94A52B8D3E9E4F24
:1046300011F00E94720E80E090E00E94A52B8D3E4A
:104640009E4F11F00E94720E82EE9DE00E948E0835
:1046500015E6115049F00E94D513EFE1FEE43197C1
:10466000F1F700C00000F5CF8BED9DE00E948E08B1
:1046700089E20E946C2281111AC18AE20E946C2296
:1046800081110E94720E85E00E946C2281110E94AD
:10469000460D82E090E00E949D2B8093AF0187E061
:1046A0000E946C228823A9F18BE10E946C2288234E
:1046B00051F08091AF0181FB222720F991E09227F0
:1046C00090FB81F90EC08EE00E946C22882361F07D
:1046D0008091AF0182FB222720F991E0922790FB85
:1046E00082F98093AF0115C080E10E946C22909105
:1046F000AF01882341F093FB222720F981E0822734
:1047000080FB93F904C0892F809580FB90F99093EA
:10471000AF016091AF0182E090E00E94AB2B84E09A
:1047200090E00E949D2B90E09093880180938701F8
:1047300080EE0E946C22882341F080918701982F9F
:10474000909590FB80F98093870189E30E946C2209
:10475000882359F08091870181FB222720F991E07D
:10476000922790FB81F98093870182EE0E946C2250
:10477000882359F08091870182FB222720F991E05C
:10478000922790FB82F98093870186EE0E946C222B
:10479000882359F08091870183FB222720F991E03B
:1047A000922790FB83F98093870183EE0E946C220D
:1047B000882359F08091870184FB222720F991E01A
:1047C000922790FB84F98093870185E30E946C22F5
:1047D000882359F08091870185FB222720F991E0F9
:1047E000922790FB85F98093870181E30E946C22D8
:1047F000882359F08091870186FB222720F991E0D8
:10480000922790FB86F98093870181E10E946C22B8
:10481000882359F08091870187FB222720F991E0B6
:10482000922790FB87F9809387016091870184E04C
:1048300090E00E94AB2B87E20E946C22182F8EE141
:104840000E946C22811112608FE10E946C22811102
:10485000146080E20E946C228111186081E20E9443
:104860006C228111106182E20E946C22811110621F
:1048700083E20E946C228111106484E20E946C2207
:10488000882311F0106802C0112339F0612F83E0F2
:1048900090E00E94AB2B612F05C083E090E00E9466
:1048A0009D2B682F70E080E090E00E94C40E88E0AD
:1048B00091E090938A018093890188EC9EE00E94A8
:1048C0008E08F1E02F2EFEE03F2EA9EF6A2EADE01C
:1048D0007A2E8E010F5F1F4F0E94D5137BE9A72E02
:1048E00071E0B72EEBE8CE2EE1E0DE2EE12CF12CCC
:1048F000CB57DF4FE882C558D040D6012D916D01CE
:10490000CC57DF4F2883C458D040D5018D915D012D
:104910002827CD57DF4F2883C358D040211114C01A
:10492000BFEFEB1AFB0AE6E0EE16F10409F70E946E
:10493000BA0D2FEF29832A831B8281609D838C838C
:10494000C8010E94D90E8BC08091AF0181FD0AC0C1
:10495000812C912CCD57DF4F2881C358D040822F16
:1049600090E048C086E09EE00E948E086BE8862EAC
:1049700061E0962E412C512C5F924F923F922F92E4
:104980000E9427098EEF9DE00E948E08D4019D9120
:104990004D019295892F8C7C282F2695269593730F
:1049A000B4E09B9FC0011124822B982F9A7A969590
:1049B0008575880F892B1F928F937F926F920E942B
:1049C000270987EF9DE00E948E08EFEF4E1A5E0ADE
:1049D0000FB6F894DEBF0FBECDBF36E043165104CC
:1049E00059F6B6CF7FEF871A970AA8E08A16910486
:1049F00009F496CF9C01082C02C0359527950A949E
:104A0000E2F720FFEFCFCC24C394D12C082C02C0B6
:104A1000CC0CDD1C0A94E2F70E94BA0D8982CB57B8
:104A2000DF4F4881C558D0404A83CC57DF4F68815B
:104A3000C458D040262F30E02C213D2141E0232BCB
:104A400009F440E04B8381609D838C83C8010E9400
:104A5000D90EF701E556FE4F8081C826C0828091AD
:104A60009801909199010E94900DAC01909197014D
:104A7000992321F02091070130E006C02091060122
:104A8000BAE02B9F900111244217530708F478C015
:104A900080919301F090940181110BC0F110A4C199
:104AA000209195012111A0C12091960121119CC155
:104AB00067C09F3F19F09F5F90939701181624F4E9
:104AC0000E94BB21809393018091930187FF05C0D1
:104AD0000E94BB218195809393011F1424F40E94AE
:104AE000BB21809394018091940187FF05C00E94AF
:104AF000BB21819580939401309193013323E1F0A0
:104B0000209194012223C1F045EB3403C00111240C
:104B1000892F990F990B009709F481E080939301F5
:104B200065EB2603C0011124892F990F990B00977B
:104B300009F481E08093940180919501181624F482
:104B40000E948221809395018091950187FF05C085
:104B50000E9482218195809395018091960118167B
:104B600024F40E948221809396018091960187FF10
:104B700005C00E9482218195809396010E94652044
:104B8000F0909A010E94C913F81639F10E94C913D6
:104B9000F82E80939A018091AF0182FF1EC080FFA2
:104BA00004C08CE19EE00E948E088091AF0180FFDE
:104BB0000CC01F92FF92A7E1BEE0BF93AF930E948B
:104BC00027090F900F900F900F908091AF0180FFF9
:104BD00004C085E19EE00E948E088091A5018111AC
:104BE00086C08091A401811132C01092A40110925C
:104BF000A5011092A3016E987698249A2C9A80E5CC
:104C00008093A10191E09093A2012FB7F894289A84
:104C1000209A8CB580618CBD8CB580648CBD219A46
:104C2000229A2FBF549A5C9A5C98AFE1BEE4119728
:104C3000F1F700C000005C9ABFEFE9E6F8E1B1507F
:104C4000E040F040E1F700C000009093A401109212
:104C5000A5018BE4E82E8EE0F82E42E050E0B7018B
:104C6000CE018F579F4F0E94732B40E850E0B80150
:104C7000CF57DF4F88819981C158D0400E94942935
:104C800081111FC08091AF0180FF2CC01F930F9333
:104C9000CE57DF4F8881C258D0408F93CF57DF4F18
:104CA0008881C158D0408F938FE29EE09F938F936D
:104CB0000E9427090F900F900F900F900F900F9068
:104CC00011C022E0E20EF11C37E5E3163EE0F306E8
:104CD00021F681E08093A5010E94BA0D9093AE0168
:104CE0008093AD018091A501882309F4F5CD81E081
:104CF0000E9488278AE090E00E94D5298091AD012A
:104D00009091AE010E94900D893E9340E8F1809110
:104D1000A601811113C040E350E0B80185EB9EE08D
:104D20000E949429882339F040E350E0B80182EAD8
:104D30009EE00E94942981E08093A6010E94BA0D12
:104D40009093AE018093AD0140E350E0B80184E957
:104D50009EE00E9494298823B9F0C8010E94552B37
:104D6000FF24F394892B09F4F12C8091A301F81608
:104D700059F0FF2019F082E79EE002C087E59EE02F
:104D80000E948E08F092A3018091A7019091A80142
:104D90000E94900D8131974208F49ECD9091B4010C
:104DA0008091B501981398CD0E94BA0D9093A801F7
:104DB0008093A70140E350E0B8018AE89EE00E949A
:104DC0009429882309F488CDC8010E94552B092E07
:104DD000000CAA0BBB0B8093A9019093AA01A0938E
:104DE000AB01B093AC0178CD9F3F09F064CE6CCE9F
:104DF000EF92FF920F931F93CF93DF93EC017B0110
:104E00000E94BA0D8C0166990CC082E08A95F1F778
:104E100000C0C8010E94900D8E159F05A0F380E090
:104E200030C08091A1018CBD8091A2018DBD2C98D4
:104E30001EBC00000DB407FEFDCF9EB598839E5F9B
:104E4000923070F42C9A82E48A95F1F700C02C9885
:104E5000C8010E94900D8E159F0550F380E010C090
:104E600063E0CE0101960E9482156B816F77862FD9
:104E700090E0419724F4CE0104960E94821581E0CF
:104E80002C9ADF91CF911F910F91FF90EF90089591
:104E9000CF92DF92FF920F931F93CF93DF931F92D6
:104EA000CDB7DEB7F82E8B0199830E94551A9981F0
:104EB00081111CC0CF2CD92E01151105B1F08091A4
:104EC000E80085FD0AC08091E8008E778093E800B5
:104ED0000E94551A882381F309C0F60181916F0160
:104EE0008093F10001501109E7CF80E00F90DF912E
:104EF000CF911F910F91FF90DF90CF900895109266
:104F0000460310924703E0EBF1E014821582089506
:104F1000DF92EF92FF920F931F93CF93DF93CDB762
:104F2000DEB764970FB6F894DEBF0FBECDBFE09139
:104F3000B5019091B401E91709F486C0D82EF0E0CC
:104F4000EE0FFF1FE055FE4FE080F180669B51C0E1
:104F500008E01FE066E970E0CE0101960E94F826A5
:104F6000882309F471C08C8187FD31C02091B5017F
:104F70008091B401281771F030E0F901EE0FFF1FA6
:104F8000E055FE4FE080F1802F5F3F4F21703327C7
:104F90002093B5018091AF0180FF19C00E94BA0D26
:104FA0008E159F0528F00E94BA0D8E199F0905C025
:104FB0000E94BA0D8E199F0901979F938F931F939B
:104FC0000F930E9427090F900F900F900F90DD20F4
:104FD000D9F1E091B5018091B401E817A9F1F0E0B1
:104FE000EE0FFF1FE055FE4FE080F1806699B2CFD3
:104FF0002BC0C7010E94900D8D32914028F1809105
:10500000AF0180FF15C08091B40190E02091B501FF
:10501000821B910997FD8E5F1F928F9389ED9EE011
:105020009F938F930E9427090F900F900F900F90DE
:105030008091B5019091B401891731F090E001960B
:10504000817099278093B50164960FB6F894DEBFFE
:105050000FBECDBFDF91CF911F910F91FF90EF90C9
:10506000DF9008955F926F927F928F929F92AF929E
:10507000BF92CF92DF92EF92FF920F931F93CF9345
:10508000DF93CDB7DEB7A8970FB6F894DEBF0FBE9B
:10509000CDBF6C017B015A01522EFC010190002012
:1050A000E9F7CF0101973C01222381F08091AF0104
:1050B00080FF0CC0DF92CF928CE490E19F938F939E
:1050C0000E9427090F900F900F900F90E114F104A8
:1050D00011F180E049EF842E4FE0942E2091B4012D
:1050E0009091B5012917A9F081110EC08091AF01EF
:1050F00080FF0AC0DF92CF929F928F920E94270971
:105100000F900F900F900F9081E00E94882781E010
:10511000E5CFF701108220E1922E3AE0832EA30121
:105120004C195D09888D41315105DCF09D8A1E8A3C
:105130008F8A807880618068888FF601DE015996B9
:10514000892D01900D928A95E1F7B801CE0145961F
:105150000E943E15882309F49AC0F0E1CF0ED11CBD
:10516000DECF80E18D8B1E8A8AE08F8B842F8F7734
:10517000888F5527B601CE0149960E94502CB80160
:10518000CE0145960E943E15D82E882309F47FC093
:10519000E114F10409F049C00E94BA0D8C0120917C
:1051A000B40130E0C9010196817099274091B501A1
:1051B000481304C080E00E948827F1CF220F331FDC
:1051C000F901E055FE4F118300838093B4010E94E2
:1051D000BA0D9C018017910720F08017910731F4D8
:1051E0008CC0801B910B019709F487C08091AF019F
:1051F00080FBFF24F0F880FF80C02017310718F0F3
:10520000201B310B04C000951095200F311F3F93D8
:105210002F9382E390E19F938F930E9427090F9031
:105220000F900F900F90DF2C68C0AE0CBF1C870151
:105230006CE271E0CE0101960E94F826811109C04E
:105240008091AF0180FF23C08CE190E10E948E0825
:105250001EC08981803219F0F701108218C08C813C
:105260008F778A2C801A881508F4882E882051F0B0
:10527000912CA401BE016B5F7F4FC8010E94502C8E
:10528000080D191D8C8187FDD3CFF80106C0D12CE4
:1052900034C08F0180818A3039F41082F80131974F
:1052A000EE16FF06B0F302C08D30B9F36AE070E08D
:1052B000C7010E94642C009711F0019601C0C7013C
:1052C00069E170E10E947C2B11E0892B09F010E06C
:1052D000511002C0111111C08091AF0180FF0CC0AC
:1052E000FF92EF928DE090E19F938F930E942709A8
:1052F0000F900F900F900F90D12E8D2DA8960FB676
:10530000F894DEBF0FBECDBFDF91CF911F910F91FB
:10531000FF90EF90DF90CF90BF90AF909F908F90D5
:105320007F906F905F900895AF92BF92CF92DF927F
:10533000EF92FF920F931F93CF93DF9300D0CDB7DF
:10534000DEB78C015B01CDB6DEB649835A830E947D
:105350008C2B01962DB73EB7281B390B0FB6F8944E
:105360003EBF0FBE2DBF8DB79EB701967C01B80121
:105370000E94852B06E910E020E049815A81B501A1
:10538000C7010E9432280FB6F894DEBE0FBECDBE14
:105390000F900F90DF91CF911F910F91FF90EF90A1
:1053A000DF90CF90BF90AF9008958F929F92AF9271
:1053B000BF92CF92DF92EF92FF920F931F93CF9302
:1053C000DF93CDB7DEB7CA57D1090FB6F894DEBF69
:1053D0000FBECDBF3091B4012091B501321351C140
:1053E0002091470330914603231709F44AC16C0109
:1053F0008AE0829F900111242A543E4FF901DE0178
:10540000AF58BF4F01900D928A95E1F7F901908056
:10541000E180F28015810681B780A08481840E949A
:10542000BA0D9C019093AE018093AD018E159F053E
:1054300020F08E159F0529F41BC08E199F09019736
:10544000B9F08091AF0180FF13C0C9018E199F0987
:105450002E153F0508F401979F938F9384EA9FE0F0
:105460009F938F930E9427090F900F900F900F909A
:1054700081E09812D3C060E57FE08E010F5F1F4F7F
:10548000C8010E94852BE6968FADE6978F93E5962F
:105490008FADE5978F931F930F931F9280E38F93A8
:1054A0007E01F1E4EF0EF11CFF92EF920E946F2C4F
:1054B000860121E040E050E060E070E0C7010E941A
:1054C00032280FB6F894DEBF0FBECDBF69C092E0A0
:1054D000991268C061E37FE0CE0101967C010E94D1
:1054E000852B802F002E000C990B9F930F93812FFB
:1054F000012E000C990B9F931F93E6968FADE697B4
:10550000282F082E000C330B3F938F93E5968FAD19
:10551000E597282F082E000C330B3F938F93FF92B3
:10552000EF921F9280E38F937E0191E4E90EF11CCC
:10553000FF92EF920E946F2C860121E040E050E044
:1055400060E070E0C7010E9432280FB6F894DEBF19
:105550000FBECDBF882309F44CC06BE17FE0C701CB
:105560000E94852BB0FE05C069E371E0C7010E946F
:10557000592CB1FE05C06BE371E0C7010E94592CA4
:10558000B2FE7AC06DE371E0C7010E94592C86011A
:1055900021E040E050E060E070E0C7010E94322866
:1055A000882339F18091470320914603821741F007
:1055B00090E0019668E270E00E94222C80934703FD
:1055C0008091AF0180FF5DC0822F90E02091470362
:1055D000821B910997FD885D1F928F9383ED9FE059
:1055E0009F938F930E9427090F900F900F900F9019
:1055F00048C08091AF0180FF04C087EB9FE00E940C
:105600008E08FFE729EA33E0F15020403040E1F70F
:1056100000C0000081E00E94882733C0981608F07F
:1056200056CF6BE67FE09E012F5F3F4F7901C901A6
:105630000E94852B1F928F921F92AF921F92BF9252
:105640001F920F931F921F93E6968FADE6971F92BE
:105650008F93E5968FADE5971F928F93FF92EF9210
:105660001F9280E38F937E0131E4E30EF11CFF92E1
:10567000EF920E946F2C1CCFB11089CF6FE371E0C5
:1056800083CFC658DF4F0FB6F894DEBF0FBECDBF35
:10569000DF91CF911F910F91FF90EF90DF90CF900E
:1056A000BF90AF909F908F900895FC018827992715
:1056B000E89421912032E9F3293010F02E30C8F31C
:1056C0002B3241F02D3239F4689404C00E94952B9E
:1056D000820F911D219120532A30C0F31EF4909522
:1056E00081959F4F0895FB01DC0102C005900D924A
:1056F00041505040D8F70895FB01DC018D91059091
:1057000080190110D9F3990B0895FB01DC01059074
:105710000D920020E1F70895FC0105900020E9F7C3
:10572000809590958E0F9F1F08957AE0979F902DFA
:10573000879F802D910D11240895F999FECF92BD78
:1057400081BDF89A992780B50895A8E1B0E042E0BC
:1057500050E00C94D12B262FF999FECF92BD81BD3C
:10576000F89A019700B4021639F01FBA20BD0FB69F
:10577000F894FA9AF99A0FBE08950396272F0E947B
:10578000AC2B0E94AB2B252F0E94AC2B242F0C940A
:10579000AC2B0196272F0E94AC2B0C94AB2BDC0179
:1057A000CB01FC01F999FECF06C0F2BDE1BDF89A2C
:1057B000319600B40D9241505040B8F708952F92A1
:1057C0003F924F925F926F927F928F929F92AF9291
:1057D000BF92CF92DF92EF92FF920F931F93CF93DE
:1057E000DF93CDB7DEB7CA1BDB0B0FB6F894DEBF75
:1057F0000FBECDBF09942A88398848885F846E849B
:105800007D848C849B84AA84B984C884DF80EE80E4
:10581000FD800C811B81AA81B981CE0FD11D0FB6ED
:10582000F894DEBF0FBECDBFED010895991B79E05E
:1058300004C0991F961708F0961B881F7A95C9F720
:105840008095089597FB072E16F4009407D077FDF6
:1058500009D00E943C2C07FC05D03EF49095819520
:105860009F4F0895709561957F4F0895EE0FFF1F2C
:105870000590F491E02D0994AA1BBB1B51E107C0D0
:10588000AA1FBB1FA617B70710F0A61BB70B881FD0
:10589000991F5A95A9F780959095BC01CD0108955F
:1058A000FB01DC0102C001900D9241505040D8F73D
:1058B0000895FB01DC010D900020E9F7119701909C
:1058C0000D920020E1F70895FC0181E090E0019045
:1058D000061609F4CF010020D1F701970895AEE034
:1058E000B0E0E5E7FCE20C94ED2B0D891E898F8971
:1058F000988D26E02C831A83098397FF02C080E0ED
:1059000090E801979E838D83AE01455E5F4F698D60
:105910007A8DCE0101960E949F2C4D815E8157FDAC
:105920000AC02F813885421753070CF49A01F801F9
:10593000E20FF31F10822E96E4E00C94092CACE0E9
:10594000B0E0E5EAFCE20C94DF2B7C016B018A01FC
:10595000FC0117821682838181FFBDC1CE010196B1
:105960004C01F7019381F60193FD859193FF81919D
:105970006F01882309F4ABC1853239F493FD859119
:1059800093FF81916F01853229F4B70190E00E9465
:10599000872EE7CF512C312C20E02032A0F48B321F
:1059A00069F030F4803259F0833269F420612CC000
:1059B0008D3239F0803339F4216026C022602460B2
:1059C00023C0286021C027FD27C030ED380F3A30B2
:1059D00078F426FF06C0FAE05F9E300D1124532EA6
:1059E00013C08AE0389E300D1124332E20620CC083
:1059F0008E3221F426FD6BC1206406C08C3611F472
:105A0000206802C0883641F4F60193FD859193FF2A
:105A100081916F018111C1CF982F9F7D9554933053
:105A200028F40C5F1F4FFFE3F9830DC0833631F07C
:105A3000833771F0833509F05BC022C0F8018081A3
:105A400089830E5F1F4F44244394512C540115C089
:105A50003801F2E06F0E711CF801A080B18026FFC2
:105A600003C0652D70E002C06FEF7FEFC5012C878A
:105A70000E947C2E2C0183012C852F77222E17C0AB
:105A80003801F2E06F0E711CF801A080B18026FF92
:105A900003C0652D70E002C06FEF7FEFC5012C875A
:105AA0000E94712E2C012C852068222E830123FC5C
:105AB0001BC0832D90E048165906B0F4B70180E270
:105AC00090E00E94872E3A94F4CFF50127FC85914F
:105AD00027FE81915F01B70190E00E94872E31106F
