:100000000C9422080C9474080C9474080C947408D2
:100010000C9474080C9474080C9474080C94740870
:100020000C9474080C9474080C946E2A0C943D2B58
:100030000C948E1C0C9474080C9474080C94740822
:100040000C9474080C9474080C9474080C94740840
:100050000C9474080C94021D0C9474080C9474088D
:100060000C9474080C9474080C9474080C94740820
:100070000C9474080C9474080C9474080C94740810
:100080000C9474080C9474080C9474080C94740800
:100090000C9474080C9474080C9474080C947408F0
:1000A0000C9474080C9474080C947408AC0AAE0A8E
:1000B000B90AB00AB20AB40AB60AB80ABB0ABD0A3B
:1000C000BF0ACA0AC10AC30AC50AC70AC90ACC0AB2
:1000D000DB12DB120D130D134B136B13CF14CF1464
:1000E000AD13CF144E144E14BF14CF14CF14C81434
:1000F0005B145B145B145B145B145B145B145B1488
:100100005B145B145B145B145B145B145B145B1477
:100110006C147A148114881492145E155E1570158F
:10012000701567157015701570155E155E156C15D8
:10013000701570156C15AA2BD12BC32CD12BC32C89
:100140001D2C402CC32C962CA52C68747470733A0B
:100150002F2F716D6B2E666D2F012800514D4B2096
:100160006973207468652062657374207468696EB1
:10017000672065766572210004000500060007000F
:1001800044454255473A2064697361626C65642E48
:100190000A0044454255473A20656E61626C6564C9
:1001A0002E0A0000000000000000002A2B2800009A
:1001B0000000000000000000000000000000290016
:1001C0000000002C1E3420212224342627252E3620
:1001D0002D3738271E1F202122232425263333368E
:1001E0002E37381F0405060708090A0B0C0D0E0FE1
:1001F000101112131415161718191A1B1C1D2F3164
:1002000030232D350405060708090A0B0C0D0E0FC7
:10021000101112131415161718191A1B1C1D2F3143
:1002200030354C000000000000000000000000001D
:1002300000000000000000000000000000000000BE
:1002400000000000000000000000000000000000AE
:10025000000000000000000000000000000000009E
:10026000000000000000000000000000000000008E
:10027000000000000000000000000000000000007E
:10028000000000000000000000000000000000006E
:10029000000000000000000000000000000000005E
:1002A000000000000000000000000000000000004E
:1002B000000000000000000000000000000000003E
:1002C0000000000001010101010100010101010024
:1002D000000000000000000000000000000100011C
:1002E00000010101010101010101010101010101FF
:1002F00001010101010101010101010101010000F0
:1003000000010100000000000000000000000000EB
:1003100000000000000000000000000000000101DB
:100320000101000A0025303862003A2000253032F1
:1003300058000A722F632030313233343536370A91
:10034000000A002530325820006B6579626F6172B7
:10035000645F7265706F72743A20000A0025303253
:1003600058006B6579626F6172645F7365745F6C6E
:1003700065643A2000290A002575002F00257500C4
:100380005D2800256400200025640020002564000D
:1003900020002564007C0025303258006D6F757395
:1003A000656B6579205B62746E7C7820792076209D
:1003B000685D287265702F61636C293A205B006D5F
:1003C0006B5F776865656C5F74696D655F746F5F9F
:1003D0006D6178203D2025640A006D6B5F7768654C
:1003E000656C5F6D61785F7370656564203D202585
:1003F000640A006D6B5F74696D655F746F5F6D613A
:1004000078203D2025640A006D6B5F6D61785F7315
:1004100070656564203D2025640A006D6B5F696E20
:1004200074657276616C203D2025640A006D6B5FF7
:1004300064656C6179203D2025640A006D6B5F77EF
:100440006865656C5F74696D655F746F5F6D617819
:10045000203D2025640A006D6B5F776865656C5FE1
:100460006D61785F7370656564203D2025640A00C6
:100470006D6B5F74696D655F746F5F6D6178203D52
:100480002025640A006D6B5F6D61785F7370656530
:1004900064203D2025640A006D6B5F696E7465728F
:1004A00076616C203D2025640A006D6B5F64656C8D
:1004B0006179203D2025640A000A00257500363A3E
:1004C00020776865656C5F74696D655F746F5F6DDB
:1004D00061783A20000A00257500353A2077686572
:1004E000656C5F6D61785F73706565643A20000AC2
:1004F00000257500343A2074696D655F746F5F6D17
:1005000061783A20000A00257500333A206D617841
:100510005F73706565643A20000A00257500323A01
:1005200020696E74657276616C286D73293A2000BB
:100530000A00257500313A2064656C6179282A31FA
:10054000306D73293A20000A092D2056616C7565BB
:1005500073202D0A004D3E004D25643E20003F00D3
:100560007365742064656661756C740A00433E208F
:100570000077686572652064656C74613A20637504
:1005800072736F723D25642C20776865656C3D251C
:10059000640A53656520687474703A2F2F656E2E57
:1005A00077696B6970656469612E6F72672F77690F
:1005B0006B692F4D6F7573655F6B6579730A000A00
:1005C000092D204D6F7573656B6579202D0A455394
:1005D000432F713A09717569740A313A0964656C7F
:1005E0006179282A31306D73290A323A09696E74AB
:1005F000657276616C286D73290A333A096D6178EA
:100600005F73706565640A343A0974696D655F7477
:100610006F5F6D61780A353A09776865656C5F6D63
:1006200061785F73706565640A363A097768656555
:100630006C5F74696D655F746F5F6D61780A0A70D5
:100640003A097072696E742076616C7565730A641C
:100650003A097365742064656661756C74730A7514
:10066000703A092B310A646F776E3A092D310A709E
:100670006775703A092B31300A7067646F776E3A8C
:10068000092D31300A0A7370656564203D20646568
:100690006C7461202A206D61785F737065656420D9
:1006A0002A2028726570656174202F2074696D6539
:1006B0005F746F5F6D6178290A003F004D3E200036
:1006C000433E20004C25640A0074696D65725F72B8
:1006D000656164333228293A202530346C580A0089
:1006E0006B6579626F6172645F69646C653A20253D
:1006F000580A006B6579626F6172645F70726F7423
:100700006F636F6C3A2025580A00686F73745F6BD3
:100710006579626F6172645F6C65647328293A2041
:1007200025580A000A092D20537461747573202D11
:100730000A004743433A20342E392E322041565284
:100740002D4C4942433A20312E382E3073766E209C
:100750004156525F415243483A20617672350A0051
:100760004F5054494F4E533A204C554641204D4F1F
:100770005553454B45592045585452414B455920F6
:10078000434F4E534F4C4520434F4D4D414E442017
:10079000343039360A004255494C443A20226272BC
:1007A00065616B706F696E745F323031395F3038FC
:1007B0005F33302E312E372D312D6733646432395B
:1007C0003022202832333A33363A3131204A756CA0
:1007D0002031352032303139290A005649443A2037
:1007E000307846454544286B2D616F74612920504F
:1007F00049443A2030783030303028636163747572
:10080000735F73706C69745F626C65292056455222
:100810003A203078303030310A00444553433A2092
:100820004120637573746F6D206B6579626F6172BF
:10083000640A000A092D2056657273696F6E202DB7
:100840000A000A092D20436F6E736F6C65202D0A14
:100850004553432F713A09717569740A6D3A096DF0
:100860006F7573656B65790A000A092D204D616704
:100870006963202D0A443A094465627567204D6515
:10088000737361676520546F67676C650A583A092E
:100890004D6174726978204465627567204D6F649C
:1008A0006520546F67676C65202D2053686F772033
:1008B0006B65797072657373657320696E206D6105
:1008C0007472697820677269640A4B3A094B6579DA
:1008D000626F61726420446562756720546F676758
:1008E0006C65202D2053686F77206B657970726579
:1008F0007373207265706F72740A4D3A09446562B1
:100900007567204D6F75736520546F67676C650A56
:10091000563A0956657273696F6E0A533A095374F1
:10092000617475730A433A09416374697661746549
:1009300020436F6E736F6C65204D6F64650A46319E
:100940002D4631303A0953776974636820746F20FB
:100950004C6179657220302D392028463130203D98
:10096000204C30290A302D393A095377697463686D
:1009700020746F204C6179657220302D390A4752FE
:100980004156453A0953776974636820746F204C67
:100990006179657220302028616C7465726E6174B3
:1009A00065290A423A094A756D7020746F20426FBA
:1009B0006F746C6F616465720A4553433A094A75F6
:1009C0006D7020746F20426F6F746C6F616465721C
:1009D0002028616C7465726E617465290A453A0954
:1009E0005072696E7420454550524F4D20536574C6
:1009F00074696E67730A4253504143453A09436C28
:100A000065617220454550524F4D0A000A00257518
:100A1000002E6E6B726F3A20000A002575002E734F
:100A20007761705F6261636B736C6173685F626151
:100A3000636B73706163653A20000A002575002EB0
:100A4000737761705F67726176655F6573633A2083
:100A5000000A002575002E6E6F5F6775693A2000E9
:100A60000A002575002E737761705F72616C745F88
:100A7000726775693A20000A002575002E73776148
:100A8000705F6C616C745F6C6775693A20000A0076
:100A90002575002E636170736C6F636B5F746F5F9D
:100AA000636F6E74726F6C3A20000A002575002E19
:100AB000737761705F636F6E74726F6C5F63617088
:100AC000736C6F636B3A20000A0025303258006B5C
:100AD00065796D61705F636F6E6669672E726177AD
:100AE0003A20000A002575002E6D6F7573653A2057
:100AF000000A002575002E6B6579626F6172643A99
:100B000020000A002575002E6D61747269783A2004
:100B1000000A002575002E656E61626C653A200042
:100B20000A00253032580064656275675F636F6E36
:100B30006669672E7261773A20000A0025750064A5
:100B4000656661756C745F6C617965723A20003F0F
:100B5000000A6D6F7573653A206F66660A000A6D4C
:100B60006F7573653A206F6E0A000A6B6579626F64
:100B70006172643A206F66660A000A6B6579626F7B
:100B80006172643A206F6E0A000A6D61747269784E
:100B90003A206F66660A000A6D61747269783A20BD
:100BA0006F6E0A000A64656275673A206F66660AAE
:100BB000000A64656275673A206F6E0A000A0A4A85
:100BC000756D70696E6720746F20626F6F746C6FE3
:100BD000616465722E2E2E2000433E2000436C651A
:100BE0006172696E6720454550524F4D0A00656538
:100BF000636F6E6669673A0A004B6579626F61726E
:100C0000642073746172742E0A005B575D005B533D
:100C10005D005B525D005B445D005B435D0004036F
:100C2000300000002203630061006300740075005F
:100C300073005F00730070006C00690074005F0057
:100C400062006C00650000000E036B002D00610067
:100C50006F007400610000000403090409025B00D6
:100C6000030100A0FA0904000001030101000921A9
:100C7000110100012240000705810308000A090450
:100C8000010001030000000921110100012285007B
:100C90000705820320000A09040200020300000085
:100CA0000921110100012222000705830320000110
:100CB000070503032000011201100100000008EDE8
:100CC000FE00000100010203010631FF0974A101C9
:100CD0000975150026FF0095207508810209761513
:100CE0000026FF00952075089102C005010902A1A8
:100CF0000185020901A10005091901290515002531
:100D000001950575018102950175038101050109B0
:100D10003009311581257F9502750881060938153E
:100D200081257F950175088106050C0A3802158119
:100D3000257F950175088106C0C005010980A101C4
:100D400085031601002603001A81002A830075100E
:100D500095018100C0050C0901A10185041601005F
:100D6000269C021A01002A9C02751095018100C080
:100D700005010906A101050719E029E7150025016C
:100D80009508750181029501750881010508190111
:100D900029059505750191029501750391010507D6
:100DA000190029FF150026FF00950675088100C06F
:100DB0007761697420666F72206275662073706156
:100DC00063650A002A2A2A2A2A2A20424C452044FE
:100DD0004953434F4E4E454354212121210A002AB5
:100DE0002A2A2A2A2A20424C4520434F4E4E454368
:100DF00054212121210A0041542B424C45484944A9
:100E00004D4F555345425554544F4E3D0041542B80
:100E1000424C454849444D4F5553454D4F56453D2D
:100E200025642C25642C25642C25640041542B4218
:100E30004C45484944434F4E54524F4C4B45593D05
:100E40003078253034780041542B424C454B45597D
:100E5000424F415244434F44453D253032782D3076
:100E6000302D253032782D253032782D25303278CE
:100E70002D253032782D253032782D2530327800EE
:100E800073656E64206C6174656E63792025646D92
:100E9000730A006661696C656420746F2073656E07
:100EA000642C2077696C6C2072657472790A007307
:100EB000656E645F6275665F73656E645F6F6E65B5
:100EC0003A20686176652025642072656D61696EDF
:100ED000696E670A0041542B4857564241540041FD
:100EE000542B474150474554434F4E4E0041542BDD
:100EF0004556454E54454E41424C453D30783200B2
:100F000041542B4556454E54454E41424C453D308B
:100F1000783100726573756C743A2025730A004F3E
:100F20004B00736465705F726563765F706B7420ED
:100F30006661696C65640A0077616974696E675FF0
:100F4000666F725F726573756C743A2074696D6553
:100F50006F75742C20726573705F6275662073699B
:100F60007A652025640A0072656376206C61746579
:100F70006E63792025646D730A0077616974206F50
:100F80006E2062756620666F722025730A00776195
:100F9000697465642025646D7320666F72207265C4
:100FA00073705F6275660A00626C652073656E64BB
:100FB0003A2025730A004154453D300041542B47E7
:100FC00041504445564E414D453D636163747573D0
:100FD0005F73706C69745F626C650041542B424CA6
:100FE00045484944454E3D310041542B4741504905
:100FF0004E54455256414C533D31302C33302C2CFD
:101000000041545A0041542B424C45504F574552D1
:101010004C4556454C3D2D3132006661696C656426
:1010200020424C4520636F6D6D616E643A202553FC
:101030003A2025730A00B60FE90FBC0FDB0F05102D
:1010400001109B3311241FBECFEFDAE0DEBFCDBF0E
:1010500004B603FE27C080918B0390918C03A0916E
:101060008D03B0918E038730904BA740B04BD1F4E5
:1010700010928B0310928C0310928D0310928E03AA
:1010800014BE84B7877F84BF0FB6F894A89580916B
:101090006000886180936000109260000FBEE0E005
:1010A000F8E3099511E0A0E0B1E0ECEDFEE602C046
:1010B00005900D92AC34B107D9F723E0ACE4B1E070
:1010C00001C01D92AB38B207E1F718E0C2E2D8E0E8
:1010D00004C02197FE010E94C433C132D107C9F771
:1010E0000E94B0270C946C370C940000FF93EF9390
:1010F000E0914C01F0914D01309709F00995EF9185
:10110000FF910895FC018591803011F0EFDFFBCF56
:101110000895FF27E0E230E247FF0CC0419597FFBA
:1011200009C0EDE26095709580959095611D711DE7
:10113000811D911D27FF02C0219530E350E2AA27AF
:10114000660F771F881F991FAA1FA41710F0A41BF2
:1011500063955A95A9F7AA3008F0A95FA05DAF93EF
:10116000F395611571058105910541F7ED3211F493
:10117000EF93F395F21718F43F93F395FBCF8F910C
:10118000B5DFFA95E1F70895E991F99185918030FD
:1011900021F0853219F0AADFF9CF089520E0E89414
:1011A00055915532C1F3503311F4689455915A3327
:1011B00048F4505390F3220F022E220F220F200DDD
:1011C000250FF4CF0EF4219589919991533619F397
:1011D000533729F1533559F1BC0188279927E894F1
:1011E0005C3621F48991999168945591543639F47B
:1011F00046EF7EF077FF0DC08FEF9FEF0AC05537A7
:101200004AE039F0583540E121F0523642E009F029
:101210000895FF93EF937DDFEF91FF91B7CFFF9399
:10122000EF93FC0181918030B9F360DFFBCFFF9336
:10123000EF9368DFF1CFDF93CF93CDB7DEB725967D
:10124000A3DFCF91DF910895853F2CE5920721F030
:10125000863F9C4541F00FC0FB018281882359F0F5
:101260008CE591E006C0FB018281882321F08AE4AD
:1012700091E00E94ED0981E0089508950895089590
:1012800081E008950C9424091F93CF93DF9300D03D
:1012900000D01F92CDB7DEB749835A8320916201F7
:1012A00089819A81211112C0662349F00E947F1A18
:1012B000182F682F89819A810E94281A03C00E94E2
:1012C000551A182F69817A81812F04C00E947F1AD4
:1012D00069817A810F900F900F900F900F90DF919E
:1012E000CF911F910C94150BFC01408151816281BB
:1012F000738184810C9444091F93CF93DF93282F2B
:1013000030E0F901ED55FE4F1491F901ED55FD4F17
:10131000E491C1E0E11101C0C0E0F901ED5DFD4FD4
:101320002491D1E0211101C0D0E0CC2319F081EE4D
:101330000E94E310DD2319F086EE0E94E310812F56
:101340000E948412DD2319F086EE0E941C12CC2329
:1013500031F081EEDF91CF911F910C941C12DF913F
:10136000CF911F9108950F931F93CF93DF93EC01BB
:10137000062FFE018491882359F19E012F5F3F4F74
:10138000813041F4E901F9011491812F0E94E310A9
:10139000812F0DC0823031F4E901F90184910E945E
:1013A000E3100AC0833031F4E901F90184910E940D
:1013B0001C1202C00E947C092196802F8823C9F24A
:1013C000EFECF7E03197F1F700C000008150F6CF65
:1013D000DF91CF911F910F91089560E00C94B309B4
:1013E0000E94CA1B811102C00E94441C0C94850DEE
:1013F0000C94870D0C943F090C94FA0908950E94EF
:101400004E150E94FE092FE78AE196E021508040A8
:101410009040E1F700C000000C94281D0F931F932B
:10142000CF93DF938C010E947409EC01B8010E94F4
:101430004209882309F4EEC0B801CE010E94F70EDC
:10144000882309F4E7C0C631FCE5DF0739F50E94BF
:10145000FF1A282FF801828140910001509101016B
:10146000882379F02A7A91E009F490E090934E0174
:10147000911102C069E201C065E3CA010E94781CB3
:101480000AC080914E01811102C069E201C065E38A
:10149000CA010E947A1C0E944B1BBCC0C7318CE55C
:1014A000D80708F089C0C130ECE5DE07D1F4F801B7
:1014B000C281CC2309F4AFC08091B501C82FC0957B
:1014C000C170C0FB80F98093B501CC2329F082E97B
:1014D00091E00E9482089EC080E891E00E9482080C
:1014E0009AC0C230FCE5DF0758F4C115DC4581F431
:1014F000F801C281CC2309F48EC00E94FF098AC082
:10150000C531ECE5DE0720F4F8018281811107C0C6
:10151000C801DF91CF911F910F910C9440090E9457
:10152000CA1B811102C00E94441C0E94DD1B90E076
:1015300090937D0380937C03FE01E350FC45E231F0
:10154000F10530F4EA5AFF4F80917C030C94C433C8
:1015500080917C03816027C0826025C0846023C0A5
:10156000806121C080621FC080641DC080681BC074
:101570008460886018C08E7F16C08D7F14C08B7FFA
:1015800012C08F7E10C08F7D0EC08F7B0CC08F77F6
:101590000AC08B7F877F07C087FB222720F991E055
:1015A000922790FB87F980937C0380917C030E94B3
:1015B000E11B0E944E152EC0CD3DFCE5DF0731F446
:1015C000F801C281CC2339F182E00DC0CE3D8CE51B
:1015D000D80760F4CC3DDC4509F09ACFF801C28110
:1015E000CC23C9F080E00E94452814C0CE3DFCE524
:1015F000DF0731F4F801C281CC2369F083E0F3CF37
:10160000CF3DDC4509F084CFF801C281CC2319F02D
:101610000E94441CC0E08C2FDF91CF911F910F914D
:10162000089580E090E008950895E72FF0E0E80F36
:10163000F11DE80FF11DEE0FFF1FE60FF11DEE0F7C
:10164000FF1FE858FE4F859194910895880F991FC8
:10165000FC01ED5DFC4F859194910895CF93DF934C
:101660000E94150B0E94E50CEC01811520E5920704
:10167000F0F5811530E4930708F024C1883E910508
:1016800000F5803E910508F09CC1883A910570F400
:10169000853A910508F09FC08130910509F491C108
:1016A00008F442C1049708F08CC13EC18F3B9105FC
:1016B00008F49CC0803C910508F436C1805C910917
:1016C000F4C0811540E2940758F4C11581E0D807B1
:1016D00008F077C1C03FD10508F426C1D06571C1BB
:1016E000811520E3920708F0E4C09F70DEC08115E9
:1016F00035E5930708F044C0811544E5940708F0E8
:10170000F8C0C11582E5D80708F5C11521E5D20753
:1017100008F0DBC08C2F837021E030E002C0220F84
:10172000331F8A95E2F73C68CE0174E09695879561
:101730007A95E1F78370382BCF70C695C69580E215
:10174000C89FE0011124C22BD32B3BC12C2F26951F
:101750002695CE0183709927C115D34508F0BAC0EC
:1017600040E2249F90011124C1E0D0E002C0CC0FE0
:10177000DD1F8A95E2F72C2B3D2BE901DC6821C1A6
:10178000811549E59407A0F4C11588E5D80708F04C
:10179000B5C0C11526E5D20708F0C6C08C2F0E943F
:1017A000620D8F71C82FD0E0DC2FCC27D06209C129
:1017B00081153AE5930708F4A6C09056811590422A
:1017C00008F0B2C08D2F8F710E94620DDD27D062AC
:1017D0008F71D82BF6C0853A910509F4A8C0863AD6
:1017E000910509F0A7C0C2E8D0E4EBC0883A9105A2
:1017F00009F4A3C0893A910509F4A2C08A3A910577
:1018000009F4A1C08B3A910509F4A0C08C3A910566
:1018100009F49FC08B3B910509F49EC08C3B910558
:1018200009F49DC08D3A910509F49CC0803B910557
:1018300009F49BC08E3A910509F49AC08F3A91053C
:1018400009F499C0813B910509F498C0823B910548
:1018500009F497C0833B910509F496C0843B910538
:1018600009F495C0853B910509F494C0863B910528
:1018700009F493C0873B910509F492C0883B910518
:1018800009F491C0893B910509F490C08D3B910505
:1018900009F48FC08E3B910509F48EC08A3B9105F7
:1018A00009F48DC0C0E0D4E48CC00E94260BEC018A
:1018B00088C09927D3FF03C0EC01D86C82C0EC012B
:1018C000D06C7FC0DF70D06A7CC0DC2FCC27C16FAA
:1018D000D06A77C040E2249F90011124C1E0D0E09B
:1018E00002C0CC0FDD1F8A95E2F7C22BD32BDA683A
:1018F00068C0D82FCC27C46FD06A63C0DC2FCC2738
:10190000C06FD06A5EC08F700E94620D94E0D69561
:10191000C7959A95E1F7CF70D0E0DC2FCC27D06A3D
:101920008F70806EC82B4DC0C0E0D0E04AC0C1E8C7
:10193000D0E447C0C3E8D0E444C0C2EED4E441C020
:10194000C9EED4E43EC0CAEED4E43BC0C5EBD4E457
:1019500038C0C6EBD4E435C0C3EBD4E432C0C4EB2A
:10196000D4E42FC0C7EBD4E42CC0CCECD4E429C021
:10197000CDECD4E426C0C3E8D5E423C0CAE8D5E45E
:1019800020C0C2E9D5E41DC0C4E9D5E41AC0C1E253
:10199000D6E417C0C3E2D6E414C0C4E2D6E411C052
:1019A000C5E2D6E40EC0C6E2D6E40BC0C7E2D6E478
:1019B00008C0CFE6D4E405C0C0E7D4E402C0CAE260
:1019C000D6E4CE01DF91CF9108958238910549F197
:1019D000B0F48133910509F458C048F48932910577
:1019E00009F44EC08A32910509F454C00895853334
:1019F000910509F440C08933910599F00895833E1B
:101A0000910529F138F4803E910591F0823E9105CF
:101A1000A1F00895863E9105F9F0873E910531F1D8
:101A2000089520917C0320FD3AC021FD38C008951F
:101A300080917C0380FD35C032C080917C0382FFA1
:101A400032C080917C0384FD30C083EE39C0809128
:101A50007C0382FD28C0F5CF80917C0383FF27C0E3
:101A600080917C0384FD21C087EE2AC080917C0395
:101A700083FD1DC0F5CF80917C0385FD1AC01BC07E
:101A800080917C0385FD17C014C080917C0386FD86
:101A900014C015C080917C0386FD11C00EC080EE7D
:101AA0000FC089E30DC082EE0BC080E009C086EE56
:101AB00007C089E205C085E303C08AE201C081E373
:101AC00090E0089590917C0392FF0DC0282F28711B
:101AD000283019F4877F846006C0282F24712430B1
:101AE00011F48B7F886093FF0DC0282F2871283157
:101AF00019F4877E846106C0282F2471243111F4E3
:101B00008B7E886194FD877E08950C943D090C942A
:101B10003E09E82FF0E0E15BFE4F80810895CF920F
:101B2000DF92EF92FF920F931F93CF93DF9382E3A5
:101B300093E00E9482088FE4E82E81E0F82EC0E056
:101B4000D0E09DE2C92E93E0D92E05E213E0DF93A9
:101B5000CF93DF92CF920E941B098AE293E00E940A
:101B60008208F70181917F010E94B41B1F928F931D
:101B70001F930F930E941B0983E293E00E94820847
:101B80008DB79EB708960FB6F8949EBF0FBE8DBF57
:101B9000219719F0C1E0D0E0DACFDF91CF911F910A
:101BA0000F91FF90EF90DF90CF90089587988F9AD4
:101BB00086988E9A85988D9A84988C9AA1E5B1E042
:101BC0001C92EFE4F1E0108211961C92118282E0E7
:101BD0000E94530E0C94F009BF92CF92DF92EF92C5
:101BE000FF920F931F93CF93DF9364E171E0A1E520
:101BF000B1E0C0E0EE24E394F12CD2E0DA0F6D0105
:101C0000BC901C92FB018191BF01E82FE295EF701F
:101C1000F0E091A18F70A70101C0440F8A95EAF707
:101C2000892F842B81A392A1842F8095982392A33E
:101C300090E59A95F1F79FB195FB002700F910E028
:101C4000980191E02927922F91703C91932B9C93BE
:101C50007C9902C022E001C020E0922B9D9391A1CB
:101C6000892381A382A1482B42A381E0F6019081C0
:101C7000B91201C080E0C82BDA13C1CF2C2F42E08B
:101C80006FE471E081E591E00E94540E0E94F80932
:101C90008C2FDF91CF911F910F91FF90EF90DF90EC
:101CA000CF90BF9008950895FF920F931F93CF9305
:101CB000DF938C01F62ED72FC42F222349F081E029
:101CC000809355010E94C01C90935401809353014E
:101CD000809155018823C1F0809153019091540166
:101CE0000E94D81C069780F0EF2DFD2FD8014C2FB5
:101CF00050E0CD01801B910B841795071CF48D914A
:101D00008193F7CF10925501DF91CF911F910F91E1
:101D1000FF9008950F931F93CF93DF93C62FD42F77
:101D2000022FFC0182818823C9F0609358010E9430
:101D3000C01C909357018093560180E28C0F88302D
:101D400008F050C0C77081E001C0880FCA95EAF75B
:101D5000DF91CF911F910F910C9497121091580120
:101D6000161330C080915601909157010E94D81CE3
:101D7000883C910538F5C0E2CD0F1D17B9F080E21F
:101D8000810F883040F4177081E001C0880F1A95E8
:101D9000EAF70E949E12C83048F481E09D2F9770A8
:101DA00001C0880F9A95EAF70E949712802F0E942F
:101DB0008412C830B8F4D77081E001C0880FDA957A
:101DC000EAF70AC080E28C0F883060F4C77081E0C7
:101DD00001C0880FCA95EAF7DF91CF911F910F914B
:101DE0000C949E12DF91CF911F910F9108959C0149
:101DF000CB01213F4CE53407F9F078F4283DFCE5B0
:101E00003F07B9F0293D4CE5340711F1273D3C452A
:101E100031F526E241EE61EE1EC0233FFCE53F07AF
:101E200099F070F0243F3C45D1F427E245EE66EE90
:101E300012C027E245EE0EC026E241EE60EE0BC076
:101E400027E245EE64EE07C026E241EE62EE03C0F3
:101E500028E241E065EE0E948A0E80E00895FC01D0
:101E60008281882319F010925801089581E0089525
:101E700090935E0180935D010895E0915D01F09182
:101E80005E01309721F00190F081E02D099480E00F
:101E90000895EF92FF920F931F93CF93DF93E091FA
:101EA0005D01F0915E013097B1F18C010280F38108
:101EB000E02D09958091B50182FF2DC080FF04C0FF
:101EC00089E493E00E948208E80118E083E4E82EA8
:101ED00083E0F82E8091B50180FF0BC088811F92AE
:101EE0008F93FF92EF920E941B090F900F900F901B
:101EF0000F90115021961111EDCF8091B50180FF07
:101F00000AC081E493E0DF91CF911F910F91FF9080
:101F1000EF900C948208DF91CF911F910F91FF9069
:101F2000EF900895E0915D01F0915E01309739F0F6
:101F300022E0DC012C930480F581E02D09940895C2
:101F400020915B0130915C018217930771F09093AF
:101F50005C0180935B01E0915D01F0915E0130973F
:101F600021F00680F781E02D099408952091590110
:101F700030915A018217930771F090935A01809320
:101F80005901E0915D01F0915E01309721F00084EC
:101F9000F185E02D0994089585B7806885BF85B7E0
:101FA000806885BF0895089508950C94D40F08950E
:101FB0000C94D70F0E94CC0F0E94D30F0C94D50F16
:101FC00081E008950E94B71C0E94D60D0E944C1D0E
:101FD0000C94D80FCF93C82F8091B50182FF1EC0FB
:101FE00080FF04C082E693E00E9482088091B501E0
:101FF00080FF0CC01F92CF938DE593E09F938F934A
:102000000E941B090F900F900F900F908091B501C7
:1020100080FF04C08BE593E00E9482088C2FCF9153
:102020000C94FC09CF92DF92EF92FF920F931F93D3
:10203000CF93DF93CDB7DEB72B970FB6F894DEBF03
:102040000FBECDBF0E94EC0D0E94E00F811111C0A8
:102050008FEF89838A831B820E94C01C8160782F46
:102060009D838C8349815A816B818D810E94AF1041
:102070004BC080E6C82E81E0D82E00E010E0E02EB4
:10208000802F0E94890DF601F1906F01F826A9F1C9
:102090009091B50191FF04C08B870E948F0D8B85B5
:1020A000F0FC05C0F1FE29C091E021E002C090E003
:1020B00020E02E83EF8221E030E0790102C0EE0CB7
:1020C000FF1C9A95E2F790E08E219F21892B09F45D
:1020D00020E028870E94C01C8160782F9A8789871A
:1020E0004E815F8168858A850E94AF10F801E05AB1
:1020F000FE4F8081E826E08207C00130110509F417
:10210000A7CF01E010E0BBCF0E94611F10915F01DB
:102110000E943D0F1817A1F00E943D0F80935F01B0
:102120002B960FB6F894DEBF0FBECDBFDF91CF91D7
:102130001F910F91FF90EF90DF90CF900C94EA0FDA
:102140002B960FB6F894DEBF0FBECDBFDF91CF91B7
:102150001F910F91FF90EF90DF90CF900895CF9354
:10216000DF93CDB7DEB72B970FB6F894DEBF0FBE67
:10217000CDBF4F83588769877A878B87DE01119699
:1021800086E0FD0111928A95E9F785E0FE01379618
:1021900001900D928A95E1F749815A816B817C818A
:1021A0008D819E810E94F8172B960FB6F894DEBFA2
:1021B0000FBECDBFDF91CF910895FC018081918149
:1021C0000E94C01A0895CF93DF931F92CDB7DEB758
:1021D000882309F42DC1682F8238C1F40E943D0F75
:1021E00081FD26C169E380910001909101010E9467
:1021F000781C0E944B1B2FEF80E792E0215080401B
:102200009040E1F700C0000069E319C0833811F580
:102210000E943D0F80FD0CC163E58091000190910B
:1022200001010E94781C0E944B1B2FEF80E792E077
:10223000215080409040E1F700C0000063E58091AC
:102240000001909101010E947A1C0F90DF91CF91C3
:102250000C944B1B8438C1F40E943D0F82FDE8C0F2
:1022600067E480910001909101010E94781C0E9416
:102270004B1B2FEF80E792E0215080409040E1F728
:1022800000C0000067E4DBCF8CEF860F813A70F46A
:10229000862F69830E94CE2369818111C9C08091F4
:1022A0000001909101010E94781CCFCF80E2860F3F
:1022B000883048F4677081E001C0880F6A95EAF7BA
:1022C0000E94021BC2CF8BE5860F833088F4653AEB
:1022D00029F0663A31F083E890E005C081E890E0AB
:1022E00002C082E890E00F90DF91CF910C94A00F94
:1022F00088E5860F873108F091C0683A09F445C037
:10230000693A09F445C06A3A09F445C06B3A09F4E0
:1023100045C06C3A09F445C06B3B09F445C06C3BC1
:1023200009F445C06D3A09F445C0603B09F445C065
:102330006E3A09F445C06F3A09F445C0613B09F4AF
:1023400045C0623B09F445C0633B09F445C0643BAA
:1023500009F445C0653B09F445C0663B09F445C036
:10236000673B09F445C0683B09F445C0693B09F483
:1023700045C06D3B09F445C06E3B09F445C06A3B5E
:1023800009F445C080E090E044C082EE90E041C096
:1023900089EE90E03EC08AEE90E03BC085EB90E095
:1023A00038C086EB90E035C083EB90E032C084EB20
:1023B00090E02FC087EB90E02CC08CEC90E029C01F
:1023C0008DEC90E026C083E891E023C08AE891E09C
:1023D00020C082E991E01DC084E991E01AC081E249
:1023E00092E017C083E292E014C084E292E011C050
:1023F00085E292E00EC086E292E00BC087E292E0B6
:1024000008C08FE690E005C080E790E002C08AE255
:1024100092E00F90DF91CF910C94B60F603F40F0A7
:10242000862F0E94E71D0F90DF91CF910C94D41E50
:102430000F90DF91CF910895882309F464C082380A
:1024400079F40E943D0F81FF5EC069E38091000135
:10245000909101010E94781C0E944B1B69E310C0FF
:102460008338B1F40E943D0F80FF4DC063E5809139
:102470000001909101010E94781C0E944B1B63E5B2
:1024800080910001909101010E947A1C0C944B1BD9
:10249000843879F40E943D0F82FF35C067E4809153
:1024A0000001909101010E94781C0E944B1B67E47F
:1024B000E7CF9CEF980F913A10F4682FE1CF90E2AC
:1024C000980F983050F4877091E001C0990F8A9569
:1024D000EAF7892F0E94081BD9CF9BE5980F93300C
:1024E00020F480E090E00C94A00F98E5980F9731CD
:1024F00020F480E090E00C94B60F803F20F00E9422
:102500004F1E0C94D41E0895CF93C82F0E94E31041
:10251000C93349F42FEF81EE94E021508040904080
:10252000E1F700C000008C2FCF910C941C1288237F
:1025300021F00E94021B0C944B1B0895882321F06C
:102540000E94081B0C944B1B08954F925F926F9250
:102550007F92BF92CF92DF92EF92FF920F931F93E1
:10256000CF93DF937C01062FC72FFC0115811295B5
:102570001F70D281D1110E941F1B0E94F81A88235C
:1025800079F0DD2369F080E2800F883048F082E046
:102590000E94961B0E94F81A91E0B82EB92601C03D
:1025A000B12CCC2EC2948FE0C822D12CF601E85970
:1025B000FF4F0C94C4338C2F807FCF70882311F091
:1025C000C295C07FDD2399F0CC2309F4C3C180E21A
:1025D000800F883010F0011104C08C2F0E94021B64
:1025E00003C08C2F0E94121B0E944B1BB3C1802F73
:1025F0000E941C12CC2309F4D2C180E2800F8830E3
:1026000010F0011104C08C2F0E94081B03C08C2FF6
:102610000E94181B0E944B1BC2C18C2F807FCF7061
:10262000803211F0C295C07F002319F00130C9F04B
:1026300022C0DD2371F0112341F0113031F40E94EA
:10264000321B8C2B0E94381BAAC10E94321B8C2B80
:102650003AC1112319F0113009F4A1C10E94411BA4
:1026600018C0DD2321F0163008F099C10EC01530D6
:1026700008F095C10EC0DD2351F0112331F0F701B0
:10268000858180FF67C18F7085838C2F1CC11111DC
:1026900072C18C2F1EC18C2F86958695837090E019
:1026A000009719F0019761F07AC1DD2321F0802FA6
:1026B0009C2F937002C080E090E00E94A00F7FC129
:1026C000DD2321F0802F9C2F937002C080E090E0EA
:1026D0000E94B60F74C1DD23F9F0053F51F0063FAB
:1026E00071F0043FA9F480917603909177038160A3
:1026F0000BC08091760390917703826005C0809132
:1027000076039091770384609093770380937603A8
:10271000802F0E94E71D1EC0053F51F0063F71F05B
:10272000043FA9F480917603909177038E7F0BC0CC
:1027300080917603909177038D7F05C08091760319
:10274000909177038B7F9093770380937603802F0C
:102750000E944F1E0E94D41E32C18C2F837009F03C
:102760004BC0D11128C1202F229526952770220F0A
:10277000220F602F6F70862F90E0A0E0B0E02C0158
:102780003D01022E04C0440C551C661C771C0A94A3
:10279000D2F704FF10C08FE090E0A0E0B0E004C0EA
:1027A000880F991FAA1FBB1F2A95D2F78095909575
:1027B000A095B09503C080E090E0DC01C695C69579
:1027C000C370D0E0BC01CD01642975298629972901
:1027D000C230D10559F0C330D10559F0219719F015
:1027E0000E943D19E8C00E942B19E5C00E944F19B4
:1027F000E2C00E942919DFC0DD2319F08C2F8170FF
:1028000001C08695882309F4D6C0202F22952695ED
:102810002770220F220F602F6F70862F90E0A0E0AC
:10282000B0E02C013D01022E04C0440C551C661C76
:10283000771C0A94D2F704FF10C08FE090E0A0E06C
:10284000B0E004C0880F991FAA1FBB1F2A95D2F7BA
:1028500080959095A095B09503C080E090E0DC0154
:10286000C695C695C370D0E0BC01CD016429752919
:1028700086299729C230D10559F0C330D10559F0C6
:10288000219719F00E94031A96C00E94F11993C073
:102890000E94151A90C00E9464198DC0802F90E08C
:1028A000FC01E05EF109E531F10508F04FC0E858A0
:1028B000FF4F0C94C4330F708C2F8F71DD2331F0D8
:1028C0000E948A19802F0E94971269C00E94AB193A
:1028D000802F0E949E1263C0DD2341F0153008F066
:1028E0005EC08C2F8F710E94D01959C0163008F02D
:1028F00056C0F7CFDD2339F08C2F8F710E948A19D3
:102900004EC0DD23C9F38C2F8F710E94AB1947C0D5
:10291000DD2329F08C2F8F710E94751940C00E9411
:1029200070193DC0DD2349F0CF718C2F0E948A19A8
:1029300063E08C2F0E94811B32C081E00E94961BB5
:10294000123068F182E00E94961B29C0DD2331F02D
:10295000112391F2802F0E94E31021C0112399F2DC
:10296000093349F4FFEF21EE84E0F150204080402C
:10297000E1F700C00000802F0E941C1210C04C2FF5
:102980004F70602FC7010E94110B0E949C1817C046
:102990004C2F4F70602FC7010E94140B10C098E09D
:1029A000C916D10441F05CF0FAE0CF1AD10822E058
:1029B000C216D10420F40E943D0F0E94FC09BB20E6
:1029C000F1F00E94F41A80FD1AC0F70112820E94F1
:1029D000EE1A0E948A19C7010E940D150E94EE1A74
:1029E000DF91CF911F910F91FF90EF90DF90CF90EB
:1029F000BF907F906F905F904F900C94AB19DF91D8
:102A0000CF911F910F91FF90EF90DF90CF90BF90EB
:102A10007F906F905F904F9008950F931F93CF9387
:102A2000DF93EC01888199812B813C81232BB9F0C4
:102A30009F3F11F48F3F99F0CE010E940E0A882328
:102A400071F0688179818A810E94CB1A8C010E9481
:102A5000271A0E942819B801CE010E94A512DF9101
:102A6000CF911F910F9108950E941F1B0E942F1B51
:102A70000E944B1B0E94FC1F0E94D41E80E090E02D
:102A80000E94A00F80E090E00C94B60F80910001AE
:102A9000909101010E947C1C0C9434150E940F1B24
:102AA0000C944615E92FE295EF70F0E03297EE3086
:102AB000F105B0F4E357FF4F0C94C433803F91F01D
:102AC00018F4803E68F40EC0843F51F40BC0803E81
:102AD00048F0813F29F406C093FB882780F90895C8
:102AE00080E0089581E008950E94C01A0E94521566
:102AF0000895CF93DF9300D000D01F92CDB7DEB7FB
:102B00000F900F900F900F900F90DF91CF9108953D
:102B1000CF93DF9300D000D000D0CDB7DEB726969C
:102B20000FB6F894DEBF0FBECDBFDF91CF910895F1
:102B30001F93CF93DF93C091630116E080916401EE
:102B4000C81799F0D0E01C9FF0011D9FF00D1124D3
:102B5000EB59FE4F4081518162817381848195815F
:102B60000E9488152196C770E9CFDF91CF911F9100
:102B7000089540919501509196016091970170914F
:102B800098018091990190919A010C9488158091F7
:102B90009A0182958F7009F054C080919701882323
:102BA00009F44FC080916301A09164016091950187
:102BB000709196014091980150919901B6E08A1761
:102BC00009F43FC090E041155105C1F17F3F11F478
:102BD0006F3FA1F1B89FF001B99FF00D1124EB599F
:102BE000FE4F218172132AC02081621327C02281E7
:102BF000211124C0238134812417350710F421507A
:102C00003109241B350B283C3105C0F420919A0171
:102C10002F70206120939A0126E0289FF001299FC0
:102C2000F00D1124E659FE4F80818F708061808302
:102C300085E991E00E940D150C9498150196877016
:102C4000BECF0895CF92DF92EF92FF920F931F9322
:102C5000CF93DF93CDB7DEB762970FB6F894DEBFA0
:102C60000FBECDBF8C0185E0F801DE011D960190FD
:102C70000D928A95E1F7D8014C9111965C911197CC
:102C800012966C9112971396CD90DC901497309118
:102C9000950170919601809198019091990100970A
:102CA00009F46BC17F3F19F43F3F09F466C1E0901E
:102CB0009701EE2009F4C0C020919A01C816D906E8
:102CC00028F0F601E81BF90BCF0104C08095909520
:102CD0008C0D9D1DFF24F394883C910578F0F12C18
:102CE000207F09F0C6C07C2DD98AC88A89890E94B4
:102CF000791585E991E00E940D15B1C0822F807F82
:102D000009F046C0751314C0341312C0611110C00D
:102D10002F70206120939A010E94B91585E991E0F6
:102D20000E940D1580919A01D80115968C932EC0A2
:102D3000CD2819F15F3F11F44F3FF9F0F62E6111E4
:102D40001CC0809163012091640136E0821709F470
:102D50005AC090E0389FF001399FF00D1124EB59D3
:102D6000FE4F7181571306C07081471303C07281F3
:102D7000711103C001968770E9CFF62E662309F41E
:102D800027C180919A01816080939A01F12C20C122
:102D9000751308C0341306C0611104C080919A01F4
:102DA000D801C3C04D875E878D859E856A8B0E9442
:102DB00074156A898823E1F16623D1F120919A0183
:102DC000822F82958F7090E0029774F08091950128
:102DD0009091960198878F831986DB86CA862C8707
:102DE000CE0107960E940D1586E0F801A5E9B1E035
:102DF00001900D928A95E1F70E94C7150E94B915BE
:102E0000FF24F394E5C04D875E878D859E850E94E3
:102E1000C01A292F22952F7030E0223031050CF096
:102E2000CBC09F7009F0C5C0805E883008F4D0C068
:102E3000C8010E940D15E4CFC816D90608F453C086
:102E4000F601E81BF90BCF01883C910508F450C04E
:102E5000F12C7C2DD98AC88A89890E947915E5E9E7
:102E6000F1E086E0DF011D928A95E9F70E94B9152D
:102E7000AFC0751314C0341312C0611110C080911B
:102E80009A01F8018583C8010E940D1586E0E5E9E5
:102E9000F1E0DF011D928A95E9F7FE2C99C04D877C
:102EA0005E878D859E856A8B0E9474156A8988234A
:102EB00009F4BECF662309F4BBCF20919A01822F7B
:102EC00082958F7090E002970CF48ECF80919501DF
:102ED000909196019A8389831B82DD82CC822E8316
:102EE000CE0101967FCF809590958C0D9D1DACCF26
:102EF000F62E662309F49CCF75132EC034132CC014
:102F000020919A0120FD1FC0822F82958F70D9F0E9
:102F1000D80115962C9315978F3049F08F5F982F15
:102F20009295907F822F8F70892B15968C93C80174
:102F30000E940D1586E0F801A5E9B1E001900D921F
:102F40008A95E1F793CF86E0F801A5E9B1E0019019
:102F50000D928A95E1F73CC04D875E878D859E85F1
:102F60000E947415811140CF80919A0181608093F5
:102F70009A01C8010E940D152BC0662309F458CF91
:102F80004D875E878D859E850E947415F82E882357
:102F900009F44ECF86E0F801A5E9B1E001900D9269
:102FA0008A95E1F785E991E00E94DD100E94C7153E
:102FB0005DCF811139CF0CC0243031050CF038CFF2
:102FC0009F7009F431CFF8019581907F09F02CCFE3
:102FD0008F2D62960FB6F894DEBF0FBECDBFDF9186
:102FE000CF911F910F91FF90EF90DF90CF900895B8
:102FF0001F93CF93DF93CDB7DEB72C970FB6F8941E
:10300000DEBF0FBECDBF4F83588769877A878B8716
:103010009C87CE0107960E942216882369F08F8133
:1030200098852A853B85232BF1F19F3F09F063C0EA
:103030008F3F09F060C037C086E0FE013796DE01A1
:10304000119601900D928A95E1F76F817885EA8556
:10305000FB85309741F17F3F11F46F3F21F12091C3
:10306000640130E0C901019687709927409163019E
:1030700050E08417950709F447C069837A83FD837C
:10308000EC8396E0929FD001939FB00D1124AB5931
:10309000BE4FFE01319601900D929A95E1F7809313
:1030A00064010E94981516E080916301909164017B
:1030B0008917C1F1189FC00111248B599E4F0E949E
:1030C0002216882379F1E09163011E9FF0011124FB
:1030D000EB59FE4F408151816281738184819581DA
:1030E0000E9488158091630190E00196877099276E
:1030F00080936301D9CF4F81588569857A858B8507
:103100009C850E948815CFCF0E944E1510926401B5
:1031100010926301E5E9F1E086E0DF011D928A95F6
:10312000E9F7C1CF2C960FB6F894DEBF0FBECDBF26
:10313000DF91CF911F910895EF92FF920F931F930C
:10314000CF93DF938C01892B09F46CC0F12CEE2412
:10315000E394E8012196F8018491843740F48430A7
:1031600008F051C0813081F0823019F15BC08537A1
:1031700009F444C0A8F19CE7980F903708F052C0BA
:103180008F770E941C1241C00E5F1F4FFE01C49139
:1031900080E28C0F883048F4C7708E2D01C0880FF4
:1031A000CA95EAF70E94221B14C08C2F0E94E310DC
:1031B0002DC00E5F1F4FFE01C49180E28C0F88303E
:1031C00058F4C7708E2D01C0880FCA95EAF70E9487
:1031D000281B0E944B1B1AC08C2F0E941C1216C069
:1031E0000E5F1F4FFE01C491CC2381F08FEC97E05E
:1031F0000197F1F700C00000C150F6CF0E5F1F4FDE
:10320000FE01F49003C00E94E3108E018F2D8823ED
:1032100009F49FCFEFECF7E03197F1F700C0000021
:103220008150F5CFDF91CF911F910F91FF90EF90DB
:10323000089508950C9419190E941A196093A40115
:103240007093A5018093A6019093A7010C94341567
:1032500008950C941C190F931F930091A4011091D1
:10326000A5012091A6013091A701602B712B822B23
:10327000932B1F910F910C941C190F931F93009186
:10328000A4011091A5012091A6013091A70160230E
:103290007123822393231F910F910C941C190F9378
:1032A0001F930091A4011091A5012091A6013091D6
:1032B000A70160277127822793271F910F910C94F4
:1032C0001C1908950C9461190E9462196093A00161
:1032D0007093A1018093A2019093A3010C943415E3
:1032E00060E070E0CB010C9464190F931F9341E0F0
:1032F00050E060E070E08A019B0104C0000F111FE4
:10330000221F331F8A95D2F7C901B8011F910F916F
:103310000C9464190F931F9341E050E060E070E05B
:1033200004C0440F551F661F771F8A95D2F78091FE
:10333000A0019091A101A091A201B091A3018A01E5
:103340009B01082B192B2A2B3B2BC901B8011F917C
:103350000F910C9464190F931F9341E050E060E0CB
:1033600070E004C0440F551F661F771F8A95D2F77F
:1033700040955095609570958091A0019091A10124
:10338000A091A201B091A3018A019B0108231923F6
:103390002A233B23C901B8011F910F910C94641992
:1033A0000F931F9341E050E060E070E004C0440FD1
:1033B000551F661F771F8A95D2F78091A0019091C3
:1033C000A101A091A201B091A3018A019B0108274C
:1033D00019272A273B27C901B8011F910F910C9487
:1033E00064190F931F930091A0011091A1012091E6
:1033F000A2013091A301602B712B822B932B1F9183
:103400000F910C9464190F931F930091A0011091D8
:10341000A1012091A2013091A30160237123822395
:1034200093231F910F910C9464190F931F93009194
:10343000A0011091A1012091A2013091A301602768
:103440007127822793271F910F910C946419089577
:10345000990F890FA82FA695A695A695877051E07C
:1034600001C0550F8A95EAF785E0A89FD001112485
:1034700020E030E070E0F901EA0FFB1FE556FE4F57
:103480004081CB01022E02C0969587950A94E2F7FF
:1034900081709927819584278523842780832F5FD6
:1034A0003F4F2530310539F70895990F890F682F5F
:1034B000669566956695982F977085E0689FB00130
:1034C000112440E050E080E0FA01E60FF71FE556D6
:1034D000FE4F208130E0092E02C0369527950A94D0
:1034E000E2F721703327042E01C0220F0A94EAF775
:1034F000822B4F5F5F4F4530510531F70895BF92E2
:10350000CF92DF92EF92FF920F931F93CF93DF93AF
:103510008C01C090A401D090A501E090A601F0908C
:10352000A7018091A0019091A101A091A201B09169
:10353000A301C82AD92AEA2AFB2ACFE1D0E0D70181
:10354000C6010C2E04C0B695A795979587950A9449
:10355000D2F780FF07C0BC2EB8018C2F0E942E0B23
:10356000019719F4219758F7B12C8B2DDF91CF914A
:103570001F910F91FF90EF90DF90CF90BF90089533
:10358000CF93DF93EC010E947F1ABE010E942E0BA5
:10359000DF91CF9108951F93CF93DF93EB0190912B
:1035A0006201992321F0CB010E94C01A13C0882325
:1035B00049F0CB010E947F1A182F682FCE010E947C
:1035C000281A04C0CB010E94551A182FBE01812F62
:1035D0000E942E0BDF91CF911F9108958091A80139
:1035E00085958595859508958091A80187700895A2
:1035F0009091A801977081E009F480E0089580918E
:10360000B40108959091B401892B8093B401089579
:1036100080959091B40189238093B401089510920C
:10362000B40108959091B301892B8093B30108955B
:1036300080959091B30189238093B30108951092EE
:10364000B30108959091B201892B8093B20108953E
:1036500080959091B20189238093B20108951092D0
:10366000B20108958091A901089508950C94351B25
:103670009091A901981721F08093A9010C94361B11
:1036800008958091A901882329F01092A90180E072
:103690000C94361B0895E0910001F0910101809196
:1036A000B4018083E0910001F0910101908180914B
:1036B000B301892B8083E0910001F0910101908199
:1036C0008091B201892B80838091A901882381F0A8
:1036D000E0910001F09101019081892B808380911C
:1036E0000001909101010E94461C81110E94411B22
:1036F00080910001909101010C94490F08950C9460
:103700007E1B98E0899F90011124262B2093A8010D
:103710000E948A198091A8018595859585950C94BC
:103720007F1B1092A80180E00C947F1B2091A801C0
:10373000809582238093A801982F977079F430E0C8
:10374000482F082E000C550B2417350739F08595A6
:10375000859585950E94AB190C94911B08959093C3
:103760004D0180934C0108958295982F9C7C392FB0
:1037700036953695282F237344E0249FC0011124E9
:10378000932F982B292F2A7A2695892F8575880FB4
:10379000822B089580E090E00E94FB3621E08D3E70
:1037A0009E4F09F020E0822F089582E090E00C9473
:1037B000F33683E090E00C94F33684E090E00C94D0
:1037C000F336682F84E090E00C940137AB01BC0124
:1037D0008FE090E00C941337AB01BC0183E190E0E3
:1037E0000C94133760E070E0CB010C94EC1B60E0AC
:1037F00070E0CB010E94E61B0C94F21B6DEE7EEF95
:1038000080E090E00E941F3760E082E090E00E943C
:10381000013760E083E090E00E9401371092A4013C
:103820001092A5011092A6011092A70160E084E019
:1038300090E00E94013760E085E090E00E9401374F
:1038400060E086E090E00E9401376FEF87E090E053
:103850000E94013740E050E0BA0188E090E00E9409
:10386000133760E08DE090E00E94013740E050E0C7
:10387000BA0188E190E00E94133760E087E190E0B0
:103880000E9401370C94F71B0C94FE1BFC0132962E
:1038900097E080E0915029F021912223D9F38F5FA6
:1038A000F9CF08959C01FC0132969FEF80E0419191
:1038B000461789F09F3F19F4411101C0982F8F5F7F
:1038C0008630A9F79F3F39F0F901E90FF11D97FD07
:1038D000FA95628308950895FC0132960896208136
:1038E000261301C010823196E817F907C1F7089531
:1038F0000C94521C0C946C1C029626E0FC01119254
:103900002A95E9F7089508950C94831C0E944E159A
:103910000E943D0F0E94FC090C94841C1F920F9280
:103920000FB60F9211248F939F93AF93BF93809103
:10393000B601811113C08091780390917903A09111
:103940007A03B0917B034196A11DB11D809378034A
:1039500090937903A0937A03B0937B03BF91AF91C7
:103960009F918F910F900FBE0F901F90189582E03E
:1039700084BD93E095BD9DE797BD80936E0008954B
:103980002FB7F8948091780390917903A0917A03EE
:10399000B0917B032FBF08952FB7F89460917803FF
:1039A0007091790380917A0390917B032FBF0895E2
:1039B000CF92DF92EF92FF920F931F932FB7F8945D
:1039C000409178035091790360917A0370917B0361
:1039D0002FBF6A017B01EE24FF248C0120E030E040
:1039E000C016D106E206F30610F4415051099A01BF
:1039F000281B390BC9011F910F91FF90EF90DF90A9
:103A0000CF90089578941F920F920FB60F921124C1
:103A10008F939F93AF93BF93809178039091790395
:103A2000A0917A03B0917B030196A11DB11D8093F3
:103A3000780390937903A0937A03B0937B03BF91AB
:103A4000AF919F918F910F900FBE0F901F9018957F
:103A500081E08093E00080E28093D8001092C9005A
:103A60008FE097E20197F1F700C0000087E090EB4C
:103A7000DC0180938B0390938C03A0938D03B09310
:103A80008E039CE088E10FB6F894A89580936000BF
:103A90000FBE90936000FFCF0E94CA1B811102C02D
:103AA0000E94441C0E94D51B8093B5010E94DD1B1F
:103AB00090E090937D0380937C030E94D91B682F34
:103AC00070E080E090E00C9429198091BA0180FFA9
:103AD0000BC06091050185E0689FB00111247595C8
:103AE0006795759567952BC081FF09C060910501A9
:103AF00085E0689FB00111247595679520C082FF0D
:103B000007C06091050185E0689FB001112417C0CE
:103B10009091B9019923D1F060910401961788F72B
:103B20002091050185E0289F90011124929FA0011A
:103B3000939F500D112470E0CA010E94B033603889
:103B4000710540F46115710539F002C065E070E05F
:103B5000862F08958FE7089581E008958091BA0136
:103B600080FF08C06091030170E0759567957595B9
:103B7000679521C081FF06C06091030170E07595D3
:103B8000679519C082FF04C06091030170E010C006
:103B90009091B9019923C1F0609102019617A0F7A5
:103BA00080910301899FC001112470E00E94B0330D
:103BB0006038710528F46115710521F0862F08958C
:103BC0008FE7089581E0089561E070E0F4CF803FD1
:103BD00021F40E94651D819504C0813F29F40E9453
:103BE000651D8093BE010895823F21F40E94651DEA
:103BF000819504C0833F29F40E94651D8093BD0117
:103C00000895893F19F40E94AE1D05C08A3F31F422
:103C10000E94AE1D81958093BF0108958B3F21F4D2
:103C20000E94AE1D819504C08C3F29F40E94AE1DF8
:103C30008093C0010895843F21F48091BC0181608C
:103C400017C0853F21F48091BC01826011C0863F7E
:103C500021F48091BC0184600BC0873F21F48091E6
:103C6000BC01886005C0883F31F48091BC0180614F
:103C70008093BC0108958D3F21F48091BA01816049
:103C80000BC08E3F21F48091BA01826005C08F3F46
:103C900029F48091BA0184608093BA010895803F2D
:103CA00039F48091BE0187FF6CC01092BE0169C0DB
:103CB000813F29F48091BE011816BCF362C0909137
:103CC000BD01823F29F497FF5CC01092BD0159C02D
:103CD000833F19F41916CCF354C0893F41F4809105
:103CE000BF0118160CF04DC01092BF014AC08A3FA8
:103CF00029F48091BF0187FF44C0F6CF8B3F39F490
:103D00008091C00187FF3DC01092C0013AC08C3F36
:103D100029F48091C0011816BCF333C0843F21F40C
:103D20008091BC018E7F17C0853F21F48091BC013A
:103D30008D7F11C0863F21F48091BC018B7F0BC029
:103D4000873F21F48091BC01877F05C0883F31F413
:103D50008091BC018F7E8093BC0113C08D3F21F404
:103D60008091BA018E7F0BC08E3F21F48091BA0101
:103D70008D7F05C08F3F29F48091BA018B7F80939E
:103D8000BA018091BD0181110EC08091BE018111E7
:103D90000AC08091BF01811106C08091C0018111CC
:103DA00002C01092B90108958091B50183FF7EC0D1
:103DB0008CE993E00E9482088091BC011F928F934E
:103DC00087E993E09F938F930E941B0985E993E015
:103DD0000E9482088091BD01282F082E000C330B11
:103DE0003F938F9382E993E09F938F930E941B09E7
:103DF00080E993E00E9482088091BE01282F082E5E
:103E0000000C330B3F938F938DE893E09F938F9338
:103E10000E941B098BE893E00E9482088091BF01F9
:103E2000282F082E000C330B3F938F9388E893E0E4
:103E30009F938F930E941B0986E893E00E9482085B
:103E40008091C001282F082E000C330B3F938F93D5
:103E500083E893E09F938F930E941B0980E893E08F
:103E60000E9482088091B9011F928F938DE793E0A1
:103E70009F938F930E941B098BE793E00E94820817
:103E80008091BA011F928F9388E793E09F938F935D
:103E90000E941B0985E793E00E9482088DB79EB7B8
:103EA0004C960FB6F8949EBF0FBE8DBF8BEB91E082
:103EB0000E94920F0E94C01C9093B8018093B7019A
:103EC00008951F93CF93DF938091B7019091B8012C
:103ED0000E94D81CAC019091B901992321F0209146
:103EE000060130E006C0209107018AE0289F90017A
:103EF00011244217530708F47BC08091BD01C09183
:103F0000BE01D091BF011091C001811107C0C11144
:103F10006BC0D11169C0111167C06AC09F3F19F011
:103F20009F5F9093B901181624F40E94651D809339
:103F3000BD018091BD0187FF05C00E94651D81956F
:103F40008093BD011C1624F40E94651D8093BE0160
:103F50008091BE0187FF05C00E94651D81958093F9
:103F6000BE013091BD013323E1F02091BE01222337
:103F7000C1F045EB3403C0011124892F990F990B2F
:103F8000009709F481E08093BD0135EB2303C00164
:103F90001124892F990F990B009709F481E08093E0
:103FA000BE011D1624F40E94AE1D8093BF018091B6
:103FB000BF0187FF05C00E94AE1D81958093BF01A0
:103FC000111624F40E94AE1D8093C0018091C0019F
:103FD00087FF05C00E94AE1D81958093C001DF91CF
:103FE000CF911F910C94D41E9F3F09F099CFA1CF80
:103FF000DF91CF911F910895EBEBF1E086E0DF01B7
:104000001D928A95E9F71092B9011092BA010895AC
:104010008FEB95E00E9482081F9281E08F931F92A0
:1040200085E08F9381E795E09F938F930E941B0912
:104030000F900F900F900F900F900F900895833076
:10404000E9F128F4813061F0823009F1089585307A
:1040500009F462C008F449C0863009F474C00895B8
:1040600080910701262F30E0280F311D2F3F3105A9
:1040700024F4680F6093070103C08FEF809307015A
:10408000809107011F928F938AEA94E072C0809119
:104090000601262F30E0280F311D2F3F310524F473
:1040A000680F6093060103C08FEF80930601809133
:1040B00006011F928F9388E994E05BC0809105010F
:1040C000262F30E0280F311D2F3F310524F4680FD3
:1040D0006093050103C08FEF809305018091050176
:1040E0001F928F9385E894E044C080910401262FAD
:1040F00030E0280F311D2F3F310524F4680F609305
:10410000040103C08FEF80930401809104011F928A
:104110008F9380E794E02DC080910301262F30E03B
:10412000280F311D2F3F310524F4680F60930301E0
:1041300003C08FEF80930301809103011F928F933F
:1041400087E594E016C080910201262F30E0280F09
:10415000311D2F3F310524F4680F6093020103C025
:104160008FEF80930201809102011F928F938CE365
:1041700094E09F938F930E941B090F900F900F90D4
:104180000F900895833081F128F4813059F0823006
:10419000D1F00895853009F449C0B8F1863009F4AA
:1041A00056C0089580910701681720F4861B8093FC
:1041B000070102C010920701809107011F928F939F
:1041C0008DE294E054C080910601681720F4861BAC
:1041D0008093060102C010920601809106011F9291
:1041E0008F938BE194E043C080910501681720F420
:1041F000861B8093050102C0109205018091050184
:104200001F928F9388E094E032C080910401681778
:1042100020F4861B8093040102C010920401809157
:1042200004011F928F9383EF93E021C080910301DB
:10423000681720F4861B8093030102C010920301CB
:10424000809103011F928F938AED93E010C08091BB
:104250000201681720F4861B8093020102C01092AD
:104260000201809102011F928F938FEB93E09F9345
:104270008F930E941B090F900F900F900F9008953D
:10428000CF93C82F1F928F9384EC96E09F938F93C8
:104290000E941B0981E090E0A0E0B0E0BC01CD01EC
:1042A00004C0660F771F881F991FCA95D2F70E9416
:1042B00029190F900F900F900F90CF910C944E15DD
:1042C000CF938B3109F4D1C108F067C18B3009F469
:1042D0008AC108F03DC1863009F488C120F48530D8
:1042E00009F496C144C2873009F4A4C1883009F0AA
:1042F0003EC28EEE9BE00E9482088FE39BE00E940C
:1043000082080E94D91B1F928F938CE39BE09F939E
:104310008F930E941B098AE39BE00E9482080E94FF
:10432000D51BC82F87E29BE00E9482081F92CF9383
:1043300082E29BE09F938F930E941B0980E29BE0A7
:104340000E94820886E19BE00E9482088C2F817087
:104350001F928F9383E19BE09F938F930E941B0991
:1043600081E19BE00E94820887E09BE00E94820836
:10437000C1FB882780F91F928F9384E09BE09F9375
:104380008F930E941B0982E09BE00E94820886EFC7
:104390009AE00E948208C2FB882780F91F928F93BF
:1043A00083EF9AE09F938F930E941B0981EF9AE01D
:1043B0000E94820888EE9AE00E948208C3FBCC2704
:1043C000C0F91F92CF9385EE9AE09F938F930E943E
:1043D0001B0983EE9AE00E9482080E94DD1BC82F11
:1043E0008FEC9AE00E9482081F92CF938AEC9AE0A9
:1043F0009F938F930E941B0988EC9AE00E94820889
:104400008FEA9AE00E9482088C2F81701F928F930E
:104410008CEA9AE09F938F930E941B098DB79EB7F9
:1044200080960FB6F8949EBF0FBE8DBF8AEA9AE0C1
:104430000E94820883E99AE00E948208C1FB8827D3
:1044400080F91F928F9380E99AE09F938F930E9447
:104450001B098EE89AE00E9482088CE79AE00E948D
:104460008208C2FB882780F91F928F9389E79AE020
:104470009F938F930E941B0987E79AE00E9482080E
:1044800085E69AE00E948208C3FB882780F91F9284
:104490008F9382E69AE09F938F930E941B0980E698
:1044A0009AE00E94820886E59AE00E948208C4FB96
:1044B000882780F91F928F9383E59AE09F938F93CB
:1044C0000E941B0981E59AE00E9482088FE39AE02E
:1044D0000E948208C5FB882780F91F928F938CE386
:1044E0009AE09F938F930E941B098AE39AE00E94AF
:1044F00082088EE19AE00E948208C6FB882780F934
:104500001F928F938BE19AE09F938F930E941B09D8
:1045100089E19AE00E94820881E19AE00E94820883
:10452000C7FBCC27C0F91F92CF938EE09AE09F93F0
:104530008F930E941B098CE09AE00E9482088DB73D
:104540009EB74C960FB6F8949EBF0FBE8DBF49C064
:10455000803109F4B4C020F48E3009F49AC007C148
:10456000863109F4C7C0893109F001C183E398E0BD
:104570000E9482088AE198E00E9482088BED97E011
:104580000E94820886E997E00E94820880E697E010
:104590000E94820882E397E08FC08A32E1F060F4E3
:1045A000873209F4E0C028F48E3108F4E0C08D5160
:1045B000DBC0893269F1DBC0833448F48A3308F008
:1045C000D0C0853309F4CFC0883369F0D0C08334BC
:1045D00009F4C9C0CCC08DED9BE00E9482080E9406
:1045E000441CC1E0C9C089E698E066C08091B5016D
:1045F000817F8E7F8093B50182E498E00E948208DB
:1046000089ED9BE00E94820881E08093C201E9CF9E
:104610000E944E158DEB9BE00E9482089FEF29E6D9
:1046200088E1915020408040E1F700C000000E94E6
:10463000281DD7CF8091B501C82FC095C170C0FB90
:1046400080F98093B501CC2329F081EB9BE00E9497
:10465000820892C084EA9BE00E9482088091B501A2
:10466000897F877F8093B501BCCF9091B50191FB85
:10467000CC27C0F981E0C827892FC0FB81F980933E
:10468000B501CC2319F087E99BE029C089E89BE0BC
:1046900013C09091B50192FBCC27C0F981E0C827E7
:1046A000892FC0FB82F98093B501CC2319F08AE7EA
:1046B0009BE015C08AE69BE00E94820892CF909111
:1046C000B50193FBCC27C0F981E0C827892FC0FB37
:1046D00083F98093B501CC2351F08EE59BE00E94D5
:1046E00082088091B50181608093B50145C081E564
:1046F0009BE0E2CF84E297E00E9482080E943D0F97
:104700001F928F938AE097E09F938F930E941B09DB
:10471000809112011F928F9383EF96E09F938F9366
:104720000E941B098091CF011F928F9380EE96E02B
:104730009F938F930E941B090E94CC1C9F938F9381
:104740007F936F9389EC96E09F938F930E941B0950
:104750008DB79EB742960FB6F8949EBF0FBE8DBF21
:1047600040CF895301C080E00E9440213ACF8FE4BE
:104770009BE00E948208C0E08C2FCF91089580E0DA
:10478000089580E008958E518A3030F4E82FF0E0EB
:10479000EA5EFE4F8081089580E00895CF93C82F90
:1047A0008091C201813059F020F0823009F445C077
:1047B00039C10E94FF1A823209F036C104C00E943A
:1047C000FF1A823261F48C2F0E94BF23811104C032
:1047D0008C2F0E9460212FC081E090E02CC08C2F94
:1047E0000E94C123811126C0C431E1F070F4CB30A6
:1047F00081F0C031D1F40E9408208CEB96E00E9439
:10480000820882E08093C20115C0C93259F0C833D2
:1048100061F482E498E00E94820880EC96E00E94B5
:10482000820808C01092C20101C18AEB96E00E9482
:104830008208FCC081E08170FBC0C43228F5CE3113
:1048400008F0C1C0CB30A1F1D0F4C73009F0D0C01E
:104850008EE18093070182E3809306018AE08093D2
:10486000050184E18093040188E08093030188E2DC
:104870008093020180E695E00E948208BCC0C331AB
:1048800049F1C431C1F0B4C0CB3409F4A6C028F456
:10489000C93289F0C83361F0ABC0C13509F49BC09F
:1048A000C23509F496C0CE3409F0A2C06AE09BC0BC
:1048B0000E940820A0C08091C101882319F01092A5
:1048C000C10199C08DE695E00E94820881E0809345
:1048D000C201AEC087E495E00E94820885E395E0BE
:1048E0000E948208809107011F928F9382E395E0D6
:1048F0009F938F930E941B0980E395E00E9482089A
:104900008EE195E00E948208809106011F928F93AC
:104910008BE195E09F938F930E941B0989E195E0BD
:104920000E9482088AE095E00E9482088091050139
:104930001F928F9387E095E09F938F930E941B09AE
:1049400085E095E00E94820884EF94E00E9482084E
:10495000809104011F928F9381EF94E09F938F9336
:104960000E941B098FEE94E00E9482088AED94E079
:104970000E948208809103011F928F9387ED94E03B
:104980009F938F930E941B0985ED94E00E948208FB
:104990008EEB94E00E948208809102011F928F9317
:1049A0008BEB94E09F938F930E941B0989EB94E01B
:1049B0000E9482088DB79EB748960FB6F8949EBFA6
:1049C0000FBE8DBF18C08C2F0E94C3238093C101DE
:1049D00012C061E003C061E006C06AE08091C101DD
:1049E0000E941F2008C08091C1010E94C22003C004
:1049F0008EE595E013C08091C101882369F01F9274
:104A00008F9388E595E09F938F930E941B090F90E9
:104A10000F900F900F9004C085E595E00E948208EA
:104A200081E006C01092C20180E002C080E003CFA6
:104A3000CF9108958091CE0108959FB7F894109278
:104A4000C5019FBF90918203943009F057C09091A7
:104A5000E9009F703091EC00232F217030FD20E899
:104A6000922B23E02093E9002091EB0020FF43C02C
:104A70002091EE0027FF3FC02091C301222321F0A7
:104A80002091E80025FF37C01092C30126E0309145
:104A9000E80035FD15C030918203343061F5309166
:104AA000EB0035FD28C0215021F481E08093C30143
:104AB00022C0EFECF7E03197F1F700C00000E7CF3C
:104AC0008093F1008091E80085FD0AC08091E800A4
:104AD00080FFFCCF8091E8008E778093E80006C0CD
:104AE0008FB7F89421E02093C5018FBF9F709093FA
:104AF000E90080E008959F709093E9008FEF08959A
:104B0000EF92FF921F93CF93DF9300D01F92CDB708
:104B1000DEB77C010E945728182F8DEF810F82305D
:104B200040F460E070E0C7010E944A33143019F08D
:104B300026C0123021F584E08983FB82EA8282E07C
:104B40008093E9008FEF9091E800815095FD06C0B9
:104B50009AE69A95F1F700C08111F5CF8091E800AF
:104B600085FF0DC040E050E063E070E0CE010196AB
:104B70000E945E288091E8008E778093E8000F9075
:104B80000F900F90DF91CF911F91FF90EF900895BC
:104B9000CF93DF9300D01F92CDB7DEB72091820371
:104BA000243031F523E02983805891099B838A833F
:104BB00082E08093E9008FEF9091E800815095FDAD
:104BC00006C09AE69A95F1F700C08111F5CF809161
:104BD000E80085FF0DC040E050E063E070E0CE01EA
:104BE00001960E945E288091E8008E778093E8000D
:104BF0000F900F900F90DF91CF9108950F931F9317
:104C0000CF93DF93EC010E945728182F8DEF810F6F
:104C1000823050F409812D814C816B818A810E9400
:104C20007033143019F021C01230F9F482E080930F
:104C3000E9008FEF9091E800815095FD06C09AE65B
:104C40009A95F1F700C08111F5CF8091E80085FFBA
:104C50000CC040E050E066E070E0CE010E945E28AB
:104C60008091E8008E778093E800DF91CF911F91CB
:104C70000F9108951F93CF93DF93EC010E94572863
:104C8000182F8DEF810F823050F446E0BE016E5F29
:104C90007F4F88810E94DD32143019F029C0123014
:104CA00039F581E08093E9008FEF9091E800815021
:104CB00095FD06C09AE69A95F1F700C08111F5CFEF
:104CC0008091E80085FF14C040E050E068E070E0AB
:104CD000CE010E945E288091E8008E778093E800E4
:104CE00088E0FE01A6ECB1E001900D928A95E1F713
:104CF000DF91CF911F9108958AE19CE00E94820884
:104D000080918103811109C00E94F3290E94502AD9
:104D10008091E20084608093E200089586E19CE047
:104D20000E94820810928103089582E19CE00C9415
:104D300082088EE09CE00C9482088AE09CE00E944D
:104D400082080C94861C2091C4012F5F822F62E39D
:104D50000E94A433992319F02093C401089510925E
:104D6000C4018091C501882371F180918203843050
:104D700041F58091E9008F702091EC00922F9170A5
:104D800020FD90E8892B93E09093E9009091EB004F
:104D900090FF14C09091EE0097FF10C09091E80032
:104DA00095FF03C01092F100F9CF9091E80090FFB9
:104DB00005C09091E8009E779093E8008F708093F3
:104DC000E9001092C501089542E061EC81E00E9483
:104DD0006D2942E261EC82E00E946D2942E261ECC1
:104DE00083E00C946D2980918403833009F460C0C2
:104DF00030F4813071F0823009F499C008958A301E
:104E000009F485C08B3009F46BC0893009F0A7C064
:104E100020C080918303813A09F0A1C08091E8000D
:104E2000877F8093E8008091870390918803892B86
:104E300021F468E086EC91E003C060E080E090E05F
:104E400070E00E94A9288091E8008B778093E800A9
:104E5000089580918303813209F081C08091870396
:104E600090918803029708F07AC08091E800877FCC
:104E70008093E8008091E80082FD05C08091820364
:104E80008111F8CF6CC02091F3008091F20090E086
:104E9000922B029729F48091F1008B7F813021F4CD
:104EA0008091F1008093CE018091E8008B7753C010
:104EB00080918303813A09F052C0809187039091D9
:104EC0008803892B09F04BC08091E800877F80938D
:104ED000E8008091E80080FFFCCF8091120136C08D
:104EE000809183038132D9F5809187039091880363
:104EF000892BA9F58091E800877F8093E8000E94C4
:104F0000A22980918503809312010C944E15809103
:104F10008303813221F58091E800877F8093E80048
:104F20000E94A229809186038093CF0108958091E9
:104F30008303813AA1F48091E800877F8093E800A1
:104F40008091E80080FFFCCF8091CF018093F10039
:104F50008091E8008E778093E8000C94A229089550
:104F600084B7877F84BF0FB6F894A89580916000BE
:104F7000886180936000109260000FBE80E880938B
:104F80006100109261000E94DA0F0E94F3290E94D2
:104F9000502A8091E20084608093E2008DE195E2E6
:104FA0000E94AF1B78940E94DB2C0E94E20F88E0E5
:104FB00091E00E94380F89EF9BE00E9482080E94D6
:104FC00012100E940C32FBCF0C94E627292F3327B6
:104FD00023303105C9F064F42130310581F02230ED
:104FE000310509F049C08BE590E02CE53CE048C074
:104FF0002132310521F12232310571F13DC082E1CA
:1050000090E027EB3CE03CC099278130910571F09E
:105010002CF4892B89F5E8E5FCE00DC08230910580
:1050200041F0039749F5EEE1FCE005C0E8E4FCE05F
:1050300002C0E4E2FCE0849190E09F0121C0633073
:105040007105D0F4660F771FFB01E75DFE4F2081ED
:10505000318189E090E014C06330710568F4FB0190
:10506000EE0FFF1FED5DFE4F20813181FB01E05E01
:10507000FE4F808190E004C080E090E020E030E0CE
:10508000FA013183208308950895CF93C82F0E9499
:105090004428C0931301CF910895809182038430F6
:1050A00021F00E947A3183E0089582E00895809192
:1050B0001301811102C00C944D280895CF92DF9204
:1050C000EF92FF920F931F93CF93DF93EC018B012D
:1050D0006A010E94C129811133C0C114D10439F081
:1050E000F60180819181081B190BC80FD91FE12C93
:1050F000F12C0115110519F18091E80085FD16C00C
:105100008091E8008E778093E800C114D10449F0C3
:10511000F60180819181E80EF91EF182E08285E03E
:105120000FC00E94C129882321F30AC0899180936E
:10513000F10001501109FFEFEF1AFF0ADACF80E00A
:10514000DF91CF911F910F91FF90EF90DF90CF9063
:1051500008952091890330918A032617370748F074
:105160006115710539F42091E8002E772093E8004D
:1051700001C0B90140E061157105A9F120918203D8
:10518000222309F443C0253009F442C02091E800ED
:1051900023FD40C02091E80022FD32C02091E800AC
:1051A00020FFE9CF4091F3002091F20030E0342B52
:1051B000FC01CF016115710559F02830310540F42B
:1051C00081918093F100615071092F5F3F4FF1CFC2
:1051D00041E02830310509F040E02091E8002E77C9
:1051E0002093E800C8CF4111C9CF0AC08091820343
:1051F000882361F0853061F08091E80083FD0AC06A
:105200008091E80082FFF2CF80E0089582E0089567
:1052100083E0089581E008952091890330918A0305
:105220002617370748F06115710539F42091E80019
:105230002E772093E80001C0B901FC0120E0611540
:10524000710591F180918203882309F440C0853073
:1052500009F43FC08091E80083FD3DC08091E800E3
:1052600082FD2FC08091E80080FFE9CF2091F300FC
:105270008091F20090E0922B6115710559F0883011
:10528000910540F424912093F10031966150710909
:105290000196F2CF21E0089709F020E08091E80024
:1052A0008E778093E800CBCF2111CCCF0AC08091BC
:1052B0008203882361F0853061F08091E80083FDEE
:1052C0000AC08091E80082FFF2CF80E0089582E07A
:1052D000089583E0089581E00895982F973058F558
:1052E0009093E900981739F07091EC002091ED004F
:1052F0005091F00003C0242F762F50E021FF19C0F9
:105300003091EB003E7F3093EB003091ED003D7F1C
:105310003093ED003091EB0031603093EB007093EF
:10532000EC002093ED005093F0002091EE0027FF59
:1053300007C09F5FD3CF8F708093E90081E008950D
:1053400080E008958091830387FF11C08091E80079
:1053500082FD05C0809182038111F8CF11C0809138
:10536000E8008B770BC080918203882349F08091FD
:10537000E80080FFF8CF8091E8008E778093E80006
:1053800008952091E4003091E50095E64091EC000D
:10539000842F817040FF22C08091E80080FD1CC0F6
:1053A00080918203882391F0853091F08091EB0009
:1053B00085FD10C04091E4005091E500421753076D
:1053C00029F39A01915011F784E0089582E008953D
:1053D00083E0089581E0089580E008954091E80019
:1053E00042FFDECF08950E94612A0E94692AE0EE02
:1053F000F0E0808181608083E8EDF0E080818F774C
:10540000808319BCA7EDB0E08C918E7F8C93808156
:105410008F7E80831092810308950F931F93CF9303
:10542000DF930E94612A0E94692AC8EDD0E088813A
:105430008F77888388818068888388818F7D88833F
:1054400019BC1092820310927E0310928003109276
:105450007F0300EE10E0F80180818B7F80838881DC
:105460008160888342E060E080E00E946D29E1EE87
:10547000F0E080818E7F8083E2EEF0E080818160C9
:105480008083808188608083F80180818E7F808323
:10549000888180618883DF91CF911F910F9108955A
:1054A000E8EDF0E080818F7E8083E7EDF0E08081A1
:1054B0008160808384E082BF81E0809381030C94CB
:1054C0000D2AE8EDF0E080818E7F80831092E2006B
:1054D00008951092DA001092E10008951F920F9241
:1054E0000FB60F9211242F933F934F935F936F93B7
:1054F0007F938F939F93AF93BF93EF93FF9380918D
:10550000E10082FF0BC08091E20082FF07C0809122
:10551000E1008B7F8093E1000E94A3268091DA0056
:1055200080FF1DC08091D80080FF19C08091DA00F3
:105530008E7F8093DA008091D90019BC80FF0BC068
:1055400082E089BD09B400FEFDCF81E08093820333
:105550000E947C2604C0109282030E948E268091B5
:10556000E10080FF19C08091E20080FF15C08091AA
:10557000E2008E7F8093E2008091E2008061809360
:10558000E2008091D80080628093D80019BC85E049
:10559000809382030E9499268091E10084FF2FC0AE
:1055A0008091E20084FF2BC019BC82E089BD09B460
:1055B00000FEFDCF8091D8008F7D8093D800809130
:1055C000E1008F7E8093E1008091E2008F7E8093E6
:1055D000E2008091E20081608093E20080917E038E
:1055E000882311F084E007C08091E30087FD02C0AA
:1055F00081E001C083E0809382030E949D26809118
:10560000E10083FF29C08091E20083FF25C08091E3
:10561000E100877F8093E10082E080938203109213
:105620007E038091E1008E7F8093E1008091E20013
:105630008E7F8093E2008091E20080618093E2009F
:1056400042E060E080E00E946D298091F000886077
:105650008093F0000E949526FF91EF91BF91AF914A
:105660009F918F917F916F915F914F913F912F917A
:105670000F900FBE0F901F9018951F920F920FB6AC
:105680000F9211242F933F934F935F936F937F93C8
:105690008F939F93AF93BF93CF93DF93EF93FF933A
:1056A000C091E900CF708091EC00D82FD17080FDBF
:1056B000D0E81092E9008091F000877F8093F0009D
:1056C00078940E94812B1092E9008091F00088600C
:1056D0008093F000CD2BCF70C093E900FF91EF9144
:1056E000DF91CF91BF91AF919F918F917F916F91FA
:1056F0005F914F913F912F910F900FBE0F901F9090
:1057000018951F93CF93DF93CDB7DEB7AA970FB647
:10571000F894DEBF0FBECDBFE3E8F3E088E08E0F64
:105720009091F10091938E13FBCF0E94F32680910C
:10573000E80083FF28C18091830390918403492F5F
:1057400050E04A30510508F01EC1FA01E556FF4FFE
:105750000C94C433803821F0823809F014C108C099
:1057600080917F0390918003992389F082600FC01C
:10577000809187038F70873008F005C18093E9001E
:105780008091EB0085FB882780F91092E9009091C9
:10579000E800977F9093E8008093F1001092F10069
:1057A000D0C0282F2D7F09F0EEC0882319F0823059
:1057B00061F0E9C080918503813009F0E4C0933045
:1057C00009F080E0809380032EC0809185038111D1
:1057D0002AC0809187038F702FEF280F263008F0A2
:1057E000D2C08093E9002091EB0020FF1CC09330D1
:1057F00021F48091EB00806214C09091EB009061E5
:105800009093EB0021E030E0A90102C0440F551F46
:105810008A95E2F74093EA001092EA008091EB004B
:1058200088608093EB001092E9008091E800877F08
:105830008093E8000E94A229A6C08111A4C0109103
:1058400085031F778091E3008078812B8093E300AC
:105850008091E800877F8093E8000E94A2298091D0
:10586000E80080FFFCCF8091E30080688093E30034
:10587000111102C082E001C083E08093820383C0E3
:105880008058823008F07FC0809185039091860314
:105890008C3D53E0950779F583E08A838AE289831A
:1058A0004FB7F894DE01139620E03EE051E2E32F7B
:1058B000F0E050935700E49120FF03C0E295EF70B1
:1058C0003F5FEF708E2F90E0EA3010F0C79601C076
:1058D000C0968D939D932F5F243149F74FBF8091E0
:1058E000E800877F8093E8006AE270E0CE010196CD
:1058F0000E94A92815C06091870370918803AE01AA
:105900004F5F5F4F0E94E427BC01892BE1F190912A
:10591000E800977F9093E80089819A810E940C2982
:105920008091E8008B778093E8002DC0803859F58E
:105930008091E800877F8093E80080917E038093C8
:10594000F1008091E8008E7773CF81111CC0909197
:1059500085039230C0F48091E800877F8093E8004F
:1059600090937E030E94A22980917E03811106C03C
:105970008091E30087FD02C081E001C084E0809354
:1059800082030E94E4268091E80083FF0AC0809190
:10599000E800877F8093E8008091EB00806280932D
:1059A000EB00AA960FB6F894DEBF0FBECDBFDF9115
:1059B000CF911F910895CF93809182038823A1F006
:1059C000C091E900CF709091EC00892F817090FD1B
:1059D00080E8C82B1092E9008091E80083FD0E94C6
:1059E000812BCF70C093E900CF910895662369F0B1
:1059F000FC01860F911DE817F90738F41EBC0DB4A1
:105A000007FEFDCF2EB52193F6CF0895EF92FF92BA
:105A10000F931F93CF93DF93EC018B018091D00103
:105A20008CBD8091D1018DBD2C980E94C01C7C0141
:105A300088818EBD00000DB407FEFDCF8EB58E3F70
:105A4000B9F42C9A22E42A95F1F700C02C98C701EA
:105A50000E94D81C8017910758F380E001C081E0B4
:105A60002C9ADF91CF911F910F91FF90EF900895A5
:105A7000FE0131968B818F778D5F9F01280F311D3D
:105A8000C901E817F90758F721912EBD0DB407FE9B
:105A9000FDCFF7CFEF92FF920F931F93CF93DF933A
:105AA000EC017B010E94C01C8C0166990CC082E055
:105AB0008A95F1F700C0C8010E94D81C8E159F0579
:105AC000A0F380E030C08091D0018CBD8091D101E5
:105AD0008DBD2C981EBC00000DB407FEFDCF9EB5F9
