:100000000C944A080C949C080C949C080C949C0832
:100010000C949C080C949C080C949C080C949C08D0
:100020000C949C080C949C080C943C1C0C94781B1D
:100030000C94C4220C949C080C949C080C949C086E
:100040000C949C080C949C080C949C080C949C08A0
:100050000C949C080C9433210C949C080C949C08E0
:100060000C949C080C949C080C949C080C949C0880
:100070000C949C080C949C080C949C080C949C0870
:100080000C949C080C949C080C949C080C949C0860
:100090000C949C080C949C080C949C080C949C0850
:1000A0000C949C080C949C080C949C08D70ED70EBA
:1000B000120F120F570F770F44114411B90F44114B
:1000C000A610A610B310B310B310B310B310B31032
:1000D000B310B310B310B310B310B310B310B31008
:1000E000B310B310C210EB10F010F7100F11101274
:1000F00012121D121412161218121A121C121F12AA
:10010000211223122E122512271229122B122D1220
:1001100030128719AE195A1BAE195A1BFA191D1A3B
:100120005A1B221B311BB326B326C626C626BC2665
:10013000C626C626C626B326B326C126C626C6268A
:10014000C1260000000000000000000000000000C8
:10015000000000000000000000000000000000009F
:10016000000000000000000000000000000000008F
:10017000000000000000000000000000000000007F
:10018000000000000000000000000000000000006F
:10019000000000000000000000000000000000005F
:1001A000000000000000000000000000000000004F
:1001B000000000000000000000000000000000003F
:1001C000000000000000000000000000000000002F
:1001D000000000000000000000000000000000001F
:1001E0000000000101010101010001010101000005
:1001F00000000000000000000000000001000100FD
:1002000001010101010101010101010101010101DE
:1002100001010101010101010101010101000000D1
:1002200001010000000000000000000000000000CC
:1002300000000000000000000000000000010101BB
:10024000010000000000000000002A2B2800000030
:100250000000000000000000000000000029000075
:1002600000002C1E3420212224342627252E362D52
:100270003738271E1F202122232425263333362EEC
:1002800037381F0405060708090A0B0C0D0E0F105E
:100290001112131415161718191A1B1C1D2F3130A3
:1002A000232D350405060708090A0B0C0D0E0F1047
:1002B0001112131415161718191A1B1C1D2F313083
:1002C000354C290029003A003B003C003D003E002F
:1002D0003F00E00035001E001F002000210022002A
:1002E0002300E0002B0014001A000800150017007E
:1002F0001C00E000390004001600070009000A0095
:100300002900E000E1001D001B00060019000500A7
:100310002900E000E000E200E300E2002C002C00F5
:10032000290068747470733A2F2F716D6B2E666D8F
:100330002F012800514D4B2069732074686520629D
:10034000657374207468696E672065766572210034
:1003500044454255473A2064697361626C65642E76
:100360000A0044454255473A20656E61626C6564F7
:100370002E0A0041545A0041542B424C45504F57CD
:1003800045524C4556454C3D2D31320041542B428F
:100390004C45484944454E3D310041542B4741505E
:1003A0004445564E414D453D6361637475735F73BB
:1003B000706C69745F626C650041542B4741504911
:1003C0004E54455256414C533D31302C33302C2C39
:1003D000004154453D30000A0025303862003A2083
:1003E0000025303258000A722F6320303132333406
:1003F0003536370A000A0025303258006B657962BD
:100400006F6172645F7365745F6C65643A20006647
:1004100061696C656420424C4520636F6D6D616E4F
:10042000643A2025533A2025730A00D103B9039A70
:10043000038C03770373032A2A2A2A2A2A20424C90
:100440004520444953434F4E4E45435421212121D9
:100450000A002A2A2A2A2A2A20424C4520434F4EA3
:100460004E454354212121210A0041542B4857561F
:100470004241540041542B474150474554434F4E4D
:100480004E0041542B4556454E54454E41424C4535
:100490003D3078320041542B4556454E54454E412F
:1004A000424C453D307831004B6579626F61726432
:1004B0002073746172742E0A000631FF0974A10161
:1004C0000975150026FF009520750881020976152B
:1004D0000026FF00952075089102C005010902A1C0
:1004E0000185020901A10005091901290515002549
:1004F00001950575018102950175038101050109C9
:100500003009311581257F95027508810609381556
:1005100081257F950175088106050C0A3802158131
:10052000257F950175088106C0C005010980A101DC
:1005300085031601002603001A81002A8300751026
:1005400095018100C0050C0901A101850416010077
:10055000269C021A01002A9C02751095018100C098
:1005600005010906A101050719E029E71500250184
:100570009508750181029501750881010508190129
:1005800029059505750191029501750391010507EE
:10059000190029FF150026FF00950675088100C087
:1005A0005B435D005B445D005B535D005B575D003A
:1005B0005B525D0009025B00030100A0FA09040020
:1005C000000103010100092111010001224000077F
:1005D00005810308000A0904010001030000000965
:1005E00021110100012285000705820320000A096C
:1005F000040200020300000009211101000122226F
:1006000000070583032000010705030320000112F2
:1006100001100100000008EDFE00000100010203CE
:1006200001040330000000220363006100630074D2
:1006300000750073005F00730070006C0069007447
:10064000005F0062006C00650000000E036B002D6F
:100650000061006F007400610000000403090429B8
:100660000A002575002F002575005D28002564000F
:100670002000256400200025640020002564007C03
:100680000025303258006D6F7573656B6579205B9E
:1006900062746E7C782079207620685D287265709F
:1006A0002F61636C293A205B000A002575002E6ECD
:1006B0006B726F3A20000A002575002E7377617007
:1006C0005F6261636B736C6173685F6261636B73BC
:1006D000706163653A20000A002575002E7377610A
:1006E000705F67726176655F6573633A20000A0028
:1006F0002575002E6E6F5F6775693A20000A002528
:1007000075002E737761705F72616C745F726775CC
:10071000693A20000A002575002E737761705F6CBE
:10072000616C745F6C6775693A20000A002575007A
:100730002E636170736C6F636B5F746F5F636F6E5A
:1007400074726F6C3A20000A002575002E73776171
:10075000705F636F6E74726F6C5F636170736C6FE8
:10076000636B3A20000A0025303258006B65796DC2
:1007700061705F636F6E6669672E7261773A200001
:100780000A002575002E6D6F7573653A20000A000A
:100790002575002E6B6579626F6172643A20000ADC
:1007A000002575002E6D61747269783A20000A0088
:1007B0002575002E656E61626C653A20000A002581
:1007C0003032580064656275675F636F6E66696793
:1007D0002E7261773A20000A002575006465666113
:1007E000756C745F6C617965723A20000A092D207E
:1007F0004D61676963202D0A443A09446562756753
:10080000204D65737361676520546F67676C650A77
:10081000583A094D617472697820446562756720A1
:100820004D6F646520546F67676C65202D20536899
:100830006F77206B65797072657373657320696E6D
:10084000206D617472697820677269640A4B3A0995
:100850004B6579626F6172642044656275672054EC
:100860006F67676C65202D2053686F77206B657903
:100870007072657373207265706F72740A4D3A09F5
:100880004465627567204D6F75736520546F6767A7
:100890006C650A563A0956657273696F6E0A533A67
:1008A000095374617475730A433A09416374697634
:1008B00061746520436F6E736F6C65204D6F646566
:1008C0000A46312D4631303A0953776974636820FE
:1008D000746F204C6179657220302D3920284631A3
:1008E00030203D204C30290A302D393A09537769A0
:1008F00074636820746F204C6179657220302D39E3
:100900000A47524156453A0953776974636820741F
:100910006F204C6179657220302028616C7465729B
:100920006E617465290A423A094A756D7020746FC8
:1009300020426F6F746C6F616465720A4553433A6D
:10094000094A756D7020746F20426F6F746C6F610F
:100950006465722028616C7465726E617465290A21
:10096000453A095072696E7420454550524F4D20EA
:1009700053657474696E67730A4253504143453A34
:1009800009436C65617220454550524F4D0A000A7B
:10099000092D20436F6E736F6C65202D0A455343FC
:1009A0002F713A09717569740A6D3A096D6F757323
:1009B000656B65790A004743433A20342E392E325D
:1009C000204156522D4C4942433A20312E382E3088
:1009D00073766E204156525F415243483A20617609
:1009E00072350A004F5054494F4E533A204C5546E9
:1009F00041204D4F5553454B455920455854524180
:100A00004B455920434F4E534F4C4520434F4D4D7E
:100A1000414E4420343039360A004255494C443A5C
:100A20002022627265616B706F696E745F32303163
:100A3000395F30385F33302E312E372D312D67330B
:100A4000646432393022202831333A33333A333335
:100A5000204175672031332032303139290A005660
:100A600049443A20307846454544286B2D616F74DF
:100A70006129205049443A203078303030302863A2
:100A800061637475735F73706C69745F626C652900
:100A9000205645523A203078303030310A004445F3
:100AA00053433A204120637573746F6D206B6579F1
:100AB000626F6172640A000A092D205665727369BB
:100AC0006F6E202D0A0074696D65725F72656164D6
:100AD000333228293A202530346C580A006B657966
:100AE000626F6172645F69646C653A2025580A0020
:100AF0006B6579626F6172645F70726F746F636F40
:100B00006C3A2025580A00686F73745F6B657962D0
:100B10006F6172645F6C65647328293A2025580AF6
:100B2000000A092D20537461747573202D0A003F4B
:100B3000000A6D6F7573653A206F66660A000A6D6C
:100B40006F7573653A206F6E0A000A6B6579626F84
:100B50006172643A206F66660A000A6B6579626F9B
:100B60006172643A206F6E0A000A6D61747269786E
:100B70003A206F66660A000A6D61747269783A20DD
:100B80006F6E0A000A64656275673A206F66660ACE
:100B9000000A64656275673A206F6E0A000A0A4AA5
:100BA000756D70696E6720746F20626F6F746C6F03
:100BB000616465722E2E2E2000433E2000436C653A
:100BC0006172696E6720454550524F4D0A00656558
:100BD000636F6E6669673A0A006D6B5F776865657B
:100BE0006C5F74696D655F746F5F6D6178203D2027
:100BF00025640A006D6B5F776865656C5F6D617871
:100C00005F7370656564203D2025640A006D6B5F2D
:100C100074696D655F746F5F6D6178203D20256438
:100C20000A006D6B5F6D61785F7370656564203D70
:100C30002025640A006D6B5F696E74657276616C65
:100C4000203D2025640A006D6B5F64656C6179202E
:100C50003D2025640A006D6B5F776865656C5F7485
:100C6000696D655F746F5F6D6178203D2025640A52
:100C7000006D6B5F776865656C5F6D61785F737041
:100C8000656564203D2025640A006D6B5F74696DA5
:100C9000655F746F5F6D6178203D2025640A006D8B
:100CA0006B5F6D61785F7370656564203D202564BE
:100CB0000A006D6B5F696E74657276616C203D2011
:100CC00025640A006D6B5F64656C6179203D2025A9
:100CD000640A0077686572652064656C74613A2007
:100CE000637572736F723D25642C20776865656C3F
:100CF0003D25640A53656520687474703A2F2F652A
:100D00006E2E77696B6970656469612E6F72672FEB
:100D100077696B692F4D6F7573655F6B6579730AC2
:100D2000000A092D204D6F7573656B6579202D0ABA
:100D30004553432F713A09717569740A313A096450
:100D4000656C6179282A31306D73290A323A096954
:100D50006E74657276616C286D73290A333A096D79
:100D600061785F73706565640A343A0974696D650A
:100D70005F746F5F6D61780A353A09776865656CF5
:100D80005F6D61785F73706565640A363A097768EC
:100D900065656C5F74696D655F746F5F6D61780A1E
:100DA0000A703A097072696E742076616C756573A9
:100DB0000A643A097365742064656661756C7473BE
:100DC0000A75703A092B310A646F776E3A092D3132
:100DD0000A706775703A092B31300A7067646F7753
:100DE0006E3A092D31300A0A7370656564203D2022
:100DF00064656C7461202A206D61785F737065652D
:100E000064202A2028726570656174202F2074691F
:100E10006D655F746F5F6D6178290A004C25640A07
:100E2000007761697420666F722062756620737046
:100E30006163650A000A002530325820006B65792D
:100E4000626F6172645F7265706F72743A200077CE
:100E5000616974696E675F666F725F726573756CE6
:100E6000743A2074696D656F75742C2072657370A7
:100E70005F6275662073697A652025640A00726571
:100E80006376206C6174656E63792025646D730AE6
:100E90000041542B424C454849444D4F555345421F
:100EA0005554544F4E3D0041542B424C4548494403
:100EB0004D4F5553454D4F56453D25642C25642CCB
:100EC00025642C25640041542B424C454849444339
:100ED0004F4E54524F4C4B45593D30782530347865
:100EE0000041542B424C454B4559424F41524443DB
:100EF0004F44453D253032782D30302D2530327825
:100F00002D253032782D253032782D253032782D30
:100F1000253032782D253032780073656E64206C70
:100F20006174656E63792025646D730A006661697A
:100F30006C656420746F2073656E642C2077696C17
:100F40006C2072657472790A0073656E645F6275F5
:100F5000665F73656E645F6F6E653A206861766583
:100F60002025642072656D61696E696E670A00777D
:100F7000616974206F6E2062756620666F7220252D
:100F8000730A00726573756C743A2025730A004FFA
:100F90004B00736465705F726563765F706B74207D
:100FA0006661696C65640A0077616974656420250F
:100FB000646D7320666F7220726573705F62756610
:100FC0000A00626C652073656E643A2025730A001E
:100FD0003F004D3E2000433E20000A0025750036AC
:100FE0003A20776865656C5F74696D655F746F5FE3
:100FF0006D61783A20000A00257500353A2077683F
:1010000065656C5F6D61785F73706565643A20003B
:101010000A00257500343A2074696D655F746F5F4E
:101020006D61783A20000A00257500333A206D6121
:10103000785F73706565643A20000A002575003298
:101040003A20696E74657276616C286D73293A2056
:10105000000A00257500313A2064656C6179282A00
:1010600031306D73293A20000A092D2056616C75C4
:101070006573202D0A004D3E004D25643E20003F43
:10108000007365742064656661756C740A00433E84
:101090002000C92A11241FBECFEFDAE0DEBFCDBF8A
:1010A00004B603FE27C08091A4039091A503A091EC
:1010B000A603B091A7038730904BA740B04BD1F463
:1010C0001092A4031092A5031092A6031092A703F6
:1010D00014BE84B7877F84BF0FB6F894A89580911B
:1010E0006000886180936000109260000FBEE0E0B5
:1010F000F8E3099523E0A2E4B1E001C01D92A43A0F
:10110000B207E1F711E0A0E0B1E0E8E8F9E602C0DB
:1011100005900D92A234B107D9F718E0CAE4D8E0DF
:1011200004C02197FE010E94DB31C934D107C9F701
:101130000E9436130C94C2340C940000FF93EF937A
:10114000E0914201F0914301309709F00995EF9148
:10115000FF910895FC018591803011F0EFDFFBCF06
:101160000895FF27E0E230E247FF0CC0419597FF6A
:1011700009C0EDE26095709580959095611D711D97
:10118000811D911D27FF02C0219530E350E2AA275F
:10119000660F771F881F991FAA1FA41710F0A41BA2
:1011A00063955A95A9F7AA3008F0A95FA05DAF939F
:1011B000F395611571058105910541F7ED3211F443
:1011C000EF93F395F21718F43F93F395FBCF8F91BC
:1011D000B5DFFA95E1F70895E991F99185918030AD
:1011E00021F0853219F0AADFF9CF089520E0E894C4
:1011F00055915532C1F3503311F4689455915A33D7
:1012000048F4505390F3220F022E220F220F200D8C
:10121000250FF4CF0EF4219589919991533619F346
:10122000533729F1533559F1BC0188279927E894A0
:101230005C3621F48991999168945591543639F42A
:1012400046EF7EF077FF0DC08FEF9FEF0AC0553756
:101250004AE039F0583540E121F0523642E009F0D9
:101260000895FF93EF937DDFEF91FF91B7CFFF9349
:10127000EF93FC0181918030B9F360DFFBCFFF93E6
:10128000EF9368DFF1CFDF93CF93CDB7DEB725962D
:10129000A3DFCF91DF91089590914F0192FF0DC090
:1012A000282F2871283019F4877F846006C0282FE2
:1012B0002471243011F48B7F886093FF0DC0282F98
:1012C0002871283119F4877E846106C0282F247183
:1012D000243111F48B7E886194FD877E0895FF92FE
:1012E0000F931F93CF93DF93EC01FE0124912223F0
:1012F00009F457C0CE010196213041F4EC01FC0104
:101300001491812F0E949F2E812F47C0223031F4EB
:10131000EC01FC0184910E949F2E41C0233021F4F6
:10132000EC01FC01849139C030E0F901EE5BFD4F26
:101330001491F901EE53FE4FE49101E0E11101C077
:1013400000E0F901EE5BFE4F2491FF24F39421119C
:1013500001C0F12C002319F081EE0E949F2EFF2086
:1013600019F086EE0E949F2E812F0E949F2E193326
:1013700049F4FFEF21EE84E0F15020408040E1F796
:1013800000C00000812F0E94DB29FF2019F086EEAB
:101390000E94DB29002319F081EE0E94DB292196AF
:1013A000A4CFDF91CF911F910F91FF9008950F93DC
:1013B0001F93CF93DF93C62FD42F022FFC0182817E
:1013C0008823C9F060934A010E94832190934501CC
:1013D0008093440180E28C0F883008F05EC0C770B3
:1013E00081E001C0880FCA95EAF7DF91CF911F9184
:1013F0000F910C94D12910914A0116133EC080918F
:101400004401909145010E945921883C9105A8F51D
:10141000C0E2CD0F1D17B9F080E2810F883040F493
:10142000177081E001C0880F1A95EAF70E94C6295B
:10143000C83048F481E09D2F977001C0880F9A95BD
:10144000EAF70E94D129802F0E949F2E093349F488
:10145000FFEF21EE84E0F15020408040E1F700C032
:101460000000802F0E94DB29C830B8F4D77081E0DB
:1014700001C0880FDA95EAF70AC080E28C0F883045
:1014800060F4C77081E001C0880FCA95EAF7DF9168
:10149000CF911F910F910C94C629DF91CF911F918D
:1014A0000F9108951F93CF93DF93CDB7DEB7679762
:1014B0000FB6F894DEBF0FBECDBF4B8B5C8B6D8B30
:1014C0007E8B8F8B86E09E01235F3F4FD901E82FF3
:1014D0001D92EA95E9F795E0FE017396D901019016
:1014E0000D929A95E1F7F901DE01179601900D92A0
:1014F0008A95E1F7CE0107960E94FD27811136C03B
:1015000086E0FE013796DE01119601900D928A95D4
:10151000E1F77F816885EA85FB85309739F16F3F78
:1015200011F47F3F19F12091A30130E0C901019628
:10153000877099274091D40150E08417950779F17D
:1015400079836A83FD83EC8396E0929FD001939F19
:10155000B00D1124AC55BE4FFE01319601900D9295
:101560009A95E1F78093A3010E94982716E0809155
:10157000D4019091A301891701F1189FC001112492
:101580008C559E4F0E94FD278823B9F08091D4018D
:1015900090E00196877099278093D401E8CF0E944C
:1015A000BB291092A3011092D401EDE9F1E086E08D
:1015B000DF011D928A95E9F7D9CF67960FB6F894A7
:1015C000DEBF0FBECDBFDF91CF911F910895209157
:1015D0004801309149018217930771F090934901B6
:1015E00080934801E0915101F0915201309721F030
:1015F0000084F185E02D09940895209146013091F1
:1016000047018217930771F0909347018093460139
:10161000E0915101F0915201309721F00680F7815D
:10162000E02D09940895E0915101F0915201309715
:1016300021F00190F081E02D099480E00895CF938E
:10164000DF93E72FF0E026E0829FE00DF11D1124EB
:10165000C3E0EE0FFF1FCA95E1F7E60FF11DEE0F95
:10166000FF1FEE53FD4FC591D491CE01C238D10575
:1016700049F1B0F4C133D10509F464C048F4C9326A
:10168000D10509F458C0CA32D10509F462C068C056
:10169000C533D10509F448C0C933D10599F060C0FC
:1016A000C33ED10541F138F4C03ED10591F0C23EB0
:1016B000D105B1F055C0C63ED10521F1C73ED105D7
:1016C00061F14EC020914F0120FD09C221FD07C2EA
:1016D00008C220914F0120FF04C289E390E001C2BB
:1016E00020914F0122FFFDC180914F0184FDA9C1CE
:1016F00083EE90E0F6C180914F0182FFF5CF82EE3C
:1017000090E0EFC120914F0123FFEBC180914F0189
:1017100084FD97C187EE90E0E4C180914F0183FF83
:10172000F5CF86EE90E0DDC120914F0125FFD9C1B4
:1017300089E290E0D6C120914F0125FFD2C185E317
:1017400090E0CFC120914F0126FFCBC18AE290E00B
:10175000C8C120914F0126FFC4C181E390E0C1C1FF
:10176000C11530E5D30708F049C0C11520E4D20700
:1017700008F030C1C83ED10520F5C03ED10508F0C3
:10178000B0C1C83AD10570F4C53AD10508F0ACC073
:10179000C130D10509F4A5C108F453C1249708F458
:1017A00050C19FC1CF3BD10508F4A9C0C03CD105B1
:1017B00008F447C1CE01880F991FFC01EE5BFE4F74
:1017C000FDC0C11530E2D30760F4C11521E0D20796
:1017D00008F087C1C03FD10508F433C1CE01906540
:1017E00080C1C11530E3D30708F0EBC0CE019F7074
:1017F000FC01EE0FFF1FEE53FD4FE0C0C11585E564
:10180000D80708F044C0C11594E5D90708F0FAC01C
:10181000C11522E5D20710F5C11531E5D30708F04F
:10182000DDC02C2F237081E090E002C0880F991F4B
:101830002A95E2F79C689E0174E0369527957A9583
:10184000E1F72370922BEC2FEF70E695E69530E2EE
:10185000E39FF00111248E2B9F2B43C18C2F869583
:101860008695AE0143705527C115D34508F0BBC01E
:1018700090E2899F9001112481E090E002C0880FDE
:10188000991F4A95E2F7822B932B9C682AC1C115B8
:1018900029E5D20798F4C11538E5D30708F0B7C099
:1018A000C11586E5D80708F0CCC08C2F0E944C09E2
:1018B0008F7190E0982F8827906213C1C1159AE527
:1018C000D90708F4A9C0CE0190568115904208F0BE
:1018D000B8C08D2F8F710E944C09FE01FF27F06266
:1018E0008F719F01382BABC0C53AD10509F4ACC04C
:1018F000C63AD10509F0ABC082E890E4F2C0C83A1C
:10190000D10509F4A7C0C93AD10509F4A6C0CA3A5D
:10191000D10509F4A5C0CB3AD10509F4A4C0CC3A4D
:10192000D10509F4A3C0CB3BD10509F4A2C0CC3B3F
:10193000D10509F4A1C0CD3AD10509F4A0C0C03B3E
:10194000D10509F49FC0CE3AD10509F49EC0CF3A23
:10195000D10509F49DC0C13BD10509F49CC0C23B2F
:10196000D10509F49BC0C33BD10509F49AC0C43B1F
:10197000D10509F499C0C53BD10509F498C0C63B0F
:10198000D10509F497C0C73BD10509F496C0C83BFF
:10199000D10509F495C0C93BD10509F494C0CD3BEC
:1019A000D10509F493C0CE3BD10509F492C0CA3BDE
:1019B000D10509F491C080E094E493C0859194919D
:1019C00090C09E013327C901D3FF02C0986C89C023
:1019D000906C87C0CE019F70906A83C09C2F88272F
:1019E000816F906A7EC090E2899F9001112481E00E
:1019F00090E002C0880F991F4A95E2F7822B932B43
:101A00009A686FC09C2F8827846F906A6AC09C2F49
:101A10008827806F906A65C08C2F8F700E944C0958
:101A2000FE0194E0F695E7959A95E1F7EF70F0E006
:101A3000FE2FEE27F06A8F70806E9F01282BC90160
:101A400050C080E090E04DC081E890E44AC083E857
:101A500090E447C082EE94E444C089EE94E441C02F
:101A60008AEE94E43EC085EB94E43BC086EB94E4BC
:101A700038C083EB94E435C084EB94E432C087EB48
:101A800094E42FC08CEC94E42CC08DEC94E429C039
:101A900083E895E426C08AE895E423C082E995E4CA
:101AA00020C084E995E41DC081E296E41AC083E277
:101AB00096E417C084E296E414C085E296E411C06F
:101AC00086E296E40EC087E296E40BC08FE694E4CB
:101AD00008C080E794E405C08AE296E402C080EE84
:101AE00090E0DF91CF9108954F925F926F927F9235
:101AF000AF92BF92CF92DF92EF92FF920F931F931C
:101B0000CF93DF9300D000D000D0CDB7DEB7FC017B
:101B1000D080118183819481892B09F4C6C41F3F31
:101B200021F40FEFD01609F4C0C47F0185E0DE0177
:101B3000119601900D928A95E1F7F7012281898132
:101B40009A81222349F00E945726082F682F898105
:101B50009A810E94F62603C00E94CA26082FE12F10
:101B6000F0E016E0019FE00DF11D112493E0EE0F6F
:101B7000FF1F9A95E1F7ED0DF11DEE0FFF1FEE53DC
:101B8000FD4F05911491053F2CE5120729F0063F02
:101B90003CE5130749F012C0F7018281882309F45C
:101BA00058C084E393E007C0F7018281882309F4D9
:101BB00050C082E293E00E946F094BC0013FFCE5F8
:101BC0001F07C1F180F4083D3CE51307C9F0093D4A
:101BD0008CE51807D9F1073D9CE51907D1F526E2F8
:101BE00041EE61EE10C0033FECE51E0759F130F104
:101BF000043F2CE5120769F527E245EE66EE03C0C7
:101C000027E245EE65EEC70126960FB6F894DEBFD3
:101C10000FBECDBFDF91CF911F910F91FF90EF903D
:101C2000DF90CF90BF90AF907F906F905F904F907C
:101C30000C94D70926E241EE60EEE5CF27E245EEAF
:101C400064EEE1CF26E241EE62EEDDCF28E241E034
:101C5000D9CFF7018281882369F110924A010631B8
:101C6000FCE51F0789F188F401303CE5130709F40E
:101C700068C328F401151C4509F456C35AC0053140
:101C8000ECE51E0708F4AAC354C00D3DFCE51F0790
:101C900009F496C328F40C3D1C4509F48EC349C0D1
:101CA0000E3D8CE5180709F48DC30F3D1C4509F462
:101CB0006EC33FC00531FCE51F0708F41FC30631A2
:101CC0009CE5190709F024C39091FA01882381F05B
:101CD0009A7A81E009F480E080934B01811102C07F
:101CE00069E201C065E385E991E00E94F5220BC03D
:101CF00080914B01811102C069E201C065E385E971
:101D000091E00E94E92226960FB6F894DEBF0FBE3E
:101D1000CDBFDF91CF911F910F91FF90EF90DF909A
:101D2000CF90BF90AF907F906F905F904F900C944A
:101D3000D425F70100811181C8010E945726D82EB1
:101D4000682FC8010E94F626B8018D2D0E941F0B36
:101D5000182F782EF701058102950F70B280B1100F
:101D60001092F9018091F701877089F0BB2079F01A
:101D700080E2810F883058F082E09E830E945427D1
:101D80008091F7018770AA24A3949E818111A12CD0
:101D9000C92EC2948FE0C822D12CFCE0CF16D1040A
:101DA00008F072C2F601EA5AFF4F0C94DB31892F1A
:101DB000807F9F70092F882311F00295007FBB2040
:101DC000B9F0002309F44BC280E2810F883010F093
:101DD000711006C09091FA01092B0093FA0105C019
:101DE0009091F901092B0093F9010E94D42537C283
:101DF000812F0E94DB29002309F446C2105E009562
:101E0000183010F0711006C09091FA010923009368
:101E1000FA0105C09091F90109230093F9010E948C
:101E2000D42532C2292F207F892F8F70203211F0C4
:101E30008295807F772021F021E07216E9F026C09C
:101E4000BB2081F02091FB01002351F0013041F4CF
:101E5000982F922B291709F417C29093FB0114C2F3
:101E6000822B1EC0002319F0013009F40DC28E83AD
:101E70000E94CE258E8183C1BB2021F0063008F060
:101E800003C20EC0053008F0FFC179C1BB2059F074
:101E9000002331F0F701958190FFE1C19F70958398
:101EA0000E94D129F1C1002309F469C1EAC1292F97
:101EB00026952695237030E02115310521F021303B
:101EC000310559F0E1C1BB2019F0812F937002C098
:101ED00080E090E00E94FD0AE5C1BB2019F0812F4F
:101EE000937002C080E090E00E94E70ADBC1BB2053
:101EF000F9F0153F51F0163F71F0143FA9F48091AD
:101F00004C0190914D0181600BC080914C019091EA
:101F10004D01826005C080914C0190914D0184601B
:101F200090934D0180934C01812F0E94A7201EC0E9
:101F3000153F51F0163F71F0143FA9F480914C0108
:101F400090914D018E7F0BC080914C0190914D017D
:101F50008D7F05C080914C0190914D018B7F9093B6
:101F60004D0180934C01812F0E94A01F0E942C22C2
:101F700099C1892F837009F071C0B11091C1812F6F
:101F8000829586958770880F880F412F4F7050E09B
:101F900060E070E02A013B01082E04C0440C551C8F
:101FA000661C771C0A94D2F714FF12C00FE010E0F1
:101FB00020E030E004C0000F111F221F331F8A955C
:101FC000D2F7B901A801409550956095709503C06E
:101FD00040E050E0BA01969596959370892F90E075
:101FE00082309105E9F08330910579F100918B0100
:101FF00010918C0120918D0130918E01019759F043
:102000004429552966297729CB01BA016023712318
:102010008223932320C0402A512A622A732A15C0A2
:10202000442955296629772980918B0190918C014B
:10203000A0918D01B0918E018A019B01082719277B
:102040002A273B27C901B80106C0CB01BA01642980
:102050007529862997290E948E2722C1BB2019F055
:10206000892F817001C08695882309F419C1812FB9
:10207000829586958770880F880F412F4F7050E0AA
:1020800060E070E02A013B01082E04C0440C551C9E
:10209000661C771C0A94D2F714FF12C00FE010E000
:1020A00020E030E004C0000F111F221F331F8A956B
:1020B000D2F7B901A801409550956095709503C07D
:1020C00040E050E0BA01969596959370892F90E084
:1020D00082309105E9F08330910579F10091F301A7
:1020E0001091F4012091F5013091F601019759F01A
:1020F0004429552966297729CB01BA016023712328
:102100008223932320C0402A512A622A732A15C0B1
:1021100044295529662977298091F3019091F4018A
:10212000A091F501B091F6018A019B0108271927BA
:102130002A273B27C901B80106C0CB01BA0164298F
:102140007529862997290E942527AAC0412F50E08A
:10215000FA01E05EF109E531F10508F07BC0EE59C6
:10216000FF4F0C94DB311F70892F8F71BB2021F042
:102170000E946D27812F94CE0E942F27812F0E94CD
:10218000C62982C0BB2019F1053008F07DC0292F77
:102190002F7181E090E0A0E0B0E0AC01BD0104C08F
:1021A000440F551F661F771F2A95D2F78091F301C0
:1021B0009091F401A091F501B091F6018A019B0183
:1021C000082719272A273B27C901B80125C006304F
:1021D00008F05AC0DCCFBB2029F0892F8F712EC0A8
:1021E000BB20D9F3892F8F710E942F274DC0BB20B0
:1021F00081F0292F2F7181E090E0A0E0B0E0BC01D8
:10220000CD0104C0660F771F881F991F2A95D2F74A
:1022100003C060E070E0CB010E94252735C0BB20E1
:1022200081F0192F1F71812F0E946D2728E0129FC6
:10223000C001112483608093F701812F0E946D27D4
:1022400023C081E00E9454270230F0F082E00E9417
:1022500054271AC0BB2039F0002309F4BECF812FC8
:102260000E949F2E11C0002309F4BCCF193349F4FA
:102270003FEF81EE94E0315080409040E1F700C0A4
:102280000000812F0E94DB29E8E0CE16D10441F046
:102290004CF00AE0C01AD10812E0C116D10410F4C3
:1022A0000E94130BAA2009F400C18091F70180FD60
:1022B000FCC0F70112828595859585950E946D2752
:1022C000C7010E94740D8091F701859585958595CC
:1022D00026960FB6F894DEBF0FBECDBFDF91CF912B
:1022E0001F910F91FF90EF90DF90CF90BF90AF9034
:1022F0007F906F905F904F900C942F2702302CE5C9
:10230000120708F063C001151C4508F0CEC05EC07E
:102310000631ECE51E0708F459C00C5D1C4504307D
:10232000110508F4C2C052C00E94BB29FFE70AE1B0
:1023300016E0F15000401040E1F700C000000E949C
:102340000F2180910A02982F9095917090FB80F94F
:1023500080930A02992319F082E693E002C080E597
:1023600093E026960FB6F894DEBF0FBECDBFDF9187
:10237000CF911F910F91FF90EF90DF90CF90BF9082
:10238000AF907F906F905F904F900C94AA08269624
:102390000FB6F894DEBF0FBECDBFDF91CF911F9176
:1023A0000F91FF90EF90DF90CF90BF90AF907F9014
:1023B0006F905F904F900C940F2310920C0175C09A
:1023C00082E001C083E080930C016FC0F7010081BF
:1023D0001181C8010E94CA26D82EB6CC80E090E0B8
:1023E0000E944A318D3E9E4F11F00E940F2384E0DF
:1023F00090E00E94423190E09093500180934F0111
:10240000F801E350FC45E231F10530F4E958FF4FA3
:1024100080914F010C94DB3180914F01816027C086
:10242000826025C0846023C0806121C080621FC09B
:1024300080641DC080681BC08460886018C08E7F67
:1024400016C08D7F14C08B7F12C08F7E10C08F7D11
:102450000EC08F7B0CC08F770AC08B7F877F07C031
:1024600087FB222720F991E0922790FB87F9809340
:102470004F0160914F0184E090E00E945031269618
:102480000FB6F894DEBF0FBECDBFDF91CF911F9185
:102490000F91FF90EF90DF90CF90BF90AF907F9023
:1024A0006F905F904F900C94BB2926960FB6F894CE
:1024B000DEBF0FBECDBFDF91CF911F910F91FF9077
:1024C000EF90DF90CF90BF90AF907F906F905F9034
:1024D0004F9008959FB7F894109272019FBF90910A
:1024E0008101943009F057C09091E9009F703091BC
:1024F000EC00232F217030FD20E8922B23E0209365
:10250000E9002091EB0020FF43C02091EE0027FF5F
:102510003FC020914E01222321F02091E80025FFA9
:1025200037C010924E0126E03091E80035FD15C00D
:1025300030918101343061F53091EB0035FD28C0D8
:10254000215021F481E080934E0122C0EFECF7E0AE
:102550003197F1F700C00000E7CF8093F100809140
:10256000E80085FD0AC08091E80080FFFCCF8091E3
:10257000E8008E778093E80006C08FB7F89421E0DA
:10258000209372018FBF9F709093E90080E00895BF
:102590009F709093E9008FEF0895CF92DF92EF92B2
:1025A000FF921F93CF93DF9300D01F92CDB7DEB77A
:1025B0007C010E94981D182F8DEF810F823028F525
:1025C00088E2C82ED12C2091A10330E0C9010196E8
:1025D000B6010E94C7319091A203981305C086E905
:1025E00090E00E941F2DEFCF9AE0929FF001939F01
:1025F000F00D1124EF5EFD4F91E09083F482E382B1
:102600008093A103143019F026C0123021F584E024
:102610008983FB82EA8282E08093E9008FEF9091C8
:10262000E800815095FD06C09AE69A95F1F700C042
:102630008111F5CF8091E80085FF0DC040E050E0AA
:1026400063E070E0CE0101960E94922A8091E8003A
:102650008E778093E8000F900F900F90DF91CF91CD
:102660001F91FF90EF90DF90CF900895CF93DF936D
:10267000CDB7DEB7C059D1090FB6F894DEBF0FBE93
:10268000CDBF84B7877F84BF0FB6F894A89580919B
:102690006000886180936000109260000FBE80E847
:1026A000809361001092610085B7806885BF85B70F
:1026B000806885BF0E94BC1B0E94DB1B8091E200EA
:1026C00084608093E2008AE692E1909343018093D4
:1026D00042017894809181018823A1F01091E90052
:1026E0001F709091EC00892F817090FD80E8182B6D
:1026F0001092E9008091E80083FD0E94A3181F70EA
:102700001093E90082E084BD93E095BD9DE797BDFD
:1027100080936E00A2E1B1E041E050E026E02A0F94
:102720008D91E82FE295EF70F0E031A18F70BA0142
:1027300002C0660F771F8A95E2F7CB01962F90951E
:10274000932391A392A1892B82A32A13E9CFA8E115
:10275000B1E041E050E028E02A0F8D91E82FE295AA
:10276000EF70F0E031A18F70BA0102C0660F771FE1
:102770008A95E2F7CB01962F9095932391A392A18E
:10278000892B82A32A13E9CFACE5B1E0E6E5F1E0BD
:1027900026E02E0FC157DF4F2883CF58D04011922B
:1027A0001D92C157DF4F3881CF58D0403E13F7CF2D
:1027B00080E090E00E944A318D3E9E4F11F00E94D1
:1027C0000F2380E090E00E944A318D3E9E4F11F031
:1027D0000E940F2382E090E00E94423180930A021F
:1027E00084E090E00E94423190E090935001809309
:1027F0004F0183E090E00E944231682F70E080E05A
:1028000090E00E948E2782E091E0909352018093A5
:10281000510188EA94E00E94AA08EE24E394F12C86
:1028200071EE472E73E0572EE9ED6E2EE3E07E2E1B
:1028300066E571E0C357DF4F79836883CD58D04098
:1028400062E171E0A12CC357DF4FC880D980CD5819
:10285000D040D6013C901C92FB018191BF01E82F32
:10286000E295EF70F0E021A18F70A70102C0440F44
:10287000551F8A95E2F7CA01242B21A322A1B42E69
:10288000B0942B2122A350E55A95F1F708E111E00D
:1028900040E050E0D8019D908D01292D22952F70A8
:1028A00030E0D90190962C91C357DF4FA881B981B0
:1028B000CD58D0408C9030E0B92DBF7002C0359516
:1028C0002795BA95E2F720FD07C02E2D042E01C0F2
:1028D000220F0A94EAF701C020E0822AC357DF4F93
:1028E000A881B981CD58D0408C924F5F5F4F48305E
:1028F000510581F691A1B922B1A292A1892B82A39F
:102900001196C357DF4FB983A883CD58D04081E0DB
:10291000F6019081391201C080E0A82AC157DF4F2B
:102920002881CF58D040C357DF4F3881CD58D04091
:10293000231389CFAA2049F081E0809355010E949A
:1029400083219093540180935301809155018823F2
:1029500011F180915301909154010E9459210697E1
:10296000D0F08091560180935C0180915701809353
:102970005D018091580180935E018091590180939F
:102980005F0180915A018093600180915B01809387
:102990006101109255015CE6A52E51E0B52E4CE583
:1029A00051E0C357DF4F59834883CD58D04000E0F2
:1029B00010E0C057DF4F0883C059D040C357DF4FE6
:1029C000A881B981CD58D0403D90C357DF4FB9831E
:1029D000A883CD58D040F50121905F012324B1F5A3
:1029E0000F5F1F4F0630110521F78FEFCA57DF4FDA
:1029F0008883C658D040C957DF4F8883C758D04016
:102A0000C857DF4F1882C858D0400E948321816088
:102A1000782FC757DF4F99838883C958D040CA574A
:102A2000DF4F4881C658D040C957DF4F5881C7583B
:102A3000D040C857DF4F6881C858D040C657DF4FD5
:102A40008881CA58D0400E94520A9FC080910A02D1
:102A500081FD05C080E090E0222D30E045C086EE8B
:102A600093E00E94AA084CE5842E41E0942EC12CEC
:102A7000D12CDF92CF925F924F920E9443098EED4C
:102A800093E00E94AA08D4019D914D019295892F4F
:102A90008C7C482F469546959373B4E09B9FC0016C
:102AA0001124842B982F9A7A96958575880F892BF7
:102AB0001F928F937F926F920E94430987ED93E05C
:102AC0000E94AA08EFEFCE1ADE0A0FB6F894DEBF16
:102AD0000FBECDBF36E0C316D10459F6BBCF019669
:102AE0008830910509F47CCFA901082E02C05595C4
:102AF00047950A94E2F740FFF2CFCF57DF4F888324
:102B0000C158D040C057DF4F4881C059D040CE5740
:102B1000DF4F4883C258D040670102C0CC0CDD1C97
:102B20008A95E2F7832D90E08C219D2121E0892B6D
:102B300009F420E0CD57DF4F2883C358D0400E94CE
:102B400083218160782FCC57DF4F99838883C458C5
:102B5000D040CF57DF4F4881C158D040CE57DF4FCC
:102B60005881C258D040CD57DF4F6881C358D040FC
:102B7000CB57DF4F8881C558D0400E94520AF801D8
:102B8000E459FE4F8081C826C082809169019091EE
:102B90006A010E945921AC0190916801992321F0AA
:102BA0002091010130E006C0209100016AE0269FDB
:102BB000900111244217530708F478C080916401F2
:102BC0001091650181110BC01111AEC120916601F8
:102BD0002111AAC1209167012111A6C167C09F3FA1
:102BE00019F09F5F90936801181624F40E945E20EC
:102BF000809364018091640187FF05C00E945E207C
:102C0000819580936401111624F40E945E208093C4
:102C100065018091650187FF05C00E945E20819556
:102C200080936501309164013323E1F020916501C7
:102C30002223C1F075EB3703C0011124892F990FAE
:102C4000990B009709F481E08093640135EB23032D
:102C5000C0011124892F990F990B009709F481E085
:102C60008093650180916601181624F40E94252046
:102C7000809366018091660187FF05C00E94252030
:102C800081958093660180916701181624F40E9453
:102C90002520809367018091670187FF05C00E940E
:102CA00025208195809367010E942C2210916B0151
:102CB0000E94130B181739F10E94130B182F8093E1
:102CC0006B0180910A0282FF1EC080FF04C08CEF5E
:102CD00093E00E94AA0880910A0280FF0CC01F9214
:102CE0001F9387EF93E09F938F930E9443090F9068
:102CF0000F900F900F9080910A0280FF04C085EF23
:102D000093E00E94AA0880910002811186C0809100
:102D1000FF01811132C01092FF0110920002109247
:102D2000FE016E987698249A2C9A80E58093FC0197
:102D300091E09093FD012FB7F894289A209A8CB5D2
:102D400080618CBD8CB580648CBD219A229A2FBF86
:102D5000549A5C9A5C98AFE1BEE41197F1F700C019
:102D600000005C9ABFEFE9E6F8E1B150E040F040C6
:102D7000E1F700C000009093FF01109200020BE207
:102D800014E09E012F5F3F4F690142E050E0B8011F
:102D9000CE0185579F4F0E94183140E850E0B601A0
:102DA000C557DF4F88819981CB58D0400E94DE2CD7
:102DB00081111FC080910A0280FF2AC0DF92CF924A
:102DC000C457DF4F8881CC58D0408F93C557DF4F11
:102DD0008881CB58D0408F938FE094E09F938F935E
:102DE0000E9443090F900F900F900F900F900F903B
:102DF0000FC00E5F1F4F34E00733130731F681E039
:102E0000809300020E94832190930902809308021C
:102E100080910002882309F40BCD81E00E94D22A20
:102E20008AE090E00E941F2D809108029091090293
:102E30000E945921893E934008F443C080910102C9
:102E4000811117C040E350E0BE016F5F7F4F85E9FD
:102E500094E00E94DE2C882349F040E350E0BE015C
:102E60006F5F7F4F82E894E00E94DE2C81E08093C8
:102E700001020E948321909309028093080240E39B
:102E800050E0BE016F5F7F4F84E794E00E94DE2C2C
:102E90008823B9F0CE0101960E94FA3011E0892B07
:102EA00009F410E08091FE01181759F0112319F070
:102EB00082E594E002C087E394E00E94AA081093A0
:102EC000FE0180910202909103020E9459218131FA
:102ED000974208F4ADCC90910F02809110029813A4
:102EE000A7CC0E948321909303028093020240E3C7
:102EF00050E0BE016F5F7F4F8AE694E00E94DE2CB7
:102F0000882309F495CCCE0101960E94FA30092E4F
:102F1000000CAA0BBB0B8093040290930502A093B4
:102F20000602B093070284CC9F3F09F05ACE62CECE
:102F30008091830187FF11C08091E80082FD05C068
:102F4000809181018111F8CF11C08091E8008B77C9
:102F50000BC080918101882349F08091E80080FFB7
:102F6000F8CF8091E8008E778093E8000895982F3D
:102F7000973058F59093E900981739F07091EC006C
:102F80002091ED005091F00003C0242F762F50E0E7
:102F900021FF19C03091EB003E7F3093EB00309160
:102FA000ED003D7F3093ED003091EB0031603093C8
:102FB000EB007093EC002093ED005093F000209113
:102FC000EE0027FF07C09F5FD3CF8F708093E9008B
:102FD00081E0089580E008952091890130918A016F
:102FE0002617370748F06115710539F42091E8007C
:102FF0002E772093E80001C0B90140E0611571050A
:10300000A9F120918101222309F443C0253009F45C
:1030100042C02091E80023FD40C02091E80022FD3D
:1030200032C02091E80020FFE9CF4091F3002091C9
:10303000F20030E0342BFC01CF016115710559F02D
:103040002830310540F481918093F100615071097D
:103050002F5F3F4FF1CF41E02830310509F040E0CC
:103060002091E8002E772093E800C8CF4111C9CF06
:103070000AC080918101882361F0853061F08091E0
:10308000E80083FD0AC08091E80082FFF2CF80E073
:10309000089582E0089583E0089581E00895EF9215
:1030A000FF920F931F93CF93DF93EC018B018091DD
:1030B000FC018CBD8091FD018DBD2C980E94832167
:1030C0007C0188818EBD00000DB407FEFDCF8EB55A
:1030D0008E3FB9F42C9A22E42A95F1F700C02C987F
:1030E000C7010E9459218017910758F380E001C061
:1030F00081E02C9ADF91CF911F910F91FF90EF907B
:103100000895FE0131968B818F778D5F9F01280F87
:10311000311DC901E817F90758F721912EBD0DB4EB
:1031200007FEFDCFF7CF662369F0FC01860F911DE6
:10313000E817F90738F41EBC0DB407FEFDCF2EB515
:103140002193F6CF08951F93CF93DF93CDB7DEB7CA
:10315000AA970FB6F894DEBF0FBECDBFE3E8F1E04B
:1031600088E08E0F9091F10091938E13FBCF8091A8
:103170008401833009F460C030F4813071F0823012
:1031800009F49AC0B1C08A3009F486C08B3009F4C2
:103190006BC0893009F0A8C020C080918301813ABA
:1031A00009F0A2C08091E800877F8093E8008091B9
:1031B000870190918801892B21F468E087E791E0ED
:1031C00003C060E080E090E070E00E94EC17809126
:1031D000E8008B778093E80087C08091830181327B
:1031E00009F082C08091870190918801029708F0D0
:1031F0007BC08091E800877F8093E8008091E800A1
:1032000082FD05C0809181018111F8CF6DC02091B0
:10321000F3008091F20090E0922B029729F48091C4
:10322000F1008B7F813021F48091F1008093760151
:103230008091E8008B7754C080918301813A09F036
:1032400053C08091870190918801892B09F04CC06F
:103250008091E800877F8093E8008091E80080FFFC
:10326000FCCF80910D0137C0809183018132E1F55F
:103270008091870190918801892BB1F58091E800B8
:10328000877F8093E8000E94981780918501809342
:103290000D010E94BB2928C080918301813221F554
:1032A0008091E800877F8093E8000E9498178091C2
:1032B00086018093750118C080918301813AA1F441
:1032C0008091E800877F8093E8008091E80080FF8C
:1032D000FCCF809175018093F1008091E8008E779A
:1032E0008093E8000E9498178091E80083FFE2C174
:1032F0008091830190918401492F50E04A3051051B
:1033000008F0D8C1FA01E757FF4F0C94DB31803841
:1033100021F0823809F0CEC108C080917F019091E0
:103320008001992389F082600FC0809187018F709E
:10333000873008F0BFC18093E9008091EB0085FBE6
:10334000882780F91092E9009091E800977F909388
:10335000E8008093F1001092F1007FC1282F2D7FAB
:1033600009F0A8C1882319F0823061F0A3C18091CF
:103370008501813009F09EC1933009F080E080938F
:1033800080012EC08091850181112AC08091870122
:103390008F702FEF280F263008F08CC18093E90042
:1033A0002091EB0020FF1CC0933021F48091EB00B2
:1033B000806214C09091EB0090619093EB0021E04B
:1033C00030E0A90102C0440F551F8A95E2F74093EF
:1033D000EA001092EA008091EB0088608093EB0095
:1033E0001092E9008091E800877F8093E8000E94B6
:1033F000981760C181115EC1109185011F7780917E
:10340000E3008078812B8093E3008091E800877F40
:103410008093E8000E9498178091E80080FFFCCF1D
:103420008091E30080688093E300111102C082E084
:1034300001C083E0809381013DC18058823008F053
:1034400039C120918501309186012C3D53E035072B
:1034500079F583E08A838AE289834FB7F894DE01A5
:10346000139620E03EE051E2E32FF0E05093570046
:10347000E49120FF03C0E295EF703F5FEF708E2F65
:1034800090E0EA3010F0C79601C0C0968D939D93EE
:103490002F5F243149F74FBF8091E800877F8093E9
:1034A000E8006AE270E0CE0101960E94EC17C4C009
:1034B0008091870190918801432F55274330510512
:1034C000B9F06CF44130510509F403C142305105A3
:1034D00009F0F0C08BE590E0E4EBF5E05BC0413231
:1034E000510509F434C04232510509F43FC0E2C02D
:1034F000C901992781309105D1F05CF4892B09F03D
:10350000D9C0EBE5F6E0E4918E2F90E0EBE5F6E034
:103510003EC08230910599F0039709F0CBC0E1E2FB
:10352000F6E0E4918E2F90E0E1E2F6E030C0EBE4CB
:10353000F6E0E4918E2F90E0EBE4F6E028C0E7E2BD
:10354000F6E0E4918E2F90E0E7E2F6E020C08330D1
:10355000910508F0AFC0880F991FFC01E75DFE4F91
:103560000190F081E02D89E090E014C08330910556
:1035700008F0A0C0FC01EE0FFF1FED5DFE4F0190B3
:10358000F081E02DDC01A05EBE4F8C9190E00097B1
:1035900009F490C02091E800277F2093E800209153
:1035A000890130918A012817390708F4C90140E0E0
:1035B000009789F120918101222309F43DC0253033
:1035C000D9F12091E80023FD37C02091E80022FDC9
:1035D0002FC02091E80020FFEBCF4091F300209115
:1035E000F20030E0342B009759F02830310540F4D8
:1035F00044914093F100319601972F5F3F4FF3CFF5
:1036000041E02830310509F040E02091E8002E77B4
:103610002093E800CDCF4111CDCF0AC08091810128
:10362000882351F0853041F08091E80083FD04C08B
:103630008091E80082FFF2CF8091E8008B77809341
:10364000E80038C08038B1F58091E800877F80932A
:10365000E800809182018093F1008091E8008E77EC
:10366000C4CE811127C010918501123018F58091C8
:10367000E800877F8093E800109382010E949817EA
:10368000111106C08091E30087FD02C081E001C0F6
:1036900084E08093810142E061EC81E00E94B717F1
:1036A00042E261EC82E00E94B71742E261EC83E003
:1036B0000E94B7178091E80083FF10C08091E80056
:1036C000877F8093E8008091EB0080628093EB001D
:1036D00005C082E190E0EFE0F6E05CCFAA960FB67D
:1036E000F894DEBF0FBECDBFDF91CF911F9108953B
:1036F0001F920F920FB60F9211242F933F934F9367
:103700005F936F937F938F939F93AF93BF93CF9369
:10371000DF93EF93FF93C091E900CF708091EC00AD
:10372000D82FD17080FDD0E81092E9008091F00090
:10373000877F8093F00078940E94A3181092E9008C
:103740008091F00088608093F000CD2BCF70C09303
:10375000E900FF91EF91DF91CF91BF91AF919F91E0
:103760008F917F916F915F914F913F912F910F902A
:103770000FBE0F901F901895E8EDF0E080818E7FCE
:1037800080831092E2001092DA001092E100A0EE25
:10379000B0E08C9181608C9380818F77808319BC9D
:1037A000A7EDB0E08C918E7F8C9380818F7E80839B
:1037B000109274010895CF92DF92EF92FF920F93CF
:1037C0001F93CF93DF93C8EDD0E088818F7E8883ED
:1037D000E7EDF0E080818160808384E082BF81E05A
:1037E0008093740188818E7F888302EE10E0F80157
:1037F00010821092DA0081EEC82ED12CF6011082D0
:1038000088818F77888388818068888388818F7D8D
:10381000888319BC1092810110928201109280015C
:1038200010927F0190EEE92EF12CF70180818B7FC1
:10383000808388818160888342E060E080E00E942C
:10384000B717F60180818E7F8083F80180818160C7
:103850008083808188608083F70180818E7F808370
:10386000888180618883DF91CF911F910F91FF90B4
:10387000EF90DF90CF9008951F920F920FB60F92A6
:1038800011242F933F934F935F936F937F938F9365
:103890009F93AF93BF93EF93FF938091E10082FFDB
:1038A00049C08091E20082FF45C08091E1008B7F9A
:1038B0008093E100209173012F5F822F62E30E94C9
:1038C000BB31992319F02093730134C01092730116
:1038D00080917201882371F180918101843041F5DA
:1038E0008091E9008F702091EC00922F917020FD63
:1038F00090E8892B93E09093E9009091EB0090FF82
:1039000014C09091EE0097FF10C09091E80095FFD1
:1039100003C01092F100F9CF9091E80090FF05C02C
:103920009091E8009E779093E8008F708093E90073
:10393000109272018091DA0080FF30C08091D8002F
:1039400080FF2CC08091DA008E7F8093DA00809116
:10395000D90019BC80FF1AC082E089BD09B400FEFD
:10396000FDCF81E08093810180EA95E00E94AA0862
:1039700080917401811112C00E94BC1B0E94DB1B4C
:103980008091E20084608093E20008C0109281017F
:1039900084EA95E00E94AA08109274018091E100E7
:1039A00080FF1BC08091E20080FF17C08091E20081
:1039B0008E7F8093E2008091E20080618093E2003C
:1039C0008091D80080628093D80019BC85E08093F4
:1039D000810188EA95E00E94AA088091E10084FFB5
:1039E00035C08091E20084FF31C019BC82E089BDFE
:1039F00009B400FEFDCF8091D8008F7D8093D80060
:103A00008091E1008F7E8093E1008091E2008F7EC3
:103A10008093E2008091E20081608093E2008091D7
:103A20008201882311F084E007C08091E30087FDC4
:103A300002C081E001C083E0809381018CEA95E0BF
:103A40000E94AA080E94BB290E94130B8091E100EA
:103A500083FF2BC08091E20083FF27C08091E100AB
:103A6000877F8093E10082E0809381011092820140
:103A70008091E1008E7F8093E1008091E2008E7F53
:103A80008093E2008091E20080618093E20042E056
:103A900060E080E00E94B7178091F000886080931A
:103AA000F00080EB95E00E94AA08FF91EF91BF9192
:103AB000AF919F918F917F916F915F914F913F91C6
:103AC0002F910F900FBE0F901F9018952091E4003A
:103AD0003091E50095E64091EC00842F817040FF25
:103AE00022C08091E80080FD1CC080918101882364
:103AF00091F0853091F08091EB0085FD10C04091F0
:103B0000E4005091E5004217530729F39A019150C0
:103B100011F784E0089582E0089583E0089581E03C
:103B2000089580E008954091E80042FFDECF0895B7
:103B300080910C01811107C080918101843011F0C6
:103B400083E0089582E00895809176010895CF93EF
:103B5000DF9300D01F92CDB7DEB7209181012430D2
:103B600031F523E02983805891099B838A8382E081
:103B70008093E9008FEF9091E800815095FD06C099
:103B80009AE69A95F1F700C08111F5CF8091E8008F
:103B900085FF0DC040E050E063E070E0CE0101968B
:103BA0000E94922A8091E8008E778093E8000F901F
:103BB0000F900F90DF91CF910895AF92BF92CF9267
:103BC000DF92EF92FF920F931F93CF93DF93EC015D
:103BD0000E94981D182F8DEF810F823068F50981A2
:103BE000FD80EC80BB80AA8088E2C82ED12C209179
:103BF000A10330E0C9010196B6010E94C73190913E
:103C0000A203981305C086E990E00E941F2DEFCF14
:103C10009AE0929FF001939FF00D1124EF5EFD4F0B
:103C200092E09083A382B482E582F6820783809338
:103C3000A103143019F021C01230F9F482E080930E
:103C4000E9008FEF9091E800815095FD06C09AE65B
:103C50009A95F1F700C08111F5CF8091E80085FFBA
:103C60000CC040E050E066E070E0CE010E94922A75
:103C70008091E8008E778093E800DF91CF911F91CB
:103C80000F91FF90EF90DF90CF90BF90AF9008958D
:103C9000CF93C82F1F928F938CE19EE09F938F93B9
:103CA0000E94430981E090E0A0E0B0E0BC01CD01BA
:103CB00004C0660F771F881F991FCA95D2F70E940C
:103CC0008E270F900F900F900F90CF910C94BB29DF
:103CD00081E29DE00E94AA081F9281E08F931F92CB
:103CE00085E08F9383ED9CE09F938F930E9443091F
:103CF0000F900F900F900F900F900F9008958330BA
:103D000081F128F4813059F08230D1F00895853066
:103D100009F449C0B8F1863009F456C0089580917D
:103D20000001681720F4861B8093000102C01092E6
:103D30000001809100011F928F9384EC9CE054C09D
:103D400080910101681720F4861B8093010102C055
:103D500010920101809101011F928F9382EB9CE0F0
:103D600043C080911101681720F4861B80931101D4
:103D700002C010921101809111011F928F938FE95F
:103D80009CE032C080911001681720F4861B80935C
:103D9000100102C010921001809110011F928F93A8
:103DA0008AE89CE021C080910F01681720F4861BEF
:103DB00080930F0102C010920F0180910F011F929A
:103DC0008F9381E79CE010C080910E01681720F46A
:103DD000861B80930E0102C010920E0180910E018D
:103DE0001F928F9386E59CE09F938F930E944309D7
:103DF0000F900F900F900F9008958330E9F128F401
:103E0000813061F0823009F10895853009F462C093
:103E100008F449C0863009F474C008958091000107
:103E2000262F30E0280F311D2F3F310524F4680F75
:103E30006093000103C08FEF809300018091000127
:103E40001F928F9387E49CE072C080910101262F1E
:103E500030E0280F311D2F3F310524F4680F6093A7
:103E6000010103C08FEF80930101809101011F9236
:103E70008F9385E39CE05BC080911101262F30E099
:103E8000280F311D2F3F310524F4680F6093110175
:103E900003C08FEF80931101809111011F928F93C6
:103EA00082E29CE044C080911001262F30E0280F70
:103EB000311D2F3F310524F4680F6093100103C0BA
:103EC0008FEF80931001809110011F928F938DE0EE
:103ED0009CE02DC080910F01262F30E0280F311D6E
:103EE0002F3F310524F4680F60930F0103C08FEF5B
:103EF00080930F0180910F011F928F9384EF9BE0BD
:103F000016C080910E01262F30E0280F311D2F3F63
:103F1000310524F4680F60930E0103C08FEF809386
:103F20000E0180910E011F928F9389ED9BE09F936C
:103F30008F930E9443090F900F900F900F90089558
:103F4000803F39F48091650187FF6CC01092650154
:103F500069C0813F29F4809165011816BCF362C0E5
:103F600090916401823F29F497FF5CC01092640134
:103F700059C0833F19F41916CCF354C0893F41F45A
:103F80008091660118160CF04DC0109266014AC06F
:103F90008A3F29F48091660187FF44C0F6CF8B3FAA
:103FA00039F48091670187FF3DC0109267013AC0E4
:103FB0008C3F29F4809167011816BCF333C0843F0D
:103FC00021F4809163018E7F17C0853F21F4809199
:103FD00063018D7F11C0863F21F4809163018B7F47
:103FE0000BC0873F21F480916301877F05C0883F24
:103FF00031F4809163018F7E8093630113C08D3F04
:1040000021F480918F018E7F0BC08E3F21F480912F
:104010008F018D7F05C08F3F29F480918F018B7FA9
:1040200080938F018091640181110EC080916501A0
:1040300081110AC080916601811106C080916701DB
:10404000811102C010926801089580918F0180FF54
:1040500008C060910F0170E075956795759567953B
:1040600021C081FF06C060910F0170E075956795D2
:1040700019C082FF04C060910F0170E010C09091E0
:1040800068019923C1F060910E019617A0F7809105
:104090000F01899FC001112470E00E94C731603870
:1040A000710528F46115710521F0862F08958FE7B9
:1040B000089581E0089561E070E0F4CF80918F0170
:1040C00080FF0BC06091110185E0689FB001112451
:1040D00075956795759567952BC081FF09C06091AF
:1040E000110185E0689FB00111247595679520C086
:1040F00082FF07C06091110185E0689FB001112423
:1041000017C0909168019923D1F060911001961722
:1041100088F72091110185E0289F90011124929F3A
:10412000A001939F500D112470E0CA010E94C73175
:104130006038710540F46115710539F002C065E021
:1041400070E0862F08958FE7089581E00895803FFD
:1041500021F40E945E20819504C0813F29F40E94D1
:104160005E20809365010895823F21F40E945E20C5
:10417000819504C0833F29F40E945E2080936401EE
:104180000895893F19F40E94252005C08A3F31F423
:104190000E94252081958093660108958B3F21F42C
:1041A0000E942520819504C08C3F29F40E9425207F
:1041B000809367010895843F21F4809163018160B9
:1041C00017C0853F21F480916301826011C0863F52
:1041D00021F48091630184600BC0873F21F48091BA
:1041E0006301886005C0883F31F48091630180617C
:1041F0008093630108958D3F21F480918F01816048
:104200000BC08E3F21F480918F01826005C08F3FEB
:1042100029F480918F01846080938F01089581E05B
:104220008093E00080E28093D8001092C9008FE074
:1042300097E20197F1F700C0000087E090EBDC0106
:104240008093A4039093A503A093A603B093A70320
:104250009CE088E10FB6F894A895809360000FBEAB
:1042600090936000FFCF78941F920F920FB60F9239
:1042700011248F939F93AF93BF938091900190915E
:104280009101A0919201B09193010196A11DB11DE0
:104290008093900190939101A0939201B093930128
:1042A000BF91AF919F918F910F900FBE0F901F9074
:1042B0001895CF92DF92EF92FF920F931F932FB733
:1042C000F894409190015091910160919201709108
:1042D00093012FBF6A017B01EE24FF248C0120E0B3
:1042E00030E0C016D106E206F30610F44150510941
:1042F0009A01281B390BC9011F910F91FF90EF9074
:10430000DF90CF9008952FB7F8948091900190910D
:104310009101A0919201B09193012FBF08958F92C6
:104320009F92AF92BF92CF92DF92EF92FF920F9344
:104330001F93CF93DF93EC010E94981D182F8DEFF0
:10434000810F823008F041C008810E9483217C01E6
:1043500040E088E2C82ED12C8A809B80AC80BD8052
:10436000FE81EF812091A10330E0C9010196B601E1
:104370000E94C7319091A203981709F450C09AE0A7
:10438000929FD001939FB00D1124AF5EBD4F1C9240
:104390001296FC92EE92119713960C931397149623
:1043A0008C92149715969C9215971696AC92169728
:1043B0001796BC9217971896FC9318971996EC933A
:1043C0008093A103143019F03AC01230C1F581E096
:1043D0008093E9008FEF9091E800815095FD06C031
:1043E0009AE69A95F1F700C08111F5CF8091E80027
:1043F00085FF25C040E050E068E070E0CE010E94FB
:10440000922A8091E8008E778093E80088E0FE0190
:10441000A7E7B1E001900D928A95E1F710C0411134
:1044200008C080910A0280FF04C081E29EE00E94E1
:10443000AA0886E990E00E941F2D41E08DCFDF9110
:10444000CF911F910F91FF90EF90DF90CF90BF9091
:10445000AF909F908F90089580910A0283FF7EC055
:1044600086E896E00E94AA08809163011F928F93CC
:1044700081E896E09F938F930E9443098FE796E02F
:104480000E94AA0880916401282F082E000C330B8B
:104490003F938F938CE796E09F938F930E944309FD
:1044A0008AE796E00E94AA0880916501282F082ECD
:1044B000000C330B3F938F9387E796E09F938F9386
:1044C0000E94430985E796E00E94AA088091660150
:1044D000282F082E000C330B3F938F9382E796E032
:1044E0009F938F930E94430980E796E00E94AA0859
:1044F00080916701282F082E000C330B3F938F9378
:104500008DE696E09F938F930E9443098AE696E09A
:104510000E94AA08809168011F928F9387E696E017
:104520009F938F930E94430985E696E00E94AA0814
:1045300080918F011F928F9382E696E09F938F93D5
:104540000E9443098FE596E00E94AA088DB79EB7A6
:104550004C960FB6F8949EBF0FBE8DBFE0915101EF
:10456000F0915201309749F082E08093620104801B
:10457000F581E02D82E691E009950E9483219093D8
:104580006A018093690108951F920F920FB60F92EE
:1045900011248F939F93AF93BF938091900190913B
:1045A0009101A0919201B09193014196A11DB11D7D
:1045B0008093900190939101A0939201B093930105
:1045C000BF91AF919F918F910F900FBE0F901F9051
:1045D0001895FC01329608962081261301C010829E
:1045E0003196E817F907C1F708959C01FC0132964E
:1045F0009FEF80E04191461789F09F3F19F44111E8
:1046000001C0982F8F5F8630A9F79F3F39F0F901DD
:10461000E90FF11D97FDFA956283089508956DEEF7
:104620007EEF80E090E00E946E3160E082E090E0FA
:104630000E94503160E083E090E00E94503110927F
:104640008B0110928C0110928D0110928E0160E00E
:1046500084E090E00E94503160E085E090E00E94AC
:10466000503160E086E090E00E9450316FEF87E0CB
:1046700090E00E94503140E050E0BA0188E090E0C4
:104680000E94623160E08DE090E00E94503140E095
:1046900050E0BA0188E190E00E94623160E087E179
:1046A00090E00E94503140E050E0BA018FE090E08D
:1046B0000E94623140E050E0BA0183E190E00C9446
:1046C0006231CF938B3109F4D5C108F06DC18B30C5
:1046D00009F48FC108F043C1863009F48DC120F47C
:1046E000853009F49BC152C2873009F4A8C18830D3
:1046F00009F04CC28EEC9BE00E94AA088CED97E07A
:104700000E94AA0883E090E00E9442311F928F939A
:1047100089ED97E09F938F930E94430987ED97E07F
:104720000E94AA0882E090E00E944231C82F84ECE7
:1047300097E00E94AA081F92CF938FEB97E09F9378
:104740008F930E9443098DEB97E00E94AA0883EBA8
:1047500097E00E94AA088C2F81701F928F9380EBA4
:1047600097E09F938F930E9443098EEA97E00E94FF
:10477000AA0884EA97E00E94AA08C1FB882780F96A
:104780001F928F9381EA97E09F938F930E94430932
:104790008FE997E00E94AA0883E997E00E94AA089F
:1047A000C2FB882780F91F928F9380E997E09F933F
:1047B0008F930E9443098EE897E00E94AA0885E83B
:1047C00097E00E94AA08C3FBCC27C0F91F92CF93A1
:1047D00082E897E09F938F930E94430980E897E0D7
:1047E0000E94AA0884E090E00E944231C82F8CE623
:1047F00097E00E94AA081F92CF9387E697E09F93C5
:104800008F930E94430985E697E00E94AA088CE4F2
:1048100097E00E94AA088C2F81701F928F9389E4E1
:1048200097E09F938F930E9443098DB79EB7809620
:104830000FB6F8949EBF0FBE8DBF87E497E00E942D
:10484000AA0880E397E00E94AA08C1FB882780F9A4
:104850001F928F938DE297E09F938F930E9443095D
:104860008BE297E00E94AA0889E197E00E94AA08DB
:10487000C2FB882780F91F928F9386E197E09F9370
:104880008F930E94430984E197E00E94AA0882E086
:1048900097E00E94AA08C3FB882780F91F928F9394
:1048A0008FEF96E09F938F930E9443098DEF96E0E0
:1048B0000E94AA0883EF96E00E94AA08C4FB8827FA
:1048C00080F91F928F9380EF96E09F938F930E94C1
:1048D00043098EEE96E00E94AA088CED96E00E94B5
:1048E000AA08C5FB882780F91F928F9389ED96E06F
:1048F0009F938F930E94430987ED96E00E94AA0838
:104900008BEB96E00E94AA08C6FB882780F91F92CD
:104910008F9388EB96E09F938F930E94430986EBD9
:1049200096E00E94AA088EEA96E00E94AA08C7FBB9
:10493000CC27C0F91F92CF938BEA96E09F938F9379
:104940000E94430989EA96E00E94AA088DB79EB7A3
:104950004C960FB6F8949EBF0FBE8DBF15C1803127
:1049600009F4B0C020F48E3009F498C00FC186312C
:1049700009F4C5C0893109F009C187EB9AE00E94AA
:10498000AA088EE99AE00E94AA088FE59AE00E94A0
:10499000AA088AE19AE00E94AA0884EE99E00E949F
:1049A000AA0886EB99E0A8C08A32E1F060F4873269
:1049B00009F4E7C028F48E3108F4E8C08D51E2C054
:1049C000893261F1E3C0833448F48A3308F0D7C0F8
:1049D000853309F4D6C0883361F0D8C0833409F434
:1049E000D0C0D4C08DEB9BE00E94AA080E940F2388
:1049F000CBC08CEE97E080C080910A02817F8E7FD1
:104A000080930A028FE899E00E94AA0889EB9BE054
:104A10000E94AA0881E080939401B6C00E94BB293D
:104A20008DE99BE00E94AA089FEF29E688E191505A
:104A300020408040E1F700C000000E940F218091DB
:104A40000A02C82FC095C170C0FB80F980930A028A
:104A5000CC2329F081E99BE00E94AA089CC084E84D
:104A60009BE00E94AA0880910A02897F877F809339
:104A70000A028AC090910A0291FBCC27C0F981E01A
:104A8000C827892FC0FB81F980930A02CC2319F033
:104A900087E79BE027C089E69BE02EC090910A0241
:104AA00092FBCC27C0F981E0C827892FC0FB82F98F
:104AB00080930A02CC2319F08AE59BE013C08AE4B4
:104AC0009BE01AC090910A0293FBCC27C0F981E0C9
:104AD000C827892FC0FB83F980930A02CC2351F0A9
:104AE0008EE39BE00E94AA0880910A028160809375
:104AF0000A0251C081E39BE00E94AA0845C081E2FE
:104B00009BE00E94AA080E94130B1F928F9387E0DC
:104B10009BE09F938F930E94430980910D011F9208
:104B20008F9380EF9AE09F938F930E944309809127
:104B300075011F928F938DED9AE09F938F930E9442
:104B400043092FB7F8948091900190919101A09121
:104B50009201B09193012FBFBF93AF939F938F9317
:104B600086EC9AE09F938F930E9443098DB79EB77E
:104B700042960FB6F8949EBF0FBE8DBF05C08953F5
:104B800001C080E00E94481EC1E005C08FE29BE0AA
:104B90000E94AA08C0E08C2FCF9108958091FB015C
:104BA00081111092FB010895FF920F931F93CF93F1
:104BB000DF939091F9018091FA01892B2091F801FE
:104BC000982F922B909395018091FB01882391F06F
:104BD000892B80939501E7E9F1E080E096E09E0F54
:104BE0009E1729F021912223D9F38F5FF9CF8111EC
:104BF0000E94CE25E0915101F09152013097B1F120
:104C00000280F381E02D85E991E0099580910A0207
:104C100082FF2CC080FF04C08DE39EE00E94AA08A2
:104C2000C5E9D1E007E31EE0FC2E88E0F80E809194
:104C30000A0280FF0BC088811F928F931F930F93EE
:104C40000E9443090F900F900F900F902196FC1235
:104C5000EECF80910A0280FF09C085E39EE0DF91DC
:104C6000CF911F910F91FF900C94AA08DF91CF91E3
:104C70001F910F91FF9008951092F9011092F80181
:104C80000E94D425E2E6F1E086E0DF011D928A95DC
:104C9000E9F71092680110928F010E942C2280E0A7
:104CA00090E00E94FD0A80E090E00C94E70ABF9239
:104CB000CF92DF92EF92FF920F931F93CF93DF93E8
:104CC0008C01C0908B01D0908C01E0908D01F09010
:104CD0008E018091F3019091F401A091F501B091C2
:104CE000F601C82AD92AEA2AFB2ACFE1D0E0D70167
:104CF000C6010C2E04C0B695A795979587950A9482
:104D0000D2F780FF07C0BC2EB8018C2F0E941F0B6A
:104D1000019719F4219758F7B12C8B2DDF91CF9182
:104D20001F910F91FF90EF90DF90CF90BF9008956B
:104D3000CF93DF93EC010E945726BE010E941F0B08
:104D4000DF91CF9108950E949826292F2F70929578
:104D50009F70E92FF0E03297EE30F105B8F4ED5690
:104D6000FF4F0C94DB31803F99F018F4803E70F4D3
:104D70000FC0843F59F40CC0803E50F0813F31F4A5
:104D800007C0822F869586958695089580E00895C0
:104D900081E0089528E0929F800D1124682F669588
:104DA00066956695982F977085E0689FB0011124ED
:104DB00040E050E080E0FA01E60FF71FEB52FE4FB3
:104DC000208130E0092E02C0369527950A94E2F73B
:104DD00021703327042E01C0220F0A94EAF7822B98
:104DE0004F5F5F4F4530510531F7089528E0929F9E
:104DF000800D1124A82FA695A695A695877051E041
:104E000001C0550F8A95EAF785E0A89FD0011124CB
:104E100020E030E070E0F901EA0FFB1FEB52FE4F9B
:104E20004081CB01022E02C0969587950A94E2F745
:104E300081709927819584278523842780832F5F1C
:104E40003F4F2530310539F708956093F301709392
:104E5000F4018093F5019093F6010C943C260F9396
:104E60001F9341E050E060E070E004C0440F551F24
:104E7000661F771F8A95D2F740955095609570957B
:104E80008091F3019091F401A091F501B091F601A8
:104E90008A019B01082319232A233B23C901B80156
:104EA0001F910F910C9425272091F7018095822363
:104EB0008093F701982F977079F430E0482F082EEF
:104EC000000C550B2417350739F085958595859588
:104ED0000E942F271092F70108950F931F9341E02E
:104EE00050E060E070E004C0440F551F661F771F5C
:104EF0008A95D2F78091F3019091F401A091F50188
:104F0000B091F6018A019B01082B192B2A2B3B2B10
:104F1000C901B8011F910F910C94252760938B0153
:104F200070938C0180938D0190938E010C943C269C
:104F30008091D4019091A301891719F08F5F877038
:104F4000FBCF08958091A20182958F7009F054C023
:104F500080919F01882309F44FC08091D401A091D2
:104F6000A30160919D0170919E014091A00150911B
:104F7000A101B6E08A1709F43FC090E04115510540
:104F8000C1F17F3F11F46F3FA1F1B89FF001B99FCC
:104F9000F00D1124EC55FE4F218172132AC020819F
:104FA000621327C02281211124C023813481241758
:104FB000350710F421503109241B350B283C3105ED
:104FC000C0F42091A2012F7020612093A20126E05D
:104FD000289FF001299FF00D1124E755FE4F808195
:104FE0008F70806180838DE991E00E94740D0C9434
:104FF000982701968770BECF0895BF92CF92DF9217
:10500000EF92FF920F931F93CF93DF93CDB7DEB74D
:1050100061970FB6F894DEBF0FBECDBF8C0185E05F
:10502000F801DE011D9601900D928A95E1F7D801F5
:105030003C9111962C9111971296EC901297139621
:10504000CD90DC90149750919D0160919E018091CC
:10505000A0019091A101009709F44FC16F3F19F48D
:105060005F3F09F44AC1B0909F01BB2009F4ECC036
:105070004091A201C816D90628F0F601E81BF90BE9
:10508000CF0104C0809590958C0D9D1DFF24F39455
:10509000883C910548F0F12C407F09F09FC08DE9D4
:1050A00091E00E94740D21C1842F807F09F044C0DB
:1050B000621312C0531310C0E1100EC04F70406154
:1050C0004093A2018DE991E00E94740D8091A201AC
:1050D000D80115968C932EC0CD2819F12F3F11F4CD
:1050E0003F3FF9F0FE2CE1101CC08091D4014091AB
:1050F000A30156E0841709F458C090E0589FF001CE
:10510000599FF00D1124EC55FE4F6181261306C006
:105110006081361303C06281611103C001968770FC
:10512000E9CFFE2CEE2009F415C18091A201816027
:105130008093A201F12C0EC162130AC0531308C060
:10514000E11006C08091A201D80115968C93B0C0E1
:105150003D872E878D859E850E94A3268823D1F1C9
:10516000EE20C1F12091A201822F82958F7090E0F4
:10517000029774F080919D0190919E0198878F8392
:105180001986DB86CA862C87CE0107960E94740D8D
:1051900086E0F801ADE9B1E001900D928A95E1F762
:1051A0000E94A227FF24F394D5C03D872E878D85CA
:1051B0009E850E949826292F22952F7030E022305C
:1051C00031050CF0BBC09F7009F0B5C0805E88301F
:1051D00008F4C0C0C8010E94740DE4CF621314C06B
:1051E000531312C0E11010C08091A201F801858311
:1051F000C8010E94740D86E0EDE9F1E0DF011D9227
:105200008A95E9F7FB2CA6C03D872E878D859E8564
:105210000E94A3268823F1F2EE20E1F22091A20160
:10522000822F82958F7090E002970CF4B1CF80911D
:105230009D0190919E019A8389831B82DD82CC829D
:105240002E83CE010196A2CFC816D90638F0C81A0F
:10525000D90AB8ECCB16D10450F007C080959095D0
:105260008C0D9D1D883C910510F0F12C3EC0FE2C4C
:10527000EE2009F4AFCF621327C0531325C020914D
:10528000A20120FD18C0822F82958F70482F50E018
:105290004115510581F0F80125834F30510541F04A
:1052A0008F5F982F9295907F822F8F70892B8583A7
:1052B000C8010E94740D86E0F801ADE9B1E00190EB
:1052C0000D928A95E1F746C03D872E878D859E8594
:1052D0000E94A32681115CCF8091A20181608093FE
:1052E000A201C8010E94740D35C0EDE9F1E086E02D
:1052F000DF011D928A95E9F72DC0EE2009F46ACFEF
:105300003D872E878D859E850E94A326F82E8823B3
:1053100009F460CF86E0F801ADE9B1E001900D92AB
:105320008A95E1F780919D0190919E010E949826B7
:105330000E94A2270FC0811149CF0CC02430310533
:105340000CF048CF9F7009F441CFF8019581907F10
:1053500009F03CCF8F2D61960FB6F894DEBF0FBEDB
:10536000CDBFDF91CF911F910F91FF90EF90DF9014
:10537000CF90BF9008951092FA0186E0E7E9F1E03E
:10538000DF011D928A95E9F70C943C26882341F0B1
:1053900080959091FA0189238093FA010C94D42589
:1053A0000895882339F09091FA01892B8093FA01AE
:1053B0000C94D4250895882309F463C0823869F4D5
:1053C0000E94130B81FF5DC069E385E991E00E94B3
:1053D000F5220E94D42569E30EC0833891F40E941F
:1053E000130B80FF4EC063E585E991E00E94F52232
:1053F0000E94D42563E585E991E00E94E9220C949E
:10540000D425843869F40E94130B82FF3AC067E404
:1054100085E991E00E94F5220E94D42567E4EBCF54
:105420009CEF980F913A10F4682FE5CF90E2980F17
:10543000983088F4877021E030E0A90102C0440F61
:10544000551F8A95E2F7CA0180959091FA01892348
:105450008093FA01D4CF9BE5980F933020F480E03D
:1054600090E00C94FD0A98E5980F973120F480E0C5
:1054700090E00C94E70A803F20F00E94A01F0C945B
:105480002C220895EF92FF920F931F93CF93DF93F7
:10549000EC017B010E9483218C0166990CC082E0A3
:1054A0008A95F1F700C0C8010E9459218E159F0509
:1054B000A0F380E030C08091FC018CBD8091FD01A3
:1054C0008DBD2C981EBC00000DB407FEFDCF9EB50F
:1054D00098839E5F923070F42C9A82E48A95F1F75B
:1054E00000C02C98C8010E9459218E159F0550F3C9
:1054F00080E010C063E0CE0101960E9493186B819A
:105500006F77862F90E0419724F4CE0104960E9495
:10551000931881E02C9ADF91CF911F910F91FF900A
:10552000EF900895CF92DF92FF920F931F93CF9346
:10553000DF931F92CDB7DEB7F82E8B0199830E94BF
:10554000661D998181111CC0CF2CD92E0115110522
:10555000B1F08091E80085FD0AC08091E8008E7767
:105560008093E8000E94661D882381F309C0F6013C
:1055700081916F018093F10001501109E7CF80E024
:105580000F90DF91CF911F910F91FF90DF90CF90FF
:1055900008951092A1031092A203EBE0F2E01482AE
:1055A00015820895DF92EF92FF920F931F93CF938E
:1055B000DF93CDB7DEB764970FB6F894DEBF0FBEAA
:1055C000CDBFE091100290910F02E91709F486C057
:1055D000D82EF0E0EE0FFF1FE55FFD4FE080F18079
:1055E000669B51C00EE71EE066E970E0CE010196B1
:1055F0000E94422A882309F471C08C8187FD31C042
:105600002091100280910F02281771F030E0F9010B
:10561000EE0FFF1FE55FFD4FE080F1802F5F3F4FF2
:10562000217033272093100280910A0280FF19C055
:105630000E9483218E159F0528F00E9483218E19D8
:105640009F0905C00E9483218E199F0901979F938E
:105650008F931F930F930E9443090F900F900F9009
:105660000F90DD20D9F1E091100280910F02E81730
:10567000A9F1F0E0EE0FFF1FE55FFD4FE080F18044
:105680006699B2CF2BC0C7010E9459218D3291403B
:1056900028F180910A0280FF15C080910F0290E0EE
:1056A00020911002821B910997FD8E5F1F928F93AC
:1056B0008FE49EE09F938F930E9443090F900F9079
:1056C0000F900F908091100290910F02891731F086
:1056D00090E00196817099278093100264960FB62E
:1056E000F894DEBF0FBECDBFDF91CF911F910F9118
:1056F000FF90EF90DF9008955F926F927F928F926C
:105700009F92AF92BF92CF92DF92EF92FF920F9350
:105710001F93CF93DF93CDB7DEB7A8970FB6F8945A
:10572000DEBF0FBECDBF6C017B015A01522EFC01C2
:1057300001900020E9F7CF0101973C01222381F07D
:1057400080910A0280FF0CC0DF92CF9282EC9FE032
:105750009F938F930E9443090F900F900F900F908B
:10576000E114F10411F180E04FE6842E4FE0942E15
:1057700020910F02909110022917A9F081110EC0FB
:1057800080910A0280FF0AC0DF92CF929F928F928F
:105790000E9443090F900F900F900F9081E00E949C
:1057A000D22A81E0E5CFF701108220E1922E3AE083
:1057B000832EA3014C195D09888D41315105DCF020
:1057C0009D8A1E8A8F8A807880618068888FF60122
:1057D000DE015996892D01900D928A95E1F7B80165
:1057E000CE0145960E944F18882309F49AC0F0E133
:1057F000CF0ED11CDECF80E18D8B1E8A8AE08F8B8D
:10580000842F8F77888F5527B601CE0149960E9445
:10581000F531B801CE0145960E944F18D82E882345
:1058200009F47FC0E114F10409F049C00E9483210A
:105830008C0120910F0230E0C901019681709927F7
:1058400040911002481304C080E00E94D22AF1CF98
:10585000220F331FF901E55FFD4F11830083809311
:105860000F020E9483219C018017910720F080176E
:10587000910731F48CC0801B910B019709F487C00C
:1058800080910A0280FBFF24F0F880FF80C020177F
:10589000310718F0201B310B04C000951095200F24
:1058A000311F3F932F9388EA9FE09F938F930E942D
:1058B00043090F900F900F900F90DF2C68C0AE0C33
:1058C000BF1C87016CE271E0CE0101960E94422A62
:1058D000811109C080910A0280FF23C082E99FE004
:1058E0000E94AA081EC08981803219F0F701108237
:1058F00018C08C818F778A2C801A881508F4882E1E
:10590000882051F0912CA401BE016B5F7F4FC8012C
:105910000E94F531080D191D8C8187FDD3CFF80148
:1059200006C0D12C34C08F0180818A3039F41082B6
:10593000F8013197EE16FF06B0F302C08D30B9F3CF
:105940006AE070E0C7010E940932009711F00196E9
:1059500001C0C7016FE87FE00E94213111E0892B6F
:1059600009F010E0511002C0111111C080910A021B
:1059700080FF0CC0FF92EF9283E89FE09F938F938C
:105980000E9443090F900F900F900F90D12E8D2DF4
:10599000A8960FB6F894DEBF0FBECDBFDF91CF91B2
:1059A0001F910F91FF90EF90DF90CF90BF90AF903D
:1059B0009F908F907F906F905F900895AF92BF926D
:1059C000CF92DF92EF92FF920F931F93CF93DF93CB
:1059D00000D0CDB7DEB78C015B01CDB6DEB6498312
:1059E0005A830E94313101962DB73EB7281B390BDF
:1059F0000FB6F8943EBF0FBE2DBF8DB79EB7019670
:105A00007C01B8010E942A3106E910E020E04981BA
:105A10005A81B501C7010E947C2B0FB6F894DEBEF7
:105A20000FBECDBE0F900F90DF91CF911F910F91C0
:105A3000FF90EF90DF90CF90BF90AF9008958F923E
:105A40009F92AF92BF92CF92DF92EF92FF920F930D
:105A50001F93CF93DF93CDB7DEB7CA57D1090FB6E7
:105A6000F894DEBF0FBECDBF30910F02209110021F
:105A7000321351C12091A2033091A103231709F4DD
:105A80004AC16C018AE0829F900111242F5E3D4F34
:105A9000F901DE01AF58BF4F01900D928A95E1F7F1
:105AA000F9019080E180F28015810681B780A084A1
:105AB00081840E9483219C019093090280930802B3
:105AC0008E159F0520F08E159F0529F41BC08E1999
:105AD0009F090197B9F080910A0280FF13C0C901A4
