:100000000C945D080C94AF080C94AF080C94AF08E6
:100010000C94AF080C94AF080C94AF080C94AF0884
:100020000C94AF080C94AF080C94D3170C940F17D2
:100030000C94D12F0C94AF080C94AF080C94AF081B
:100040000C94AF080C94AF080C94AF080C94AF0854
:100050000C94AF080C94752F0C94AF080C94AF0857
:100060000C94AF080C94AF080C94AF080C94AF0834
:100070000C94AF080C94AF080C94AF080C94AF0824
:100080000C94AF080C94AF080C94AF080C94AF0814
:100090000C94AF080C94AF080C94AF080C94AF0804
:1000A0000C94AF080C94AF080C94AF089C0F9C0FF5
:1000B000D70FD70F1C103C10091209127E1009121D
:1000C0006B116B1178117811781178117811781102
:1000D00078117811781178117811781178117811D8
:1000E000781178118711B011B511BC11D411D51246
:1000F000D712E212D912DB12DD12DF12E112E41282
:10010000E612E812F312EA12EC12EE12F012F212F8
:10011000F5121E154515F1164515F1169115B41574
:10012000F116B916C816F225F22505260526FB2577
:10013000052605260526F225F22500260526052694
:100140000026000000000000000000000000000089
:10015000000000000000000000000000000000009F
:10016000000000000000000000000000000000008F
:10017000000000000000000000000000000000007F
:10018000000000000000000000000000000000006F
:10019000000000000000000000000000000000005F
:1001A000000000000000000000000000000000004F
:1001B000000000000000000000000000000000003F
:1001C000000000000000000000000000000000002F
:1001D000000000000000000000000000000000001F
:1001E0000000000101010101010001010101000005
:1001F00000000000000000000000000001000100FD
:1002000001010101010101010101010101010101DE
:1002100001010101010101010101010101000000D1
:1002200001010000000000000000000000000000CC
:1002300000000000000000000000000000010101BB
:10024000010000000000000000002A2B2800000030
:100250000000000000000000000000000029000075
:1002600000002C1E3420212224342627252E362D52
:100270003738271E1F202122232425263333362EEC
:1002800037381F0405060708090A0B0C0D0E0F105E
:100290001112131415161718191A1B1C1D2F3130A3
:1002A000232D350405060708090A0B0C0D0E0F1047
:1002B0001112131415161718191A1B1C1D2F313083
:1002C000354C68747470733A2F2F716D6B2E666D98
:1002D0002F012800514D4B206973207468652062FE
:1002E000657374207468696E672065766572210095
:1002F00044454255473A2064697361626C65642ED7
:100300000A0044454255473A20656E61626C656457
:100310002E0A000631FF0974A1010975150026FF98
:10032000009520750881020976150026FF009520AA
:1003300075089102C005010902A10185020901A108
:10034000000509190129051500250195057501818B
:1003500002950175038101050109300931158125D7
:100360007F95027508810609381581257F950175ED
:10037000088106050C0A38021581257F950175084C
:100380008106C0C005010980A10185031601002670
:1003900003001A81002A8300751095018100C005B1
:1003A0000C0901A1018504160100269C021A010016
:1003B0002A9C02751095018100C005010906A10162
:1003C000050719E029E71500250195087501810247
:1003D0009501750881010508190129059505750123
:1003E00091029501750391010507190029FF150078
:1003F00026FF00950675088100C05B435D005B44E5
:100400005D005B535D005B575D005B525D00090260
:100410005B00030100A0FA090400000103010100D0
:100420000921110100012240000705810308000A8B
:10043000090401000103000000092111010001224B
:1004400085000705820320000A0904020002030058
:100450000000092111010001222200070583032069
:100460000001070503032000011201100100000034
:1004700008EDFE000001000102030104033000004A
:100480000022036300610063007400750073005F65
:1004900000730070006C00690074005F0062006C03
:1004A00000650000000E036B002D0061006F0074FA
:1004B000006100000004030904290A002575002FCB
:1004C000002575005D2800256400200025640020BB
:1004D0000025640020002564007C0025303258008F
:1004E0006D6F7573656B6579205B62746E7C7820C7
:1004F00079207620685D287265702F61636C293AD7
:10050000205B000A002575002E6E6B726F3A20008A
:100510000A002575002E737761705F6261636B73EB
:100520006C6173685F6261636B73706163653A20CD
:10053000000A002575002E737761705F677261761F
:10054000655F6573633A20000A002575002E6E6FA3
:100550005F6775693A20000A002575002E73776180
:10056000705F72616C745F726775693A20000A008F
:100570002575002E737761705F6C616C745F6C67BA
:1005800075693A20000A002575002E636170736C4E
:100590006F636B5F746F5F636F6E74726F6C3A2022
:1005A000000A002575002E737761705F636F6E74AB
:1005B000726F6C5F636170736C6F636B3A20000ADB
:1005C0000025303258006B65796D61705F636F6E26
:1005D0006669672E7261773A20000A002575002E41
:1005E0006D6F7573653A20000A002575002E6B65E6
:1005F00079626F6172643A20000A002575002E6DE1
:1006000061747269783A20000A002575002E656EC3
:1006100061626C653A20000A00253032580064653A
:100620006275675F636F6E6669672E7261773A20E5
:10063000000A0025750064656661756C745F6C6105
:100640007965723A20000A092D204D61676963209F
:100650002D0A443A094465627567204D65737361DC
:10066000676520546F67676C650A583A094D617475
:10067000726978204465627567204D6F6465205407
:100680006F67676C65202D2053686F77206B6579E5
:100690007072657373657320696E206D6174726921
:1006A0007820677269640A4B3A094B6579626F6119
:1006B000726420446562756720546F67676C6520BB
:1006C0002D2053686F77206B657970726573732086
:1006D0007265706F72740A4D3A09446562756720DD
:1006E0004D6F75736520546F67676C650A563A09DC
:1006F00056657273696F6E0A533A09537461747563
:10070000730A433A09416374697661746520436FE3
:100710006E736F6C65204D6F64650A46312D4631EE
:10072000303A0953776974636820746F204C61799B
:10073000657220302D392028463130203D204C3044
:10074000290A302D393A0953776974636820746F28
:10075000204C6179657220302D390A475241564547
:100760003A0953776974636820746F204C61796526
:100770007220302028616C7465726E617465290A7C
:10078000423A094A756D7020746F20426F6F746C25
:100790006F616465720A4553433A094A756D70206A
:1007A000746F20426F6F746C6F6164657220286192
:1007B0006C7465726E617465290A453A09507269F4
:1007C0006E7420454550524F4D2053657474696EC8
:1007D00067730A4253504143453A09436C6561725D
:1007E00020454550524F4D0A000A092D20436F6E97
:1007F000736F6C65202D0A4553432F713A0971754B
:1008000069740A6D3A096D6F7573656B65790A00D5
:100810004743433A20342E392E32204156522D4C34
:100820004942433A20312E382E3073766E2041569D
:10083000525F415243483A20617672350A004F5068
:1008400054494F4E533A204C55464120424F4F5445
:100850004D41474943204D4F5553454B4559204540
:10086000585452414B455920434F4E534F4C45200D
:10087000434F4D4D414E4420343039360A004255E5
:10088000494C443A2022627265616B706F696E74E4
:100890005F323031395F30385F33302E312E372DB3
:1008A000312D6733646432393022202832303A34B3
:1008B000343A3534204F63742033302032303139AC
:1008C000290A005649443A20307846454544286B69
:1008D0002D616F746129205049443A2030783030BE
:1008E0003030286361637475735F73706C69745F13
:1008F000626C6529205645523A20307830303031CC
:100900000A00444553433A204120637573746F6D68
:10091000206B6579626F6172640A000A092D2056A6
:10092000657273696F6E202D0A0074696D65725F60
:1009300072656164333228293A202530346C580AB4
:10094000006B6579626F6172645F69646C653A20FF
:1009500025580A006B6579626F6172645F70726F0F
:10096000746F636F6C3A2025580A00686F73745F68
:100970006B6579626F6172645F6C65647328293A94
:100980002025580A000A092D2053746174757320BC
:100990002D0A003F000A6D6F7573653A206F666619
:1009A0000A000A6D6F7573653A206F6E0A000A6B54
:1009B0006579626F6172643A206F66660A000A6B3D
:1009C0006579626F6172643A206F6E0A000A6D6128
:1009D000747269783A206F66660A000A6D617472F3
:1009E00069783A206F6E0A000A64656275673A207A
:1009F0006F66660A000A64656275673A206F6E0A60
:100A0000000A0A4A756D70696E6720746F20626F04
:100A10006F746C6F616465722E2E2E2000433E2031
:100A200000436C656172696E6720454550524F4DB9
:100A30000A006565636F6E6669673A0A006D6B5FF1
:100A4000776865656C5F74696D655F746F5F6D6114
:100A500078203D2025640A006D6B5F776865656CC2
:100A60005F6D61785F7370656564203D2025640A61
:100A7000006D6B5F74696D655F746F5F6D61782089
:100A80003D2025640A006D6B5F6D61785F73706552
:100A90006564203D2025640A006D6B5F696E746596
:100AA0007276616C203D2025640A006D6B5F646581
:100AB0006C6179203D2025640A006D6B5F77686565
:100AC000656C5F74696D655F746F5F6D6178203D03
:100AD0002025640A006D6B5F776865656C5F6D61EA
:100AE000785F7370656564203D2025640A006D6B36
:100AF0005F74696D655F746F5F6D6178203D20255F
:100B0000640A006D6B5F6D61785F7370656564206A
:100B10003D2025640A006D6B5F696E7465727661B5
:100B20006C203D2025640A006D6B5F64656C617903
:100B3000203D2025640A0077686572652064656C35
:100B400074613A20637572736F723D25642C20774F
:100B50006865656C3D25640A53656520687474702A
:100B60003A2F2F656E2E77696B6970656469612E07
:100B70006F72672F77696B692F4D6F7573655F6B48
:100B80006579730A000A092D204D6F7573656B65D1
:100B900079202D0A4553432F713A09717569740AFA
:100BA000313A0964656C6179282A31306D73290AFC
:100BB000323A09696E74657276616C286D73290A20
:100BC000333A096D61785F73706565640A343A0978
:100BD00074696D655F746F5F6D61780A353A097786
:100BE0006865656C5F6D61785F73706565640A3612
:100BF0003A09776865656C5F74696D655F746F5FEE
:100C00006D61780A0A703A097072696E74207661B3
:100C10006C7565730A643A0973657420646566616E
:100C2000756C74730A75703A092B310A646F776EAC
:100C30003A092D310A706775703A092B31300A7004
:100C400067646F776E3A092D31300A0A73706565F3
:100C500064203D2064656C7461202A206D61785F9A
:100C60007370656564202A20287265706561742040
:100C70002F2074696D655F746F5F6D6178290A005C
:100C80004C25640A007761697420666F7220627572
:100C9000662073706163650A0041545A0041542B09
:100CA000424C45504F5745524C4556454C3D2D31D1
:100CB000320041542B424C45484944454E3D310099
:100CC00041542B4741504445564E414D453D63618B
:100CD000637475735F73706C69745F626C650041F7
:100CE000542B474150494E54455256414C533D3187
:100CF000302C33302C2C004154453D3000646F6E55
:100D0000652E0A00626F6F746D616769632073639B
:100D1000616E3A202E2E2E20000A00253038620007
:100D20003A200025303258000A722F6320303132C9
:100D300033343536370A000A0025303258006B65E7
:100D400079626F6172645F7365745F6C65643A2089
:100D5000006661696C656420424C4520636F6D6D6F
:100D6000616E643A2025533A2025730A00F70CDFA0
:100D70000CC00CB20C9D0C990C2A2A2A2A2A2A2073
:100D8000424C4520444953434F4E4E454354212144
:100D900021210A002A2A2A2A2A2A20424C452043B5
:100DA0004F4E4E454354212121210A0041542B48E6
:100DB00057564241540041542B47415047455443F4
:100DC0004F4E4E0041542B4556454E54454E4142E0
:100DD0004C453D3078320041542B4556454E5445E4
:100DE0004E41424C453D307831004B6579626F6130
:100DF00072642073746172742E0A003F004D3E20AD
:100E000000433E20000A00257500363A20776865C9
:100E1000656C5F74696D655F746F5F6D61783A20B2
:100E2000000A00257500353A20776865656C5F6DAE
:100E300061785F73706565643A20000A002575006B
:100E4000343A2074696D655F746F5F6D61783A2024
:100E5000000A00257500333A206D61785F73706574
:100E600065643A20000A00257500323A20696E74E4
:100E7000657276616C286D73293A20000A00257529
:100E800000313A2064656C6179282A31306D73290C
:100E90003A20000A092D2056616C756573202D0AD1
:100EA000004D3E004D25643E20003F0073657420D8
:100EB00064656661756C740A00433E200077616961
:100EC00074696E675F666F725F726573756C743A92
:100ED0002074696D656F75742C20726573705F6224
:100EE00075662073697A652025640A0072656376E9
:100EF000206C6174656E63792025646D730A00410E
:100F0000542B424C454849444D4F55534542555446
:100F1000544F4E3D0041542B424C454849444D4F9F
:100F20005553454D4F56453D25642C25642C25646D
:100F30002C25640041542B424C45484944434F4EB4
:100F400054524F4C4B45593D307825303478004150
:100F5000542B424C454B4559424F415244434F4418
:100F6000453D253032782D30302D253032782D25F5
:100F70003032782D253032782D253032782D2530BD
:100F800032782D253032780073656E64206C617480
:100F9000656E63792025646D730A006661696C650E
:100FA0006420746F2073656E642C2077696C6C20EC
:100FB00072657472790A0073656E645F6275665F4C
:100FC00073656E645F6F6E653A2068617665202593
:100FD000642072656D61696E696E670A0077616988
:100FE00074206F6E2062756620666F722025730A0A
:100FF00000726573756C743A2025730A004F4B00BC
:10100000736465705F726563765F706B7420666190
:10101000696C65640A007761697465642025646D94
:101020007320666F7220726573705F6275660A0066
:10103000626C652073656E643A2025730A000A00AD
:101040002530325820006B6579626F6172645F727F
:1010500065706F72743A2000290029003A003B0045
:101060003C003D003E003F00E00035001E001F0038
:101070002000210022002300E0002B0014001A00B1
:101080000800150017001C00E000390004001600DD
:10109000070009000A002900E000E1001D001B0014
:1010A0000600190005002900E000E000E200E3006E
:1010B000E2002C002C0029004B2B11241FBECFEF87
:1010C000DAE0DEBFCDBF04B603FE27C08091A403E3
:1010D0009091A503A091A603B091A7038730904BF0
:1010E000A740B04BD1F41092A4031092A503109224
:1010F000A6031092A70314BE84B7877F84BF0FB6E0
:10110000F894A895809160008861809360001092A7
:1011100060000FBEE0E0F8E3099523E0A2E4B1E04F
:1011200001C01D92A43AB207E1F711E0A0E0B1E0DE
:10113000EAE4FCE602C005900D92A234B107D9F7AB
:1011400018E0CDE5D8E004C02197FE010E943C33B1
:10115000CC35D107C9F70E9422210C9423360C9478
:101160000000FF93EF93E0914201F091430130972B
:1011700009F00995EF91FF910895FC018591803068
:1011800011F0EFDFFBCF0895FF27E0E230E247FFE9
:101190000CC0419597FF09C0EDE260957095809570
:1011A0009095611D711D811D911D27FF02C0219524
:1011B00030E350E2AA27660F771F881F991FAA1FE6
:1011C000A41710F0A41B63955A95A9F7AA3008F04C
:1011D000A95FA05DAF93F395611571058105910538
:1011E00041F7ED3211F4EF93F395F21718F43F93B2
:1011F000F395FBCF8F91B5DFFA95E1F70895E9916B
:10120000F9918591803021F0853219F0AADFF9CF6C
:10121000089520E0E89455915532C1F3503311F40C
:10122000689455915A3348F4505390F3220F022E8C
:10123000220F220F200D250FF4CF0EF42195899156
:101240009991533619F3533729F1533559F1BC01AC
:1012500088279927E8945C3621F4899199916894BC
:101260005591543639F446EF7EF077FF0DC08FEF7D
:101270009FEF0AC055374AE039F0583540E121F078
:10128000523642E009F00895FF93EF937DDFEF912E
:10129000FF91B7CFFF93EF93FC0181918030B9F3B9
:1012A00060DFFBCFFF93EF9368DFF1CFDF93CF9346
:1012B000CDB7DEB72596A3DFCF91DF91089590914A
:1012C000770192FF0DC0282F2871283019F4877FED
:1012D000846006C0282F2471243011F48B7F88602D
:1012E00093FF0DC0282F2871283119F4877E84615F
:1012F00006C0282F2471243111F48B7E886194FD5F
:10130000877E0895FF920F931F93CF93DF93EC0195
:10131000FE012491222309F457C0CE010196213009
:1013200041F4EC01FC011491812F0E946928812F66
:1013300047C0223031F4EC01FC0184910E946928FD
:1013400041C0233021F4EC01FC01849139C030E02C
:10135000F901EE5BFD4F1491F901EE53FE4FE4915C
:1013600001E0E11101C000E0F901EE5BFE4F2491C4
:10137000FF24F394211101C0F12C002319F081EE18
:101380000E946928FF2019F086EE0E946928812FAB
:101390000E946928193349F4FFEF21EE84E0F150EF
:1013A00020408040E1F700C00000812F0E94022809
:1013B000FF2019F086EE0E940228002319F081EE2A
:1013C0000E9402282196A4CFDF91CF911F910F9107
:1013D000FF9008950F931F93CF93DF93C62FD42FC1
:1013E000022FFC0182818823C9F060934D010E9485
:1013F000C52F909348018093470180E28C0F88307D
:1014000008F05EC0C77081E001C0880FCA95EAF796
:10141000DF91CF911F910F910C94F82710914D01FE
:1014200016133EC080914701909148010E949B2F66
:10143000883C9105A8F5C0E2CD0F1D17B9F080E2F8
:10144000810F883040F4177081E001C0880F1A9531
:10145000EAF70E94ED27C83048F481E09D2F97708D
:1014600001C0880F9A95EAF70E94F827802F0E9402
:101470006928093349F4FFEF21EE84E0F150204060
:101480008040E1F700C00000802F0E940228C83091
:10149000B8F4D77081E001C0880FDA95EAF70AC086
:1014A00080E28C0F883060F4C77081E001C0880F43
:1014B000CA95EAF7DF91CF911F910F910C94ED2718
:1014C000DF91CF911F910F9108951F93CF93DF93D9
:1014D000CDB7DEB767970FB6F894DEBF0FBECDBFAE
:1014E0004B8B5C8B6D8B7E8B8F8B86E09E01235F9D
:1014F0003F4FD901E82F1D92EA95E9F795E0FE01EB
:101500007396D90101900D929A95E1F7F901DE01E8
:10151000179601900D928A95E1F7CE0107960E94E9
:101520000926811136C086E0FE013796DE0111964C
:1015300001900D928A95E1F77F816885EA85FB85A8
:10154000309739F16F3F11F47F3F19F12091470334
:1015500030E0C9010196877099274091780350E0E7
:101560008417950779F179836A83FD83EC8396E08C
:10157000929FD001939FB00D1124A85BBC4FFE0138
:10158000319601900D929A95E1F7809347030E945E
:10159000F63116E08091780390914703891701F1A5
:1015A000189FC0011124885B9C4F0E940926882344
:1015B000B9F08091780390E0019687709927809325
:1015C0007803E8CF0E94E227109247031092780335
:1015D000E1E4F3E086E0DF011D928A95E9F7D9CFD7
:1015E00067960FB6F894DEBF0FBECDBFDF91CF91E7
:1015F0001F91089520914B0130914C018217930760
:1016000071F090934C0180934B01E0917901F0913E
:101610007A01309721F00084F185E02D0994089536
:101620002091490130914A018217930771F09093FC
:101630004A0180934901E0917901F0917A01309754
:1016400021F00680F781E02D09940895E091790159
:10165000F0917A01309721F00190F081E02D09940A
:1016600080E008954F925F926F927F928F929F9247
:10167000AF92BF92CF92DF92EF92FF920F931F93A0
:10168000CF93DF9341E2442E41E0542EA1E7B1E035
:10169000912C01E010E086E08A0F7D018C901C9275
:1016A000E20199912E01E92FE295EF70F0E041A15E
:1016B0009F70980101C0220F9A95EAF7942F922B00
:1016C00091A342A1922F9095492342A3D0E5DA95A8
:1016D000F1F737E2C32E31E0D32E40E050E0E601CF
:1016E00079906E01672D62956F7070E0EB01A8A094
:1016F0006C90B12C772D7F7002C0B594A7947A9529
:10170000E2F7A0FC07C0602F042E01C0660F0A9408
:10171000EAF701C060E066296C934F5F5F4F483085
:101720005105E9F631A1932391A392A1292B22A37C
:10173000119691E0F7012081821201C090E0992A70
:101740008A13ABCF49F081E0809346010E94C52FF8
:10175000909345018093440180914601882311F1C3
:1017600080914401909145010E949B2F0697D0F0F3
:101770008091710180937B018091720180937C0143
:101780008091730180937D018091740180937E012B
:101790008091750180937F01809176018093800113
:1017A00010924601892DDF91CF911F910F91FF90EB
:1017B000EF90DF90CF90BF90AF909F908F907F90F1
:1017C0006F905F904F900895CF93DF93E72FF0E0F5
:1017D00026E0829FE00DF11D1124C3E0EE0FFF1FF4
:1017E000CA95E1F7E60FF11DEE0FFF1FE85AFF4E15
:1017F000C591D491CE01C238D10549F1B0F4C133BD
:10180000D10509F464C048F4C932D10509F458C0BF
:10181000CA32D10509F462C068C0C533D10509F4E4
:1018200048C0C933D10599F060C0C33ED10541F12C
:1018300038F4C03ED10591F0C23ED105B1F055C09B
:10184000C63ED10521F1C73ED10561F14EC02091C0
:10185000770120FD09C221FD07C208C2209177014E
:1018600020FF04C289E390E001C22091770122FFAA
:10187000FDC18091770184FDA9C183EE90E0F6C19E
:101880008091770182FFF5CF82EE90E0EFC1209149
:10189000770123FFEBC18091770184FD97C187EE2B
:1018A00090E0E4C18091770183FFF5CF86EE90E070
:1018B000DDC12091770125FFD9C189E290E0D6C131
:1018C0002091770125FFD2C185E390E0CFC120911F
:1018D000770126FFCBC18AE290E0C8C12091770151
:1018E00026FFC4C181E390E0C1C1C11530E5D30733
:1018F00008F049C0C11520E4D20708F030C1C83E45
:10190000D10520F5C03ED10508F0B0C1C83AD105D7
:1019100070F4C53AD10508F0ACC0C130D10509F466
:10192000A5C108F453C1249708F450C19FC1CF3B0F
:10193000D10508F4A9C0C03CD10508F447C1CE01C7
:10194000880F991FFC01EE5BFE4FFDC0C11530E210
:10195000D30760F4C11521E0D20708F087C1C03F6A
:10196000D10508F433C1CE01906580C1C11530E3C3
:10197000D30708F0EBC0CE019F70FC01EE0FFF1FF4
:10198000EE53FD4FE0C0C11585E5D80708F044C00F
:10199000C11594E5D90708F0FAC0C11522E5D207B0
:1019A00010F5C11531E5D30708F0DDC02C2F2370E9
:1019B00081E090E002C0880F991F2A95E2F79C68A9
:1019C0009E0174E0369527957A95E1F72370922B66
:1019D000EC2FEF70E695E69530E2E39FF0011124DD
:1019E0008E2B9F2B43C18C2F86958695AE0143701D
:1019F0005527C115D34508F0BBC090E2899F9001DF
:101A0000112481E090E002C0880F991F4A95E2F707
:101A1000822B932B9C682AC1C11529E5D20798F423
:101A2000C11538E5D30708F0B7C0C11586E5D8075A
:101A300008F0CCC08C2F0E945F098F7190E0982F26
:101A40008827906213C1C1159AE5D90708F4A9C087
:101A5000CE0190568115904208F0B8C08D2F8F713D
:101A60000E945F09FE01FF27F0628F719F01382BF2
:101A7000ABC0C53AD10509F4ACC0C63AD10509F0EE
:101A8000ABC082E890E4F2C0C83AD10509F4A7C01F
:101A9000C93AD10509F4A6C0CA3AD10509F4A5C0CE
:101AA000CB3AD10509F4A4C0CC3AD10509F4A3C0BE
:101AB000CB3BD10509F4A2C0CC3BD10509F4A1C0B0
:101AC000CD3AD10509F4A0C0C03BD10509F49FC0AF
:101AD000CE3AD10509F49EC0CF3AD10509F49DC094
:101AE000C13BD10509F49CC0C23BD10509F49BC0A0
:101AF000C33BD10509F49AC0C43BD10509F499C090
:101B0000C53BD10509F498C0C63BD10509F497C07F
:101B1000C73BD10509F496C0C83BD10509F495C06F
:101B2000C93BD10509F494C0CD3BD10509F493C05C
:101B3000CE3BD10509F492C0CA3BD10509F491C04E
:101B400080E094E493C08591949190C09E013327E6
:101B5000C901D3FF02C0986C89C0906C87C0CE01C8
:101B60009F70906A83C09C2F8827816F906A7EC087
:101B700090E2899F9001112481E090E002C0880FDB
:101B8000991F4A95E2F7822B932B9A686FC09C2F7E
:101B90008827846F906A6AC09C2F8827806F906A1C
:101BA00065C08C2F8F700E945F09FE0194E0F6954E
:101BB000E7959A95E1F7EF70F0E0FE2FEE27F06AD7
:101BC0008F70806E9F01282BC90150C080E090E08B
:101BD0004DC081E890E44AC083E890E447C082EEBB
:101BE00094E444C089EE94E441C08AEE94E43EC09B
:101BF00085EB94E43BC086EB94E438C083EB94E43B
:101C000035C084EB94E432C087EB94E42FC08CECB5
:101C100094E42CC08DEC94E429C083E895E426C0BC
:101C20008AE895E423C082E995E420C084E995E43C
:101C30001DC081E296E41AC083E296E417C084E2F4
:101C400096E414C085E296E411C086E296E40EC0E4
:101C500087E296E40BC08FE694E408C080E794E442
:101C600005C08AE296E402C080EE90E0DF91CF9159
:101C700008954F925F926F927F92AF92BF92CF92F0
:101C8000DF92EF92FF920F931F93CF93DF9300D0D9
:101C900000D000D0CDB7DEB7FC01D08011818381A8
:101CA0009481892B09F4C6C41F3F21F40FEFD0168D
:101CB00009F4C0C47F0185E0DE01119601900D9208
:101CC0008A95E1F7F701228189819A81222349F0DF
:101CD0000E94DC30082F682F89819A810E9454313C
:101CE00003C00E942831082FE12FF0E016E0019F89
:101CF000E00DF11D112493E0EE0FFF1F9A95E1F71F
:101D0000ED0DF11DEE0FFF1FE85AFF4E05911491E6
:101D1000053F2CE5120729F0063F3CE5130749F083
:101D200012C0F7018281882309F458C084ED92E043
:101D300007C0F7018281882309F450C082EC92E049
:101D40000E9482094BC0013FFCE51F07C1F180F4EE
:101D5000083D3CE51307C9F0093D8CE51807D9F1AA
:101D6000073D9CE51907D1F526E241EE61EE10C072
:101D7000033FECE51E0759F130F1043F2CE5120753
:101D800069F527E245EE66EE03C027E245EE65EE13
:101D9000C70126960FB6F894DEBF0FBECDBFDF9108
:101DA000CF911F910F91FF90EF90DF90CF90BF9058
:101DB000AF907F906F905F904F900C94EA0926E26D
:101DC00041EE60EEE5CF27E245EE64EEE1CF26E29C
:101DD00041EE62EEDDCF28E241E0D9CFF70182810A
:101DE000882369F110924D010631FCE51F0789F146
:101DF00088F401303CE5130709F468C328F40115A1
:101E00001C4509F456C35AC00531ECE51E0708F419
:101E1000AAC354C00D3DFCE51F0709F496C328F47E
:101E20000C3D1C4509F48EC349C00E3D8CE51807D6
:101E300009F48DC30F3D1C4509F46EC33FC0053145
:101E4000FCE51F0708F41FC306319CE5190709F0DC
:101E500024C390919E03882381F09A7A81E009F44B
:101E600080E080934E01811102C069E201C065E308
:101E700089E393E00E9402300BC080914E018111F2
:101E800002C069E201C065E389E393E00E94F62F96
:101E900026960FB6F894DEBF0FBECDBFDF91CF916F
:101EA0001F910F91FF90EF90DF90CF90BF90AF9078
:101EB0007F906F905F904F900C947430F701008189
:101EC0001181C8010E94DC30D82E682FC8010E9401
:101ED0005431B8018D2D0E94E40B182F782EF70194
:101EE000058102950F70B280B11010929D03809110
:101EF0009B03877089F0BB2079F080E2810F8830E6
:101F000058F082E09E830E94B23180919B038770DB
:101F1000AA24A3949E818111A12CC92EC2948FE082
:101F2000C822D12CFCE0CF16D10408F072C2F60111
:101F3000EA5AFF4F0C943C33892F807F9F70092F02
:101F4000882311F00295007FBB20B9F0002309F42B
:101F50004BC280E2810F883010F0711006C0909162
:101F60009E03092B00939E0305C090919D03092BAE
:101F700000939D030E94743037C2812F0E94022873
:101F8000002309F446C2105E0095183010F071105D
:101F900006C090919E03092300939E0305C0909173
:101FA0009D03092300939D030E94743032C2292FA0
:101FB000207F892F8F70203211F08295807F7720CB
:101FC00021F021E07216E9F026C0BB2081F02091BB
:101FD0009F03002351F0013041F4982F922B2917D1
:101FE00009F417C290939F0314C2822B1EC00023D2
:101FF00019F0013009F40DC28E830E946E308E817B
:1020000083C1BB2021F0063008F003C20EC00530AA
:1020100008F0FFC179C1BB2059F0002331F0F7016E
:10202000958190FFE1C19F7095830E94F827F1C1CF
:10203000002309F469C1EAC1292F2695269523704A
:1020400030E02115310521F02130310559F0E1C191
:10205000BB2019F0812F937002C080E090E00E94B5
:10206000100BE5C1BB2019F0812F937002C080E0F6
:1020700090E00E94FA0ADBC1BB20F9F0153F51F055
:10208000163F71F0143FA9F480914F0190915001D7
:1020900081600BC080914F0190915001826005C01A
:1020A00080914F01909150018460909350018093F2
:1020B0004F01812F0E94AC201EC0153F51F0163FEA
:1020C00071F0143FA9F480914F01909150018E7FDF
:1020D0000BC080914F01909150018D7F05C0809180
:1020E0004F01909150018B7F9093500180934F014D
:1020F000812F0E94A51F0E940D1F99C1892F8370F7
:1021000009F071C0B11091C1812F829586958770B9
:10211000880F880F412F4F7050E060E070E02A0177
:102120003B01082E04C0440C551C661C771C0A9405
:10213000D2F714FF12C00FE010E020E030E004C03E
:10214000000F111F221F331F8A95D2F7B901A80172
:10215000409550956095709503C040E050E0BA01FD
:10216000969596959370892F90E082309105E9F0CD
:102170008330910579F10091A0031091A103209182
:10218000A2033091A303019759F0442955296629E8
:102190007729CB01BA01602371238223932320C0C6
:1021A000402A512A622A732A15C0442955296629D2
:1021B00077298091A0039091A103A091A203B091EF
:1021C000A3038A019B01082719272A273B27C90156
:1021D000B80106C0CB01BA0164297529862997295F
:1021E0000E94EC3122C1BB2019F0892F817001C0FF
:1021F0008695882309F419C1812F82958695877069
:10220000880F880F412F4F7050E060E070E02A0186
:102210003B01082E04C0440C551C661C771C0A9414
:10222000D2F714FF12C00FE010E020E030E004C04D
:10223000000F111F221F331F8A95D2F7B901A80181
:10224000409550956095709503C040E050E0BA010C
:10225000969596959370892F90E082309105E9F0DC
:102260008330910579F100919703109198032091A3
:10227000990330919A03019759F044295529662909
:102280007729CB01BA01602371238223932320C0D5
:10229000402A512A622A732A15C0442955296629E1
:1022A00077298091970390919803A0919903B09119
:1022B0009A038A019B01082719272A273B27C9016E
:1022C000B80106C0CB01BA0164297529862997296E
:1022D0000E948331AAC0412F50E0FA01E05EF1096B
:1022E000E531F10508F07BC0EE59FF4F0C943C330B
:1022F0001F70892F8F71BB2021F00E94CB31812F5D
:1023000094CE0E948D31812F0E94ED2782C0BB2088
:1023100019F1053008F07DC0292F2F7181E090E080
:10232000A0E0B0E0AC01BD0104C0440F551F661F22
:10233000771F2A95D2F78091970390919803A091E7
:102340009903B0919A038A019B01082719272A272C
:102350003B27C901B80125C0063008F05AC0DCCFC0
:10236000BB2029F0892F8F712EC0BB20D9F3892F74
:102370008F710E948D314DC0BB2081F0292F2F71AC
:1023800081E090E0A0E0B0E0BC01CD0104C0660FA8
:10239000771F881F991F2A95D2F703C060E070E06D
:1023A000CB010E94833135C0BB2081F0192F1F71F2
:1023B000812F0E94CB3128E0129FC001112483603D
:1023C00080939B03812F0E94CB3123C081E00E9428
:1023D000B2310230F0F082E00E94B2311AC0BB206C
:1023E00039F0002309F4BECF812F0E94692811C063
:1023F000002309F4BCCF193349F43FEF81EE94E098
:10240000315080409040E1F700C00000812F0E94D1
:102410000228E8E0CE16D10441F04CF00AE0C01AE0
:10242000D10812E0C116D10410F40E94260BAA2094
:1024300009F400C180919B0380FDFCC0F70112826A
:102440008595859585950E94CB31C7010E94390EEF
:1024500080919B0385958595859526960FB6F89472
:10246000DEBF0FBECDBFDF91CF911F910F91FF90C7
:10247000EF90DF90CF90BF90AF907F906F905F9084
:102480004F900C948D3102302CE5120708F063C098
:1024900001151C4508F0CEC05EC00631ECE51E07F4
:1024A00008F459C00C5D1C450430110508F4C2C085
:1024B00052C00E94E227FFE70AE116E0F150004017
:1024C0001040E1F700C000000E94512F8091A00150
:1024D000982F9095917090FB80F98093A00199239B
:1024E00019F082E093E002C080EF92E026960FB6EA
:1024F000F894DEBF0FBECDBFDF91CF911F910F913A
:10250000FF90EF90DF90CF90BF90AF907F906F9053
:102510005F904F900C94BD0826960FB6F894DEBFDE
:102520000FBECDBFDF91CF911F910F91FF90EF9024
:10253000DF90CF90BF90AF907F906F905F904F9063
:102540000C941C301092000175C082E001C083E041
:10255000809300016FC0F70100811181C8010E94C2
:102560002831D82EB6CC80E090E00E94AB328D3E70
:102570009E4F11F00E941C3084E090E00E94A33234
:1025800090E09093780180937701F801E350FC4547
:10259000E231F10530F4E958FF4F809177010C9456
:1025A0003C3380917701816027C0826025C08460C0
:1025B00023C0806121C080621FC080641DC080680C
:1025C0001BC08460886018C08E7F16C08D7F14C0C9
:1025D0008B7F12C08F7E10C08F7D0EC08F7B0CC092
:1025E0008F770AC08B7F877F07C087FB222720F960
:1025F00091E0922790FB87F98093770160917701B2
:1026000084E090E00E94B13226960FB6F894DEBFC7
:102610000FBECDBFDF91CF911F910F91FF90EF9033
:10262000DF90CF90BF90AF907F906F905F904F9072
:102630000C94E22726960FB6F894DEBF0FBECDBFEE
:10264000DF91CF911F910F91FF90EF90DF90CF908E
:10265000BF90AF907F906F905F904F900895809162
:10266000620187FF11C08091E80082FD05C0809162
:1026700060018111F8CF11C08091E8008B770BC009
:1026800080916001882349F08091E80080FFF8CFB5
:102690008091E8008E778093E8000895982F973016
:1026A00058F59093E900981739F07091EC0020915B
:1026B000ED005091F00003C0242F762F50E021FF51
:1026C00019C03091EB003E7F3093EB003091ED006C
:1026D0003D7F3093ED003091EB0031603093EB00A3
:1026E0007093EC002093ED005093F0002091EE00E9
:1026F00027FF07C09F5FD3CF8F708093E90081E0F1
:10270000089580E0089520916801309169012617AD
:10271000370748F06115710539F42091E8002E77EC
:102720002093E80001C0B90140E061157105A9F1ED
:1027300020916001222309F443C0253009F442C0EE
:102740002091E80023FD40C02091E80022FD32C026
:102750002091E80020FFE9CF4091F3002091F200A2
:1027600030E0342BFC01CF016115710559F02830A0
:10277000310540F481918093F100615071092F5F20
:102780003F4FF1CF41E02830310509F040E0209182
:10279000E8002E772093E800C8CF4111C9CF0AC0C6
:1027A00080916001882361F0853061F08091E800BC
:1027B00083FD0AC08091E80082FFF2CF80E0089597
:1027C00082E0089583E0089581E00895EF92FF92FA
:1027D0000F931F93CF93DF93EC018B0180919201B4
:1027E0008CBD809193018DBD2C980E94C52F7C01DA
:1027F00088818EBD00000DB407FEFDCF8EB58E3FE3
:10280000B9F42C9A22E42A95F1F700C02C98C7015C
:102810000E949B2F8017910758F380E001C081E050
:102820002C9ADF91CF911F910F91FF90EF90089517
:10283000FE0131968B818F778D5F9F01280F311DAF
:10284000C901E817F90758F721912EBD0DB407FE0D
:10285000FDCFF7CF662369F0FC01860F911DE817C5
:10286000F90738F41EBC0DB407FEFDCF2EB5219339
:10287000F6CF08951F93CF93DF93CDB7DEB7AA9716
:102880000FB6F894DEBF0FBECDBFE2E6F1E088E000
:102890008E0F9091F10091938E13FBCF8091630185
:1028A000833009F460C030F4813071F0823009F473
:1028B0009AC0B1C08A3009F486C08B3009F46BC06D
:1028C000893009F0A8C020C080916201813A09F0E6
:1028D000A2C08091E800877F8093E8008091660124
:1028E00090916701892B21F468E086E591E003C0AF
:1028F00060E080E090E070E00E9483138091E80047
:102900008B778093E80087C080916201813209F063
:1029100082C08091660190916701029708F07BC0A8
:102920008091E800877F8093E8008091E80082FD35
:1029300005C0809160018111F8CF6DC02091F30036
:102940008091F20090E0922B029729F48091F1009F
:102950008B7F813021F48091F1008093550180912B
:10296000E8008B7754C080916201813A09F053C02E
:102970008091660190916701892B09F04CC080918C
:10298000E800877F8093E8008091E80080FFFCCF1B
:102990008091010137C0809162018132E1F580911F
:1029A000660190916701892BB1F58091E800877FDE
:1029B0008093E8000E942F138091640180930101AD
:1029C0000E94E22728C080916201813221F5809126
:1029D000E800877F8093E8000E942F1380916501B3
:1029E0008093540118C080916201813AA1F48091D2
:1029F000E800877F8093E8008091E80080FFFCCFAB
:102A0000809154018093F1008091E8008E7780934B
:102A1000E8000E942F138091E80083FFE2C18091BB
:102A2000620190916301492F50E04A30510508F04E
:102A3000D8C1FA01E757FF4F0C943C33803821F09E
:102A4000823809F0CEC108C080915E0190915F018B
:102A5000992389F082600FC0809166018F70873062
:102A600008F0BFC18093E9008091EB0085FB8827C7
:102A700080F91092E9009091E800977F9093E80028
:102A80008093F1001092F1007FC1282F2D7F09F073
:102A9000A8C1882319F0823061F0A3C1809164013C
:102AA000813009F09EC1933009F080E080935F018E
:102AB0002EC08091640181112AC0809166018F70BF
:102AC0002FEF280F263008F08CC18093E900209169
:102AD000EB0020FF1CC0933021F48091EB0080625A
:102AE00014C09091EB0090619093EB0021E030E0F6
:102AF000A90102C0440F551F8A95E2F74093EA00EE
:102B00001092EA008091EB0088608093EB001092B5
:102B1000E9008091E800877F8093E8000E942F13EE
:102B200060C181115EC1109164011F778091E30043
:102B30008078812B8093E3008091E800877F8093E9
:102B4000E8000E942F138091E80080FFFCCF809165
:102B5000E30080688093E300111102C082E001C0AD
:102B600083E0809360013DC18058823008F039C114
:102B700020916401309165012C3D53E0350779F5D2
:102B800083E08A838AE289834FB7F894DE01139643
:102B900020E03EE051E2E32FF0E050935700E49153
:102BA00020FF03C0E295EF703F5FEF708E2F90E043
:102BB000EA3010F0C79601C0C0968D939D932F5FA9
:102BC000243149F74FBF8091E800877F8093E80068
:102BD0006AE270E0CE0101960E948313C4C0809126
:102BE000660190916701432F552743305105B9F095
:102BF0006CF44130510509F403C14230510509F02C
:102C0000F0C08BE590E0EEE0F4E05BC041325105AE
:102C100009F434C04232510509F43FC0E2C0C90191
:102C2000992781309105D1F05CF4892B09F0D9C046
:102C3000E5EBF4E0E4918E2F90E0E5EBF4E03EC0AC
:102C40008230910599F0039709F0CBC0EBE7F4E0EF
:102C5000E4918E2F90E0EBE7F4E030C0E5EAF4E099
:102C6000E4918E2F90E0E5EAF4E028C0E1E8F4E09A
:102C7000E4918E2F90E0E1E8F4E020C083309105EC
:102C800008F0AFC0880F991FFC01E55EFE4F019070
:102C9000F081E02D89E090E014C08330910508F0C8
:102CA000A0C0FC01EE0FFF1FEB5EFE4F0190F08114
:102CB000E02DDC01AE5EBE4F8C9190E0009709F4F0
:102CC00090C02091E800277F2093E80020916801C0
:102CD000309169012817390708F4C90140E00097CD
:102CE00089F120916001222309F43DC02530D9F1FA
:102CF0002091E80023FD37C02091E80022FD2FC07D
:102D00002091E80020FFEBCF4091F3002091F200EA
:102D100030E0342B009759F02830310540F44491CD
:102D20004093F100319601972F5F3F4FF3CF41E081
:102D30002830310509F040E02091E8002E772093FB
:102D4000E800CDCF4111CDCF0AC08091600188232A
:102D500051F0853041F08091E80083FD04C08091FE
:102D6000E80082FFF2CF8091E8008B778093E80043
:102D700038C08038B1F58091E800877F8093E80003
:102D8000809161018093F1008091E8008E77C4CE3C
:102D9000811127C010916401123018F58091E8006C
:102DA000877F8093E800109361010E942F13111117
:102DB00006C08091E30087FD02C081E001C084E08D
:102DC0008093600142E061EC81E00E944E1342E298
:102DD00061EC82E00E944E1342E261EC83E00E94CB
:102DE0004E138091E80083FF10C08091E800877F38
:102DF0008093E8008091EB0080628093EB0005C037
:102E000082E190E0E9E6F4E05CCFAA960FB6F89490
:102E1000DEBF0FBECDBFDF91CF911F9108951F92EE
:102E20000F920FB60F9211242F933F934F935F93FE
:102E30006F937F938F939F93AF93BF93CF93DF93C2
:102E4000EF93FF93C091E900CF708091EC00D82FF1
:102E5000D17080FDD0E81092E9008091F000877F6A
:102E60008093F00078940E943A141092E9008091C7
:102E7000F00088608093F000CD2BCF70C093E90004
:102E8000FF91EF91DF91CF91BF91AF919F918F9182
:102E90007F916F915F914F913F912F910F900FBE56
:102EA0000F901F901895E8EDF0E080818E7F808371
:102EB0001092E2001092DA001092E100A0EEB0E071
:102EC0008C9181608C9380818F77808319BCA7ED72
:102ED000B0E08C918E7F8C9380818F7E8083109266
:102EE00053010895CF92DF92EF92FF920F931F93B9
:102EF000CF93DF93C8EDD0E088818F7E8883E7EDA4
:102F0000F0E080818160808384E082BF81E08093F3
:102F1000530188818E7F888302EE10E0F8011082D1
:102F20001092DA0081EEC82ED12CF6011082888131
:102F30008F77888388818068888388818F7D888364
:102F400019BC109260011092610110925F01109201
:102F50005E0190EEE92EF12CF70180818B7F80835A
:102F600088818160888342E060E080E00E944E13A7
:102F7000F60180818E7F8083F8018081816080836B
:102F8000808188608083F70180818E7F8083888143
:102F900080618883DF91CF911F910F91FF90EF9017
:102FA000DF90CF9008951F920F920FB60F921124C9
:102FB0002F933F934F935F936F937F938F939F9341
:102FC000AF93BF93EF93FF938091E10082FF49C0DD
:102FD0008091E20082FF45C08091E1008B7F809369
:102FE000E100209152012F5F822F62E30E941C3387
:102FF000992319F02093520134C01092520180910C
:103000005101882371F180916001843041F58091F4
:10301000E9008F702091EC00922F917020FD90E8D4
:10302000892B93E09093E9009091EB0090FF14C0FE
:103030009091EE0097FF10C09091E80095FF03C0BB
:103040001092F100F9CF9091E80090FF05C09091A7
:10305000E8009E779093E8008F708093E9001092CB
:1030600051018091DA0080FF30C08091D80080FF4C
:103070002CC08091DA008E7F8093DA008091D90095
:1030800019BC80FF1AC082E089BD09B400FEFDCFE3
:1030900081E0809360018AEF93E00E94BD088091F7
:1030A0005301811112C00E9453170E947217809120
:1030B000E20084608093E20008C0109260018EEF0D
:1030C00093E00E94BD08109253018091E10080FFBF
:1030D0001BC08091E20080FF17C08091E2008E7FCC
:1030E0008093E2008091E20080618093E200809111
:1030F000D80080628093D80019BC85E0809360017D
:1031000082E094E00E94BD088091E10084FF35C018
:103110008091E20084FF31C019BC82E089BD09B40E
:1031200000FEFDCF8091D8008F7D8093D8008091E4
:10313000E1008F7E8093E1008091E2008F7E80939A
:10314000E2008091E20081608093E2008091610161
:10315000882311F084E007C08091E30087FD02C05E
:1031600081E001C083E08093600186E094E00E94EA
:10317000BD080E94E2270E94260B8091E10083FF98
:103180002BC08091E20083FF27C08091E100877F00
:103190008093E10082E08093600110926101809150
:1031A000E1008E7F8093E1008091E2008E7F80932A
:1031B000E2008091E20080618093E20042E060E002
:1031C00080E00E944E138091F00088608093F000B0
:1031D0008AE094E00E94BD08FF91EF91BF91AF910A
:1031E0009F918F917F916F915F914F913F912F911F
:1031F0000F900FBE0F901F9018952091E400309112
:10320000E50095E64091EC00842F817040FF22C0DC
:103210008091E80080FD1CC080916001882391F0BE
:10322000853091F08091EB0085FD10C04091E40065
:103230005091E5004217530729F39A01915011F775
:1032400084E0089582E0089583E0089581E0089580
:1032500080E008954091E80042FFDECF089580911C
:103260000001811107C080916001843011F083E07A
:10327000089582E008958091550108959FB7F894CC
:10328000109251019FBF90916001943009F057C096
:103290009091E9009F703091EC00232F217030FD58
:1032A00020E8922B23E02093E9002091EB0020FFFF
:1032B00043C02091EE0027FF3FC0209170012223E0
:1032C00021F02091E80025FF37C01092700126E020
:1032D0003091E80035FD15C030916001343061F562
:1032E0003091EB0035FD28C0215021F481E080931E
:1032F000700122C0EFECF7E03197F1F700C0000059
:10330000E7CF8093F1008091E80085FD0AC08091AD
:10331000E80080FFFCCF8091E8008E778093E80082
:1033200006C08FB7F89421E0209351018FBF9F70A2
:103330009093E90080E008959F709093E9008FEFEB
:103340000895CF93DF9300D01F92CDB7DEB72091C1
:103350006001243031F523E02983805891099B8353
:103360008A8382E08093E9008FEF9091E80081509A
:1033700095FD06C09AE69A95F1F700C08111F5CF48
:103380008091E80085FF0DC040E050E063E070E010
:10339000CE0101960E94142B8091E8008E778093D5
:1033A000E8000F900F900F90DF91CF910895CF928A
:1033B000DF92EF92FF921F93CF93DF9300D01F9283
:1033C000CDB7DEB77C010E942F19182F8DEF810F2A
:1033D000823028F588E2C82ED12C2091370330E0C6
:1033E000C9010196B6010E942833909138039813C1
:1033F00005C086E990E00E94A12DEFCF9AE0929F50
:10340000F001939FF00D1124E955FE4F91E0908358
:10341000F482E38280933703143019F026C012300F
:1034200021F584E08983FB82EA8282E08093E900CF
:103430008FEF9091E800815095FD06C09AE69A952D
:10344000F1F700C08111F5CF8091E80085FF0DC034
:1034500040E050E063E070E0CE0101960E94142B42
:103460008091E8008E778093E8000F900F900F9086
:10347000DF91CF911F91FF90EF90DF90CF90089553
:10348000AF92BF92CF92DF92EF92FF920F931F9372
:10349000CF93DF93EC010E942F19182F8DEF810F2E
:1034A000823068F50981FD80EC80BB80AA8088E2CB
:1034B000C82ED12C2091370330E0C9010196B60106
:1034C0000E94283390913803981305C086E990E054
:1034D0000E94A12DEFCF9AE0929FF001939FF00DF3
:1034E0001124E955FE4F92E09083A382B482E582D5
:1034F000F682078380933703143019F021C012300D
:10350000F9F482E08093E9008FEF9091E800815018
:1035100095FD06C09AE69A95F1F700C08111F5CFA6
:103520008091E80085FF0CC040E050E066E070E06C
:10353000CE010E94142B8091E8008E778093E800E2
:10354000DF91CF911F910F91FF90EF90DF90CF907F
:10355000BF90AF9008958F929F92AF92BF92CF92FB
:10356000DF92EF92FF920F931F93CF93DF93EC01C3
:103570000E942F19182F8DEF810F823008F041C063
:1035800008810E94C52F7C0140E088E2C82ED12C22
:103590008A809B80AC80BD80FE81EF8120913703C3
:1035A00030E0C9010196B6010E942833909138039A
:1035B000981709F450C09AE0929FD001939FB00DE4
:1035C0001124A955BE4F1C921296FC92EE921197AF
:1035D00013960C93139714968C92149715969C92AD
:1035E00015971696AC9216971796BC921797189641
:1035F000FC9318971996EC9380933703143019F0C5
:103600003AC01230C1F581E08093E9008FEF9091CC
:10361000E800815095FD06C09AE69A95F1F700C042
:103620008111F5CF8091E80085FF25C040E050E092
:1036300068E070E0CE010E94142B8091E8008E7744
:103640008093E80088E0FE01A6E5B1E001900D92CC
:103650008A95E1F710C0411108C08091A00180FF58
:1036600004C085E89CE00E94BD0886E990E00E94C5
:10367000A12D41E08DCFDF91CF911F910F91FF9050
:10368000EF90DF90CF90BF90AF909F908F90089574
:10369000CF93C82F1F928F9380E89CE09F938F93C6
:1036A0000E94560981E090E0A0E0B0E0BC01CD01AD
:1036B00004C0660F771F881F991FCA95D2F70E9412
:1036C000EC310F900F900F900F90CF910C94E22758
:1036D00085E89BE00E94BD081F9281E08F931F92B6
:1036E00085E08F9387E39BE09F938F930E94560919
:1036F0000F900F900F900F900F900F9008958330C0
:1037000081F128F4813059F08230D1F0089585306C
:1037100009F449C0B8F1863009F456C00895809183
:103720000601681720F4861B8093060102C01092E0
:103730000601809106011F928F9388E29BE054C09E
:1037400080910701681720F4861B8093070102C04F
:1037500010920701809107011F928F9386E19BE0F1
:1037600043C080910501681720F4861B80930501F2
:1037700002C010920501809105011F928F9383E092
:103780009BE032C080910401681720F4861B80936F
:10379000040102C010920401809104011F928F93D2
:1037A0008EEE9AE021C080910301681720F4861BF9
:1037B0008093030102C010920301809103011F92C4
:1037C0008F9385ED9AE010C080910201681720F474
:1037D000861B8093020102C01092020180910201B7
:1037E0001F928F938AEB9AE09F938F930E945609C2
:1037F0000F900F900F900F9008958330E9F128F407
:10380000813061F0823009F10895853009F462C099
:1038100008F449C0863009F474C008958091060107
:10382000262F30E0280F311D2F3F310524F4680F7B
:103830006093060103C08FEF80930601809106011B
:103840001F928F938BEA9AE072C080910701262F16
:1038500030E0280F311D2F3F310524F4680F6093AD
:10386000070103C08FEF80930701809107011F922A
:103870008F9389E99AE05BC080910501262F30E0A3
:10388000280F311D2F3F310524F4680F6093050187
:1038900003C08FEF80930501809105011F928F93E4
:1038A00086E89AE044C080910401262F30E0280F7A
:1038B000311D2F3F310524F4680F6093040103C0CC
:1038C0008FEF80930401809104011F928F9381E711
:1038D0009AE02DC080910301262F30E0280F311D82
:1038E0002F3F310524F4680F6093030103C08FEF6D
:1038F00080930301809103011F928F9388E59AE0E2
:1039000016C080910201262F30E0280F311D2F3F75
:10391000310524F4680F6093020103C08FEF809398
:103920000201809102011F928F938DE39AE09F9391
:103930008F930E9456090F900F900F900F9008954B
:10394000CF938B3109F4D5C108F06DC18B3009F4E8
:103950008FC108F043C1863009F48DC120F4853051
:1039600009F49BC152C2873009F4A8C1883009F01C
:103970004CC282E39AE00E94BD0886E396E00E9472
:10398000BD0883E090E00E94A3321F928F9383E3EF
:1039900096E09F938F930E94560981E396E00E94E0
:1039A000BD0882E090E00E94A332C82F8EE196E02D
:1039B0000E94BD081F92CF9389E196E09F938F9359
:1039C0000E94560987E196E00E94BD088DE096E0CE
:1039D0000E94BD088C2F81701F928F938AE096E021
:1039E0009F938F930E94560988E096E00E94BD083D
:1039F0008EEF95E00E94BD08C1FB882780F91F92D9
:103A00008F938BEF95E09F938F930E94560989EFD8
:103A100095E00E94BD088DEE95E00E94BD08C2FBB6
:103A2000882780F91F928F938AEE95E09F938F935A
:103A30000E94560988EE95E00E94BD088FED95E042
:103A40000E94BD08C3FBCC27C0F91F92CF938CED19
:103A500095E09F938F930E9456098AED95E00E940E
:103A6000BD0884E090E00E94A332C82F86EC95E068
:103A70000E94BD081F92CF9381EC95E09F938F9396
:103A80000E9456098FEB95E00E94BD0886EA95E0FA
:103A90000E94BD088C2F81701F928F9383EA95E05E
:103AA0009F938F930E9456098DB79EB780960FB64D
:103AB000F8949EBF0FBE8DBF81EA95E00E94BD08BD
:103AC0008AE895E00E94BD08C1FB882780F91F9213
:103AD0008F9387E895E09F938F930E94560985E81E
:103AE00095E00E94BD0883E795E00E94BD08C2FBF7
:103AF000882780F91F928F9380E795E09F938F939B
:103B00000E9456098EE695E00E94BD088CE595E07E
:103B10000E94BD08C3FB882780F91F928F9389E517
:103B200095E09F938F930E94560987E595E00E9448
:103B3000BD088DE495E00E94BD08C4FB882780F98C
:103B40001F928F938AE495E09F938F930E9456096A
:103B500088E495E00E94BD0886E395E00E94BD08D8
:103B6000C5FB882780F91F928F9383E395E09F938D
:103B70008F930E94560981E395E00E94BD0885E17C
:103B800095E00E94BD08C6FB882780F91F928F939D
:103B900082E195E09F938F930E94560980E195E022
:103BA0000E94BD0888E095E00E94BD08C7FBCC27B5
:103BB000C0F91F92CF9385E095E09F938F930E9469
:103BC000560983E095E00E94BD088DB79EB74C96DC
:103BD0000FB6F8949EBF0FBE8DBF15C1803109F49A
:103BE000B0C020F48E3009F498C00FC1863109F4BA
:103BF000C5C0893109F009C18BE199E00E94BD0877
:103C000082E099E00E94BD0883EC98E00E94BD0824
:103C10008EE798E00E94BD088EE398E00E94BD0800
:103C200080E198E0A8C08A32E1F060F4873209F4BC
:103C3000E7C028F48E3108F4E8C08D51E2C0893223
:103C400061F1E3C0833448F48A3308F0D7C0853388
:103C500009F4D6C0883361F0D8C0833409F4D0C0E9
:103C6000D4C081E29AE00E94BD080E941C30CBC003
:103C700086E496E080C08091A001817F8E7F809352
:103C8000A00189EE97E00E94BD088DE19AE00E94B4
:103C9000BD0881E080936F01B6C00E94E22781E0F9
:103CA0009AE00E94BD089FEF29E688E191502040EC
:103CB0008040E1F700C000000E94512F8091A001D8
:103CC000C82FC095C170C0FB80F98093A001CC23A0
:103CD00029F085EF99E00E94BD089CC088EE99E02C
:103CE0000E94BD088091A001897F877F8093A001F9
:103CF0008AC09091A00191FBCC27C0F981E0C82730
:103D0000892FC0FB81F98093A001CC2319F08BEDA2
:103D100099E027C08DEC99E02EC09091A00192FB14
:103D2000CC27C0F981E0C827892FC0FB82F9809396
:103D3000A001CC2319F08EEB99E013C08EEA99E034
:103D40001AC09091A00193FBCC27C0F981E0C8274D
:103D5000892FC0FB83F98093A001CC2351F082EA24
:103D600099E00E94BD088091A00181608093A0012C
:103D700051C085E999E00E94BD0845C085E899E0F9
:103D80000E94BD080E94260B1F928F938BE699E03C
:103D90009F938F930E945609809101011F928F93E8
:103DA00084E599E09F938F930E9456098091540176
:103DB0001F928F9381E499E09F938F930E945609FD
:103DC0002FB7F89480916B0190916C01A0916D01D7
:103DD000B0916E012FBFBF93AF939F938F938AE2F1
:103DE00099E09F938F930E9456098DB79EB7429694
:103DF0000FB6F8949EBF0FBE8DBF05C0895301C09A
:103E000080E00E94481BC1E005C083E999E00E9460
:103E1000BD08C0E08C2FCF9108958091A00183FF51
:103E20007EC080EE94E00E94BD08809182011F92C6
:103E30008F938BED94E09F938F930E94560989EDA9
:103E400094E00E94BD0880918301282F082E000C69
:103E5000330B3F938F9386ED94E09F938F930E9453
:103E6000560984ED94E00E94BD0880918401282FBA
:103E7000082E000C330B3F938F9381ED94E09F93BA
:103E80008F930E9456098FEC94E00E94BD088091A8
:103E90008501282F082E000C330B3F938F938CEC59
:103EA00094E09F938F930E9456098AEC94E00E94BD
:103EB000BD0880918601282F082E000C330B3F93FC
:103EC0008F9387EC94E09F938F930E94560984EC24
:103ED00094E00E94BD08809187011F928F9381EC2E
:103EE00094E09F938F930E9456098FEB94E00E9479
:103EF000BD0880916A011F928F938CEB94E09F9391
:103F00008F930E94560989EB94E00E94BD088DB7FB
:103F10009EB74C960FB6F8949EBF0FBE8DBFE09132
:103F20007901F0917A01309749F082E08093810124
:103F30000480F581E02D81E891E009950E94C52F6C
:103F400090938901809388010895803F39F480918E
:103F5000840187FF6CC01092840169C0813F29F4FD
:103F6000809184011816BCF362C090918301823F56
:103F700029F497FF5CC01092830159C0833F19F464
:103F80001916CCF354C0893F41F48091850118166D
:103F90000CF04DC0109285014AC08A3F29F48091EF
:103FA000850187FF44C0F6CF8B3F39F480918601AD
:103FB00087FF3DC0109286013AC08C3F29F4809162
:103FC00086011816BCF333C0843F21F4809182012E
:103FD0008E7F17C0853F21F4809182018D7F11C0B3
:103FE000863F21F4809182018B7F0BC0873F21F4B3
:103FF00080918201877F05C0883F31F480918201E2
:104000008F7E8093820113C08D3F21F480916A01DD
:104010008E7F0BC08E3F21F480916A018D7F05C099
:104020008F3F29F480916A018B7F80936A01809190
:10403000830181110EC08091840181110AC0809199
:104040008501811106C080918601811102C0109204
:104050008701089580916A0180FF08C06091030183
:1040600070E0759567957595679521C081FF06C0CD
:104070006091030170E07595679519C082FF04C0D7
:104080006091030170E010C0909187019923C1F005
:10409000609102019617A0F780910301899FC001EA
:1040A000112470E00E9428336038710528F46115EE
:1040B000710521F0862F08958FE7089581E0089516
:1040C00061E070E0F4CF80916A0180FF0BC06091E5
:1040D000050185E0689FB001112475956795759578
:1040E00067952BC081FF09C06091050185E0689F3D
:1040F000B00111247595679520C082FF07C06091BB
:10410000050185E0689FB001112417C090918701D7
:104110009923D1F060910401961788F72091050149
:1041200085E0289F90011124929FA001939F500D3C
:10413000112470E0CA010E9428336038710540F4F0
:104140006115710539F002C065E070E0862F0895B1
:104150008FE7089581E00895803F21F40E94632055
:10416000819504C0813F29F40E94632080938401DB
:104170000895823F21F40E946320819504C0833F0B
:1041800029F40E946320809383010895893F19F4E4
:104190000E942A2005C08A3F31F40E942A2081957E
:1041A0008093850108958B3F21F40E942A208195F8
:1041B00004C08C3F29F40E942A2080938601089530
:1041C000843F21F480918201816017C0853F21F4F2
:1041D00080918201826011C0863F21F4809182012A
:1041E00084600BC0873F21F480918201886005C004
:1041F000883F31F48091820180618093820108952B
:104200008D3F21F480916A0181600BC08E3F21F4C3
:1042100080916A01826005C08F3F29F480916A0114
:10422000846080936A010895CF93C82F8CE20E9426
:10423000212F882321F08C2FCF910C94212F80E007
:10424000CF910895CF93DF93CDB7DEB7CF58D10983
:104250000FB6F894DEBF0FBECDBF84B7877F84BF93
:104260000FB6F894A89580916000886180936000F3
:10427000109260000FBE80E8809361001092610090
:1042800085B7806885BF85B7806885BF0E94531752
:104290000E9472178091E20084608093E2008EE3B6
:1042A00099E1909343018093420178948091600159
:1042B0008823A1F01091E9001F709091EC00892FE4
:1042C000817090FD80E8182B1092E9008091E80041
:1042D00083FD0E943A141F701093E90082E084BDB0
:1042E00093E095BD9DE797BD80936E00A1E2B1E09C
:1042F00041E050E026E02A0F8D91E82FE295EF7023
:10430000F0E031A18F70BA0102C0660F771F8A9565
:10431000E2F7CB01962F9095932391A392A1892B3D
:1043200082A32A13E9CFA7E2B1E041E050E028E000
:104330002A0F8D91E82FE295EF70F0E031A18F7098
:10434000BA0102C0660F771F8A95E2F7CB01962F5C
:104350009095932391A392A1892B82A32A13E9CF4D
:10436000ABE7B1E0E1E7F1E086E08E0F11921D923C
:104370008E13FCCF80E090E00E94AB328D3E9E4FCA
:1043800011F00E941C3080E090E00E94AB328D3E24
:104390009E4F11F00E941C3084E09DE00E94BD08F9
:1043A00015E6115049F00E94320B8FE19EE401970F
:1043B000F1F700C00000F5CF8DEF9CE00E94BD0832
:1043C00089E20E94142181111AC18AE20E941421FB
:1043D00081110E941C3085E00E94142181110E94ED
:1043E000512F82E090E00E94A3328093A00187E0E9
:1043F0000E9414218823A9F18BE10E9414218823B3
:1044000051F08091A00181FB222720F991E09227B1
:1044100090FB81F90EC08EE00E941421882361F088
:104420008091A00182FB222720F991E0922790FB46
:1044300082F98093A00115C080E10E94142190911F
:10444000A001882341F093FB222720F981E08227F5
:1044500080FB93F904C0892F809580FB90F990939D
:10446000A0016091A00182E090E00E94B13284E05E
:1044700090E00E94A33290E09093780180937701BE
:1044800080EE0E941421882341F080917701982FBB
:10449000909590FB80F98093770189E30E94142125
:1044A000882359F08091770181FB222720F991E040
:1044B000922790FB81F98093770182EE0E9414216C
:1044C000882359F08091770182FB222720F991E01F
:1044D000922790FB82F98093770186EE0E94142147
:1044E000882359F08091770183FB222720F991E0FE
:1044F000922790FB83F98093770183EE0E94142129
:10450000882359F08091770184FB222720F991E0DC
:10451000922790FB84F98093770185E30E94142110
:10452000882359F08091770185FB222720F991E0BB
:10453000922790FB85F98093770181E30E941421F3
:10454000882359F08091770186FB222720F991E09A
:10455000922790FB86F98093770181E10E941421D4
:10456000882359F08091770187FB222720F991E079
:10457000922790FB87F9809377016091770184E01F
:1045800090E00E94B13287E20E941421182F8EE140
:104590000E941421811112608FE10E941421811167
:1045A000146080E20E9414218111186081E20E944F
:1045B00014218111106182E20E9414218111106284
:1045C00083E20E9414218111106484E20E9414216C
:1045D000882311F0106802C0112339F0612F83E0A5
:1045E00090E00E94B132612F05C083E090E00E940C
:1045F000A332682F70E080E090E00E94EC3188E008
:1046000091E090937A01809379018AEE9DE00E9477
:10461000BD0863E2462E6DE0562E7BE1672E7DE0FD
:10462000772EFE0131967F010E94320B5BE8A52EAA
:1046300051E0B52E2BE731E0C357DF4F3983288394
:10464000CD58D04000E010E0C157DF4F0883CF586D
:10465000D040C357DF4FE881F981CD58D040319029
:10466000C357DF4FF983E883CD58D040F50121903F
:104670005F012324B1F50F5F1F4F0630110521F7AD
:104680008FEFCA57DF4F8883C658D040C957DF4FD6
:104690008883C758D040C857DF4F1882C858D040C9
:1046A0000E94C52F8160782FC757DF4F9983888379
:1046B000C958D040CA57DF4F4881C658D040C95763
:1046C000DF4F5881C758D040C857DF4F6881C8585E
:1046D000D040C657DF4F8881CA58D0400E94650A33
:1046E000A2C08091A00181FD05C080E090E0222D54
:1046F00030E045C088E29DE00E94BD084BE7842E73
:1047000041E0942EC12CD12CDF92CF925F924F9238
:104710000E94560980E29DE00E94BD08F40191913B
:104720004F019295892F8C7C482F4695469593731F
:10473000F4E09F9FC0011124842B982F9A7A9695BC
:104740008575880F892B1F928F937F926F920E949D
:10475000560989E19DE00E94BD082FEFC21AD20AD6
:104760000FB6F894DEBF0FBECDBF76E0C716D104FA
:1047700059F6BBCF01968830910509F47CCF682F9C
:10478000A901082E02C0559547950A94E2F740FF0B
:10479000F1CFCF57DF4F8883C158D040C157DF4F8B
:1047A0002881CF58D040CE57DF4F2883C258D04001
:1047B00081E090E06C0102C0CC0CDD1C6A95E2F750
:1047C000832D90E08C219D2121E0892B09F420E0AC
:1047D000CD57DF4F2883C358D0400E94C52F81603A
:1047E000782FCC57DF4F99838883C458D040CF5758
:1047F000DF4F4881C158D040CE57DF4F5881C25853
:10480000D040CD57DF4F6881C358D040CB57DF4FE2
:104810008881C558D0400E94650AF801E557FE4FCF
:104820008081C826C08280918801909189010E9470
:104830009B2FAC0190918701992321F020910701D2
:1048400030E006C0209106016AE0269F9001112405
:104850004217530708F478C08091830110918401B6
:1048600081110BC01111AAC1209185012111A6C18E
:10487000209186012111A2C167C09F3F19F09F5F5F
:1048800090938701181624F40E946320809383017B
:104890008091830187FF05C00E94632081958093EA
:1048A0008301111624F40E94632080938401809177
:1048B000840187FF05C00E94632081958093840155
:1048C000309183013323E1F0209184012223C1F050
:1048D00075EB3703C0011124892F990F990B0097AD
:1048E00009F481E08093830135EB2303C001112497
:1048F000892F990F990B009709F481E08093840127
:1049000080918501181624F40E942A208093850145
:104910008091850187FF05C00E942A2081958093A0
:10492000850180918601181624F40E942A20809324
:1049300086018091860187FF05C00E942A2081950B
:10494000809386010E940D1F10918A010E94260B00
:10495000181739F10E94260B182F80938A01809135
:10496000A00182FF1EC080FF04C08EE39DE00E9474
:10497000BD088091A00180FF0CC01F921F9389E3A6
:104980009DE09F938F930E9456090F900F900F9078
:104990000F908091A00180FF04C087E39DE00E94FA
:1049A000BD0880919601811182C08091950181118D
:1049B00032C01092950110929601109294016E9857
:1049C0007698249A2C9A80E58093920191E09093B6
:1049D00093012FB7F894289A209A8CB580618CBDEA
:1049E0008CB580648CBD219A229A2FBF549A5C9A10
:1049F0005C98EFE1FEE43197F1F700C000005C9AAB
:104A0000FFEF29E638E1F15020403040E1F700C0E7
:104A1000000090939501109296010DE61DE042E092
:104A200050E0B801CE0185579F4F0E94793240E88F
:104A300050E0B701C557DF4F88819981CB58D040EE
:104A40000E94602D81111FC08091A00180FF2AC0AB
:104A5000FF92EF92C457DF4F8881CC58D0408F939C
:104A6000C557DF4F8881CB58D0408F9381E59DE0BB
:104A70009F938F930E9456090F900F900F900F9065
:104A80000F900F900FC00E5F1F4F4DE009371407B6
:104A900031F681E0809396010E94C52F90939F018B
:104AA00080939E0180919601882309F4BDCD81E019
:104AB0000E94542B8AE090E00E94A12D80919E01DB
:104AC00090919F010E949B2F893E934008F443C020
:104AD00080919701811117C040E350E0BE016F5FE4
:104AE0007F4F87ED9DE00E94602D882349F040E3D1
:104AF00050E0BE016F5F7F4F84EC9DE00E94602D0F
:104B000081E0809397010E94C52F90939F0180932D
:104B10009E0140E350E0BE016F5F7F4F86EB9DE05A
:104B20000E94602D8823B9F0CE0101960E945B326D
:104B300011E0892B09F410E080919401181759F0C5
:104B4000112319F084E99DE002C089E79DE00E94ED
:104B5000BD081093940180919801909199010E9451
:104B60009B2F8131974208F45CCD9091A5018091F3
:104B7000A601981356CD0E94C52F9093990180935A
:104B8000980140E350E0BE016F5F7F4F8CEA9DE0EB
:104B90000E94602D882309F444CDCE0101960E9425
:104BA0005B32092E000CAA0BBB0B80939A019093E9
:104BB0009B01A0939C01B0939D0133CD9F3F09F0D1
:104BC0005ECE66CE0E941D31292F2F7092959F7068
:104BD000E92FF0E03297EE30F105B8F4ED56FF4FD3
:104BE0000C943C33803F99F018F4803E70F40FC071
:104BF000843F59F40CC0803E50F0813F31F407C02F
:104C0000822F869586958695089580E0089581E0A7
:104C10000895BF92CF92DF92EF92FF920F931F936E
:104C2000CF93DF93CDB7DEB761970FB6F894DEBFB1
:104C30000FBECDBF8C0185E0F801DE011D9601900D
:104C40000D928A95E1F7D8013C9111962C9111971C
:104C50001296EC9012971396CD90DC901497509189
:104C60004103609142038091440390914503009772
:104C700009F44FC16F3F19F45F3F09F44AC1B09086
:104C80004303BB2009F4ECC040914603C816D90683
:104C900028F0F601E81BF90BCF0104C08095909530
:104CA0008C0D9D1DFF24F394883C910548F0F12C58
:104CB000407F09F09FC081E493E00E94390E21C13A
:104CC000842F807F09F044C0621312C0531310C0B8
:104CD000E1100EC04F7040614093460381E493E0C1
:104CE0000E94390E80914603D80115968C932EC0F0
:104CF000CD2819F12F3F11F43F3FF9F0FE2CE110C0
:104D00001CC0809178034091470356E0841709F452
:104D100058C090E0589FF001599FF00D1124E85BB6
:104D2000FC4F6181261306C06081361303C0628187
:104D3000611103C001968770E9CFFE2CEE2009F4C3
:104D400015C180914603816080934603F12C0EC10A
:104D500062130AC0531308C0E11006C080914603D5
:104D6000D80115968C93B0C03D872E878D859E8582
:104D70000E94E2258823D1F1EE20C1F12091460363
:104D8000822F82958F7090E0029774F0809141039A
:104D90009091420398878F831986DB86CA862C8779
:104DA000CE0107960E94390E86E0F801A1E4B3E037
:104DB00001900D928A95E1F70E940032FF24F3944E
:104DC000D5C03D872E878D859E850E941D31292F58
:104DD00022952F7030E0223031050CF0BBC09F705F
:104DE00009F0B5C0805E883008F4C0C0C8010E94D8
:104DF000390EE4CF621314C0531312C0E11010C077
:104E000080914603F8018583C8010E94390E86E02F
:104E1000E1E4F3E0DF011D928A95E9F7FB2CA6C0DF
:104E20003D872E878D859E850E94E2258823F1F29D
:104E3000EE20E1F220914603822F82958F7090E060
:104E400002970CF4B1CF80914103909142039A8371
:104E500089831B82DD82CC822E83CE010196A2CF74
:104E6000C816D90638F0C81AD90AB8ECCB16D1043E
:104E700050F007C0809590958C0D9D1D883C910544
:104E800010F0F12C3EC0FE2CEE2009F4AFCF6213DF
:104E900027C0531325C02091460320FD18C0822F40
:104EA00082958F70482F50E04115510581F0F8012F
:104EB00025834F30510541F08F5F982F9295907F59
:104EC000822F8F70892B8583C8010E94390E86E05E
:104ED000F801A1E4B3E001900D928A95E1F746C094
:104EE0003D872E878D859E850E94E22581115CCFAE
:104EF00080914603816080934603C8010E94390E69
:104F000035C0E1E4F3E086E0DF011D928A95E9F720
:104F10002DC0EE2009F46ACF3D872E878D859E85B2
:104F20000E94E225F82E882309F460CF86E0F8017C
:104F3000A1E4B3E001900D928A95E1F780914103DD
:104F4000909142030E941D310E9400320FC08111D6
:104F500049CF0CC0243031050CF048CF9F7009F4C4
:104F600041CFF8019581907F09F03CCF8F2D61965C
:104F70000FB6F894DEBF0FBECDBFDF91CF911F916A
:104F80000F91FF90EF90DF90CF90BF900895109217
:104F90009D0310929C030E947430E1E8F1E086E0EA
:104FA000DF011D928A95E9F71092870110926A013C
:104FB0000E940D1F80E090E00E94100B80E090E0C6
:104FC0000C94FA0A10929E0386E0EBE3F3E0DF0113
:104FD0001D928A95E9F70C94C727882341F08095A4
:104FE00090919E03892380939E030C9474300895BE
:104FF000882339F090919E03892B80939E030C9413
:1050000074300895882309F463C0823869F40E94DB
:10501000260B81FF5DC069E389E393E00E940230C3
:105020000E94743069E30EC0833891F40E94260B0D
:1050300080FF4EC063E589E393E00E9402300E9446
:10504000743063E589E393E00E94F62F0C9474308A
:10505000843869F40E94260B82FF3AC067E489E332
:1050600093E00E9402300E94743067E4EBCF9CEF23
:10507000980F913A10F4682FE5CF90E2980F98308E
:1050800088F4877021E030E0A90102C0440F551F69
:105090008A95E2F7CA01809590919E0389238093B7
:1050A0009E03D4CF9BE5980F933020F480E090E0EE
:1050B0000C94100B98E5980F973120F480E090E065
:1050C0000C94FA0A803F20F00E94A51F0C940D1F3B
:1050D0000895CF93882309F455C2C82F8238B1F4BC
:1050E0000E94260B81FD4EC269E389E393E00E9492
:1050F00002300E9474302FEF80E792E02150804010
:105100009040E1F700C0000069E317C08338E1F484
:105110000E94260B80FD36C263E589E393E00E947E
:1051200002300E9474302FEF80E792E021508040DF
:105130009040E1F700C0000063E589E393E00E943E
:10514000F62FCF910C9474308438B1F40E94260B62
:1051500082FD18C267E489E393E00E9402300E9456
:1051600074302FEF80E792E0215080409040E1F7CB
:1051700000C0000067E4E1CF8CEF8C0F813A08F0AB
:105180003FC180916F01813069F018F08230A1F148
:105190002AC180919E03823209F02CC18C2F0E947B
:1051A000A01C26C180919E038232C1F3C431E1F07C
:1051B00070F4CB3081F0C031D1F40E94681B8DEFC8
:1051C0009DE00E94BD0882E080936F010FC1C9324B
:1051D00059F0C83361F489EE97E00E94BD0881E080
:1051E0009EE00E94BD0802C110926F01C9C18BEF01
:1051F0009DE00E94BD08C4C1C43228F5CE3108F03C
:10520000C1C0CB30A1F1D0F4C73009F0D3C08EE1DA
:105210008093060182E3809307018AE08093050171
:1052200084E18093040188E08093030188E2809305
:1052300002018CEA9EE00E94BD08BFC0C33149F163
:10524000C431C1F0B7C0CB3409F4A9C028F4C932C5
:1052500089F0C83361F0AEC0C13509F49EC0C235D3
:1052600009F499C0CE3409F0A5C06AE09EC00E943E
:10527000681BA3C080919101882319F010929101BD
:105280009CC089EB9EE00E94BD0881E080936F0185
:1052900079C183E99EE00E94BD0881E89EE00E94FA
:1052A000BD08809106011F928F938EE79EE09F9329
:1052B0008F930E9456098CE79EE00E94BD088AE603
:1052C0009EE00E94BD08809107011F928F9387E6A0
:1052D0009EE09F938F930E94560985E69EE00E9470
:1052E000BD0886E59EE00E94BD08809105011F92E1
:1052F0008F9383E59EE09F938F930E94560981E5EB
:105300009EE00E94BD0880E49EE00E94BD0880915E
:1053100004011F928F938DE39EE09F938F930E94D1
:1053200056098BE39EE00E94BD0886E29EE00E9443
:10533000BD08809103011F928F9383E29EE09F93AB
:105340008F930E94560981E29EE00E94BD088AE088
:105350009EE00E94BD08809102011F928F9387E01A
:105360009EE09F938F930E94560985E09EE00E94E5
:10537000BD088DB79EB748960FB6F8949EBF0FBE76
:105380008DBF1BC0CE51EC2FF0E0E15DFE4F808160
:105390008093910112C061E003C061E006C06AE041
:1053A000809191010E94FD1B08C0809191010E9493
:1053B0007F1B03C08AEA9EE013C08091910188237D
:1053C00069F01F928F9384EA9EE09F938F930E94CF
:1053D00056090F900F900F900F90D4C081EA9EE075
:1053E000CF910C94BD0810926F0104C081E08170D0
:1053F0008111C8C06C2F89E393E00E940230A1CED6
:1054000080E28C0F883068F4C77081E090E001C0C2
:10541000880FCA95EAF790919E03892B80939E038B
:1054200090CE8BE58C0F833078F4C53A29F0C63ADC
:1054300031F083E890E005C081E890E002C082E8A6
:1054400090E0CF910C94100B88E58C0F873108F019
:105450008FC0C83A09F445C0C93A09F445C0CA3AF0
:1054600009F445C0CB3A09F445C0CC3A09F445C02B
:10547000CB3B09F445C0CC3B09F445C0CD3A09F417
:1054800045C0C03B09F445C0CE3A09F445C0CF3A07
:1054900009F445C0C13B09F445C0C23B09F445C00D
:1054A000C33B09F445C0C43B09F445C0C53B09F4FE
:1054B00045C0C63B09F445C0C73B09F445C0C83BDD
:1054C00009F445C0C93B09F445C0CD3B09F445C0CA
:1054D000CE3B09F445C0CA3B09F445C080E090E0EA
:1054E00044C082EE90E041C089EE90E03EC08AEE7A
:1054F00090E03BC085EB90E038C086EB90E035C093
:1055000083EB90E032C084EB90E02FC087EB90E01B
:105510002CC08CEC90E029C08DEC90E026C083E894
:1055200091E023C08AE891E020C082E991E01DC0AB
:1055300084E991E01AC081E292E017C083E292E030
:1055400014C084E292E011C085E292E00EC086E2CF
:1055500092E00BC087E292E008C08FE690E005C0C1
:1055600080E790E002C08AE292E0CF910C94FA0AC0
:10557000C03F40F08C2F0E94AC20CF910C940D1FA7
:1055800080E035CFCF910895EF92FF920F931F9354
:10559000CF93DF93EC017B010E94C52F8C016699AC
:1055A0000CC082E08A95F1F700C0C8010E949B2FD1
:1055B0008E159F05A0F380E030C0809192018CBDD4
:1055C000809193018DBD2C981EBC00000DB407FE88
:1055D000FDCF9EB598839E5F923070F42C9A82E442
:1055E0008A95F1F700C02C98C8010E949B2F8E1558
:1055F0009F0550F380E010C063E0CE0101960E9449
:105600002A146B816F77862F90E0419724F4CE01A6
:1056100004960E942A1481E02C9ADF91CF911F9169
:105620000F91FF90EF900895CF92DF92FF920F932A
:105630001F93CF93DF931F92CDB7DEB7F82E8B0168
:1056400099830E94FD18998181111CC0CF2CD92EFD
:1056500001151105B1F08091E80085FD0AC0809127
:10566000E8008E778093E8000E94FD18882381F37C
:1056700009C0F60181916F018093F1000150110979
:10568000E7CF80E00F90DF91CF911F910F91FF90B6
:10569000DF90CF9008951092370310923803E1EA1B
:1056A000F1E0148215820895DF92EF92FF920F933A
:1056B0001F93CF93DF93CDB7DEB764970FB6F894FF
:1056C000DEBF0FBECDBFE091A6019091A501E91705
:1056D00009F486C0D82EF0E0EE0FFF1FEF55FE4F05
:1056E000E080F180669B51C00CEE1EE066E970E040
:1056F000CE0101960E94C42A882309F471C08C81CE
:1057000087FD31C02091A6018091A501281771F075
:1057100030E0F901EE0FFF1FEF55FE4FE080F18002
:105720002F5F3F4F217033272093A6018091A00166
:1057300080FF19C00E94C52F8E159F0528F00E947A
:10574000C52F8E199F0905C00E94C52F8E199F096C
:1057500001979F938F931F930F930E9456090F9069
:105760000F900F900F90DD20D9F1E091A60180916C
:10577000A501E817A9F1F0E0EE0FFF1FEF55FE4F6E
:10578000E080F1806699B2CF2BC0C7010E949B2FA9
:105790008D32914028F18091A00180FF15C0809149
:1057A000A50190E02091A601821B910997FD8E5FD3
:1057B0001F928F938DEB9EE09F938F930E945609CB
:1057C0000F900F900F900F908091A6019091A501DE
:1057D000891731F090E00196817099278093A60196
:1057E00064960FB6F894DEBF0FBECDBFDF91CF91A8
:1057F0001F910F91FF90EF90DF9008955F926F924D
:105800007F928F929F92AF92BF92CF92DF92EF9250
:10581000FF920F931F93CF93DF93CDB7DEB7A89777
:105820000FB6F894DEBF0FBECDBF6C017B015A01ED
:10583000522EFC0101900020E9F7CF0101973C01B5
:10584000222381F08091A00180FF0CC0DF92CF92D3
:1058500080E390E19F938F930E9456090F900F90E1
:105860000F900F90E114F10411F180E04DED842EC2
:105870004FE0942E2091A5019091A6012917A9F03F
:1058800081110EC08091A00180FF0AC0DF92CF92EB
:105890009F928F920E9456090F900F900F900F9039
:1058A00081E00E94542B81E0E5CFF701108220E1D6
:1058B000922E3AE0832EA3014C195D09888D413167
:1058C0005105DCF09D8A1E8A8F8A8078806180680D
:1058D000888FF601DE015996892D01900D928A95E7
:1058E000E1F7B801CE0145960E94E613882309F43A
:1058F0009AC0F0E1CF0ED11CDECF80E18D8B1E8AE5
:105900008AE08F8B842F8F77888F5527B601CE0141
:1059100049960E945633B801CE0145960E94E6137F
:10592000D82E882309F47FC0E114F10409F049C09E
:105930000E94C52F8C012091A50130E0C90101967C
:10594000817099274091A601481304C080E00E940D
:10595000542BF1CF220F331FF901EF55FE4F118366
:1059600000838093A5010E94C52F9C018017910799
:1059700020F08017910731F48CC0801B910B0197A8
:1059800009F487C08091A00180FBFF24F0F880FF1C
:1059900080C02017310718F0201B310B04C0009580
:1059A0001095200F311F3F932F9386E190E19F9335
:1059B0008F930E9456090F900F900F900F90DF2C3D
:1059C00068C0AE0CBF1C87016CE271E0CE0101968D
:1059D0000E94C42A811109C08091A00180FF23C0C8
:1059E00080E090E10E94BD081EC08981803219F0DC
:1059F000F701108218C08C818F778A2C801A881545
:105A000008F4882E882051F0912CA401BE016B5F10
:105A10007F4FC8010E945633080D191D8C8187FDE8
:105A2000D3CFF80106C0D12C34C08F0180818A30D9
:105A300039F41082F8013197EE16FF06B0F302C078
:105A40008D30B9F36AE070E0C7010E946A330097B5
:105A500011F0019601C0C7016DEF7FE00E94823214
:105A600011E0892B09F010E0511002C0111111C092
:105A70008091A00180FF0CC0FF92EF9281EF9FE028
:105A80009F938F930E9456090F900F900F900F9045
:105A9000D12E8D2DA8960FB6F894DEBF0FBECDBFC8
:105AA000DF91CF911F910F91FF90EF90DF90CF90FA
:105AB000BF90AF909F908F907F906F905F90089570
:105AC000AF92BF92CF92DF92EF92FF920F931F930C
:105AD000CF93DF9300D0CDB7DEB78C015B01CDB69D
