:100000000C9406070C944D070C944D070C944D0767
:100010000C944D070C944D070C944D070C944D0710
:100020000C944D070C944D070C943E2A0C94102B05
:100030000C94641C0C944D070C944D070C944D07C4
:100040000C944D070C944D070C944D070C944D07E0
:100050000C944D070C94D81C0C944D070C944D0730
:100060000C944D070C944D070C944D070C944D07C0
:100070000C944D070C944D070C944D070C944D07B0
:100080000C944D070C944D070C944D070C944D07A0
:100090000C944D070C944D070C944D070C944D0790
:1000A0000C944D070C944D070C944D0733093509FA
:1000B0004009370939093B093D093F09420944090B
:1000C0004609510948094A094C094E095009530982
:1000D000491249127B127B12B912D9123D143D14F8
:1000E0001B133D14BC13BC132D143D143D143614C6
:1000F000C913C913C913C913C913C913C913C91320
:10010000C913C913C913C913C913C913C913C9130F
:10011000DA13E813EF13F6130014CC14CC14DE1426
:10012000DE14D514DE14DE14DE14CC14CC14DA1470
:10013000DE14DE14DA147D2BA42B962CA42B962C23
:10014000F02B132C962C692C782C68747470733AED
:100150002F2F716D6B2E666D2F012800514D4B2096
:100160006973207468652062657374207468696EB1
:10017000672065766572210027001E001F002000A1
:1001800021002200230024002500260027001E0055
:1001900027001E001F002000210022002300240051
:1001A0002500260027001E0027001E001F0020003B
:1001B00021002200230024002500260027001E0025
:1001C00027001E001F002000210022002300240021
:1001D0002500260027001E0044454255473A20646A
:1001E000697361626C65642E0A0044454255473A62
:1001F00020656E61626C65642E0A000000000000DC
:100200000000002A2B280000000000000000000071
:1002100000000000000029000000002C1E342021F6
:100220002224342627252E362D3738271E1F20213D
:1002300022232425263333362E37381F040506079C
:1002400008090A0B0C0D0E0F1011121314151617B6
:1002500018191A1B1C1D2F3130232D3504050607D4
:1002600008090A0B0C0D0E0F101112131415161796
:1002700018191A1B1C1D2F3130354C0000000000CE
:10028000000000000000000000000000000000006E
:10029000000000000000000000000000000000005E
:1002A000000000000000000000000000000000004E
:1002B000000000000000000000000000000000003E
:1002C000000000000000000000000000000000002E
:1002D000000000000000000000000000000000001E
:1002E000000000000000000000000000000000000E
:1002F00000000000000000000000000000000000FE
:1003000000000000000000000000000000000000ED
:1003100000000000000000000000000001010101D9
:1003200001010001010101000000000000000000C7
:1003300000000000000100010001010101010101B4
:10034000010101010101010101010101010101019D
:100350000101010101010000000101000000000095
:10036000000000000000000000000000000000008D
:1003700000000000000001010101000A00253031E9
:100380003662003A200025303258000A722F63206E
:1003900030313233343536373839414243444546BB
:1003A0000A000A002530325820006B6579626F61BF
:1003B00072645F7265706F72743A20000A002530B3
:1003C0003258006B6579626F6172645F7365745F48
:1003D0006C65643A2000290A002575002F002575F8
:1003E000005D2800256400200025640020002564AD
:1003F0000020002564007C0025303258006D6F75A8
:1004000073656B6579205B62746E7C7820792076E9
:1004100020685D287265702F61636C293A205B004B
:100420006D6B5F776865656C5F74696D655F746F30
:100430005F6D6178203D2025640A006D6B5F7768F1
:1004400065656C5F6D61785F7370656564203D20E4
:1004500025640A006D6B5F74696D655F746F5F6D15
:100460006178203D2025640A006D6B5F6D61785FC7
:100470007370656564203D2025640A006D6B5F69BB
:100480006E74657276616C203D2025640A006D6B88
:100490005F64656C6179203D2025640A006D6B5FA7
:1004A000776865656C5F74696D655F746F5F6D61BA
:1004B00078203D2025640A006D6B5F776865656C68
:1004C0005F6D61785F7370656564203D2025640A07
:1004D000006D6B5F74696D655F746F5F6D6178202F
:1004E0003D2025640A006D6B5F6D61785F737065F8
:1004F0006564203D2025640A006D6B5F696E74653C
:100500007276616C203D2025640A006D6B5F646526
:100510006C6179203D2025640A000A0025750036AB
:100520003A20776865656C5F74696D655F746F5FAD
:100530006D61783A20000A00257500353A20776809
:1005400065656C5F6D61785F73706565643A200006
:100550000A00257500343A2074696D655F746F5F19
:100560006D61783A20000A00257500333A206D61EC
:10057000785F73706565643A20000A002575003263
:100580003A20696E74657276616C286D73293A2021
:10059000000A00257500313A2064656C6179282ACB
:1005A00031306D73293A20000A092D2056616C758F
:1005B0006573202D0A004D3E004D25643E20003F0E
:1005C000007365742064656661756C740A00433E4F
:1005D000200077686572652064656C74613A2063F9
:1005E0007572736F723D25642C20776865656C3D6C
:1005F00025640A53656520687474703A2F2F656E00
:100600002E77696B6970656469612E6F72672F77E9
:10061000696B692F4D6F7573655F6B6579730A0040
:100620000A092D204D6F7573656B6579202D0A457C
:1006300053432F713A09717569740A313A09646537
:100640006C6179282A31306D73290A323A09696E52
:1006500074657276616C286D73290A333A096D618D
:10066000785F73706565640A343A0974696D655F13
:10067000746F5F6D61780A353A09776865656C5FFC
:100680006D61785F73706565640A363A09776865ED
:10069000656C5F74696D655F746F5F6D61780A0A80
:1006A000703A097072696E742076616C7565730AB0
:1006B000643A097365742064656661756C74730AC5
:1006C00075703A092B310A646F776E3A092D310A39
:1006D000706775703A092B31300A7067646F776EF6
:1006E0003A092D31300A0A7370656564203D206433
:1006F000656C7461202A206D61785F737065656434
:10070000202A2028726570656174202F2074696D1D
:10071000655F746F5F6D6178290A003F004D3E2070
:1007200000433E20004C25640A0074696D65725FC9
:1007300072656164333228293A202530346C580AB6
:10074000006B6579626F6172645F69646C653A2001
:1007500025580A006B6579626F6172645F70726F11
:10076000746F636F6C3A2025580A00686F73745F6A
:100770006B6579626F6172645F6C65647328293A96
:100780002025580A000A092D2053746174757320BE
:100790002D0A004743433A20342E392E3220415649
:1007A000522D4C4942433A20312E382E3073766E0A
:1007B000204156525F415243483A20617672350AD1
:1007C000004F5054494F4E533A204C554641204D0E
:1007D0004F5553454B45592045585452414B455967
:1007E00020434F4E534F4C4520434F4D4D414E44B7
:1007F00020343039360A004255494C443A202262AE
:100800007265616B706F696E745F323031395F3061
:10081000385F33302E312E372D312D6733646432FB
:10082000393022202831363A30383A3434204E6F6D
:10083000762031322032303139290A005649443A83
:1008400020307846454544286B2D616F746129201E
:100850005049443A2030783030303028656D6F6C24
:10086000696E6775616C5F666E29205645523A2045
:100870003078303030310A00444553433A2041202B
:10088000637573746F6D206B6579626F6172640A52
:10089000000A092D2056657273696F6E202D0A00BB
:1008A0000A092D20436F6E736F6C65202D0A455326
:1008B000432F713A09717569740A6D3A096D6F7544
:1008C00073656B65790A000A092D204D61676963BC
:1008D000202D0A443A094465627567204D6573739B
:1008E00061676520546F67676C650A583A094D6106
:1008F00074726978204465627567204D6F64652065
:10090000546F67676C65202D2053686F77206B6587
:10091000797072657373657320696E206D6174728E
:10092000697820677269640A4B3A094B6579626F8E
:1009300061726420446562756720546F67676C65F7
:10094000202D2053686F77206B6579707265737303
:10095000207265706F72740A4D3A0944656275675A
:10096000204D6F75736520546F67676C650A563A42
:100970000956657273696F6E0A533A09537461744C
:1009800075730A433A09416374697661746520435B
:100990006F6E736F6C65204D6F64650A46312D462E
:1009A00031303A0953776974636820746F204C6161
:1009B00079657220302D392028463130203D204C79
:1009C00030290A302D393A095377697463682074E5
:1009D0006F204C6179657220302D390A475241569B
:1009E000453A0953776974636820746F204C6179C4
:1009F000657220302028616C7465726E617465299F
:100A00000A423A094A756D7020746F20426F6F7404
:100A10006C6F616465720A4553433A094A756D709B
:100A200020746F20426F6F746C6F61646572202850
:100A3000616C7465726E617465290A453A09507279
:100A4000696E7420454550524F4D2053657474694A
:100A50006E67730A4253504143453A09436C6561DE
:100A60007220454550524F4D0A000A002575002E50
:100A70006E6B726F3A20000A002575002E73776145
:100A8000705F6261636B736C6173685F6261636BFB
:100A900073706163653A20000A002575002E737734
:100AA00061705F67726176655F6573633A20000A03
:100AB000002575002E6E6F5F6775693A20000A0089
:100AC0002575002E737761705F72616C745F726759
:100AD00075693A20000A002575002E737761705FF2
:100AE0006C616C745F6C6775693A20000A0025754B
:100AF000002E636170736C6F636B5F746F5F636F05
:100B00006E74726F6C3A20000A002575002E7377A0
:100B100061705F636F6E74726F6C5F636170736C32
:100B20006F636B3A20000A0025303258006B6579FC
:100B30006D61705F636F6E6669672E7261773A20D0
:100B4000000A002575002E6D6F7573653A20000A46
:100B5000002575002E6B6579626F6172643A200022
:100B60000A002575002E6D61747269783A20000ABA
:100B7000002575002E656E61626C653A20000A00E2
:100B8000253032580064656275675F636F6E666911
:100B9000672E7261773A20000A0025750064656649
:100BA00061756C745F6C617965723A20003F000A70
:100BB0006D6F7573653A206F66660A000A6D6F7512
:100BC00073653A206F6E0A000A6B6579626F617215
:100BD000643A206F66660A000A6B6579626F61721B
:100BE000643A206F6E0A000A6D61747269783A2067
:100BF0006F66660A000A6D61747269783A206F6EDA
:100C00000A000A64656275673A206F66660A000A20
:100C100064656275673A206F6E0A000A0A4A756D4C
:100C200070696E6720746F20626F6F746C6F61649F
:100C300065722E2E2E2000433E2000436C656172AB
:100C4000696E6720454550524F4D0A006565636FD8
:100C50006E6669673A0A005B735D004B6579626F87
:100C60006172642073746172742E0A005B575D00B8
:100C70005B535D005B525D005B445D005B435D0068
:100C80000403300000001C0365006D006F006C0061
:100C900069006E006700750061006C005F0066000F
:100CA0006E0000000E036B002D0061006F007400E9
:100CB000610000000403090409025B00030100A0B5
:100CC000FA090400000103010100092111010001DA
:100CD0002240000705810308000A090401000103FE
:100CE000000000092111010001228500070582038F
:100CF00020000A090402000203000000092111017A
:100D000000012222000705830320000107050303D9
:100D10002000011201100100000008EDFE0000019A
:100D200000010203010631FF0974A10109751500D4
:100D300026FF009520750881020976150026FF0020
:100D4000952075089102C005010902A101850209DB
:100D500001A1000509190129051500250195057551
:100D600001810295017503810105010930093115E1
:100D700081257F95027508810609381581257F95A3
:100D80000175088106050C0A38021581257F950139
:100D900075088106C0C005010980A10185031601FF
:100DA000002603001A81002A830075109501810036
:100DB000C0050C0901A1018504160100269C021A38
:100DC00001002A9C02751095018100C005010906E9
:100DD000A101050719E029E715002501950875010E
:100DE00081029501750881010508190129059505FC
:100DF000750191029501750391010507190029FFFD
:100E0000150026FF00950675088100C011241FBE3D
:100E1000CFEFDAE0DEBFCDBF04B603FE27C080917E
:100E2000010290910202A0910302B0910402873066
:100E3000904BA740B04BD1F41092010210920202E5
:100E4000109203021092040214BE84B7877F84BFFD
:100E50000FB6F894A8958091600088618093600037
:100E6000109260000FBEE0E0F8E3099511E0A0E009
:100E7000B1E0EEE8FAE502C005900D92AC33B1079F
:100E8000D9F722E0ACE3B1E001C01D92A130B20776
:100E9000E1F70E9459270C94452D0C940000FF9314
:100EA000EF93E0913C01F0913D01309709F00995F5
:100EB000EF91FF910895FC018591803011F0EFDFF3
:100EC000FBCF0895FF27E0E230E247FF0CC04195D9
:100ED00097FF09C0EDE26095709580959095611D32
:100EE000711D811D911D27FF02C0219530E350E245
:100EF000AA27660F771F881F991FAA1FA41710F033
:100F0000A41B63955A95A9F7AA3008F0A95FA05DC4
:100F1000AF93F395611571058105910541F7ED32A8
:100F200011F4EF93F395F21718F43F93F395FBCF79
:100F30008F91B5DFFA95E1F70895E991F9918591DF
:100F4000803021F0853219F0AADFF9CF089520E032
:100F5000E89455915532C1F3503311F4689455918A
:100F60005A3348F4505390F3220F022E220F220FCF
:100F7000200D250FF4CF0EF42195899199915336C8
:100F800019F3533729F1533559F1BC0188279927B3
:100F9000E8945C3621F4899199916894559154367E
:100FA00039F446EF7EF077FF0DC08FEF9FEF0AC058
:100FB00055374AE039F0583540E121F0523642E0E9
:100FC00009F00895FF93EF937DDFEF91FF91B7CF85
:100FD000FF93EF93FC0181918030B9F360DFFBCF89
:100FE000FF93EF9368DFF1CFDF93CF93CDB7DEB7F9
:100FF0002596A3DFCF91DF910895843F2CE59207DA
:1010000021F0853F9C4541F00FC0FB018281882380
:1010100059F08CE591E006C0FB018281882321F024
:101020008AE491E00E94C60881E008950895089539
:10103000089581E008950C94FD071F93CF93DF93EB
:1010400000D000D01F92CDB7DEB749835A832091DC
:10105000640189819A81211112C0662349F00E949E
:10106000F119182F682F89819A810E94961903C05F
:101070000E94C519182F69817A81812F04C00E94AE
:10108000F11969817A810F900F900F900F900F9056
:10109000DF91CF911F910C94E109FC0140815181B6
:1010A0006281738184810C941D081F93CF93DF9319
:1010B000282F30E0F901E550FE4F1491F901E55079
:1010C000FD4FE491C1E0E11101C0C0E0F901E55834
:1010D000FD4F2491D1E0211101C0D0E0CC2319F0C3
:1010E00081EE0E945110DD2319F086EE0E9451100E
:1010F000812F0E94F211DD2319F086EE0E948A11E1
:10110000CC2331F081EEDF91CF911F910C948A11A5
:10111000DF91CF911F9108950F931F93CF93DF938A
:10112000EC01062FFE018491882359F19E012F5F67
:101130003F4F813041F4E901F9011491812F0E9460
:101140005110812F0DC0823031F4E901F9018491F1
:101150000E9451100AC0833031F4E901F9018491F1
:101160000E948A1102C00E9455082196802F882370
:10117000C9F2EFE9FFE03197F1F700C000008150BC
:10118000F6CFDF91CF911F910F91089560E00C94FD
:101190008C080E94561B811102C00E94D01B0C9427
:1011A000520C0C94540C0C9418080C94D308089509
:1011B0000E94BC140E94D7082FEF84E39CE02150CA
:1011C00080409040E1F700C000000C94FE1C0F939B
:1011D0001F93CF93DF938C010E944D08EC01B8015F
:1011E0000E941B088823D9F0B801CE010E94440E4A
:1011F0008823A9F0C531FCE5DF0708F088C0C230BC
:101200008CE5D80770F4C115ECE5DE0709F05BC08A
:10121000F801C281CC2309F4CAC00E94D808C0E0FA
:10122000C6C0F8018281882309F450C00E94561B71
:10123000811102C00E94D01B0E94691B90E0909314
:10124000F3018093F201FE01E350FC45E231F10528
:1012500030F4EA5AFF4F8091F2010C94E92C80910E
:10126000F201816027C0826025C0846023C0806154
:1012700021C080621FC080641DC080681BC0846064
:10128000886018C08E7F16C08D7F14C08B7F12C0FF
:101290008F7E10C08F7D0EC08F7B0CC08F770AC0F1
:1012A0008B7F877F07C087FB222720F991E0922759
:1012B00090FB87F98093F2018091F2010E946D1BEF
:1012C0000E94BC14ACCFC130DC4539F0C801DF91BD
:1012D000CF911F910F910C941908F801C281CC2372
:1012E00009F465C08091D001C82FC095C170C0FBC2
:1012F00080F98093D001CC2329F08AEE91E00E94FE
:101300005B078DCF88ED91E00E945B0750C0CC3D1C
:101310008CE5D80739F4F801C281CC2309F447C021
:1013200080E00DC0CD3DECE5DE0760F0CD3D8CE505
:10133000D80791F5F801C281CC23C9F182E00E945F
:1013400001286DCFC631DC4509F60E94711A282F9D
:10135000F80182814091000150910101882379F0C8
:101360002A7A91E009F490E090933E01911102C035
:1013700069E201C065E3CA010E94041C0AC08091B1
:101380003E01811102C069E201C065E3CA010E9409
:10139000061C0E94BD1A43CFCE3DDC4509F096CF16
:1013A000F801C281CC2319F00E94D01B38CF8C2FBA
:1013B000DF91CF911F910F91089580E090E0089503
:1013C00008959CE0799FF001112490E3899FE00D3E
:1013D000F11D1124E60FF11DEE0FFF1FE858FE4F1F
:1013E000859194910895880F991FFC01E558FC4F51
:1013F000859194910895CF93DF930E94E1090E9413
:10140000B20BEC01811520E59207F0F5811530E46F
:10141000930708F024C1883E910500F5803E9105B0
:1014200008F09CC1883A910570F4853A910508F05E
:101430009FC08130910509F491C108F442C104971D
:1014400008F08CC13EC18F3B910508F49CC0803CE4
:10145000910508F436C1805C9109F4C0811540E221
:10146000940758F4C11581E0D80708F077C1C03F50
:10147000D10508F426C1D06571C1811520E392071A
:1014800008F0E4C09F70DEC0811535E5930708F0D1
:1014900044C0811544E5940708F0F8C0C11582E501
:1014A000D80708F5C11521E5D20708F0DBC08C2F5D
:1014B000837021E030E002C0220F331F8A95E2F7EB
:1014C0003C68CE0174E0969587957A95E1F7837034
:1014D000382BCF70C695C69580E2C89FE0011124D5
:1014E000C22BD32B3BC12C2F26952695CE01837082
:1014F0009927C115D34508F0BAC040E2249F900156
:101500001124C1E0D0E002C0CC0FDD1F8A95E2F7C4
:101510002C2B3D2BE901DC6821C1811549E594079D
:10152000A0F4C11588E5D80708F0B5C0C11526E5B7
:10153000D20708F0C6C08C2F0E942F0C8F71C82FC5
:10154000D0E0DC2FCC27D06209C181153AE59307A2
:1015500008F4A6C090568115904208F0B2C08D2FB5
:101560008F710E942F0CDD27D0628F71D82BF6C0AF
:10157000853A910509F4A8C0863A910509F0A7C0FB
:10158000C2E8D0E4EBC0883A910509F4A3C0893AD7
:10159000910509F4A2C08A3A910509F4A1C08B3AD9
:1015A000910509F4A0C08C3A910509F49FC08B3BCA
:1015B000910509F49EC08C3B910509F49DC08D3ABC
:1015C000910509F49CC0803B910509F49BC08E3ABB
:1015D000910509F49AC08F3A910509F499C0813BAD
:1015E000910509F498C0823B910509F497C0833BAB
:1015F000910509F496C0843B910509F495C0853B9B
:10160000910509F494C0863B910509F493C0873B8A
:10161000910509F492C0883B910509F491C0893B7A
:10162000910509F490C08D3B910509F48FC08E3B64
:10163000910509F48EC08A3B910509F48DC0C0E084
:10164000D4E48CC00E94F309EC0188C09927D3FF31
:1016500003C0EC01D86C82C0EC01D06C7FC0DF709D
:10166000D06A7CC0DC2FCC27C16FD06A77C040E243
:10167000249F90011124C1E0D0E002C0CC0FDD1FF7
:101680008A95E2F7C22BD32BDA6868C0D82FCC2713
:10169000C46FD06A63C0DC2FCC27C06FD06A5EC035
:1016A0008F700E942F0C94E0D695C7959A95E1F71C
:1016B000CF70D0E0DC2FCC27D06A8F70806EC82B23
:1016C0004DC0C0E0D0E04AC0C1E8D0E447C0C3E8A4
:1016D000D0E444C0C2EED4E441C0C9EED4E43EC07C
:1016E000CAEED4E43BC0C5EBD4E438C0C6EBD4E4C6
:1016F00035C0C3EBD4E432C0C4EBD4E42FC0C7EB95
:10170000D4E42CC0CCECD4E429C0CDECD4E426C085
:10171000C3E8D5E423C0CAE8D5E420C0C2E9D5E4D3
:101720001DC0C4E9D5E41AC0C1E2D6E417C0C3E2C3
:10173000D6E414C0C4E2D6E411C0C5E2D6E40EC0BB
:10174000C6E2D6E40BC0C7E2D6E408C0CFE6D4E4D4
:1017500005C0C0E7D4E402C0CAE2D6E4CE01DF91FE
:10176000CF9108958238910549F1B0F48133910504
:1017700009F458C048F48932910509F44EC08A3200
:10178000910509F454C008958533910509F440C0CA
:101790008933910599F00895833E910529F138F434
:1017A000803E910591F0823E9105A1F00895863E1C
:1017B0009105F9F0873E910531F108952091F201EC
:1017C00020FD3AC021FD38C008958091F20180FDCE
:1017D00035C032C08091F20182FF32C08091F201A7
:1017E00084FD30C083EE39C08091F20182FD28C0B3
:1017F000F5CF8091F20183FF27C08091F20184FD33
:1018000021C087EE2AC08091F20183FD1DC0F5CF73
:101810008091F20185FD1AC01BC08091F20185FD07
:1018200017C014C08091F20186FD14C015C08091CC
:10183000F20186FD11C00EC080EE0FC089E30DC01D
:1018400082EE0BC080E009C086EE07C089E205C0C9
:1018500085E303C08AE201C081E390E0089590919E
:10186000F20192FF0DC0282F2871283019F4877FCC
:10187000846006C0282F2471243011F48B7F886087
:1018800093FF0DC0282F2871283119F4877E8461B9
:1018900006C0282F2471243111F48B7E886194FDB9
:1018A000877E08950C9416080C941708E82FF0E032
:1018B000EE0FFF1FE15CFE4F808191810895CF9272
:1018C000DF92EF92FF920F931F93CF93DF938BE8FA
:1018D00093E00E945B078FE3E82E81E0F82EC0E0E2
:1018E000D0E096E8C92E93E0D92E0DE713E0DF9300
:1018F000CF93DF92CF920E94F40783E893E00E9497
:101900005B07F701819191917F010E943C1B9F939E
:101910008F931F930F930E94F4078BE793E00E942D
:101920005B0721968DB79EB708960FB6F8949EBFB9
:101930000FBE8DBFC430D105D1F6DF91CF911F917D
:101940000F91FF90EF90DF90CF900895AFE1B1E05D
:1019500041E050E024E02A0F8D91E82FE295EF70EE
:10196000F0E031A18F70BA0102C0660F771F8A952F
:10197000E2F7CB01962F9095932391A392A1892B07
:1019800082A32A13E9CFA3E1B1E041E050E02CE0CB
:101990002A0F8D91E82FE295EF70F0E031A18F7062
:1019A000BA0102C0660F771F8A95E2F7CB01962F26
:1019B0009095932391A392A1892B82A32A13E9CF17
:1019C00010924801109247011092400110923F017D
:1019D00010924A0110924901109242011092410165
:1019E00010924C0110924B0110924401109243014D
:1019F00010924E0110924D01109246011092450135
:101A000084E00E949C0D0C94C9085F926F927F92B3
:101A10008F929F92AF92BF92CF92DF92EF92FF92FE
:101A20000F931F93CF93DF930FE111E0A7E4B1E091
:101A3000612CEE24E394F12C5D018D909C90119724
:101A400011961C921E92E80189918E01E82FE29571
:101A5000EF70F0E091A18F70A70101C0440F8A954B
:101A6000EAF7892F842B81A382A1542E50948521DB
:101A700082A3D0EADA95F1F783E1C82E81E0D82E6F
:101A800080E090E0E60179906E01272D22952F707D
:101A900030E0E90168A12D913C91119770E0D72DBC
:101AA000DF7002C075956795DA95E2F760FD08C0B2
:101AB000B701082E02C0660F771F0A94E2F702C032
:101AC00060E070E0262B372B11963C932E93019605
:101AD0008C309105B9F681A1D52DD823D1A382A14F
:101AE000482B42A3129681E0F501208131818216B4
:101AF000930609F480E0682AF1E0AF34BF0709F0EB
:101B00009BCF262D44E06FE371E087E491E00E94D3
:101B10009D0D0E94D108862DDF91CF911F910F91CD
:101B2000FF90EF90DF90CF90BF90AF909F908F90FD
:101B30007F906F905F9008950895FF920F931F9389
:101B4000CF93DF93F82E092F162FD72FC42F2223E0
:101B500049F081E0809351010E94961C90935001BE
:101B600080934F01809151018823D9F080914F01DA
:101B7000909150010E94AE1C069798F0EF2DF02F27
:101B8000A12FBD2F80E090E04C2F50E084179507E7
:101B900034F4219131912D933D930196F7CF10921A
:101BA0005101DF91CF911F910F91FF9008950F93F5
:101BB0001F93CF93DF93C62FD42F022FFC01828176
:101BC0008823C9F0609354010E94961C909353019E
:101BD0008093520180E28C0F883008F050C0C770AB
:101BE00081E001C0880FCA95EAF7DF91CF911F917C
:101BF0000F910C94051210915401161330C080916E
:101C00005201909153010E94AE1C883C910538F519
:101C1000C0E2CD0F1D17B9F080E2810F883040F48B
:101C2000177081E001C0880F1A95EAF70E940C1224
:101C3000C83048F481E09D2F977001C0880F9A95B5
:101C4000EAF70E940512802F0E94F211C830B8F402
:101C5000D77081E001C0880FDA95EAF70AC080E208
:101C60008C0F883060F4C77081E001C0880FCA957E
:101C7000EAF7DF91CF911F910F910C940C12DF9135
:101C8000CF911F910F9108959C01CB01203F4CE50E
:101C90003407F9F078F4283DFCE53F07B9F0293D19
:101CA0004CE5340711F1273D3C4531F526E241EE84
:101CB00061EE1EC0223FFCE53F0799F070F0233F24
:101CC0003C45D1F427E245EE66EE12C027E245EE30
:101CD0000EC026E241EE60EE0BC027E245EE64EE58
:101CE00007C026E241EE62EE03C028E241E065EE65
:101CF0000E94D70D80E00895FC018281882319F0AD
:101D000010925401089581E0089590935A018093B0
:101D100059010895E0915901F0915A01309721F04D
:101D20000190F081E02D099480E00895EF92FF92F8
:101D30000F931F93CF93DF93E0915901F0915A01D4
:101D40003097B1F18C010280F381E02D09958091EB
:101D5000D00182FF2DC080FF04C08AEA93E00E9478
:101D60005B07E80118E084EAE82E83E0F82E809112
:101D7000D00180FF0BC088811F928F93FF92EF925A
:101D80000E94F4070F900F900F900F901150219622
:101D90001111EDCF8091D00180FF0AC082EA93E05B
:101DA000DF91CF911F910F91FF90EF900C945B0703
:101DB000DF91CF911F910F91FF90EF900895E091E7
:101DC0005901F0915A01309739F022E0DC012C934F
:101DD0000480F581E02D09940895209157013091F8
:101DE00058018217930771F090935801809357011F
:101DF000E0915901F0915A01309721F00680F78166
:101E0000E02D0994089520915501309156018217D3
:101E1000930771F09093560180935501E091590119
:101E2000F0915A01309721F00084F185E02D09945A
:101E3000089585B7806885BF85B7806885BF089598
:101E4000089508950C94210F08950C94240F0E9476
:101E5000190F0E94200F0C94220F81E008950E9418
:101E60008D1C0E94A60C0E94221D0C94250FCF935E
:101E7000C82F8091D00182FF1EC080FF04C083EC78
:101E800093E00E945B078091D00180FF0CC01F92FD
:101E9000CF938EEB93E09F938F930E94F4070F9064
:101EA0000F900F900F908091D00180FF04C08CEBB9
:101EB00093E00E945B078C2FCF910C94D5084F9232
:101EC0005F927F928F929F92AF92BF92CF92DF925A
:101ED000EF92FF920F931F93CF93DF93CDB7DEB7AF
:101EE0002A970FB6F894DEBF0FBECDBF0E94050D36
:101EF0000E942D0F811111C08FEF89838A831B826D
:101F00000E94961C8160782F9D838C8349815A8121
:101F10006B818D810E941D1057C09CE5C92E91E0F8
:101F2000D92E00E010E0AA24A394B12C702E802FAB
:101F30000E94560C4C01F601419051906F014826C9
:101F400059264114510431F40F5F1F4F043011051D
:101F500069F7D2CF8091D00181FD0E945F0C20E013
:101F600030E07501022E02C0EE0CFF1C0A94E2F76D
:101F7000C70184219521892B09F12E837F828E2030
:101F80009F2091E0892809F490E098870E94961C90
:101F90008160782F9A8789874E815F8168858A85DD
:101FA0000E941D10000F111FF801E45AFE4F80819E
:101FB0009181E826F926F182E08206C02F5F3F4F2B
:101FC0002C30310571F6C0CF0E94371F10915B0194
:101FD0000E948A0E1817D9F00E948A0E80935B0126
:101FE0002A960FB6F894DEBF0FBECDBFDF91CF911A
:101FF0001F910F91FF90EF90DF90CF90BF90AF9027
:102000009F908F907F905F904F900C94370F2A96FF
:102010000FB6F894DEBF0FBECDBFDF91CF911F91F9
:102020000F91FF90EF90DF90CF90BF90AF909F9077
:102030008F907F905F904F900895CF93DF93CDB7AF
:10204000DEB72B970FB6F894DEBF0FBECDBF4F8320
:10205000588769877A878B87DE01119686E0FD01B4
:1020600011928A95E9F785E0FE01379601900D926D
:102070008A95E1F749815A816B817C818D819E81AE
:102080000E9466172B960FB6F894DEBF0FBECDBF29
:10209000DF91CF910895FC01808191810E94321AD5
:1020A0000895CF93DF931F92CDB7DEB7882309F44D
:1020B0002DC1682F8238C1F40E948A0E81FD26C18D
:1020C00069E380910001909101010E94041C0E942B
:1020D000BD1A2FEF81EE94E0215080409040E1F74F
:1020E00000C0000069E319C0833811F50E948A0E10
:1020F00080FD0CC163E580910001909101010E9477
:10210000041C0E94BD1A2FEF81EE94E02150804004
:102110009040E1F700C0000063E5809100019091DC
:1021200001010E94061C0F90DF91CF910C94BD1A03
:102130008438C1F40E948A0E82FDE8C067E4809171
:102140000001909101010E94041C0E94BD1A2FEF12
:1021500081EE94E0215080409040E1F700C0000003
:1021600067E4DBCF8CEF860F813A70F4862F6983AA
:102170000E94A42369818111C9C0809100019091BE
:1021800001010E94041CCFCF80E2860F883048F402
:10219000677081E001C0880F6A95EAF70E94741A9F
:1021A000C2CF8BE5860F833088F4653A29F0663A12
:1021B00031F083E890E005C081E890E002C082E859
:1021C00090E00F90DF91CF910C94ED0E88E5860F93
:1021D000873108F091C0683A09F445C0693A09F4BA
:1021E00045C06A3A09F445C06B3A09F445C06C3AF7
:1021F00009F445C06B3B09F445C06C3B09F445C08C
:102200006D3A09F445C0603B09F445C06E3A09F4E3
:1022100045C06F3A09F445C0613B09F445C0623BD3
:1022200009F445C0633B09F445C0643B09F445C06B
:10223000653B09F445C0663B09F445C0673B09F4BA
:1022400045C0683B09F445C0693B09F445C06D3B96
:1022500009F445C06E3B09F445C06A3B09F445C02A
:1022600080E090E044C082EE90E041C089EE90E0D2
:102270003EC08AEE90E03BC085EB90E038C086EB34
:1022800090E035C083EB90E032C084EB90E02FC04B
:1022900087EB90E02CC08CEC90E029C08DEC90E0B6
:1022A00026C083E891E023C08AE891E020C082E95B
:1022B00091E01DC084E991E01AC081E292E017C06C
:1022C00083E292E014C084E292E011C085E292E0E1
:1022D0000EC086E292E00BC087E292E008C08FE673
:1022E00090E005C080E790E002C08AE292E00F90A3
:1022F000DF91CF910C94030F603F40F0862F0E9436
:10230000BD1D0F90DF91CF910C94AA1E0F90DF910D
:10231000CF910895882309F464C0823879F40E942B
:102320008A0E81FF5EC069E38091000190910101F6
:102330000E94041C0E94BD1A69E310C08338B1F4E6
:102340000E948A0E80FF4DC063E58091000190914C
:1023500001010E94041C0E94BD1A63E580910001E6
:10236000909101010E94061C0C94BD1A843879F4E6
:102370000E948A0E82FF35C067E48091000190912F
:1023800001010E94041C0E94BD1A67E4E7CF9CEF84
:10239000980F913A10F4682FE1CF90E2980F98309F
:1023A00050F4877091E001C0990F8A95EAF7892F60
:1023B0000E947A1AD9CF9BE5980F933020F480E0E1
:1023C00090E00C94ED0E98E5980F973120F480E0A2
:1023D00090E00C94030F803F20F00E94251E0C9487
:1023E000AA1E0895CF93C82F0E945110C93349F4F3
:1023F0002FEF83EC99E0215080409040E1F700C03E
:1024000000008C2FCF910C948A11882321F00E9418
:10241000741A0C94BD1A0895882321F00E947A1A28
:102420000C94BD1A08954F925F926F927F92BF9263
:10243000CF92DF92EF92FF920F931F93CF93DF9390
:102440007C01062FC72FFC01158112951F70D281C8
:10245000D1110E94911A0E946A1A882379F0DD2313
:1024600069F080E2800F883048F082E00E94081B0B
:102470000E946A1A91E0B82EB92601C0B12CCC2E68
:10248000C2948FE0C822D12CF601E859FF4F0C947A
:10249000E92C8C2F807FCF70882311F0C295C07FEC
:1024A000DD2399F0CC2309F4C3C180E2800F88308A
:1024B00010F0011104C08C2F0E94741A03C08C2FDD
:1024C0000E94841A0E94BD1AB3C1802F0E948A11F3
:1024D000CC2309F4D2C180E2800F883010F00111C2
:1024E00004C08C2F0E947A1A03C08C2F0E948A1A73
:1024F0000E94BD1AC2C18C2F807FCF70803211F034
:10250000C295C07F002319F00130C9F022C0DD233D
:1025100071F0112341F0113031F40E94A41A8C2B78
:102520000E94AA1AAAC10E94A41A8C2B3AC1112394
:1025300019F0113009F4A1C10E94B31A18C0DD23AB
:1025400021F0163008F099C10EC0153008F095C181
:102550000EC0DD2351F0112331F0F701858180FF9A
:1025600067C18F7085838C2F1CC1111172C18C2F94
:102570001EC18C2F86958695837090E0009719F088
:10258000019761F07AC1DD2321F0802F9C2F937099
:1025900002C080E090E00E94ED0E7FC1DD2321F0BB
:1025A000802F9C2F937002C080E090E00E94030F68
:1025B00074C1DD23F9F0053F51F0063F71F0043F8F
:1025C000A9F48091EC019091ED0181600BC08091A4
:1025D000EC019091ED01826005C08091EC01909139
:1025E000ED0184609093ED018093EC01802F0E94B7
:1025F000BD1D1EC0053F51F0063F71F0043FA9F418
:102600008091EC019091ED018E7F0BC08091EC01E7
:102610009091ED018D7F05C08091EC019091ED01CD
:102620008B7F9093ED018093EC01802F0E94251EFB
:102630000E94AA1E32C18C2F837009F04BC0D111A9
:1026400028C1202F229526952770220F220F602F58
:102650006F70862F90E0A0E0B0E02C013D01022ECB
:1026600004C0440C551C661C771C0A94D2F704FF66
:1026700010C08FE090E0A0E0B0E004C0880F991F88
:10268000AA1FBB1F2A95D2F780959095A095B0956B
:1026900003C080E090E0DC01C695C695C370D0E031
:1026A000BC01CD016429752986299729C230D1053D
:1026B00059F0C330D10559F0219719F00E94AB1899
:1026C000E8C00E949918E5C00E94BD18E2C00E94AF
:1026D0009718DFC0DD2319F08C2F817001C086951B
:1026E000882309F4D6C0202F229526952770220F23
:1026F000220F602F6F70862F90E0A0E0B0E02C01D9
:102700003D01022E04C0440C551C661C771C0A9423
:10271000D2F704FF10C08FE090E0A0E0B0E004C06A
:10272000880F991FAA1FBB1F2A95D2F780959095F5
:10273000A095B09503C080E090E0DC01C695C695F9
:10274000C370D0E0BC01CD01642975298629972981
:10275000C230D10559F0C330D10559F0219719F095
:102760000E94711996C00E945F1993C00E9483193C
:1027700090C00E94D2188DC0802F90E0FC01E05ED6
:10278000F109E531F10508F04FC0E858FF4F0C940E
:10279000E92C0F708C2F8F71DD2331F00E94F81817
:1027A000802F0E94051269C00E941919802F0E9473
:1027B0000C1263C0DD2341F0153008F05EC08C2F91
:1027C0008F710E943E1959C0163008F056C0F7CFDD
:1027D000DD2339F08C2F8F710E94F8184EC0DD2355
:1027E000C9F38C2F8F710E94191947C0DD2329F07E
:1027F0008C2F8F710E94E31840C00E94DE183DC0EC
:10280000DD2349F0CF718C2F0E94F81863E08C2FE4
:102810000E94F31A32C081E00E94081B123068F156
:1028200082E00E94081B29C0DD2331F0112391F2C0
:10283000802F0E94511021C0112399F2093349F4CD
:10284000FFEF23EC89E0F15020408040E1F700C029
:102850000000802F0E948A1110C04C2F4F70602FF3
:10286000C7010E94DD090E940A1817C04C2F4F7043
:10287000602FC7010E94E00910C098E0C916D1047A
:1028800041F05CF0FAE0CF1AD10822E0C216D10480
:1028900020F40E948A0E0E94D508BB20F1F00E940D
:1028A000661A80FD1AC0F70112820E94601A0E9407
:1028B000F818C7010E947B140E94601ADF91CF9123
:1028C0001F910F91FF90EF90DF90CF90BF907F907E
:1028D0006F905F904F900C941919DF91CF911F91D9
:1028E0000F91FF90EF90DF90CF90BF907F906F900F
:1028F0005F904F9008950F931F93CF93DF93EC0158
:10290000888199812B813C81232BB9F09F3F11F461
:102910008F3F99F0CE010E94E708882371F068810B
:1029200079818A810E943D1A8C010E9495190E942A
:102930009618B801CE010E941312DF91CF911F911A
:102940000F9108950E94911A0E94A11A0E94BD1A27
:102950000E94D21F0E94AA1E80E090E00E94ED0E0D
:1029600080E090E00C94030F8091000190910101B0
:102970000E94081C0C94A2140E94811A0C94B41496
:10298000E92FE295EF70F0E03297EE30F105B0F408
:10299000E357FF4F0C94E92C803F91F018F4803EF0
:1029A00068F40EC0843F51F40BC0803E48F0813F74
:1029B00029F406C093FB882780F9089580E00895E4
:1029C00081E008950E94321A0E94C0140895CF93A6
:1029D000DF9300D000D01F92CDB7DEB70F900F90DD
:1029E0000F900F900F90DF91CF910895CF93DF93C9
:1029F00000D000D000D0CDB7DEB726960FB6F89441
:102A0000DEBF0FBECDBFDF91CF9108951F93CF934F
:102A1000DF93C091650116E080916601C81799F0B7
:102A2000D0E01C9FF0011D9FF00D1124E959FE4FCD
:102A30004081518162817381848195810E94F61465
:102A40002196C770E9CFDF91CF911F9108954091F2
:102A50009701509198016091990170919A0180912C
:102A60009B0190919C010C94F61480919C0182959D
:102A70008F7009F054C080919901882309F44FC0E8
:102A800080916501A0916601609197017091980114
:102A900040919A0150919B01B6E08A1709F43FC01A
:102AA00090E041155105C1F17F3F11F46F3FA1F155
:102AB000B89FF001B99FF00D1124E959FE4F218113
:102AC00072132AC02081621327C02281211124C0E1
:102AD000238134812417350710F421503109241B38
:102AE000350B283C3105C0F420919C012F702061EA
:102AF00020939C0126E0289FF001299FF00D1124CE
:102B0000E459FE4F80818F708061808387E991E076
:102B10000E947B140C94061501968770BECF089511
:102B2000CF92DF92EF92FF920F931F93CF93DF9399
:102B3000CDB7DEB762970FB6F894DEBF0FBECDBF3C
:102B40008C0185E0F801DE011D9601900D928A95B9
:102B5000E1F7D8014C9111965C91119712966C9106
:102B600012971396CD90DC90149730919701709145
:102B7000980180919A0190919B01009709F46BC193
:102B80007F3F19F43F3F09F466C1E0909901EE20C0
:102B900009F4C0C020919C01C816D90628F0F6019E
:102BA000E81BF90BCF0104C0809590958C0D9D1DFD
:102BB000FF24F394883C910578F0F12C207F09F0F4
:102BC000C6C07C2DD98AC88A89890E94E71487E902
:102BD00091E00E947B14B1C0822F807F09F046C033
:102BE000751314C0341312C0611110C02F7020610E
:102BF00020939C010E94271587E991E00E947B1495
:102C000080919C01D80115968C932EC0CD2819F186
:102C10005F3F11F44F3FF9F0F62E61111CC0809117
:102C200065012091660136E0821709F45AC090E0F0
:102C3000389FF001399FF00D1124E959FE4F718141
:102C4000571306C07081471303C07281711103C00E
:102C500001968770E9CFF62E662309F427C180918B
:102C60009C01816080939C01F12C20C1751308C0E8
:102C7000341306C0611104C080919C01D801C3C007
:102C80004D875E878D859E856A8B0E94E2146A89D6
:102C90008823E1F16623D1F120919C01822F829556
:102CA0008F7090E0029774F0809197019091980155
:102CB00098878F831986DB86CA862C87CE01079674
:102CC0000E947B1486E0F801A7E9B1E001900D9223
:102CD0008A95E1F70E9435150E942715FF24F39489
:102CE000E5C04D875E878D859E850E94321A292F0B
:102CF00022952F7030E0223031050CF0CBC09F7050
:102D000009F0C5C0805E883008F4D0C0C8010E94B8
:102D10007B14E4CFC816D90608F453C0F601E81BAB
:102D2000F90BCF01883C910508F450C0F12C7C2DA3
:102D3000D98AC88A89890E94E714E7E9F1E086E028
:102D4000DF011D928A95E9F70E942715AFC0751320
:102D500014C0341312C0611110C080919C01F8019D
:102D60008583C8010E947B1486E0E7E9F1E0DF017A
:102D70001D928A95E9F7FE2C99C04D875E878D8557
:102D80009E856A8B0E94E2146A89882309F4BECF6B
:102D9000662309F4BBCF20919C01822F82958F700E
:102DA00090E002970CF48ECF80919701909198015A
:102DB0009A8389831B82DD82CC822E83CE01019689
:102DC0007FCF809590958C0D9D1DACCFF62E662300
:102DD00009F49CCF75132EC034132CC020919C0194
:102DE00020FD1FC0822F82958F70D9F0D8011596D3
:102DF0002C9315978F3049F08F5F982F9295907F85
:102E0000822F8F70892B15968C93C8010E947B149A
:102E100086E0F801A7E9B1E001900D928A95E1F70B
:102E200093CF86E0F801A7E9B1E001900D928A9571
:102E3000E1F73CC04D875E878D859E850E94E21438
:102E4000811140CF80919C01816080939C01C801D9
:102E50000E947B142BC0662309F458CF4D875E87F0
:102E60008D859E850E94E214F82E882309F44ECFAA
:102E700086E0F801A7E9B1E001900D928A95E1F7AB
:102E800087E991E00E944B100E9435155DCF8111BA
:102E900039CF0CC0243031050CF038CF9F7009F4C5
:102EA00031CFF8019581907F09F02CCF8F2D62965C
:102EB0000FB6F894DEBF0FBECDBFDF91CF911F914B
:102EC0000F91FF90EF90DF90CF9008951F93CF93D5
:102ED000DF93CDB7DEB72C970FB6F894DEBF0FBEE9
:102EE000CDBF4F83588769877A878B879C87CE01B0
:102EF00007960E949015882369F08F8198852A850E
:102F00003B85232BF1F19F3F09F063C08F3F09F010
:102F100060C037C086E0FE013796DE011196019051
:102F20000D928A95E1F76F817885EA85FB85309768
:102F300041F17F3F11F46F3F21F12091660130E0B4
:102F4000C9010196877099274091650150E0841767
:102F5000950709F447C069837A83FD83EC8396E083
:102F6000929FD001939FB00D1124A959BE4FFE012D
:102F7000319601900D929A95E1F7809366010E9437
:102F8000061516E080916501909166018917C1F1DF
:102F9000189FC001112489599E4F0E9490158823C3
:102FA00079F1E09165011E9FF0011124E959FE4F6E
:102FB0004081518162817381848195810E94F614E0
:102FC0008091650190E00196877099278093650153
:102FD000D9CF4F81588569857A858B859C850E94DC
:102FE000F614CFCF0E94BC141092660110926501B6
:102FF000E7E9F1E086E0DF011D928A95E9F7C1CFAC
:103000002C960FB6F894DEBF0FBECDBFDF91CF91E7
:103010001F910895EF92FF920F931F93CF93DF9329
:103020008C01892B09F46CC0F12CEE24E394E801A7
:103030002196F8018491843740F4843008F051C01F
:10304000813081F0823019F15BC0853709F444C0CA
:10305000A8F19CE7980F903708F052C08F770E9434
:103060008A1141C00E5F1F4FFE01C49180E28C0F98
:10307000883048F4C7708E2D01C0880FCA95EAF7D2
:103080000E94941A14C08C2F0E9451102DC00E5F04
:103090001F4FFE01C49180E28C0F883058F4C77036
:1030A0008E2D01C0880FCA95EAF70E949A1A0E94D5
:1030B000BD1A1AC08C2F0E948A1116C00E5F1F4FB6
:1030C000FE01C491CC2381F08FE99FE00197F1F7D5
:1030D00000C00000C150F6CF0E5F1F4FFE01F490FC
:1030E00003C00E9451108E018F2D882309F49FCFB9
:1030F000EFE9FFE03197F1F700C000008150F5CF14
:10310000DF91CF911F910F91FF90EF900895089557
:103110000C9487180E9488186093BF017093C001B7
:103120008093C1019093C2010C94A21408950C9451
:103130008A180F931F930091BF011091C001209135
:10314000C1013091C201602B712B822B932B1F91F7
:103150000F910C948A180F931F930091BF01109147
:10316000C0012091C1013091C201602371238223EB
:1031700093231F910F910C948A180F931F93009122
:10318000BF011091C0012091C1013091C20160279F
:103190007127822793271F910F910C948A18089505
:1031A0000C94CF180E94D0186093BB017093BC019F
:1031B0008093BD019093BE010C94A21460E070E076
:1031C000CB010C94D2180F931F9341E050E060E0C4
:1031D00070E08A019B0104C0000F111F221F331FE2
:1031E0008A95D2F7C901B8011F910F910C94D2189A
:1031F0000F931F9341E050E060E070E004C0440F83
:10320000551F661F771F8A95D2F78091BB01909159
:10321000BC01A091BD01B091BE018A019B01082BA8
:10322000192B2A2B3B2BC901B8011F910F910C942C
:10323000D2180F931F9341E050E060E070E004C0AB
:10324000440F551F661F771F8A95D2F740955095FA
:10325000609570958091BB019091BC01A091BD01DA
:10326000B091BE018A019B01082319232A233B2325
:10327000C901B8011F910F910C94D2180F931F939D
:1032800041E050E060E070E004C0440F551F661F4D
:10329000771F8A95D2F78091BB019091BC01A091D4
:1032A000BD01B091BE018A019B01082719272A2779
:1032B0003B27C901B8011F910F910C94D2180F93AD
:1032C0001F930091BB011091BC012091BD01309171
:1032D000BE01602B712B822B932B1F910F910C94AD
:1032E000D2180F931F930091BB011091BC01209144
:1032F000BD013091BE0160237123822393231F916E
:103300000F910C94D2180F931F930091BB01109151
:10331000BC012091BD013091BE0160277127822739
:1033200093271F910F910C94D21808952CE0929F2F
:10333000800D1124A82FA695A695A695877051E01B
:1033400001C0550F8A95EAF785E0A89FD0011124A6
:1033500020E030E070E0F901EA0FFB1FE356FE4F7A
:103360004081CB01022E02C0969587950A94E2F720
:1033700081709927819584278523842780832F5FF7
:103380003F4F2530310539F708952CE0929F800D8D
:103390001124682F669566956695982F977085E03D
:1033A000689FB001112440E050E080E0FA01E60F90
:1033B000F71FE356FE4F208130E0092E02C03695FC
:1033C00027950A94E2F721703327042E01C0220FBB
:1033D0000A94EAF7822B4F5F5F4F4530510531F772
:1033E0000895BF92CF92DF92EF92FF920F931F93B7
:1033F000CF93DF938C01C090BF01D090C001E090CB
:10340000C101F090C2018091BB019091BC01A091DB
:10341000BD01B091BE01C82AD92AEA2AFB2ACFE110
:10342000D0E0D701C6010C2E04C0B695A79597959C
:1034300087950A94D2F780FF07C0BC2EB8018C2F65
:103440000E94FB09019719F4219758F7B12C8B2D95
:10345000DF91CF911F910F91FF90EF90DF90CF9070
:10346000BF900895CF93DF93EC010E94F119BE0144
:103470000E94FB09DF91CF9108951F93CF93DF93B3
:10348000EB0190916401992321F0CB010E94321A43
:1034900013C0882349F0CB010E94F119182F682F1F
:1034A000CE010E94961904C0CB010E94C519182FA5
:1034B000BE01812F0E94FB09DF91CF911F910895DA
:1034C0008091C30185958595859508958091C30167
:1034D000877008959091C301977081E009F480E0AE
:1034E00008958091CF0108959091CF01892B809309
:1034F000CF01089580959091CF0189238093CF01CA
:1035000008951092CF0108959091CE01892B809358
:10351000CE01089580959091CE0189238093CE01AC
:1035200008951092CE0108959091CD01892B80933A
:10353000CD01089580959091CD0189238093CD018F
:1035400008951092CD0108958091C40108950895C1
:103550000C94A71A9091C401981721F08093C4018C
:103560000C94A81A08958091C401882329F0109220
:10357000C40180E00C94A81A0895E0910001F09134
:1035800001018091CF018083E0910001F091010160
:1035900090818091CE01892B8083E0910001F09190
:1035A000010190818091CD01892B80838091C4019C
:1035B000882381F0E0910001F09101019081892B35
:1035C000808380910001909101010E94D21B8111A2
:1035D0000E94B31A80910001909101010C94960E03
:1035E00008950C94F01A98E0899F90011124262BDD
:1035F0002093C3010E94F8188091C3018595859599
:1036000085950C94F11A1092C30180E00C94F11A84
:103610002091C301809582238093C301982F9770D6
:1036200079F430E0482F082E000C550B241735078D
:1036300039F08595859585950E9419190C94031B81
:10364000089590933D0180933C0108958295982FB1
:103650009C7C392F36953695282F237344E0249F80
:10366000C0011124932F982B292F2A7A2695892F70
:103670008575880F822B08951F93CF93DF931F9238
:10368000CDB7DEB799830E94261B182F9981892F09
:103690000E94261B212F30E0322F2227A901482B20
:1036A000CA010F90DF91CF911F91089580E090E0C3
:1036B0000E940B2D21E08D3E9E4F09F020E0822FCD
:1036C000089582E090E00C94032D83E090E00C9448
:1036D000032D84E090E00C94032D682F84E090E0AB
:1036E0000C94112DAB01BC018FE090E00C94232DC4
:1036F000AB01BC0183E190E00C94232D60E070E00D
:10370000CB010C94781B60E070E0CB010E94721B2F
:103710000C947E1B6DEE7EEF80E090E00E942F2DDA
:1037200060E082E090E00E94112D60E083E090E094
:103730000E94112D1092BF011092C0011092C10180
:103740001092C20160E084E090E00E94112D60E0E0
:1037500085E090E00E94112D60E086E090E00E94FC
:10376000112D6FEF87E090E00E94112D40E050E0B6
:10377000BA0188E090E00E94232D60E08DE090E0A7
:103780000E94112D40E050E0BA0188E190E00E94D3
:10379000232D60E087E190E00E94112D0C94831BA3
:1037A0000C948A1BFC01329697E080E0915029F03E
:1037B00021912223D9F38F5FF9CF08959C01FC0159
:1037C00032969FEF80E04191461789F09F3F19F4B0
:1037D000411101C0982F8F5F8630A9F79F3F39F0C4
:1037E000F901E90FF11D97FDFA9562830895089597
:1037F000FC01329608962081261301C01082319672
:10380000E817F907C1F708950C94DE1B0C94F81B18
:10381000029626E0FC0111922A95E9F70895089591
:103820000C940F1C0E94101C8091F801843049F107
:103830001092D10120E488E190E00FB6F894A895A9
:10384000809360000FBE2093600080E00E94D50846
:103850000E94101C83B7817F846083BF83B781601F
:1038600083BF7894889583B78E7F83BF0FB6F89413
:10387000A89580916000886180936000109260003C
:103880000FBE089508950895CF930E94421C0E9490
:10389000050D0E94431CC0E08C2F0E94560C892B02
:1038A00029F4CF5FC430C1F780E001C081E0CF913F
:1038B000089508950C94591C0E94BC140E948A0E0D
:1038C0000E94D5080C945A1C1F920F920FB60F92AB
:1038D00011248F939F93AF93BF938091D101811156
:1038E00013C08091EE019091EF01A091F001B09191
:1038F000F1014196A11DB11D8093EE019093EF015E
:10390000A093F001B093F101BF91AF919F918F917E
:103910000F900FBE0F901F90189582E084BD93E02A
:1039200095BD9AEF97BD80936E0008952FB7F894D8
:103930008091EE019091EF01A091F001B091F10121
:103940002FBF08952FB7F8946091EE017091EF01A9
:103950008091F0019091F1012FBF0895CF92DF92F5
:10396000EF92FF920F931F932FB7F8944091EE01BF
:103970005091EF016091F0017091F1012FBF6A0148
:103980007B01EE24FF248C0120E030E0C016D1063C
:10399000E206F30610F4415051099A01281B390B35
:1039A000C9011F910F91FF90EF90DF90CF90089584
:1039B00078941F920F920FB60F9211248F939F93BA
:1039C000AF93BF938091EE019091EF01A091F00130
:1039D000B091F1010196A11DB11D8093EE0190936C
:1039E000EF01A093F001B093F101BF91AF919F91CE
:1039F0008F910F900FBE0F901F90189581E08093CC
:103A0000E00080E28093D8001092C9008FE19EE42C
:103A10000197F1F700C0000087E090EBDC01809394
:103A2000010290930202A0930302B09304029CE06F
:103A300088E10FB6F894A895809360000FBE90932C
:103A40006000FFCF0E94561B811102C00E94D01B54
:103A50000E94611B8093D0010E94691B90E09093AB
:103A6000F3018093F2010E94651B682F70E080E0F3
:103A700090E00C9497188091D50180FF0BC0609165
:103A8000050185E0689FB0011124759567957595CE
:103A900067952BC081FF09C06091050185E0689F93
:103AA000B00111247595679520C082FF07C0609111
:103AB000050185E0689FB001112417C09091D401E1
:103AC0009923D1F060910401961788F720910501A0
:103AD00085E0289F90011124929FA001939F500D93
:103AE000112470E0CA010E94D52C6038710540F4A1
:103AF0006115710539F002C065E070E0862F089508
:103B00008FE7089581E008958091D50180FF08C076
:103B10006091030170E0759567957595679521C073
:103B200081FF06C06091030170E07595679519C02B
:103B300082FF04C06091030170E010C09091D40135
:103B40009923C1F0609102019617A0F780910301BB
:103B5000899FC001112470E00E94D52C6038710546
:103B600028F46115710521F0862F08958FE70895D7
:103B700081E0089561E070E0F4CF803F21F40E947D
:103B80003B1D819504C0813F29F40E943B1D809319
:103B9000D9010895823F21F40E943B1D819504C004
:103BA000833F29F40E943B1D8093D8010895893FEB
:103BB00019F40E94841D05C08A3F31F40E94841DBF
:103BC00081958093DA0108958B3F21F40E94841D32
:103BD000819504C08C3F29F40E94841D8093DB01F1
:103BE0000895843F21F48091D701816017C0853FFB
:103BF00021F48091D701826011C0863F21F4809129
:103C0000D70184600BC0873F21F48091D701886081
:103C100005C0883F31F48091D70180618093D7013E
:103C200008958D3F21F48091D50181600BC08E3FB6
:103C300021F48091D501826005C08F3F29F48091E5
:103C4000D50184608093D5010895803F39F4809137
:103C5000D90187FF6CC01092D90169C0813F29F456
:103C60008091D9011816BCF362C09091D801823FAF
:103C700029F497FF5CC01092D80159C0833F19F412
:103C80001916CCF354C0893F41F48091DA0118161B
:103C90000CF04DC01092DA014AC08A3F29F480919D
:103CA000DA0187FF44C0F6CF8B3F39F48091DB0106
:103CB00087FF3DC01092DB013AC08C3F29F4809110
:103CC000DB011816BCF333C0843F21F48091D70187
:103CD0008E7F17C0853F21F48091D7018D7F11C061
:103CE000863F21F48091D7018B7F0BC0873F21F461
:103CF0008091D701877F05C0883F31F48091D7013B
:103D00008F7E8093D70113C08D3F21F48091D50120
:103D10008E7F0BC08E3F21F48091D5018D7F05C031
:103D20008F3F29F48091D5018B7F8093D5018091BD
:103D3000D80181110EC08091D90181110AC08091F2
:103D4000DA01811106C08091DB01811102C010925D
:103D5000D40108958091D00183FF7EC08DEF93E060
:103D60000E945B078091D7011F928F9388EF93E0A9
:103D70009F938F930E94F40786EF93E00E945B0766
:103D80008091D801282F082E000C330B3F938F937E
:103D900083EF93E09F938F930E94F40781EF93E06A
:103DA0000E945B078091D901282F082E000C330B4D
:103DB0003F938F938EEE93E09F938F930E94F4072F
:103DC0008CEE93E00E945B078091DA01282F082E89
:103DD000000C330B3F938F9389EE93E09F938F9367
:103DE0000E94F40787EE93E00E945B078091DB015D
:103DF000282F082E000C330B3F938F9384EE93E013
:103E00009F938F930E94F40781EE93E00E945B07DB
:103E10008091D4011F928F938EED93E09F938F93A7
:103E20000E94F4078CED93E00E945B078091D5011E
:103E30001F928F9389ED93E09F938F930E94F407D5
:103E400086ED93E00E945B078DB79EB74C960FB648
:103E5000F8949EBF0FBE8DBF86ED91E00E94DF0EED
:103E60000E94961C9093D3018093D20108951F93D2
:103E7000CF93DF938091D2019091D3010E94AE1C29
:103E8000AC019091D401992321F02091060130E0FA
:103E900006C0209107018AE0289F90011124421753
:103EA000530708F47BC08091D801C091D901D0910B
:103EB000DA011091DB01811107C0C1116BC0D11172
:103EC00069C0111167C06AC09F3F19F09F5F90934E
:103ED000D401181624F40E943B1D8093D8018091D0
:103EE000D80187FF05C00E943B1D81958093D801B2
:103EF0001C1624F40E943B1D8093D9018091D901A6
:103F000087FF05C00E943B1D81958093D9013091A8
:103F1000D8013323E1F02091D9012223C1F045EBF0
:103F20003403C0011124892F990F990B009709F4CC
:103F300081E08093D80135EB2303C0011124892F40
:103F4000990F990B009709F481E08093D9011D1610
:103F500024F40E94841D8093DA018091DA0187FFA6
:103F600005C00E94841D81958093DA01111624F406
:103F70000E94841D8093DB018091DB0187FF05C0D7
:103F80000E94841D81958093DB01DF91CF911F9169
:103F90000C94AA1E9F3F09F099CFA1CFDF91CF913A
:103FA0001F910895E6EDF1E086E0DF011D928A950C
:103FB000E9F71092D4011092D501089580E296E0BD
:103FC0000E945B071F9281E08F931F9285E08F9381
:103FD00082ED95E09F938F930E94F4070F900F90CE
:103FE0000F900F900F900F9008958330E9F128F40F
:103FF000813061F0823009F10895853009F462C0A2
:1040000008F449C0863009F474C00895809107010E
:10401000262F30E0280F311D2F3F310524F4680F83
:104020006093070103C08FEF809307018091070120
:104030001F928F938BE095E072C080910601262F2E
:1040400030E0280F311D2F3F310524F4680F6093B5
:10405000060103C08FEF80930601809106011F9235
:104060008F9389EF94E05BC080910501262F30E0AB
:10407000280F311D2F3F310524F4680F609305018F
:1040800003C08FEF80930501809105011F928F93EC
:1040900086EE94E044C080910401262F30E0280F82
:1040A000311D2F3F310524F4680F6093040103C0D4
:1040B0008FEF80930401809104011F928F9381ED13
:1040C00094E02DC080910301262F30E0280F311D90
:1040D0002F3F310524F4680F6093030103C08FEF75
:1040E00080930301809103011F928F9388EB94E0EA
:1040F00016C080910201262F30E0280F311D2F3F7E
:10410000310524F4680F6093020103C08FEF8093A0
:104110000201809102011F928F938DE994E09F9399
:104120008F930E94F4070F900F900F900F900895B7
:10413000833081F128F4813059F08230D1F0089534
:10414000853009F449C0B8F1863009F456C00895A5
:1041500080910701681720F4861B8093070102C035
:1041600010920701809107011F928F938EE894E0CF
:1041700054C080910601681720F4861B80930601C5
:1041800002C010920601809106011F928F938CE766
:1041900094E043C080910501681720F4861B80934A
:1041A000050102C010920501809105011F928F93B5
:1041B00089E694E032C080910401681720F4861BE0
:1041C0008093040102C010920401809104011F92A7
:1041D0008F9384E594E021C080910301681720F457
:1041E000861B8093030102C010920301809103019A
:1041F0001F928F938BE394E010C0809102016817A7
:1042000020F4861B8093020102C01092020180916B
:1042100002011F928F9380E294E09F938F930E94FC
:10422000F4070F900F900F900F900895CF93C82F21
:104230001F928F9385E297E09F938F930E94F407DC
:1042400081E090E0A0E0B0E0BC01CD0104C0660FC9
:10425000771F881F991FCA95D2F70E9497180F9051
:104260000F900F900F90CF910C94BC14CF938B3183
:1042700009F4D1C108F067C18B3009F48AC108F094
:104280003DC1863009F488C120F4853009F496C117
:1042900044C2873009F4A4C1883009F03EC28CE4DE
:1042A0009CE00E945B078DE99BE00E945B070E94F7
:1042B000651B1F928F938AE99BE09F938F930E94C7
:1042C000F40788E99BE00E945B070E94611BC82FEE
:1042D00085E89BE00E945B071F92CF9380E89BE0FC
:1042E0009F938F930E94F4078EE79BE00E945B07E9
:1042F00084E79BE00E945B078C2F81701F928F9355
:1043000081E79BE09F938F930E94F4078FE69BE0E9
:104310000E945B0785E69BE00E945B07C1FB882744
:1043200080F91F928F9382E69BE09F938F930E9468
:10433000F40780E69BE00E945B0784E59BE00E9417
:104340005B07C2FB882780F91F928F9381E59BE072
:104350009F938F930E94F4078FE49BE00E945B077A
:1043600086E49BE00E945B07C3FBCC27C0F91F9249
:10437000CF9383E49BE09F938F930E94F40781E4A3
:104380009BE00E945B070E94691BC82F8DE29BE0A7
:104390000E945B071F92CF9388E29BE09F938F93CD
:1043A0000E94F40786E29BE00E945B078DE09BE0A1
:1043B0000E945B078C2F81701F928F938AE09BE095
:1043C0009F938F930E94F4078DB79EB780960FB688
:1043D000F8949EBF0FBE8DBF88E09BE00E945B07F4
:1043E00081EF9AE00E945B07C1FB882780F91F924A
:1043F0008F938EEE9AE09F938F930E94F4078CEE3A
:104400009AE00E945B078AED9AE00E945B07C2FB7C
:10441000882780F91F928F9387ED9AE09F938F935F
:104420000E94F40785ED9AE00E945B0783EC9AE016
:104430000E945B07C3FB882780F91F928F9380EC53
:104440009AE09F938F930E94F4078EEB9AE00E946C
:104450005B0784EB9AE00E945B07C4FB882780F926
:104460001F928F9381EB9AE09F938F930E94F407A2
:104470008FEA9AE00E945B078DE99AE00E945B0751
:10448000C5FB882780F91F928F938AE99AE09F9352
:104490008F930E94F40788E99AE00E945B078CE7FB
:1044A0009AE00E945B07C6FB882780F91F928F93D2
:1044B00089E79AE09F938F930E94F40787E79AE039
:1044C0000E945B078FE69AE00E945B07C7FBCC2740
:1044D000C0F91F92CF938CE69AE09F938F930E942E
:1044E000F4078AE69AE00E945B078DB79EB74C9668
:1044F0000FB6F8949EBF0FBE8DBF49C0803109F43E
:10450000B4C020F48E3009F49AC007C1863109F492
:10451000C7C0893109F001C181E998E00E945B07B9
:1045200088E798E00E945B078CE398E00E945B07B5
:1045300087EF97E00E945B0781EC97E00E945B07A2
:1045400083E997E08FC08A32E1F060F4873209F4A2
:10455000E0C028F48E3108F4E0C08D51DBC0893210
:1045600069F1DBC0833448F48A3308F0D0C0853366
:1045700009F4CFC0883369F0D0C0833409F4C9C0CE
:10458000CCC08BE39CE00E945B070E94D01BC1E083
:10459000C9C087EC98E066C08091D001817F8E7F92
:1045A0008093D00180EA98E00E945B0787E39CE05B
:1045B0000E945B0781E08093DD01E9CF0E94BC147B
:1045C0008BE19CE00E945B079FEF23ED80E391501D
:1045D00020408040E1F700C000000E94FE1CD7CFC1
:1045E0008091D001C82FC095C170C0FB80F9809325
:1045F000D001CC2329F08FE09CE00E945B0792C0A1
:1046000082E09CE00E945B078091D001897F877FD8
:104610008093D001BCCF9091D00191FBCC27C0F901
:1046200081E0C827892FC0FB81F98093D001CC237A
:1046300019F085EF9BE029C087EE9BE013C09091B5
:10464000D00192FBCC27C0F981E0C827892FC0FB9D
:1046500082F98093D001CC2319F088ED9BE015C03E
:1046600088EC9BE00E945B0792CF9091D00193FB76
:10467000CC27C0F981E0C827892FC0FB83F980933C
:10468000D001CC2351F08CEB9BE00E945B07809122
:10469000D00181608093D00145C08FEA9BE0E2CFDA
:1046A00085E897E00E945B070E948A0E1F928F9315
:1046B0008BE697E09F938F930E94F40780911201FD
:1046C0001F928F9384E597E09F938F930E94F40746
:1046D0008091EA011F928F9381E497E09F938F93DB
:1046E0000E94F4070E94A21C9F938F937F936F9365
:1046F0008AE297E09F938F930E94F4078DB79EB74D
:1047000042960FB6F8949EBF0FBE8DBF40CF89531F
:1047100001C080E00E9416213ACF8DEA9BE00E9402
:104720005B07C0E08C2FCF91089580E0089580E072
:1047300008958E518A3030F4E82FF0E0ED5DFE4FA1
:104740008081089580E00895CF93C82F8091DD0186
:10475000813059F020F0823009F445C039C10E94FF
:10476000711A823209F036C104C00E94711A823275
:1047700061F48C2F0E949523811104C08C2F0E941C
:1047800036212FC081E090E02CC08C2F0E9497230F
:10479000811126C0C431E1F070F4CB3081F0C0311A
:1047A000D1F40E94DE1F8DE197E00E945B0782E05A
:1047B0008093DD0115C0C93259F0C83361F480EA35
:1047C00098E00E945B0781E297E00E945B0708C0C7
:1047D0001092DD0101C18BE197E00E945B07FCC0F4
:1047E00081E08170FBC0C43228F5CE3108F0C1C031
:1047F000CB30A1F1D0F4C73009F0D0C08EE1809366
:10480000070182E3809306018AE08093050184E139
:104810008093040188E08093030188E28093020181
:1048200081EC95E00E945B07BCC0C33149F1C43103
:10483000C1F0B4C0CB3409F4A6C028F4C93289F061
:10484000C83361F0ABC0C13509F49BC0C23509F46F
:1048500096C0CE3409F0A2C06AE09BC00E94DE1F61
:10486000A0C08091DC01882319F01092DC0199C06E
:104870008EEC95E00E945B0781E08093DD01AEC085
:1048800088EA95E00E945B0786E995E00E945B0755
:10489000809107011F928F9383E995E09F938F93F7
:1048A0000E94F40781E995E00E945B078FE795E09D
:1048B0000E945B07809106011F928F938CE795E021
:1048C0009F938F930E94F4078AE795E00E945B070D
:1048D0008BE695E00E945B07809105011F928F9304
:1048E00088E695E09F938F930E94F40786E695E013
:1048F0000E945B0785E595E00E945B0780910401BB
:104900001F928F9382E595E09F938F930E94F40707
:1049100080E595E00E945B078BE395E00E945B07D2
:10492000809103011F928F9388E395E09F938F936B
:104930000E94F40786E395E00E945B078FE195E013
:104940000E945B07809102011F928F938CE195E09A
:104950009F938F930E94F4078AE195E00E945B0782
:104960008DB79EB748960FB6F8949EBF0FBE8DBF09
:1049700018C08C2F0E9499238093DC0112C061E043
:1049800003C061E006C06AE08091DC010E94F51F6F
:1049900008C08091DC010E94982003C08FEB95E055
:1049A00013C08091DC01882369F01F928F9389EBFB
:1049B00095E09F938F930E94F4070F900F900F90B4
:1049C0000F9004C086EB95E00E945B0781E006C073
:1049D0001092DD0180E002C080E003CFCF91089506
:1049E0008091E90108959FB7F8941092E0019FBF6C
:1049F0009091F801943009F057C09091E9009F70B0
:104A00003091EC00232F217030FD20E8922B23E021
:104A10002093E9002091EB0020FF43C02091EE009D
:104A200027FF3FC02091DE01222321F02091E800E2
:104A300025FF37C01092DE0126E03091E80035FDF9
:104A400015C03091F801343061F53091EB0035FD3F
:104A500028C0215021F481E08093DE0122C0EFE9DB
:104A6000FFE03197F1F700C00000E7CF8093F1003D
:104A70008091E80085FD0AC08091E80080FFFCCFAE
:104A80008091E8008E778093E80006C08FB7F89495
:104A900021E02093E0018FBF9F709093E90080E0B8
:104AA00008959F709093E9008FEF08950F931F93DF
:104AB000CF93DF9300D01F92CDB7DEB78C010E9459
:104AC0001128823011F0843021F584E089831B8322
:104AD0000A8382E08093E9008FEF9091E800815093
:104AE00095FD06C095ED9A95F1F700008111F5CF7F
:104AF0008091E80085FF0DC040E050E063E070E089
:104B0000CE0101960E942E288091E8008E77809336
:104B1000E8000F900F900F90DF91CF911F910F91B0
:104B20000895CF93DF9300D01F92CDB7DEB72091C9
:104B3000F801243031F523E02983805891099B83C3
:104B40008A8382E08093E9008FEF9091E8008150A2
:104B500095FD06C095ED9A95F1F700008111F5CF0E
:104B60008091E80085FF0DC040E050E063E070E018
:104B7000CE0101960E942E288091E8008E778093C6
:104B8000E8000F900F900F90DF91CF910895CF9391
:104B9000DF93EC010E941128823011F08430F9F487
:104BA00082E08093E9009FEF8091E800915085FDBD
:104BB00006C085ED8A95F1F700009111F5CF80913F
:104BC000E80085FF0CC040E050E066E070E0CE01F8
:104BD0000E942E288091E8008E778093E800DF9174
:104BE000CF910895CF93DF93EC010E94112882307A
:104BF00011F0843039F581E08093E9008FEF9091D6
:104C0000E800815095FD06C095ED9A95F1F70000FA
:104C10008111F5CF8091E80085FF14C040E050E09D
:104C200068E070E0CE010E942E288091E8008E7727
:104C30008093E80088E0FE01A1EEB1E001900D92C2
:104C40008A95E1F7DF91CF9108958CE79CE00E946F
:104C50005B078091F701811109C00E94C3290E945E
:104C6000202A8091E20084608093E200089588E722
:104C70009CE00E945B071092F701089584E79CE096
:104C80000C945B0780E79CE00C945B078CE69CE04F
:104C90000E945B070C945C1C2091DF012F5F822F28
:104CA00062E30E94C92C992319F02093DF01089533
:104CB0001092DF018091E001882371F18091F80169
:104CC000843041F58091E9008F702091EC00922FA3
:104CD000917020FD90E8892B93E09093E9009091EA
:104CE000EB0090FF14C09091EE0097FF10C09091E0
:104CF000E80095FF03C01092F100F9CF9091E80011
:104D000090FF05C09091E8009E779093E8008F7027
:104D10008093E9001092E001089542E061EC81E0A7
:104D20000E943D2942E261EC82E00E943D2942E27C
:104D300061EC83E00C943D298091FA01833009F401
:104D400060C030F4813071F0823009F499C0089568
:104D50008A3009F485C08B3009F46BC0893009F0C2
:104D6000A7C020C08091F901813A09F0A1C08091CB
:104D7000E800877F8093E8008091FD019091FE011B
:104D8000892B21F468E081EE91E003C060E080E0CF
:104D900090E070E00E9479288091E8008B77809302
:104DA000E80008958091F901813209F081C0809175
:104DB000FD019091FE01029708F07AC08091E80011
:104DC000877F8093E8008091E80082FD05C0809194
:104DD000F8018111F8CF6CC02091F3008091F200AE
:104DE00090E0922B029729F48091F1008B7F813023
:104DF00021F48091F1008093E9018091E8008B77A4
:104E000053C08091F901813A09F052C08091FD01AF
:104E10009091FE01892B09F04BC08091E800877FBB
:104E20008093E8008091E80080FFFCCF8091120120
:104E300036C08091F9018132D9F58091FD019091C0
:104E4000FE01892BA9F58091E800877F8093E80017
:104E50000E9472298091FB01809312010C94BC1472
:104E60008091F901813221F58091E800877F80935C
:104E7000E8000E9472298091FC018093EA01089564
:104E80008091F901813AA1F48091E800877F8093B5
:104E9000E8008091E80080FFFCCF8091EA018093D8
:104EA000F1008091E8008E778093E8000C947229DD
:104EB000089584B7877F84BF0FB6F894A895809132
:104EC0006000886180936000109260000FBE80E8EF
:104ED00080936100109261000E94270F0E94C329F5
:104EE0000E94202A8091E20084608093E20083EF98
:104EF00094E20E94211B78940E94AE2C0E942F0FF6
:104F000088E091E00E94850E8BE59CE00E945B07A3
:104F10008091F801853089F487E59CE00E945B0769
:104F20000E94121C8091F601882391F30E94441C78
:104F3000882371F30E941828EBCF0E945F0FE8CFFF
:104F40000C94A227292F332723303105C9F064F4AC
:104F50002130310581F02230310509F049C08BE55F
:104F600090E028EB3CE048C02132310521F12232AB
:104F7000310571F13DC082E190E023E13DE03CC0AC
:104F800099278130910571F02CF4892B89F5E4EB98
:104F9000FCE00DC08230910541F0039749F5E0E84F
:104FA000FCE005C0E4EAFCE002C0E6E8FCE0849135
:104FB00090E09F0121C063307105D0F4660F771F28
:104FC000FB01EA5CFE4F2081318189E090E014C052
:104FD0006330710568F4FB01EE0FFF1FE05DFE4FCB
:104FE00020813181FB01E35DFE4F808190E004C0B0
:104FF00080E090E020E030E0FA01318320830895E2
:105000000895CF93C82F0E940028C093EB01CF9141
:1050100008958091F801843011F081E0089582E0D4
:1050200008958091EB01811102C00C940928089524
:1050300080E189BD82E189BD09B400FEFDCF809188
:10504000D8008F7D8093D8008091E00082608093AB
:10505000E0008091E00081FDFCCF0895CF92DF92C7
:10506000EF92FF920F931F93CF93DF93EC018B018D
:105070006A010E949129811133C0C114D10439F011
:10508000F60180819181081B190BC80FD91FE12CF3
:10509000F12C0115110519F18091E80085FD16C06C
:1050A0008091E8008E778093E800C114D10449F024
:1050B000F60180819181E80EF91EF182E08285E09F
:1050C0000FC00E949129882321F30AC089918093FF
:1050D000F10001501109FFEFEF1AFF0ADACF80E06B
:1050E000DF91CF911F910F91FF90EF90DF90CF90C4
:1050F00008952091FF01309100022617370748F0EC
:105100006115710539F42091E8002E772093E800AD
:1051100001C0B90140E061157105A9F12091F801C4
:10512000222309F443C0253009F442C02091E8004D
:1051300023FD40C02091E80022FD32C02091E8000C
:1051400020FFE9CF4091F3002091F20030E0342BB2
:10515000FC01CF016115710559F02830310540F48B
:1051600081918093F100615071092F5F3F4FF1CF22
:1051700041E02830310509F040E02091E8002E7729
:105180002093E800C8CF4111C9CF0AC08091F8012F
:10519000882361F0853061F08091E80083FD0AC0CA
:1051A0008091E80082FFF2CF80E0089582E00895C8
:1051B00083E0089581E008952091FF01309100027D
:1051C0002617370748F06115710539F42091E8007A
:1051D0002E772093E80001C0B901FC0120E06115A1
:1051E000710591F18091F801882309F440C0853060
:1051F00009F43FC08091E80083FD3DC08091E80044
:1052000082FD2FC08091E80080FFE9CF2091F3005C
:105210008091F20090E0922B6115710559F0883071
:10522000910540F424912093F10031966150710969
:105230000196F2CF21E0089709F020E08091E80084
:105240008E778093E800CBCF2111CCCF0AC080911C
:10525000F801882361F0853061F08091E80083FDDA
:105260000AC08091E80082FFF2CF80E0089582E0DA
:10527000089583E0089581E00895982F973058F5B8
:105280009093E900981739F07091EC002091ED00AF
:105290005091F00003C0242F762F50E021FF19C059
:1052A0003091EB003E7F3093EB003091ED003D7F7D
:1052B0003093ED003091EB0031603093EB00709350
:1052C000EC002093ED005093F0002091EE0027FFBA
:1052D00007C09F5FD3CF8F708093E90081E008956E
:1052E00080E008958091F90187FF11C08091E80066
:1052F00082FD05C08091F8018111F8CF11C0809125
:10530000E8008B770BC08091F801882349F08091E9
:10531000E80080FFF8CF8091E8008E778093E80066
:1053200008952091E4003091E50095E64091EC006D
:10533000842F817040FF22C08091E80080FD1CC056
:105340008091F801882391F0853091F08091EB00F5
:1053500085FD10C04091E4005091E50042175307CD
:1053600029F39A01915011F784E0089582E008959D
:1053700083E0089581E0089580E008954091E80079
:1053800042FFDECF08950E94312A0E94392AE0EEC2
:10539000F0E0808181608083E8EDF0E080818F77AC
:1053A000808319BCA7EDB0E08C918E7F8C938081B7
:1053B0008F7E80831092F70108950F931F93CF93F0
:1053C000DF930E94312A0E94392AC8EDD0E08881FB
:1053D0008F77888388818068888388818F7D8883A0
:1053E00019BC1092F8011092F4011092F60110927B
:1053F000F50100EE10E0F80180818B7F80838881C9
:105400008160888342E060E080E00E943D29E1EE17
:10541000F0E080818E7F8083E2EEF0E08081816029
:105420008083808188608083F80180818E7F808383
:10543000888180618883DF91CF911F910F910895BA
:10544000E8EDF0E080818F7E8083E7EDF0E0808101
:105450008160808384E082BF81E08093F7010C94B7
:10546000DD29E8EDF0E080818E7F80831092E200FC
:1054700008951092DA001092E10008951F920F92A1
:105480000FB60F9211242F933F934F935F936F9317
:105490007F938F939F93AF93BF93EF93FF938091ED
:1054A000E10082FF0BC08091E20082FF07C0809183
:1054B000E1008B7F8093E1000E944C268091DA000E
:1054C00080FF1FC08091D80080FF1BC08091DA0050
:1054D0008E7F8093DA008091D90080FF0DC080E13B
:1054E00089BD82E189BD09B400FEFDCF81E08093D2
:1054F000F8010E94252605C019BC1092F8010E94EF
:1055000037268091E10080FF19C08091E20080FF82
:1055100015C08091E2008E7F8093E2008091E200CE
:1055200080618093E2008091D80080628093D800EF
:1055300019BC85E08093F8010E9442268091E10029
:1055400084FF30C08091E20084FF2CC080E189BDDF
:1055500082E189BD09B400FEFDCF8091D8008F7D26
:105560008093D8008091E1008F7E8093E10080914C
:10557000E2008F7E8093E2008091E2008160809360
:10558000E2008091F401882311F084E007C080914B
:10559000E30087FD02C081E001C083E08093F80151
:1055A0000E9446268091E10083FF29C08091E2009D
:1055B00083FF25C08091E100877F8093E10082E036
:1055C0008093F8011092F4018091E1008E7F809326
:1055D000E1008091E2008E7F8093E2008091E20002
:1055E00080618093E20042E060E080E00E943D291B
:1055F0008091F00088608093F0000E943E26FF9129
:10560000EF91BF91AF919F918F917F916F915F913A
:105610004F913F912F910F900FBE0F901F901895B3
:105620001F920F920FB60F9211242F933F934F9317
:105630005F936F937F938F939F93AF93BF93CF931A
:10564000DF93EF93FF93C091E900CF708091EC005E
:10565000D82FD17080FDD0E81092E9008091F00041
:10566000877F8093F00078940E94542B1092E90079
:105670008091F00088608093F000CD2BCF70C093B4
:10568000E900FF91EF91DF91CF91BF91AF919F9191
:105690008F917F916F915F914F913F912F910F90DB
:1056A0000FBE0F901F9018951F93CF93DF93CDB728
:1056B000DEB7AA970FB6F894DEBF0FBECDBFE9EFF5
:1056C000F1E088E08E0F9091F10091938E13FBCF63
:1056D0000E949C268091E80083FF28C18091F901F7
:1056E0009091FA01492F50E04A30510508F01EC14F
:1056F000FA01E556FF4F0C94E92C803821F08238EE
:1057000009F014C108C08091F5019091F601992328
:1057100089F082600FC08091FD018F70873008F0A2
:1057200005C18093E9008091EB0085FB882780F913
:105730001092E9009091E800977F9093E8008093A1
:10574000F1001092F100D0C0282F2D7F09F0EEC09B
:10575000882319F0823061F0E9C08091FB0181302B
:1057600009F0E4C0933009F080E08093F6012EC088
:105770008091FB0181112AC08091FD018F702FEF74
:10578000280F263008F0D2C08093E9002091EB006A
:1057900020FF1CC0933021F48091EB00806214C084
:1057A0009091EB0090619093EB0021E030E0A90133
:1057B00002C0440F551F8A95E2F74093EA00109209
:1057C000EA008091EB0088608093EB001092E90082
:1057D0008091E800877F8093E8000E947229A6C02C
:1057E0008111A4C01091FB011F778091E3008078A4
:1057F000812B8093E3008091E800877F8093E8000D
:105800000E9472298091E80080FFFCCF8091E30024
:1058100080688093E300111102C082E001C083E040
:105820008093F80183C08058823008F07FC0809157
:10583000FB019091FC018C3D53E0950779F583E0E5
:105840008A838AE289834FB7F894DE01139620E0B9
:105850003EE051E2E32FF0E050935700E49120FF47
:1058600003C0E295EF703F5FEF708E2F90E0EA305B
:1058700010F0C79601C0C0968D939D932F5F243181
:1058800049F74FBF8091E800877F8093E8006AE284
:1058900070E0CE0101960E94792815C06091FD014B
:1058A0007091FE01AE014F5F5F4F0E94A027BC01C7
:1058B000892BE1F19091E800977F9093E80089812E
:1058C0009A810E94DC288091E8008B778093E80021
:1058D0002DC0803859F58091E800877F8093E800DB
:1058E0008091F4018093F1008091E8008E7773CF6E
:1058F00081111CC09091FB019230C0F48091E800AE
:10590000877F8093E8009093F4010E947229809130
:10591000F401811106C08091E30087FD02C081E09F
:1059200001C084E08093F8010E948D268091E800F8
:1059300083FF0AC08091E800877F8093E800809110
:10594000EB0080628093EB00AA960FB6F894DEBF5E
:105950000FBECDBFDF91CF911F910895CF9380915E
:10596000F8018823A1F0C091E900CF709091EC007C
:10597000892F817090FD80E8C82B1092E9008091FA
:10598000E80083FD0E94542BCF70C093E900CF91B3
:105990000895991B79E004C0991F961708F0961B8B
:1059A000881F7A95C9F78095089597FB072E16F4FE
:1059B000009407D077FD09D00E94EF2C07FC05D09A
:1059C0003EF4909581959F4F0895709561957F4F16
:1059D0000895EE0FFF1F0590F491E02D0994AA1B86
:1059E000BB1B51E107C0AA1FBB1FA617B70710F0CA
:1059F000A61BB70B881F991F5A95A9F780959095FC
:105A0000BC01CD010895F999FECF92BD81BDF89AF0
:105A1000992780B50895A8E1B0E042E050E00C94E9
:105A2000372D262FF999FECF92BD81BDF89A0197A7
:105A300000B4021639F01FBA20BD0FB6F894FA9AD6
:105A4000F99A0FBE08950396272F0E94122D0E94E7
:105A5000112D252F0E94122D242F0C94122D01960A
:105A6000272F0E94122D0C94112DDC01CB01FC017B
:105A7000F999FECF06C0F2BDE1BDF89A319600B4A7
:0E5A80000D9241505040B8F70895F894FFCFB2
:105A8E00C5012808140A321EF024F225C7259125D7
:105A9E00562501F4F5F6F7313332363534C6979282
:105AAE009391900102030405060708090040852220
:0C5ABE00CC0D470D250DCA0CE30CFC0CB0
:00000001FF
