:100000000C9489060C94D0060C94D0060C944508E8
:100010000C94D0060C94D0060C94D0060C94D00608
:100020000C94D0060C94D0060C942F2C0C94012D1B
:100030000C949C270C94D0060C94D0060C94D006FB
:100040000C94D0060C94D0060C94D0060C94D006D8
:100050000C94D0060C9404280C94D0060C94D00672
:100060000C94D0060C94D0060C94D0060C94D006B8
:100070000C94D0060C94D0060C94D0060C94D006A8
:100080000C94D0060C94D0060C94D0060C94D00698
:100090000C942A070C94D0060C94D0060C94D0062D
:1000A0000C94D0060C94D0060C94D0062312251282
:1000B0003012271229122B122D122F123212341243
:1000C0003612411238123A123C123E1240124312BA
:1000D0002C1E2C1E5E1E5E1ECA1FCA1FCA1FCA1FF0
:1000E0009E1ECA1F4B1F4B1FBA1FCA1FCA1FC31F0A
:1000F000581F581F581F581F581F581F581F581F48
:10010000581F581F581F581F581F581F581F581F37
:10011000671F751F7C1F831F8D1F4D204D205F2083
:100120005F2056205F205F205F204D204D205B2008
:100130005F205F205B206E2D952D872E952D872EBD
:10014000E12D042E872E5A2E692E07634236B79B67
:10015000D8A71A39685618AEBAAB558C1D3CB7CC27
:100160005763BD6DEDFD753EF6177231BF0000009F
:10017000803F05A84CCDB2D44EB93836A9020C50F8
:10018000B9918688083CA6AAAA2ABE000000803F32
:100190000000000000003E5B4F5B3E003E6B4F6B7B
:1001A0003E001C3E7C3E1C00183C7E3C18001C5748
:1001B0007D571C001C5E7F5E1C0000183C18000070
:1001C000FFE7C3E7FF00001824180000FFE7DBE7A4
:1001D000FF0030483A060E00262979292600407F84
:1001E00005050700407F05253F005A3CE73C5A00C3
:1001F0007F3E1C1C0800081C1C3E7F0014227F222E
:1002000014005F5F005F5F0006097F017F000066EA
:1002100089956A0060606060600094A2FFA294000B
:1002200008047E04080010207E20100008082A1C04
:100230000800081C2A0808001E10101010000C1ED0
:100240000C1E0C0030383E383000060E3E0E060004
:1002500000000000000000005F0000000007000731
:100260000000147F147F1400242A7F2A1200231315
:100270000864620036495620500000080703000059
:10028000001C224100000041221C00002A1C7F1C8F
:100290002A0008083E0808000080703000000808A6
:1002A0000808080000006060000020100804020038
:1002B0003E5149453E0000427F4000007249494995
:1002C00046002141494D33001814127F1000274584
:1002D000454539003C4A494931004121110907008F
:1002E000364949493600464949291E000000140094
:1002F00000000040340000000008142241001414E3
:1003000014141400004122140800020159090600C7
:100310003E415D594E007C1211127C007F494949D3
:1003200036003E41414122007F4141413E007F492C
:10033000494941007F09090901003E4141517300CB
:100340007F0808087F0000417F4100002040413FB6
:1003500001007F08142241007F40404040007F029E
:100360001C027F007F0408107F003E4141413E0097
:100370007F09090906003E4151215E007F091929C4
:10038000460026494949320003017F0103003F40EE
:1003900040403F001F2040201F003F4038403F00AA
:1003A0006314081463000304780403006159494D81
:1003B0004300007F41414100020408102000004139
:1003C00041417F00040201020400404040404000DF
:1003D0000003070800002054547840007F2844445C
:1003E0003800384444442800384444287F003854B6
:1003F0005454180000087E09020018A4A49C780038
:100400007F080404780000447D4000002040403D07
:1004100000007F102844000000417F4000007C0461
:10042000780478007C080404780038444444380098
:10043000FC182424180018242418FC007C08040448
:10044000080048545454240004043F4424003C4011
:1004500040207C001C2040201C003C4030403C00E0
:100460004428102844004C9090907C004464544CE4
:100470004400000836410000000077000000004101
:10048000360800000201020402003C2623263C003C
:1004900003071F7FFFFFFEF8F0C020F8FEFFFE7984
:1004A000271F7FFFFFFEF8F0C020F8FEFFFF7F3F11
:1004B0003F7FFFFEF8F0C000000000FFFFFFFFFFDE
:1004C000FF00000000000000FF7F7F7FBFBFC0C0B3
:1004D000C0E0E0E0E0F0F0F0F878787C3C3CFEFE34
:1004E000FEFFFFFF00000000000000000000808011
:1004F000BFBFDFDFEFEF0003071F7FFFFFFFFEF847
:10050000E0C0E0F8FEFFFFFF7F1F07030000E0F000
:10051000F0F0E0ECEEF7F37020007C7C7C7E007E57
:100520007E7E7F7F7F000080C0E07E5B4F5BFEC0F1
:100530000000C000DCD7DEDEDED7DC00C00000003B
:1005400000000000000000000000000000000000AB
:1005500000000000C1F3CFBF7FFFFFFCFBE781007D
:1005600000000080E3CF3FFFFFFFFCFBE7810000BE
:10057000000081E7FFFFFFFF3C0000FFFFFFFFFFE0
:10058000FFF8F8FC7C7E7E3EFEFFFFFFFFFFF7F7E3
:10059000F7FBFB7D7D7DBEBEBEDFDFE0E000FFFF41
:1005A000FFFFFFFF00FCFC7C7E7E3E3E1F1F1F0FF7
:1005B000FFFFFFFFFFFF000000000081E7FFFFFFDC
:1005C000FFFFFFFFFFFFE7810000000000000F1F9B
:1005D0003F7F7F7F7F7F3F1E0C001F1F1F3F003F1D
:1005E0003F3F7F7F7F00307B7F7830202030787FD7
:1005F0003B0003000F7F0F0F0F7F0F000300000071
:1006000000000000000000000000000000000000EA
:1006100060707C7F7F7F7F1F0601030F3F7F7F7E9F
:100620007C7C7E7F7F7F1F0601070F3F7F7F7E7C64
:100630007C7E7F7F3F0F03000000007F7F7F7F7FF6
:100640007F000000000000007F7F7F7F7F7F7D7D37
:100650003D3E1E1F1F1F0F0F0707070303007F7F6D
:100660007F7F7F7F7C7C7C7C7C7C7C7C7C7C7C003A
:100670007F7F7F7F7F7F004070787E7F7F7F3F0F0F
:100680000301030F3F7F7F7F7E78704000000000F2
:10069000000000000000000000000000000000005A
:1006A000000000000000000000000000000000004A
:1006B000000000000000000000000000000000003A
:1006C000000000000000000000000000000000002A
:1006D00041646A757374004C6F776572005261698A
:1006E00073650044656661756C74000A4C617965D8
:1006F000723A20000A000A0002E26003E20002E20D
:100700006003E20035001E001F00200021002200CF
:1007100000002B0014001A0008001500170000004C
:10072000E00004001600070009000A000000E100D4
:100730001D001B000600190005002F002900E00025
:10074000E300E2002C002C00F35C2A0027002600C6
:1007500025002400230000003100130012000C00CB
:1007600018001C000000340033000F000E000D00C4
:100770000B00000028003800370036001000110080
:1007800030004F00520051005000F85CF55CF45C02
:1007900035001E001F0020002100220000002B0059
:1007A00014001A00090013000A000000E000040011
:1007B00015001600170007000000E1001D001B00D7
:1007C0000600190005002F00F55C2900E200E30097
:1007D000F75CF35C2C004C00270026002500240069
:1007E000230000002A0033001C0018000F000D0039
:1007F0000000340012000C00080011000B00000083
:10080000280038003700360010000E0030004F007E
:10081000520051005000F85CF45C2C0035001E00C2
:100820001F0020002100220000002B0034003600B1
:10083000370013001C000000E00004001200080054
:1008400018000C000000E100330014000D000E0041
:100850001B002F00F55C2900E200E300F75CF35C6D
:100860002C002A0027002600250024002300000079
:100870004C000F00150006000A00090000003800B7
:100880001600110017000B000700000028001D00D3
:1008900019001A001000050030004F0052005100EE
:1008A0005000F85CF45C2C0035021E021F0220028E
:1008B00021022202000035021E021F022002210234
:1008C0002202000001003A003B003C003D003E00D7
:1008D00000000100400041004200430044002602A5
:1008E0000100010001000100010001000100010000
:1008F000270226022502240223020000010027020B
:1009000026022502240223020000310230022F02B7
:100910002E022D023F00000001004D004A000100A0
:10092000010045002702AE00A900AA00AB000100AB
:100930000100010035001E001F00200021002200E0
:10094000000035001E001F002000210022000000D2
:1009500001003A003B003C003D003E000000010069
:10096000400041004200430044000100010001003A
:10097000010001000100010001002A0027002600FB
:1009800025002400230000004C002700260025003D
:10099000240023000000310030002F002E002D0025
:1009A0003F00000001004B004E0001000100450027
:1009B0000100AE00A900AA00AB0001000100010087
:1009C0003A003B003C003D003E003F0000000100BB
:1009D000005CF95C01000100010000000100010061
:1009E00001001D5C1E5C135C0000010001000100A1
:1009F00001000100010001000100010001000100EF
:100A00000100010001004500440043004200410094
:100A1000400000004C000100010001000100010045
:100A2000000001000100F25CF15CF05C0A5C000077
:100A3000C95CC75CC55CC25C010001000100CA5C06
:100A4000C85CC65CC35C010001000100000000003E
:100A5000000000002A2B2800000000000000000019
:100A60000000000000000029000000002C1E3420BF
:100A7000212224342627252E362D3738271E1F20E5
:100A80002122232425263333362E37381F0405062A
:100A90000708090A0B0C0D0E0F101112131415166E
:100AA0001718191A1B1C1D2F3130232D350405066C
:100AB0000708090A0B0C0D0E0F101112131415164E
:100AC0001718191A1B1C1D2F3130354C000000005F
:100AD0000000000000000000000000000000000016
:100AE0000000000000000000000000000001010103
:100AF00001010100010101010000000000000000EF
:100B000000000000000001000100010101010101DD
:100B100001010101010101010101010101010101C5
:100B200001010101010101000000010100000000BC
:100B300000000000000000000000000000000000B5
:100B40000000000000000001010101007F3F1F6460
:100B50003214643214783C1E1E140A056801F00039
:100B6000B40078005A0000000000000101010101FA
:100B70000101010102020202020202020203030356
:100B80000303030303040404040404050505050525
:100B900006060606060707070708080808090909E0
:100BA0000A0A0A0A0B0B0B0C0C0C0D0D0D0E0E0F86
:100BB0000F0F101011111112121313141415151612
:100BC000161717181819191A1A1B1C1C1D1D1E1F81
:100BD0001F20202122222324252526272728292AD1
:100BE0002B2B2C2D2E2F2F303132333435363637F8
:100BF00038393A3B3C3D3E3F4041424344464748FA
:100C0000494A4B4C4D4F50515253555657585A5BC9
:100C10005C5E5F606263646667696A6C6D6E70716A
:100C200073747678797B7C7E8081838486888A8BD6
:100C30008D8F91929496989A9B9D9FA1A3A5A7A909
:100C4000ABADAFB1B3B5B7B9BBBDBFC1C4C6C8CA00
:100C5000CCCFD1D3D6D8DADCDFE1E4E6E8EBEDF0B7
:100C6000F2F5F7FAFCFF0403300000001603480019
:100C700065006C0069007800200042006500740087
:100C800061000000140359007500730068006100E2
:100C90006B006F0062006F0000000403090409028A
:100CA0002200010100A0C8090400000103010100A5
:100CB0000921110100012240000705810308000AF3
:100CC0001201100100000008EDFE60300100010279
:100CD000030105010906A101050719E029E715002F
:100CE00025019508750181029501750881010508A6
:100CF0001901290595057501910295017503910169
:100D00000507190029FF150026FF009506750881C3
:100D100000C011241FBECFEFDAE0DEBFCDBF04B6A6
:100D200003FE27C080913B0390913C03A0913D03BB
:100D3000B0913E038730904BA740B04BD1F4109256
:100D40003B0310923C0310923D0310923E0314BEED
:100D500084B7877F84BF0FB6F894A8958091600010
:100D6000886180936000109260000FBEE0E0F8E3BD
:100D7000099511E0A0E0B1E0EAE3FBE602C00590CE
:100D80000D92A43CB107D9F723E0A4ECB1E001C077
:100D90001D92AB33B207E1F70E9464290C949B3596
:100DA0000C94000083E390E02091BC0027FD02C07A
:100DB0000197D1F708951092B9008CE08093B800A4
:100DC0000895CF93DF931F92CDB7DEB794EA909347
:100DD000BC0089830E94D2069091B900987F8981D6
:100DE000983039F09091B900987F903111F081E0FE
:100DF00012C08093BB0084E88093BC000E94D2069E
:100E00008091B900887F883129F08091B900887F6E
:100E1000803469F780E00F90DF91CF91089584E9E5
:100E20008093BC0083E390E02091BC0024FD02C0CD
:100E30000197D1F708958093BB0084E88093BC00AC
:100E40000E94D2069091B900987F81E0983209F40F
:100E500080E008951F920F920FB60F9211248F9386
:100E60009F93EF93FF938091B900887F803869F05A
:100E700038F48823C9F18036C9F51092C40136C010
:100E8000883A09F1883BF9F031C08091C4018111A1
:100E900011C08091BB008093C5018091C501803154
:100EA00020F01092C50180E001C081E091E09093B4
:100EB000C4011DC0E091C501F0E08091BB00E85580
:100EC000FD4F808308C0E091C501F0E0E855FD4F7B
:100ED00080818093BB008091C50190E001968F7066
:100EE00099278093C50102C01092BC0081E09091C7
:100EF000BC0095688295880F880F807C892B809331
:100F0000BC00FF91EF919F918F910F900FBE0F90BA
:100F10001F9018958EE14A9B02C08150E1F74A9BD1
:100F2000FECF08955A9880E28A95F1F75A9A08956B
:100F3000FC014AE04A95F1F730E090E080E021E0E2
:100F4000961779F040E14A95F1F7880F4A9B02C065
:100F50008160322700C0000040E14A95F1F79F5FB1
:100F6000EFCF90E19A95F1F729B100C0000040E180
:100F70004A95F1F722FB992790F993272081920F48
:100F800090830895EF92FF920F931F93CF93DF9377
:100F90001F92CDB7DEB7F62E1982E82E8C01802F76
:100FA0008E198F1558F40E948A0768E0CE010196C9
:100FB0000E949807F80181938F01F1CF81E0998118
:100FC000911180E00F90DF91CF911F910F91FF90D1
:100FD000EF9008959093C8018093C7016093C60174
:100FE000529A5A9A08959093C8018093C7016093CA
:100FF000C60152985A9AEA9AE9E6F0E080818F7C1D
:1010000080830895615091E001C0990F6A95EAF7D5
:1010100020E031E0992361F0492F482319F05A9AD2
:10102000232701C05A9840E24A95F1F79695F2CFEE
:10103000222311F05A9A01C05A9880E28A95F1F75A
:101040005A980895EF92FF920F931F93CF93DF93D7
:101050001F92CDB7DEB7162F082F7C018E2D801B77
:10106000811758F4F70181917F0189830E949207CB
:1010700068E089810E940208F1CF0F90DF91CF9143
:101080001F910F91FF90EF9008951F920F920FB64E
:101090000F9211240F931F932F933F934F935F93BE
:1010A0006F937F938F939F93AF93BF93EF93FF9330
:1010B000CF93DF931F92CDB7DEB719820E948A07C4
:1010C00067E0CE0101960E949807382F3695369535
:1010D0003695932F96959570232F2570920F292F73
:1010E0002370969596958770920F891348C08981D1
:1010F000811145C08091C601831708F440C080E18A
:101100008A95F1F75A9A529AA2E0AA95F1F700C08F
:101110000091C7011091C801B8E03B9F000D111D5F
:1011200011245A98F8016581662321F08681978100
:101130000E9422080E949207F0E1FA95F1F75A986E
:1011400052985A9A80E18A95F1F7D80112966C91DB
:101150001297662369F013968D919C9114970E94C3
:10116000C207D801ED91FC91811105C082E004C055
:10117000D801ED91FC9188E080830E948A070F904E
:10118000DF91CF91FF91EF91BF91AF919F918F919F
:101190007F916F915F914F913F912F911F910F918F
:1011A0000F900FBE0F901F9018950F931F93CF9322
:1011B000DF932091C60130E0281739070CF471C085
:1011C0009C0193E0220F331F9A95E1F7C091C7016C
:1011D000D091C801C20FD31FF894529A5A9845E093
:1011E0004A95F1F70000982F969595708570890FB4
:1011F000982F937086958695890F8901082B0E94F8
:10120000920784E08A95F1F700C067E0802F0E9482
:10121000020840E14A95F1F752985A9A4A9902C059
:1012200000C0FCCF87E090E04A9B0EC0019751F4CC
:10123000529A5A9AE881F98181E08083789481E01A
:1012400090E031C000C0F0CF6D81662381F08E81C7
:101250009F810E94C20781110AC0529A5A9AE8815E
:10126000F98182E08083789482E090E01CC00E9443
:101270008A0780E28A95F1F75A98529A40E14A9596
:10128000F1F76A81662321F08B819C810E942208FC
:101290000E949207E881F9811082789480E090E0C2
:1012A00002C084E090E0DF91CF911F910F910895EB
:1012B000CF93C82F88E70E94E10681110AC080E021
:1012C0000E941B07811105C08C2F0E941B07C1E0E3
:1012D0008111C0E00E940F078C2FCF910895CF930A
:1012E000DF931F92CDB7DEB769830E9458096981E9
:1012F000882331F0862F0F90DF91CF910C945809FD
:1013000080E00F90DF91CF910895CF93C62F0E9478
:101310005809882349F080E00E945809882321F069
:101320008C2FCF910C94580980E0CF9108958EEACC
:101330000C9458098FEA0C9458090F931F93CF937C
:10134000DF938C010C5A1F4FD801ED91FC9111973E
:1013500060832D913C9111972F5F3F4F2D933C93CC
:10136000281B390B24353105B9F4EC01BC016B5E47
:101370007F4F4FE350E00E944C32CE01CF96F801F0
:101380009183808345E150E060E270E0DF91CF918E
:101390001F910F910C945E32DF91CF911F910F91AD
:1013A00008951F93CF93DF93FC01EA5AFF4F21E08A
:1013B00020836A3099F4EC013297808191818C1BF3
:1013C0009D0B65E170E00E941832182F153158F41A
:1013D00060E2CE010E949D091F5FF8CFDF91CF919F
:1013E0001F910C949D09DF91CF911F910895EF9269
:1013F000FF920F931F93CF93DF937C01EB01FB01CF
:1014000001900020E9F78F0101501109C017D107A1
:1014100028F46991C7010E94D109F8CFDF91CF91DB
:101420001F910F91FF90EF9008950F931F93CF930B
:10143000DF938C01EB01FE016491662329F0C80162
:101440000E94D1092196F7CFDF91CF911F910F9183
:101450000895CF93DF93EC0144E550E060E270E043
:101460000E945E32FE01EC5AFF4FD183C083CA5AFC
:10147000DF4F81E08883DF91CF9108958F929F9213
:10148000AF92BF92DF92EF92FF920F931F93CF9391
:10149000DF93EC010E94CE279093CA018093C9018B
:1014A0000E949A0963E082E20E948509882309F478
:1014B0003CC06DE781E20E9485098823B1F188E78D
:1014C0000E94E106811131C080E40E941B07811156
:1014D0002CC04E0184E0D82E00E010E0F401E00FB3
:1014E000F11FA08086E0A89E50011124E12CF12C70
:1014F000F701EA0DFB1DE057FE4F84910E941B0788
:101500008FEFE81AF80A86E0E816F10489F70F5F12
:101510001F4F0531110511F7DA9485E1880E911CF2
:10152000D110DACFCA5ADF4F1882DF91CF911F91C5
:101530000F91FF90EF90DF90BF90AF909F908F90B2
:101540000C940F0788EB92E00C943E0ACF93DF9344
:10155000C82F0E94DB068EEA0E945809811102C042
:1015600080E09BC060E885ED0E946F098823C1F38D
:101570006FE188EA0E946F09882391F360E083EDB0
:101580000E946F09882361F380E40E945809882330
:1015900039F364E18DE80E946F09882309F360E064
:1015A00080E20E946F098823D9F2CC2339F080EAC7
:1015B0000E9458098823A1F280EC06C081EA0E94AB
:1015C0005809882369F288EC0E945809882341F25F
:1015D00062E08AED0E946F09882311F26FE881E8CA
:1015E0000E946F09882309F4BBCF61EF89ED0E9447
:1015F0006F09882309F4B4CF60E48BED0E946F0972
:10160000882309F4ADCF84EA0E945809882309F49D
:10161000A7CF86EA0E945809882309F4A1CF8EE259
:101620000E945809882309F49BCF8FEA0E94580929
:10163000882309F495CF60E081E80E946F09882330
:1016400009F48ECF88EB92E00E94290A63E082E2DF
:101650000E9485098823E1F06FE781E20E948509F5
:101660008823B1F088E70E94E106811111C080E46F
:101670000E941B0781110CC0D4E0C0E080E00E94F2
:101680001B07CF5FC038D1F7D150B9F710920E03C6
:101690000E940F070E94A20A81E0DF91CF91089576
:1016A0000E94C50F80910E03811104C0809100013A
:1016B000882321F00E94A20A109200018091C901A2
:1016C0009091CA010E94DA2781369A4E10F00C944C
:1016D0009709089581E0809300010895AAE8B1E098
:1016E00041E050E08D91E82FE295EF70F0E021A10C
:1016F0008F70BA0102C0660F771F8A95E2F7CB019F
:10170000962F9095922391A392A1892B82A371E0A9
:10171000AF38B70739F708950C94CD0E80919B022E
:101720008360886080939B020E946E0BA3E8B1E007
:1017300041E050E08D91E82FE295EF70F0E021A1BB
:101740008F70BA0102C0660F771F8A95E2F7CB014E
:10175000962F9095922391A392A1892B82A371E059
:10176000AA38B70739F7559A209A5D9A289AABECB0
:10177000B1E0E5EDF1E08AE08E0F11921D928E133B
:10178000FCCF0E94190D8093DF010C9452109F92A0
:10179000AF92BF92CF92DF92EF92FF920F931F937F
:1017A000CF93DF9380910201811103C005E010E027
:1017B00002C000E010E0A80145535E4F7A01EA0143
:1017C0008AE8C82E81E0D82EAA24A394B12C25E063
:1017D000922E8FE8C81681E0D80609F448C0F601B9
:1017E00081916F01E82FE295EF70F0E021A18F70F9
:1017F000A50102C0440F551F8A95E2F7CA01922F36
:10180000982B91A392A18095892382A350EA5A959F
:10181000F1F7E3E8F1E020E040E050E03191A32F60
:10182000A295AF70B0E090968C9190E03F7002C0AE
:10183000959587953A95E2F780FD07C0C501042E7E
:1018400001C0880F0A94EAF702C080E090E0282BDC
:101850004F5F5F4F4730510509F78881821719F0B4
:101860002883909201010E946E0B2196B2CF809145
:1018700001018823E1F0815080930101882339F030
:10188000EFE9FFE03197F1F700C0000010C080E001
:1018900090E0FC01E00FF11FEB52FE4FD701A80FC3
:1018A000B91F2C91208301968530910591F781E035
:1018B000DF91CF911F910F91FF90EF90DF90CF902C
:1018C000BF90AF909F900895CF93DF932091020136
:1018D000211103C0C0E0D0E002C0C5E0D0E00E940A
:1018E000430D009721F0029781F428980EC0289AA2
:1018F000DE01AB52BE4F85E0EBEEF1E001900D92C0
:101900008A95E1F780E090E002C081E090E0DF910D
:10191000CF9108950E94C70B80910201811103C0ED
:1019200045E050E002C040E050E080E090E020E080
:10193000DC01A551BE4F6C91FC01E40FF51FEB5289
:10194000FE4F3081631321E03C9301968530910571
:1019500079F78091E301280F2093E3010895CF9355
:10196000DF938091DF01882309F442C00E94C70BF6
:1019700080910201811103C0C5E0D0E002C0C0E047
:10198000D0E0CB52DE4F45E050E0BE0186EE91E064
:101990000E943F3225E0FE01A6EEB1E001900D92DB
:1019A0002A95E1F70E94640C892BF1F05D988091F3
:1019B000E0018F5F8093E001863070F18091020139
:1019C000811103C020E030E002C025E030E080E07B
:1019D00090E0FC01E20FF31FEB52FE4F10820196E4
:1019E00085309105B1F718C05D9A1092E00114C0DE
:1019F0000E948A0C80910201811103C0A0E0B0E036
:101A000002C0A5E0B0E0AB52BE4F85E0E6EEF1E0EB
:101A100001900D928A95E1F70E945A1081E0DF91C2
:101A2000CF910895E82FF0E0EB52FE4F80810895AA
:101A30000895E8EDF0E08081806180838AE18A95F5
:101A4000F1F700C08091D900817008950E94190DAE
:101A5000809302010E94190D882319F00E94370D0E
:101A600002C00E943D0D789408950C94260D63E009
:101A700070E083E091E00C94EA0763E070E083E0BB
:101A800091E00C94F3070F931F93CF93DF938C0196
:101A900090911C0180911B01981761F082E090E009
:101AA0000E94D508EC01892B39F480911B018093A9
:101AB0001C0102C0C0E0D0E0012B49F48091E1019B
:101AC0009091E201892B19F480E090E002C081E05E
:101AD00090E00E94D508892B49F48091E30180931E
:101AE0001B011092E2011092E10106C081E090E03A
:101AF0009093E2018093E101CE01DF91CF911F919C
:101B00000F9108950F931F93CF93DF93EC018B01F7
:101B10000E946A0B882329F0B801CE010E94E80DCB
:101B200002C080E090E08170DF91CF911F910F9112
:101B3000089508950C94BE0ECF93DF93EC010E949C
:101B40009D26BE0180E090E0DF91CF910C940024AF
:101B5000CF92DF92EF92FF920F931F9301E010E07C
:101B600020E030E06801790104C0CC0CDD1CEE1CE3
:101B7000FF1C8A95D2F704C0000F111F221F331FCC
:101B80006A95D2F70C291D292E293F29C09086027B
:101B9000D0908702E0908802F0908902C022D12282
:101BA000E222F322842FC016D106E206F30641F4A6
:101BB0001F910F91FF90EF90DF90CF900C946124D4
:101BC0001F910F91FF90EF90DF90CF900C948224A3
:101BD000CF93FB01833F2CE5920709F444C090F4B6
:101BE000803F2CE5920739F128F4833C9C4509F4A9
:101BF00074C0C0C0813F2CE5920721F1823F9C4513
:101C000059F1B8C0873F2CE5920709F47AC048F42F
:101C1000843F2CE59207C9F1853F9C4509F453C0E8
:101C2000A9C0883F2CE5920709F47CC0893F9C45F8
:101C300009F48FC09FC0C281CC2309F49CC081E00D
:101C400090E006C0C281CC2309F495C082E090E008
:101C50000E949C0DC0E08FC0C281CC2309F48BC0D0
:101C600084E090E0F5CFC281CC2349F08091F0016F
:101C7000811103C081E08093F00183E011C01092D4
:101C8000F00183E00E94822418C0C281CC2381F03D
:101C90008091F001811103C081E08093F00184E024
:101CA0000E94612445E064E083E00E94A80DD2CF49
:101CB00084E00E9482241092F00145E064E083E019
:101CC0000E94A80D58C0C28185E0CC2319F00E9463
:101CD0006124C0CF0E9482244EC0C281CC2309F46B
:101CE0004AC080910F030E949D180E948C18809119
:101CF000110386958F7390E09093100380930F03E8
:101D0000A9CFC281CC2361F080912C0382FBCC2728
:101D1000C0F982FD02C081E910C08EEF96E012C0CA
:101D200081E914C0C281CC2381F080912C0382FB15
:101D3000CC27C0F982FD04C080E90E94F91C1BC0B9
:101D400088EF96E00E944F1085CF80E90E94BC1D6D
:101D500012C0C281CC2371F00E9432160E94A018DA
:101D60008091110386958F7390E090931003809378
:101D70000F0301C0C1E08C2FCF9108958091110312
:101D800086958F7390E09093100380930F030E94C9
:101D9000190D91E089270C94A60A0C94500B0F930F
:101DA0001F93CF93DF93EC018B0144E550E00E9439
:101DB0003F32892B59F084E5F801DE0101900D9244
:101DC0008A95E1F7CA5ADF4F81E08883DF91CF918E
:101DD0001F910F910895CF92DF92EF92FF920F9390
:101DE0001F93CF93DF93CDB7DEB7C055D1090FB6A0
:101DF000F894DEBF0FBECDBF8C0180912C0382FD15
:101E00000DC06DE571E0C8010E94F70966EF76E04C
:101E1000C8010E94150A60E671E00CC063E671E03B
:101E2000C8010E94F70964EF76E0C8010E94150A14
:101E300066E671E0C8010E94F709809189028F93DC
:101E4000809188028F93809187028F938091860280
:101E50008F938EEA91E09F938F931F9288E28F93E6
:101E60007E0189E2E80EF11CFF92EF920E9465323A
:101E70006BEE76E0C8010E94150A0FB6F894DEBF3B
:101E80000FBECDBF8091860290918702A0918802FB
:101E9000B091890280319105A105B105C9F058F4CE
:101EA0000097A105B10589F00897A105B105C9F40E
:101EB00067ED76E00FC080329105A105B10571F0A4
:101EC000C897A105B10551F00CC063EE76E002C0E1
:101ED0006DED76E0C8010E94150A07C060ED76E05E
:101EE000F9CFB701C8010E94F7090E94BD1B82FD0E
:101EF00005C039EAC32E31E0D32E04C024E9C22E36
:101F000021E0D22E0E94BD1B81FD05C099EAE92E79
:101F100091E0F92E04C089E9E82E81E0F82E0E94B4
:101F2000BD1B80FD03C086EA91E002C08EE991E00E
:101F3000DF92CF92FF92EF929F938F9388EB91E085
:101F40009F938F931F9288E28F93CE0101967C011D
:101F50009F938F930E946532B701C8010E94F709D1
:101F60000FB6F894DEBF0FBECDBFC05BDF4F0FB61C
:101F7000F894DEBF0FBECDBFDF91CF911F910F91BF
:101F8000FF90EF90DF90CF900895CF93DF93CDB780
:101F9000DEB7C755D1090FB6F894DEBF0FBECDBF6F
:101FA000CE0101960E94290A8091DF01882329F041
:101FB000CE0101960E94EB0E06C06DE171E0CE01EC
:101FC00001960E94F709BE016F5F7F4F88EB92E098
:101FD0000E94CF0EC95ADF4F0FB6F894DEBF0FBE76
:101FE000CDBFDF91CF91089581E00895CF93282F41
:101FF00030E0F901E45BF54FC491F901E453F54F8A
:102000002491222359F081EE0E94F91C8C2F0E940A
:10201000F91C8C2F0E94BC1D81EE04C08C2F0E94E5
:10202000F91C8C2FCF910C94BC1D0F931F93CF9351
:10203000DF93EC01062FFE018491882359F19E0164
:102040002F5F3F4F813041F4E901F9011491812F55
:102050000E94F91C812F0DC0823031F4E901F90191
:1020600084910E94F91C0AC0833031F4E901F9011E
:1020700084910E94BC1D02C00E94F60F2196802F01
:102080008823C9F2EFE9FFE03197F1F700C00000C3
:102090008150F6CFDF91CF911F910F91089560E0AD
:1020A0000C9415100E948A26811102C00E940927F3
:1020B0000C949A0D0C948C0B0C94990D08950E941D
:1020C0003D200E945E102FEF84E39CE02150804071
:1020D0009040E1F700C0000087E797E79093010880
:1020E000809300080C942A28FF920F931F93CF939C
:1020F000DF938C01FC01C081D1818091200281118C
:1021000013C08281882349F0CE010E945A25F82EFF
:10211000682FCE010E94FF2404C0CE010E942E250C
:10212000F82EBE018F2D04C0CE010E945A25BE019B
:102130000E94F712EC01B8010E94820D882309F475
:102140004BC2CC3CFCE5DF0709F4E1C0E8F5C43C38
:102150009CE5D90709F4A5C0F8F4C531FCE5DF0713
:1021600078F4C2308CE5D80708F04BC1C1159CE566
:10217000D90709F467C0C130DC4509F46BC01FC240
:10218000C23CFCE5DF0709F478C008F07EC0C63128
:10219000DC4509F4EDC113C2F8018281C83CFCE5BD
:1021A000DF0709F49CC040F4C63CECE5DE0709F407
:1021B0008AC008F482C08DC0CA3C9CE5D90709F4E6
:1021C0009AC008F492C09DC0C43DFCE5DF0709F445
:1021D000F8C0C0F4F8018281C03DFCE5DF0709F4D6
:1021E000BFC040F4CE3CECE5DE0709F49DC008F426
:1021F00096C0A8C0C23D9CE5D90709F4CFC008F439
:10220000BFC0DAC0C93DFCE5DF0709F496C160F440
:10221000C73D9CE5D90709F446C108F067C1C53D33
:10222000DC4509F4D9C1CBC1CD3D8CE5D80709F413
:10223000DFC0CE3D9CE5D907C1F0CC3DDC4509F0BF
:10224000BEC1CFC0F8018281882309F4C5C10E94B4
:102250005F10C2C1F8018281882309F4BDC1809159
:102260009B02816080939B02B7C1F8018281882321
:1022700009F4B2C10E940927AFC1F8018281882305
:1022800009F4AAC10E94FE18A7C1F801828188231F
:1022900009F4A2C10E94DA25827261F00E949A18A4
:1022A0009BC1F8018281882309F496C10E94DA2536
:1022B0008272A1F30E948C188FC1882309F48CC10B
:1022C0000E948F1789C1882309F486C10E94B31721
:1022D00083C1882309F480C10E94D3177DC188235C
:1022E00009F47AC10E94F31777C1882309F474C1F5
:1022F0000E94131871C1882309F46EC10E9433181B
:102300006BC1882309F468C10E944B1665C1F801AE
:102310008281882309F460C10E9460165DC1882310
:1023200009F45AC181E029C0882309F455C10E94EB
:102330004216823028F00E944216853008F4BACF47
:1023400082E01BC0882309F447C10E9442168630F0
:1023500028F00E944216883008F4ACCF86E00DC009
:10236000882309F439C10E944216893028F00E945E
:1023700042168E3008F49ECF89E00E949D182CC131
:10238000882309F429C10E9442168F3028F00E9448
:102390004216843108F48ECF8FE0EFCF882309F402
:1023A0001BC10E944216853128F00E9442168731D7
:1023B00008F480CF85E1E1CF882309F40DC188E1DD
:1023C000DCCFF8018281882309F406C10E944216FD
:1023D000893128F00E944216823208F46BCF89E1DD
:1023E000CCCFF8018281882309F4F6C080E006C0D2
:1023F000F8018281882309F4EFC082E00E94F2296B
:10240000EBC0F8018281882309F4DEC00E948A268D
:10241000811102C00E9409270E94A22690E0909399
:102420002D0380932C03FE01E350FC45E231F105BE
:1024300030F4EA5AFF4F80912C030C942C32809197
:102440002C03816027C0826025C0846023C0806126
:1024500021C080621FC080641DC080681BC0846072
:10246000886018C08E7F16C08D7F14C08B7F12C00D
:102470008F7E10C08F7D0EC08F7B0CC08F770AC0FF
:102480008B7F877F07C087FB222720F991E0922767
:1024900090FB87F980932C0380912C030E94A62641
:1024A0000E943D2099C0F8018281882351F010924A
:1024B000F6010E94CE279093F3018093F20182E00F
:1024C00022C08091F60181110FC08091F20190919C
:1024D000F3010E94DA278436910530F486E20E94E7
:1024E000F91C86E20E94BC1D82E024C0F8018281B2
:1024F000882361F01092F7010E94CE279093F50196
:102500008093F40180E20E94E81D66C08091F7018B
:1025100081110FC08091F4019091F5010E94DA279A
:102520008436910530F487E20E94F91C87E20E940C
:10253000BC1D80E20E94EF1D4FC0F8018281811115
:10254000D9CF8091F7018111F4CF8091F40190915E
:10255000F5010E94DA278436910558F780E20E943F
:10256000EF1D88E20E94F91C88E20E94BC1D34C065
:102570000E94DA25282FF80182814091760150913E
:102580007701882379F02A7A91E009F490E090931A
:10259000F101911102C069E201C065E3CA010E9424
:1025A0003D270AC08091F101811102C069E201C09A
:1025B00065E3CA010E943F270E9426260DC081E0E4
:1025C0008093F6018093F701C801DF91CF911F91AD
:1025D0000F91FF900C94F40F80E0DF91CF911F9149
:1025E0000F91FF90089580E090E00895089597E09E
:1025F000799FF001112496E4899FE00DF11D1124CB
:10260000E60FF11DEE0FFF1FEC5FF84F85919491DF
:102610000895880F991FFC01E45BF44F8591949114
:102620000895CF93DF930E94F7120E94C814EC0123
:10263000811520E59207F0F5811530E4930708F045
:1026400024C1883E910500F5803E910508F09CC1AB
:10265000883A910570F4853A910508F09FC0813061
:10266000910509F491C108F442C1049708F08CC1A6
:102670003EC18F3B910508F49CC0803C910508F455
:1026800036C1805C9109F4C0811540E2940758F48A
:10269000C11581E0D80708F077C1C03FD10508F423
:1026A00026C1D06571C1811520E3920708F0E4C00E
:1026B0009F70DEC0811535E5930708F044C0811591
:1026C00044E5940708F0F8C0C11582E5D80708F57D
:1026D000C11521E5D20708F0DBC08C2F837021E003
:1026E00030E002C0220F331F8A95E2F73C68CE012A
:1026F00074E0969587957A95E1F78370382BCF70C3
:10270000C695C69580E2C89FE0011124C22BD32B49
:102710003BC12C2F26952695CE0183709927C11594
:10272000D34508F0BAC040E2249F90011124C1E0D3
:10273000D0E002C0CC0FDD1F8A95E2F72C2B3D2B99
:10274000E901DC6821C1811549E59407A0F4C115B0
:1027500088E5D80708F0B5C0C11526E5D20708F00E
:10276000C6C08C2F0E9445158F71C82FD0E0DC2F7A
:10277000CC27D06209C181153AE5930708F4A6C0B9
:1027800090568115904208F0B2C08D2F8F710E9433
:102790004515DD27D0628F71D82BF6C0853A91059B
:1027A00009F4A8C0863A910509F0A7C0C2E8D0E4B0
:1027B000EBC0883A910509F4A3C0893A910509F460
:1027C000A2C08A3A910509F4A1C08B3A910509F497
:1027D000A0C08C3A910509F49FC08B3B910509F488
:1027E0009EC08C3B910509F49DC08D3A910509F47A
:1027F0009CC0803B910509F49BC08E3A910509F479
:102800009AC08F3A910509F499C0813B910509F46A
:1028100098C0823B910509F497C0833B910509F468
:1028200096C0843B910509F495C0853B910509F458
:1028300094C0863B910509F493C0873B910509F448
:1028400092C0883B910509F491C0893B910509F438
:1028500090C08D3B910509F48FC08E3B910509F422
:102860008EC08A3B910509F48DC0C0E0D4E48CC0D1
:102870000E940913EC0188C09927D3FF03C0EC0123
:10288000D86C82C0EC01D06C7FC0DF70D06A7CC095
:10289000DC2FCC27C16FD06A77C040E2249F900123
:1028A0001124C1E0D0E002C0CC0FDD1F8A95E2F711
:1028B000C22BD32BDA6868C0D82FCC27C46FD06A5C
:1028C00063C0DC2FCC27C06FD06A5EC08F700E94BF
:1028D000451594E0D695C7959A95E1F7CF70D0E06D
:1028E000DC2FCC27D06A8F70806EC82B4DC0C0E023
:1028F000D0E04AC0C1E8D0E447C0C3E8D0E444C057
:10290000C2EED4E441C0C9EED4E43EC0CAEED4E481
:102910003BC0C5EBD4E438C0C6EBD4E435C0C3EB50
:10292000D4E432C0C4EBD4E42FC0C7EBD4E42CC051
:10293000CCECD4E429C0CDECD4E426C0C3E8D5E483
:1029400023C0CAE8D5E420C0C2E9D5E41DC0C4E96B
:10295000D5E41AC0C1E2D6E417C0C3E2D6E414C07D
:10296000C4E2D6E411C0C5E2D6E40EC0C6E2D6E4A5
:102970000BC0C7E2D6E408C0CFE6D4E405C0C0E788
:10298000D4E402C0CAE2D6E4CE01DF91CF9108952B
:102990008238910549F1B0F48133910509F458C0AA
:1029A00048F48932910509F44EC08A32910509F440
:1029B00054C008958533910509F440C089339105C9
:1029C00099F00895833E910529F138F4803E9105F0
:1029D00091F0823E9105A1F00895863E9105F9F0AF
:1029E000873E910531F1089520912C0320FD3AC0D6
:1029F00021FD38C0089580912C0380FD35C032C080
:102A000080912C0382FF32C080912C0384FD30C062
:102A100083EE39C080912C0382FD28C0F5CF8091D0
:102A20002C0383FF27C080912C0384FD21C087EEF7
:102A30002AC080912C0383FD1DC0F5CF80912C030B
:102A400085FD1AC01BC080912C0385FD17C014C0E2
:102A500080912C0386FD14C015C080912C0386FD47
:102A600011C00EC080EE0FC089E30DC082EE0BC016
:102A700080E009C086EE07C089E205C085E303C097
:102A80008AE201C081E390E0089590912C0392FFC7
:102A90000DC0282F2871283019F4877F846006C064
:102AA000282F2471243011F48B7F886093FF0DC090
:102AB000282F2871283119F4877E846106C0282FB9
:102AC0002471243111F48B7E886194FD877E0895F2
:102AD000EF92FF920F931F93CF93DF93E901662349
:102AE00009F44BC0242F30E0EFEFF0E0E61BF109D2
:102AF000B901E69F9001E79F300DF69F300D11243C
:102B0000232F8B01031B11095CE3E52EF12CB70188
:102B10000E940432FB01BC01069FC001079F900D7B
:102B2000169F900D1124B7010E940432E230F10586
:102B3000B1F040F4309779F0319711F5832F242FBD
:102B4000461B21C0E430F105A1F068F03597C1F4CF
:102B5000842F861B18C0832F262F230F14C0862F87
:102B6000830FE42F03C0E42FE61B842F432F2E2F67
:102B70000AC0842F462F430F06C0842F242F03C082
:102B800080E020E040E0E42FF0E0EA59F44F449187
:102B9000E22FF0E0EA59F44F9491E82FF0E0EA597F
:102BA000F44FE49149839883EA83DF91CF911F9199
:102BB0000F91FF90EF90089580911103282F269593
:102BC0002F7330E02115310519F48178826005C03A
:102BD0002332310524F0817884648093110330918D
:102BE0001103432F441F4427441F20911203522FE7
:102BF000550F852F842B27FB992790F9893641E0C3
:102C000094077CF068E671E00E94183280FB37F987
:102C10003093110386952078822B90FB87F980935F
:102C20001203089588E090E00C942435CF93DF934D
:102C300000D000D0CDB7DEB7AB01BC0149835A83C9
:102C40006B837C830E94DC1549815A816B817C8176
:102C500088E090E00F900F900F900F90DF91CF9150
:102C60000C944235E1E1F3E083E08083109212039B
:102C70008FEF82838383148260817181828193814B
:102C80000C9416168091110380FF03C086958F73F4
:102C9000089580E008958091150390E001968430B6
:102CA000910514F083E090E0809315036091110387
:102CB0007091120380911303909114030C941616D3
:102CC0008091150390E0019797FF02C080E090E0AB
:102CD0008430910514F083E090E0809315036091B7
:102CE00011037091120380911303909114030C94BB
:102CF00016168091110380FF06C066E070E086E141
:102D000093E00C94B51B80E090E0FC01EA5EFC4F80
:102D1000118210821282039682319105B1F7EDCFB4
:102D20009091110390FF0FC020E030E0F901EA5EBE
:102D3000FC4F8183608342832D5F3F4F22313105F9
:102D4000A9F70C9479160895CF93DF9300D01F92C2
:102D5000CDB7DEB72091110320FF0AC09E012F5F7F
:102D60003F4F0E9468154B8169818A810E949016AD
:102D70000F900F900F90DF91CF9108955F926F9217
:102D80007F928F929F92AF92BF92CF92DF92EF92FB
:102D9000FF920F931F93CF93DF9300D01F92CDB775
:102DA000DEB78C01E62EF42E522E8091110380FFA7
:102DB00089C0982F9E77923061F49E012F5F3F4F1C
:102DC000C8010E9468154B8169818A810E94901612
:102DD00059C0E82FE695EF739EE39E0F9F739430E2
:102DE00018F4F09014034EC09AE39E0F9F7399302D
:102DF00068F4881F8827881F90911203292F220FBB
:102E0000022F082B97FB112710F93CC087E28E0F89
:102E10008F738A30B8F5F0E07997E0FD02C021E0C9
:102E200001C02FEFEE7FE45AF44F8591949166E054
:102E300070E00E94043226034001279F900C112469
:102E4000580188E9A81A8EEFB80A86E1C82E83E0F7
:102E5000D82E98E6692E77247394C501B3010E9499
:102E6000043296014F2D6E2D0E946815A80CB91CD6
:102E700083E0C80ED11C88E2C81683E0D80669F743
:102E80000E9479168091110300FB87F9809311034A
:102E9000902F9695809112038078892B10FB87F9EB
:102EA00080931203E0921303F0921403552051F023
:102EB0006091110370911203809113039091140398
:102EC0000E9416160F900F900F90DF91CF911F91D7
:102ED0000F91FF90EF90DF90CF90BF90AF909F90B9
:102EE0008F907F906F905F900895282FE1E1F3E03D
:102EF0009081991F9927991F30911203832F880F72
:102F0000482F492B37FB552750F9CA010A9668E626
:102F100071E00E941832438162810C94BE1681E0F8
:102F20000C947517282F90911103991F9927991FB9
:102F300030911203832F880F482F492B37FB5527D9
:102F400050F9CA014A3051051CF4825A9E4F01C003
:102F50000A9768E671E00E9418324091140360916C
:102F600013030C94BE1681E00C9492176091130326
:102F7000262F30E02F3E310514F46F5E01C06FEF55
:102F800030911103331F3327331F90911203592FB0
:102F9000550F97FB992790F9282F40911403852FFF
:102FA000832B0C94BE1681E00C94B617609113032A
:102FB000262F30E02131310514F0615101C060E06D
:102FC00030911103331F3327331F90911203592F70
:102FD000550F97FB992790F9282F40911403852FBF
:102FE000832B0C94BE1681E00C94D61740911403E9
:102FF000242F30E02F3E310514F44F5E01C04FEF17
:1030000030911103331F3327331F90911203592F2F
:10301000550F97FB992790F9282F60911303852F5F
:10302000832B0C94BE1681E00C94F6174091140388
:10303000242F30E02131310514F0415101C040E02E
:1030400030911103331F3327331F90911203592FEF
:10305000550F97FB992790F9282F60911303852F1F
:10306000832B0C94BE1681E00C94161820E00C946F
:10307000BE16CF939091110390FF40C091788111BB
:1030800002C0926007C0833210F0946403C08F7353
:10309000880F982B90931103662351F060911103D0
:1030A0007091120380911303909114030E941616DD
:1030B000C09111036C2F66956F7370E04BE050E088
:1030C0008BE691E00E943232892B19F010920D02AA
:1030D00003C081E080930D02CC1FCC27CC1F9091C0
:1030E0001203892F880F97FB992790F940911403B9
:1030F000609113038C2BCF910C943618CF910895C7
:10310000682F9091110396959F7381E0890F833208
:1031100008F081E00C94391881E00C948018682F35
:103120009091110396959F738FEF890F09F482E2B6
:103130000C94391881E00C948F1861E00C943918C4
:10314000E1E1F3E080818160808386958F730C9448
:103150009D1860E00C94391880910E02811135C0E1
:1031600080919B02816080939B020E948A2681113C
:1031700004C00E9409270E9432160E941216609312
:1031800011037093120380931303909314036E77CB
:1031900061F40E9432160E9412166093110370931C
:1031A000120380931303909314030E94DC1581E0B3
:1031B00080930D028091110380FF04C086958F7368
:1031C0000E94A91881E080930E020895E1E1F3E0E6
:1031D00080818E7F808360817181828193810E9452
:1031E000161610920D022FEF80E792E021508040DA
:1031F0009040E1F700C000000C9479168091110313
:1032000080FD0C94E6180C94A018CF93E82FF0E002
:10321000E85AF44FC49180910B0290910C020E94E5
:10322000DA27EC2FF0E08E179F0708F443C00E94C6
:10323000CE2790930C0280930B0260910A0270E0FB
:1032400080E090E00E94053020E030E04FE753E45A
:103250000E94282F2BED3FE049E450E40E942E31DC
:103260000E949B310E94A22F2BE43AE34EE25FE3DF
:103270000E94BB2E20EF3BEF48ED52E40E942E311E
:103280000E94D42F462F80911103881F8827881F02
:1032900090911203292F220F97FB992790F96091A3
:1032A0001303822B0E94A41680910A0290E00196DB
:1032B00080930A02CF910895CF93E82FF0E0EB5A64
:1032C000F44FC49180910802909109020E94DA277C
:1032D000EC2FF0E08E179F07E8F00E94CE27909326
:1032E00009028093080240911403609113038091B6
:1032F0000602909107020E94A41680910602909106
:103300000702019668E671E00E940432909307027A
:1033100080930602CF910895CF92DF92FF920F9390
:103320001F93CF93DF93F82EE82FE695F0E0EE5A47
:10333000F44FC49180910402909105020E94DA2713
:10334000EC2FF0E08E179F07E8F10E94CE279093B4
:1033500005028093040206E113E0C0E0D0E088E6B5
:10336000C82EDD24D39480910202909103028C0F29
:103370009D1FB6010E940432980140911403609190
:1033800013030E946815EC960D5F1F4FC83681E04D
:10339000D80749F70E947916209102023091030262
:1033A000F0FE0AC0C9010196BE010E94043290934A
:1033B00003028093020206C02150310930930302B8
:1033C00020930202DF91CF911F910F91FF90DF9028
:1033D000CF900895AF92BF92CF92DF92EF92FF927B
:1033E0000F931F93CF93DF9380FF02C01FEF01C0A5
:1033F00011E08695E82FF0E0E15BF44FC4918091F5
:103400000002909101020E94DA27EC2FF0E08E1763
:103410009F0708F466C00E94CE2790930102809314
:10342000000226E1C22E23E0D22E38E1E32E33E063
:10343000F32EC0E0D0E0F70131971082F601108240
:10344000F701108294E0A92EB12C00E08091FF01D9
:10345000800F87FD8A5F082E000C990BC817D907CB
:10346000E9F4809114038A9DA0018B9D500D1124D5
:10347000559547955595479580911103881F882745
:10348000881F90911203592F550F97FB992790F998
:10349000960160911303852B0E946815010FF1E0DE
:1034A000AF1AB10899F6219683E0C80ED11CE3E06B
:1034B000EE0EF11CC630D10509F0BDCF0E94791681
:1034C0008091FF01113031F4811102C085E007C005
:1034D000815005C090E00196BE010E941832809391
:1034E000FF01DF91CF911F910F91FF90EF90DF903F
:1034F000CF90BF90AF9008950F931F93CF93DF931A
:10350000E82FF0E0E45BF44FC4918091FD019091CD
:10351000FE010E94DA27EC2FF0E08E179F0708F4D7
:1035200066C00E94CE279093FE018093FD0180E04B
:1035300090E0FC01EA5EFC4F118210821282039639
:1035400082319105B1F7C0E0D0E006E010E0CE0195
:10355000B8010E9418324091FC01042E000C550B5A
:10356000FC01EE0FFF1FC417D5070CF140916A0153
:10357000042E000C550B4C175D07CCF08E0F9F1FCF
:103580009C012A5E3C4F80911103881F8827881F69
:1035900090911203592F550F97FB992790F940915D
:1035A000140360911303852B0E94681507C0E80F70
:1035B000F91FEA5EFC4F1182108212822196C630FA
:1035C000D10529F60E947916809169019091FC013C
:1035D000980F9093FC0120916A01280F20936A01B3
:1035E000121614F495301CF0819580936901DF91D7
:1035F000CF911F910F910895EF92FF920F931F9318
:10360000CF93DF938091FA019091FB010E94DA271A
:10361000883E9340D0F10E94CE279093FB01809387
:10362000FA01C091F801D091F9012196C170DD270E
:10363000D093F901C093F80186E1E82E83E0F82EDB
:1036400010E008E7812F8695FE01E80FF11DCF01FC
:103650008170992797014091140360911303FC0135
:103660000E9FC0010F9F900D11240E9468151F5FCF
:10367000F3E0EF0EF11C163029F7DF91CF911F9187
:103680000F91FF90EF900C947916DF91CF911F91DD
:103690000F91FF90EF90089580910D02882391F192
:1036A00090911103892F86958F732EE3280F2F7326
:1036B000243018F482500C9405192AE3280F2F7334
:1036C000233018F486500C945C1927E3280F2F73CD
:1036D000263018F489500C948C1921E3280F2F738D
:1036E000263018F48F500C94EA192BE2280F2F7310
:1036F000233018F485510C947C1A9E77903311F482
:103700000C94FC1A08952BB1342F309523233BB130
:10371000432B3FB7F894FC01680F791FE617F707B2
:1037200089F0819198E04BB9000000C087FF2BB968
:10373000880F000000C000C000C02BB900C09A95DF
:1037400091F7ECCF3FBF08952AB1242B2AB99B01F2
:10375000220F331F620F731F0E94831B87EC90E0C0
:103760000197F1F700C00000089548E00C94A41BF5
:1037700090931402809313020895E0911302F09144
:103780001402309721F00190F081E02D099480E03F
:103790000895E0911302F0911402309721F0028015
:1037A000F381E02D099408952091110230911202C5
:1037B0008217930771F09093120280931102E091A7
:1037C0001302F0911402309721F00680F781E02D6A
:1037D0000994089520910F023091100282179307E7
:1037E00071F09093100280930F02E0911302F09118
:1037F0001402309721F00084F185E02D099408959A
:1038000085B7806885BF85B7806885BF08950895AE
:103810000C94071C08950C940A1C0E94001C0E9422
:10382000350D0C94081C81E008950E94C5270E9464
:103830008E0B0E943B280E94AC180C940B1CCF925C
:10384000DF92EF92FF920F931F93CF93DF93CDB749
:10385000DEB72B970FB6F894DEBF0FBECDBF0E9428
:10386000AF0C0E94131C811111C08FEF89838A83D2
:103870001B820E94CE278160782F9D838C83498193
:103880005A816B818D810E94C51C56C086E1C82E6D
:1038900082E0D82E00E010E0E02E802F0E94120D72
:1038A000F60141916F01F42EF82631F40F5F1F4F9E
:1038B0000A30110589F7D9CF90919B0291FF04C07E
:1038C0008B870E94180D8B8520E030E04F2D50E053
:1038D000922FBA01022E02C0759567950A94E2F7FD
:1038E00060FF24C02E83EF8221E030E0690102C036
:1038F000CC0CDD1C9A95E2F790E08C219D21892B60
:1039000009F420E028870E94CE278160782F9A87CB
:1039100089874E815F8168858A850E94C51CF80170
:10392000EA5EFD4F8081C826C08206C02F5F3F4FF0
:103930002730310569F6BACF109115020E94BD1BE0
:103940001817A1F00E94BD1B809315022B960FB68D
:10395000F894DEBF0FBECDBFDF91CF911F910F91C5
:10396000FF90EF90DF90CF900C945C102B960FB6E9
:10397000F894DEBF0FBECDBFDF91CF911F910F91A5
:10398000FF90EF90DF90CF900895CF93DF93CDB766
:10399000DEB72B970FB6F894DEBF0FBECDBF4F83B7
:1039A000588769877A878B87DE01119686E0FD014B
:1039B00011928A95E9F785E0FE01379601900D9204
:1039C0008A95E1F749815A816B817C818D819E8145
:1039D0000E94CF222B960FB6F894DEBF0FBECDBF4C
:1039E000DF91CF910895FC01808191810E949B25F8
:1039F0000895882309F4BFC0682F8CEF860F813AA1
:103A000038F480917601909177010E943D270CC097
:103A100080E2860F883050F4677081E001C0880F23
:103A20006A95EAF70E94DD250C9426268BE5860F21
:103A3000833070F4653A29F0663A31F083E890E01B
:103A400005C081E890E002C082E890E00C94D41BAD
:103A500088E5860F873108F08EC0683A09F445C0C2
:103A6000693A09F445C06A3A09F445C06B3A09F469
:103A700045C06C3A09F445C06B3B09F445C06C3B4A
:103A800009F445C06D3A09F445C0603B09F445C0EE
:103A90006E3A09F445C06F3A09F445C0613B09F438
:103AA00045C0623B09F445C0633B09F445C0643B33
:103AB00009F445C0653B09F445C0663B09F445C0BF
:103AC000673B09F445C0683B09F445C0693B09F40C
:103AD00045C06D3B09F445C06E3B09F445C06A3BE7
:103AE00009F445C080E090E044C082EE90E041C01F
:103AF00089EE90E03EC08AEE90E03BC085EB90E01E
:103B000038C086EB90E035C083EB90E032C084EBA8
:103B100090E02FC087EB90E02CC08CEC90E029C0A7
:103B20008DEC90E026C083E891E023C08AE891E024
:103B300020C082E991E01DC084E991E01AC081E2D1
:103B400092E017C083E292E014C084E292E011C0D8
:103B500085E292E00EC086E292E00BC087E292E03E
:103B600008C08FE690E005C080E790E002C08AE2DE
:103B700092E00C94EA1B0895882349F1682F8CEF9A
:103B8000860F813A38F480917601909177010E94F6
:103B90003F270CC080E2860F883050F4677081E0C8
:103BA00001C0880F6A95EAF70E94E3250C94262647
:103BB0008BE5860F833020F480E090E00C94D41BDA
:103BC000685A673120F480E090E00C94EA1B089575
:103BD000882321F00E94DD250C9426260895882351
:103BE00021F00E94E3250C94262608954F925F92BF
:103BF0006F927F92BF92CF92DF92EF92FF920F93DC
:103C00001F93CF93DF937C01D62FC72FFC01158123
:103C100012951F70028101110E94FA250E94D3257E
:103C2000882379F0002369F080E28D0F883048F016
:103C300082E00E9471260E94D32591E0B82EB92619
:103C400001C0B12CCC2EC2948FE0C822D12CF60139
:103C5000E859FF4F0C942C328C2F807FCF70882333
:103C600011F0C295C07F002399F0CC2309F46DC1F7
:103C700080E28D0F883010F0D11104C08C2F0E948B
:103C8000DD2503C08C2F0E94ED250E9426265DC1F4
:103C90008D2F0E94BC1DCC2309F47CC180E28D0FC6
:103CA000883010F0D11104C08C2F0E94E32503C08E
:103CB0008C2F0E94F3250E9426266CC18C2F807FBA
:103CC000CF70803211F0C295C07FDD2319F0D13062
:103CD000C9F022C0002371F0112341F0113031F4FA
:103CE0000E940D268C2B0E94132654C10E940D2683
:103CF0008C2B1DC0112319F0113009F44BC10E9407
:103D00001C261AC0002321F0163008F043C10EC053
:103D1000153008F03FC110C0002361F0112331F0CD
:103D2000F701858180FF11C18F7085838C2F0E94E0
:103D3000E81D30C111111AC18C2FC6C08C2F8370A1
:103D400009F050C0011132C18D2F82958695877080
:103D5000880F880F9D2F9F70492E512C612C712C3C
:103D6000082E04C0440C551C661C771C0A94D2F71C
:103D7000D4FF14C00FE010E020E030E0B901A8014A
:103D800004C0440F551F661F771F8A95D2F7CB01D9
:103D9000BA01609570958095909503C060E070E0E1
:103DA000CB01C695C695C370D0E0C230D10561F095
:103DB000C330D10581F06429752986299729219777
:103DC00071F00E941424F2C064297529862997296C
:103DD0000E942624EBC00E941424C301B2010E9459
:103DE0000224E4C0002319F08C2F817001C0869555
:103DF000882309F4DBC08D2F829586958770880F04
:103E0000880F9D2F9F70492E512C612C712C082EEC
:103E100004C0440C551C661C771C0A94D2F7D4FFCE
:103E200014C00FE010E020E030E0B901A80104C0A8
:103E3000440F551F661F771F8A95D2F7CB01BA0131
:103E4000609570958095909503C060E070E0CB011F
:103E5000C695C695C3704C2F50E04230510569F0AD
:103E60004330510589F06429752986299729413005
:103E7000510571F00E94DA2499C0642975298629B8
:103E800097290E94EC2492C00E94DA24C301B20157
:103E90000E94C8248BC08D2F90E0FC01E05EF109E8
:103EA000E531F10508F04DC0E858FF4F0C942C3275
:103EB000DF708C2F8F71002321F00E9461248D2FE1
:103EC00036CF0E9482248D2F0E94EF1D63C00023F5
:103ED00041F0153008F05EC08C2F8F710E94A7242E
:103EE00059C0163008F056C0F7CF002339F08C2F98
:103EF0008F710E9461244EC00023C9F38C2F8F71F3
:103F00000E94822447C0002329F08C2F8F710E94C9
:103F10004C2440C00E9447243DC0002349F0CF718B
:103F20008C2F0E94612463E08C2F0E945C2632C09B
:103F300081E00E947126123068F182E00E947126B1
:103F400029C0002331F0112391F28D2F0E94F91C1A
:103F500021C0112399F2D93349F45FEF67EE73E082
:103F6000515060407040E1F700C000008D2F0E946A
:103F7000BC1D10C04C2F4F706D2FC7010E94F31253
:103F80000E94732317C04C2F4F706D2FC7010E94E2
:103F9000F61210C088E0C816D10441F05CF0EAE0E7
:103FA000CE1AD108F2E0CF16D10420F40E94BD1B36
:103FB0000E945C10BB20F1F00E94CF2580FD1AC04A
:103FC000F70112820E94C9250E946124C7010E9444
:103FD00008200E94C925DF91CF911F910F91FF907A
:103FE000EF90DF90CF90BF907F906F905F904F9059
:103FF0000C948224DF91CF911F910F91FF90EF904D
:10400000DF90CF90BF907F906F905F904F9008951A
:104010000F931F93CF93DF93EC01888199812B81BC
:104020003C81232BB9F09F3F11F48F3F99F0CE01D3
:104030000E947410882371F0688179818A810E94BE
:10404000A6258C010E94FE240E94FF23B801CE0108
:104050000E94F61DDF91CF911F910F9108950E944C
:10406000FA250E940A260C942626809176019091CA
:1040700077010E9441270C942F200E94EA250C947E
:104080003520E92FE295EF70F0E03297EE30F10540
:10409000B0F4E357FF4F0C942C32803F91F018F4AA
:1040A000803E68F40EC0843F51F40BC0803E48F05F
:1040B000813F29F406C093FB882780F9089580E0AA
:1040C000089581E008950E949B250E944120089553
:1040D000CF93DF9300D000D01F92CDB7DEB70F9003
:1040E0000F900F900F900F90DF91CF910895CF9385
:1040F000DF9300D000D000D0CDB7DEB726960FB644
:10410000F894DEBF0FBECDBFDF91CF9108951F930E
:10411000CF93DF93C091210216E080912202C8174D
:1041200099F0D0E01C9FF0011D9FF00D1124ED5D72
:10413000FD4F4081518162817381848195810E940C
:1041400077202196C770E9CFDF91CF911F91089515
:104150004091530250915402609155027091560261
:1041600080915702909158020C94772080915802C8
:1041700082958F7009F054C080915502882309F40C
:104180004FC080912102A091220260915302709150
:1041900054024091560250915702B6E08A1709F432
:1041A0003FC090E041155105C1F17F3F11F46F3FD1
:1041B000A1F1B89FF001B99FF00D1124ED5DFD4F05
:1041C000218172132AC02081621327C0228121110C
:1041D00024C0238134812417350710F4215031097C
:1041E000241B350B24363105C0F4209158022F7062
:1041F00020612093580226E0289FF001299FF00DAE
:104200001124E85DFD4F80818F708061808383E59C
:1042100092E00E9408200C94872001968770BECF00
:104220000895CF92DF92EF92FF920F931F93CF9357
:10423000DF93CDB7DEB762970FB6F894DEBF0FBE3F
:10424000CDBF7C0185E0F701DE011D9601900D9246
:104250008A95E1F7D7014C9111965C9111971296CE
:104260006C9112971396CD90DC9014973091530275
:10427000709154028091560290915702009709F470
:1042800053C17F3F19F43F3F09F44EC100915502DD
:10429000002309F4CBC020915802C816D90628F093
:1042A000F601E81BF90BCF0104C0809590958C0DA9
:1042B0009D1D11E08436910578F010E0207F09F013
:1042C000D2C07C2DD98AC88A89890E94682083E55A
:1042D00092E00E940820BDC0822F807F09F046C076
:1042E000751314C0341312C0611110C02F702061F7
:1042F000209358020E94A82083E592E00E940820A3
:1043000080915802D70115968C932EC0CD2819F1B3
:104310005F3F11F44F3FF9F0162F61111CC08091DF
:1043200021022091220236E0821709F466C090E053
:10433000389FF001399FF00D1124ED5DFD4F718123
:10434000571306C07081471303C07281711103C0F7
:1043500001968770E9CF162F662309F410C180916A
:10436000580281608093580210E009C1751315C08E
:10437000341313C0611111C080915802D7011596F2
:104380008C93C7010E94082086E0F701A3E5B2E004
:1043900001900D928A95E1F763C04D875E878D8508
:1043A0009E856A8B0E9463206A898823D9F16623DF
:1043B000C9F120915802822F82958F7090E0029768
:1043C00074F0809153029091540298878F831986DC
:1043D000DB86CA862C87CE0107960E94082086E0DD
:1043E000F701A3E5B2E001900D928A95E1F70E94F2
:1043F000B6200E94A82011E0C2C04D875E878D853F
:104400009E850E949B25292F22952F7030E0223017
:1044100031050CF0A8C09F7009F0A2C0805E883002
:1044200008F4ADC0C7010E940820E5CFC816D90620
:1044300008F453C0F601E81BF90BCF01843691054F
:1044400008F450C010E07C2DD98AC88A89890E945E
:104450006820E3E5F2E086E0DF011D928A95E9F746
:104460000E94A8208CC0751314C0341312C06111AF
:1044700010C080915802F7018583C7010E9408206F
:1044800086E0E3E5F2E0DF011D928A95E9F7102F5F
:1044900076C04D875E878D859E856A8B0E946320DE
:1044A0006A89882309F4BECF662309F4BBCF209123
:1044B0005802822F82958F7090E002970CF48FCF74
:1044C00080915302909154029A8389831B82DD82EA
:1044D000CC822E83CE01019680CF809590958C0D55
:1044E0009D1DACCF162F662309F49CCF75130BC00E
:1044F000341309C086E0F701A3E5B2E001900D9204
:104500008A95E1F73CC04D875E878D859E850E9428
:104510006320811164CF809158028160809358029A
:10452000C7010E9408202BC0662309F47BCF4D876A
:104530005E878D859E850E946320182F882309F44D
:1045400071CF86E0F701A3E5B2E001900D928A9564
:10455000E1F783E592E00E94F31C0E94B62080CF31
:1045600081115CCF0CC0243031050CF05BCF9F7003
:1045700009F454CFF7019581907F09F04FCF812F37
:1045800062960FB6F894DEBF0FBECDBFDF91CF911C
:104590001F910F91FF90EF90DF90CF9008951F93A0
:1045A000CF93DF93CDB7DEB72C970FB6F894DEBF6D
:1045B0000FBECDBF4F83588769877A878B879C87CB
:1045C000CE0107960E941121882369F08F8198857A
:1045D0002A853B85232BF1F19F3F09F063C08F3F74
:1045E00009F060C037C086E0FE013796DE01119603
:1045F00001900D928A95E1F76F817885EA85FB85B8
:10460000309741F17F3F11F46F3F21F12091220259
:1046100030E0C9010196877099274091210250E04E
:104620008417950709F447C069837A83FD83EC8377
:1046300096E0929FD001939FB00D1124AD5DBD4FC8
:10464000FE01319601900D929A95E1F78093220236
:104650000E94872016E08091210290912202891702
:10466000C1F1189FC00111248D5D9D4F0E94112141
:10467000882379F1E09121021E9FF0011124ED5D64
:10468000FD4F4081518162817381848195810E94B7
:1046900077208091210290E001968770992780937E
:1046A0002102D9CF4F81588569857A858B859C8574
:1046B0000E947720CFCF0E943D20109222021092BC
:1046C0002102E3E5F2E086E0DF011D928A95E9F739
:1046D000C1CF2C960FB6F894DEBF0FBECDBFDF91D1
:1046E000CF911F910895EF92FF920F931F93CF9355
:1046F000DF938C01892B09F46CC0F12CEE24E39438
:10470000E8012196F8018491843740F4843008F060
:1047100051C0813081F0823019F15BC0853709F4D6
:1047200044C0A8F19CE7980F903708F052C08F77EB
:104730000E94BC1D41C00E5F1F4FFE01C49180E26C
:104740008C0F883048F4C7708E2D01C0880FCA9531
:10475000EAF70E94FD2514C08C2F0E94F91C2DC081
:104760000E5F1F4FFE01C49180E28C0F883058F419
:10477000C7708E2D01C0880FCA95EAF70E940326E4
:104780000E9426261AC08C2F0E94BC1D16C00E5FE8
:104790001F4FFE01C491CC2381F08FE99FE0019768
:1047A000F1F700C00000C150F6CF0E5F1F4FFE01B1
:1047B000F49003C00E94F91C8E018F2D882309F408
:1047C0009FCFEFE9FFE03197F1F700C00000815083
:1047D000F5CFDF91CF911F910F91FF90EF9008954A
:1047E00008950C94F0230E94F12360938A02709341
:1047F0008B0280938C0290938D020C942F2008954D
:104800000C94F3230F931F9300918A0210918B0253
:1048100020918C0230918D02602B712B822B932B77
:104820001F910F910C94F3230F931F9300918A0211
:1048300010918B0220918C0230918D0260237123A4
:10484000822393231F910F910C94F3230F931F93B3
:1048500000918A0210918B0220918C0230918D027E
:1048600060277127822793271F910F910C94F323C0
:1048700008950C9438240E94392460938602709322
:10488000870280938802909389020C942F2060E025
:1048900070E0CB010C943B240F931F9341E050E058
:1048A00060E070E08A019B0104C0000F111F221F0D
:1048B000331F8A95D2F7C901B8011F910F910C944B
:1048C0003B240F931F9341E050E060E070E004C090
:1048D000440F551F661F771F8A95D2F78091860275
:1048E00090918702A0918802B09189028A019B0170
:1048F000082B192B2A2B3B2BC901B8011F910F91B3
:104900000C943B240F931F9341E050E060E070E073
:1049100004C0440F551F661F771F8A95D2F7409534
:104920005095609570958091860290918702A09134
:104930008802B09189028A019B01082319232A2346
:104940003B23C901B8011F910F910C943B240F9395
:104950001F9341E050E060E070E004C0440F551F39
:10496000661F771F8A95D2F7809186029091870201
:10497000A0918802B09189028A019B01082719271A
:104980002A273B27C901B8011F910F910C943B24A2
:104990000F931F9300918602109187022091880245
:1049A00030918902602B712B822B932B1F910F91D9
:1049B0000C943B240F931F93009186021091870261
:1049C00020918802309189026023712382239323EE
:1049D0001F910F910C943B240F931F93009186021B
:1049E00010918702209188023091890260277127F7
:1049F000822793271F910F910C943B24089527E061
:104A0000929F800D1124A82FA695A695A695877034
:104A100051E001C0550F8A95EAF785E0A89FD001C3
:104A2000112420E030E070E0F901EA0FFB1FE75AA3
:104A3000FD4F4081CB01022E02C0969587950A94C6
:104A4000E2F78170992781958427852384278083C5
:104A50002F5F3F4F2530310539F7089527E0929FAA
:104A6000800D1124682F669566956695982F97702E
:104A700085E0689FB001112440E050E080E0FA0139
:104A8000E60FF71FE75AFD4F208130E0092E02C0E4
:104A9000369527950A94E2F721703327042E01C03A
:104AA000220F0A94EAF7822B4F5F5F4F4530510582
:104AB00031F70895BF92CF92DF92EF92FF920F935A
:104AC0001F93CF93DF938C01C0908A02D0908B020A
:104AD000E0908C02F0908D02809186029091870286
:104AE000A0918802B0918902C82AD92AEA2AFB2A11
:104AF000CFE1D0E0D701C6010C2E04C0B695A79532
:104B0000979587950A94D2F780FF07C0BC2EB8010D
:104B10008C2F0E941113019719F4219758F7B12C8B
:104B20008B2DDF91CF911F910F91FF90EF90DF9030
:104B3000CF90BF900895CF93DF93EC010E945A2548
:104B4000BE010E941113DF91CF9108951F93CF935F
:104B5000DF93EB0190912002992321F0CB010E9479
:104B60009B2513C0882349F0CB010E945A25182F9A
:104B7000682FCE010E94FF2404C0CB010E942E2585
:104B8000182FBE01812F0E941113DF91CF911F9129
:104B9000089580918E0285958595859508958091DB
:104BA0008E028770089590918E02977081E009F4CB
:104BB00080E0089580919A02089590919A02892B3D
:104BC00080939A020895809590919A028923809308
:104BD0009A02089510929A02089590919902892B51
:104BE00080939902089580959091990289238093EA
:104BF0009902089510929902089590919802892B34
:104C000080939802089580959091980289238093CB
:104C10009802089510929802089580918F02089545
:104C200008950C94102690918F02981721F080938C
:104C30008F020C941126089580918F02882329F009
:104C400010928F0280E00C9411260895E091760175
:104C5000F091770180919A028083E0917601F09142
:104C60007701908180919902892B8083E091760170
:104C7000F0917701908180919802892B80838091B7
:104C80008F02882381F0E0917601F0917701908185
:104C9000892B808380917601909177010E940B2768
:104CA00081110E941C2680917601909177010C94CD
:104CB000C91B08950C94592698E0899F90011124EE
:104CC000262B20938E020E94612480918E0285956E
:104CD000859585950C945A2610928E0280E00C944E
:104CE0005A2620918E028095822380938E02982FDF
:104CF000977079F430E0482F082E000C550B2417DC
:104D0000350739F08595859585950E9482240C9408
:104D10006C26089580E090E00E942A3521E08D3EC7
:104D20009E4F09F020E0822F089582E090E00C94DD
:104D30001C3583E090E00C941C35682F83E090E0F4
:104D40000C94303584E090E00C941C35682F84E09E
:104D500090E00C943035AB01BC018FE090E00C94F6
:104D60004235AB01BC0183E190E00C94423560E038
:104D700070E0CB010C94B12660E070E0CB010E94A2
:104D8000AB260C94B7266DEE7EEF80E090E00E949B
:104D90004E3560E082E090E00E94303560E083E0D4
:104DA00090E00E94303510928A0210928B0210928D
:104DB0008C0210928D0260E084E090E00E94303519
:104DC00060E085E090E00E94303560E086E090E0B1
:104DD0000E9430356FEF87E090E00E94303540E070
:104DE00050E0BA0188E090E00E94423560E08DE03A
:104DF00090E00E94303540E050E0BA0188E190E058
:104E00000E94423560E087E190E00E9430350C94CA
:104E1000BC260C94C326FC01329697E080E09150AA
:104E200029F021912223D9F38F5FF9CF08959C01B6
:104E3000FC0132969FEF80E04191461789F09F3F39
:104E400019F4411101C0982F8F5F8630A9F79F3F59
:104E500039F0F901E90FF11D97FDFA956283089584
:104E60000895FC01329608962081261301C0108215
:104E70003196E817F907C1F708950C9417270C9499
:104E80003127029626E0FC0111922A95E9F7089550
:104E900008950C9448270E9449278091320384305A
:104EA00049F110929C0220E488E190E00FB6F8945A
:104EB000A895809360000FBE2093600080E00E9460
:104EC0005C100E94492783B7817F846083BF83B7CA
:104ED000816083BF7894889583B78E7F83BF0FB638
:104EE000F894A8958091600088618093600010928A
:104EF00060000FBE089508950895CF930E947B2708
:104F00000E94AF0C0E947C27C0E08C2F0E94120DE3
:104F1000811104C0CF5FCA30C1F701C081E0CF91D9
:104F2000089508950C9491270E943D200E94BD1B76
:104F30000E945C100C9492271F920F920FB60F9252
:104F400011248F939F93AF93BF9380919C02811103
:104F500013C08091280390912903A0912A03B09156
:104F60002B034196A11DB11D809328039093290323
:104F7000A0932A03B0932B03BF91AF919F918F9180
:104F80000F900FBE0F901F90189582E084BD93E0A4
:104F900095BD9AEF97BD80936E0008952FB7F89452
:104FA0008091280390912903A0912A03B0912B03AB
:104FB0002FBF0895CF92DF92EF92FF920F931F932E
:104FC0002FB7F894409128035091290360912A0348
:104FD00070912B032FBF6A017B01EE24FF248C010B
:104FE00020E030E0C016D106E206F30610F441508E
:104FF00051099A01281B390BC9011F910F91FF908C
:10500000EF90DF90CF90089578941F920F920FB693
:105010000F9211248F939F93AF93BF938091280396
:1050200090912903A0912A03B0912B030196A11D11
:10503000B11D8093280390932903A0932A03B09372
:105040002B03BF91AF919F918F910F900FBE0F9047
:105050001F90189587E797E79093010880930008C1
:105060009AE088E10FB6F894A895809360000FBE8F
:1050700090936000FFCF0E948A26811102C00E9497
:1050800009270E94952680939B020E94A22690E009
:1050900090932D0380932C030E949926682F70E033
:1050A00080E090E00C9400248091A502089508957A
:1050B00008950895CF93DF93EC010E94022A823075
:1050C00011F0843039F581E08093E9008FEF909101
:1050D000E800815095FD06C095ED9A95F1F7000026
:1050E0008111F5CF8091E80085FF14C040E050E0C9
:1050F00068E070E0CE010E941F2A8091E8008E7760
:105100008093E80088E0FE01ADE9B2E001900D92E5
:105110008A95E1F7DF91CF91089580913103811154
:1051200009C00E94B42B0E94112C8091E20084607F
:105130008093E20008951092310308950895089530
:105140000C94942742E061EC81E00C942E2B80912A
:105150003403833009F460C030F4813071F0823060
:1051600009F499C008958A3009F485C08B3009F498
:105170006BC0893009F0A7C020C080913303813A09
:1051800009F0A1C08091E800877F8093E8008091BA
:10519000370390913803892B21F468E08DE992E080
:1051A00003C060E080E090E070E00E946A2A809195
:1051B000E8008B778093E800089580913303813273
:1051C00009F081C08091370390913803892B09F051
:1051D0007AC08091E800877F8093E8008091E800A2
:1051E00082FD05C0809132038111F8CF6CC02091FF
:1051F000F3008091F20090E0922B029729F48091C5
:10520000F1008B7F813021F48091F1008093A50221
:105210008091E8008B7753C080913303813A09F085
:1052200052C08091370390913803892B09F04BC00D
:105230008091E800877F8093E8008091E80080FFFC
:10524000FCCF8091820136C0809133038132D9F541
:105250008091370390913803892BA9F58091E8005C
:10526000877F8093E8000E94632B809135038093B1
:1052700082010C943D2080913303813221F580918D
:10528000E800877F8093E8000E94632B80913603BB
:105290008093A602089580913303813AA1F480910E
:1052A000E800877F8093E8008091E80080FFFCCFD2
:1052B0008091A6028093F1008091E8008E77809320
:1052C000E8000C94632B089584B7877F84BF0FB6E2
:1052D000F894A89580916000886180936000109296
:1052E00060000FBE80E880936100109261000E9410
:1052F0000D1C0E94B42B0E94112C8091E20084604E
:105300008093E20078940E94A02E0E94151C88E7EA
:1053100091E00E94B81B80913203853069F40E94AD
:105320004B27809130038823B1F30E947D27882387
:1053300091F30E94092AEFCF0E941F1C0E944C1B70
:10534000EACF0C94A329292F332723303105C1F04C
:105350005CF42130310579F022303105D1F582E25B
:1053600090E02EE93CE039C02132310521F12232B2
:10537000310541F12EC082E190E020EC3CE02DC0EF
:1053800099278130910571F02CF4892B11F5EAE908
:10539000FCE00DC08230910541F00397D1F4E6E6C0
:1053A000FCE005C0E4E8FCE002C0ECE6FCE084912F
:1053B00090E09F0112C0672B61F489E090E020EB40
:1053C0003CE00BC0672B29F480E490E022ED3CE048
:1053D00004C080E090E020E030E0FA0131832083D7
:1053E00008950895CF93C82F0E94F129C093A70272
:1053F000CF91089580913203843011F081E00895B7
:1054000082E008958091A702811102C00C94FA29CC
:10541000089580E189BD82E189BD09B400FEFDCF18
:105420008091D8008F7D8093D8008091E0008260C9
:105430008093E0008091E00081FDFCCF0895CF9241
:10544000DF92EF92FF920F931F93CF93DF93EC01C4
:105450008B016A010E94822B811133C0C114D104D7
:1054600039F0F60180819181081B190BC80FD91FF3
:10547000E12CF12C0115110519F18091E80085FD51
:1054800016C08091E8008E778093E800C114D104A3
:1054900049F0F60180819181E80EF91EF182E082E7
:1054A00085E00FC00E94822B882321F30AC08991D6
:1054B0008093F10001501109FFEFEF1AFF0ADACFD4
:1054C00080E0DF91CF911F910F91FF90EF90DF90DF
:1054D000CF9008952091390330913A03261737076A
:1054E00048F06115710539F42091E8002E7720937A
:1054F000E80001C0B90140E061157105A9F12091F2
:105500003203222309F443C0253009F442C020911C
:10551000E80023FD40C02091E80022FD32C0209128
:10552000E80020FFE9CF4091F3002091F20030E045
:10553000342BFC01CF016115710559F0283031057C
:1055400040F481918093F100615071092F5F3F4FCA
:10555000F1CF41E02830310509F040E02091E8002A
:105560002E772093E800C8CF4111C9CF0AC080919F
:105570003203882361F0853061F08091E80083FD7B
:105580000AC08091E80082FFF2CF80E0089582E0B7
:10559000089583E0089581E00895209139033091C2
:1055A0003A032617370748F06115710539F4209141
:1055B000E8002E772093E80001C0B901FC0120E04B
:1055C0006115710591F180913203882309F440C07F
:1055D000853009F43FC08091E80083FD3DC0809193
:1055E000E80082FD2FC08091E80080FFE9CF209184
:1055F000F3008091F20090E0922B6115710559F053
:105600008830910540F424912093F1003196615047
:1056100071090196F2CF21E0089709F020E080910E
:10562000E8008E778093E800CBCF2111CCCF0AC061
:1056300080913203882361F0853061F08091E80029
:1056400083FD0AC08091E80082FFF2CF80E00895D8
:1056500082E0089583E0089581E00895982F9730BF
:1056600058F59093E900981739F07091EC0020916B
:10567000ED005091F00003C0242F762F50E021FF61
:1056800019C03091EB003E7F3093EB003091ED007C
:105690003D7F3093ED003091EB0031603093EB00B3
:1056A0007093EC002093ED005093F0002091EE00F9
:1056B00027FF07C09F5FD3CF8F708093E90081E001
:1056C000089580E008958091330387FF11C0809191
:1056D000E80082FD05C0809132038111F8CF11C02E
:1056E0008091E8008B770BC080913203882349F0CA
:1056F0008091E80080FFF8CF8091E8008E7780935A
:10570000E80008952091E4003091E50095E640918D
:10571000EC00842F817040FF22C08091E80080FD62
:105720001CC080913203882391F0853091F08091E4
:10573000EB0085FD10C04091E4005091E500421758
:10574000530729F39A01915011F784E0089582E0FC
:10575000089583E0089581E0089580E008954091E0
:10576000E80042FFDECF08950E94222C0E942A2CDE
:10577000E0EEF0E0808181608083E8EDF0E0808100
:105780008F77808319BCA7EDB0E08C918E7F8C93CE
:1057900080818F7E80831092310308950F931F9331
:1057A000CF93DF930E94222C0E942A2CC8EDD0E0D8
:1057B00088818F77888388818068888388818F7DBE
:1057C000888319BC1092320310922E03109230037A
:1057D00010922F0300EE10E0F80180818B7F808310
:1057E00088818160888342E060E080E00E942E2B07
:1057F000E1EEF0E080818E7F8083E2EEF0E0808158
:1058000081608083808188608083F80180818E7FC1
:105810008083888180618883DF91CF911F910F9170
:105820000895E8EDF0E080818F7E8083E7EDF0E081
:1058300080818160808384E082BF81E08093310336
:105840000C94CE2BE8EDF0E080818E7F8083109267
:10585000E20008951092DA001092E10008951F927C
:105860000F920FB60F9211242F933F934F935F9394
:105870006F937F938F939F93AF93BF93EF93FF9318
:105880008091E10082FF0BC08091E20082FF07C09F
:105890008091E1008B7F8093E1000E949F2E809198
:1058A000DA0080FF1FC08091D80080FF1BC080916C
:1058B000DA008E7F8093DA008091D90080FF0DC0DE
:1058C00080E189BD82E189BD09B400FEFDCF81E0A0
:1058D000809332030E948D2805C019BC10923203B8
:1058E0000E949B288091E10080FF19C08091E20016
:1058F00080FF15C08091E2008E7F8093E20080914E
:10590000E20080618093E2008091D8008062809301
:10591000D80019BC85E0809332030E949F288091B3
:10592000E10084FF30C08091E20084FF2CC080E160
:1059300089BD82E189BD09B400FEFDCF8091D80008
:105940008F7D8093D8008091E1008F7E8093E1006D
:105950008091E2008F7E8093E2008091E20081607E
:105960008093E20080912E03882311F084E007C029
:105970008091E30087FD02C081E001C083E0809355
:1059800032030E94A0288091E10083FF29C080910A
:10599000E20083FF25C08091E100877F8093E100D2
:1059A00082E08093320310922E038091E1008E7F7B
:1059B0008093E1008091E2008E7F8093E2008091ED
:1059C000E20080618093E20042E060E080E00E94BB
:1059D0002E2B8091F00088608093F0000E949E281A
:1059E000FF91EF91BF91AF919F918F917F916F91B7
:1059F0005F914F913F912F910F900FBE0F901F908D
:105A000018951F920F920FB60F9211242F933F9368
:105A10004F935F936F937F938F939F93AF93BF93B6
:105A2000CF93DF93EF93FF93C091E900CF70809104
:105A3000EC00D82FD17080FDD0E81092E900809161
:105A4000F000877F8093F00078940E94452D10929B
:105A5000E9008091F00088608093F000CD2BCF703A
:105A6000C093E900FF91EF91DF91CF91BF91AF918A
:105A70009F918F917F916F915F914F913F912F9166
:105A80000F900FBE0F901F9018951F93CF93DF9329
:105A9000CDB7DEB7AA970FB6F894DEBF0FBECDBF65
:105AA000E3E3F3E088E08E0F9091F10091938E1381
:105AB000FBCF0E94A7288091E80083FF28C1809136
:105AC000330390913403492F50E04A30510508F0D8
:105AD0001EC1FA01E556FF4F0C942C32803821F09C
