:100000000C94CD000C94F5000C94F5000C94F500C4
:100010000C94F5000C94F5000C94F5000C94F5008C
:100020000C94F5000C94F5000C94FB040C946A05F8
:100030000C94F5000C94F5000C94F5000C94F5006C
:100040000C94F5000C94F5000C94F5000C94F5005C
:100050000C94F5000C94F5000C94F5000C949C079E
:100060000C94F5000C94F5000C94F5000C94F5003C
:100070000C94F5000C94F5000C94F5000C94F5002C
:100080000C94F5000C94F5000C94F5000C94F5001C
:100090000C94E6070C94F5000C94F5000C94F50014
:1000A0000C94F5000C94F5000C94F500070605047B
:1000B0000100080A0B0C0D09080B000202020100E6
:1000C00009040000010202000005240010010524BB
:1000D000010101042402060524060001070581032D
:1000E00010004009040100020A0000000705020296
:1000F00040000007058302400000040309041201C8
:100100000002EF0201404F1B0692000101020301B1
:10011000537061726B46756E00537061726B4675F9
:100120006E2050726F204D6963726F0000000000F6
:10013000250028002B002E003100040404040403D1
:100140000405020202020403020202020606060677
:10015000060604040202020404040802011040809E
:10016000401020408040800802040180402010029E
:1001700001108010204040200000000200090F0004
:1001800000030401000C000000000000000000005B
:100190000000000000008109C10B11241FBECFEF39
:1001A000DAE0DEBFCDBF11E0A0E0B1E0E4E2FDE1C6
:1001B00002C005900D92A83AB107D9F723E0A8EA4A
:1001C000B1E001C01D92A530B207E1F710E0CCEC20
:1001D000D0E004C02197FE010E94720CCB3CD107F5
:1001E000C9F70E94D2090C94850E0C940000282FA8
:1001F00030E0F901E858FE4F9491F901E75AFE4FBB
:100200008491265C3E4FF9012491222309F42DC0EC
:100210009923E9F091509F30D0F4E92FF0E0ED5EA2
:10022000FE4F0C94720C3E014201220136013A014C
:1002300027012701270145014B014F0153015901B6
:1002400027015D01909180009F7790938000E22FBD
:10025000F0E0EE0FFF1FE45DFE4FA591B4919FB754
:10026000F894EC918E2B8C939FBF08959091800011
:100270009F7DEBCF90918000977FE7CF94B59F77DC
:1002800094BDE5CF94B59F7DFBCF909190009F7773
:1002900090939000DCCF909190009F7DF9CF90914A
:1002A0009000977FF5CF9091C0009F779093C0000A
:1002B000CECF9091C0009F7DF9CF9091C200977FE3
:1002C0009093C200C4CFFC0180917E02882311F17B
:1002D0003FB7F89482E08093E9002091F200822FEA
:1002E00090E01816190614F481E090E0882339F0A4
:1002F000289844E640937D024091F10040832223F8
:1003000039F02091F200211103C02BE62093E80080
:100310003FBF08958FEF9FEF08952FB7F89483E0C4
:100320008093E9009091E800892F807295FF04C0C6
:100330009091F20080E4891B2FBF0895809175028F
:1003400081110DC082E08093710284E0809372027B
:10035000109274021092730281E08093750281E71B
:1003600092E0089508950895409116025091170261
:10037000209114023091150242175307B4F4909162
:10038000E8009570E1F39091E80092FD19C0809328
:10039000F100809116029091170201968F739927B0
:1003A000892B19F48EEF8093E800809116029091CA
:1003B00017020196909317028093160281E0089528
:1003C00080E00895DF92EF92FF920F931F93CF93F7
:1003D000DF93D82E8A01EB017B01E40EF51ECE15CA
:1003E000DF0559F0D7FE12C0FE0184910E94B401CE
:1003F00021968111F4CF0FEF1FEFC801DF91CF914C
:100400001F910F91FF90EF90DF9008958881EECFBC
:100410000F931F93CF93DF931F92CDB7DEB782E088
:10042000898342E450E068EB70E080E80E94E201DA
:100430000E949E01DC0112960D911C91011511057F
:1004400089F0D801ED91FC910280F381E02DBE018D
:100450006F5F7F4FC801099597FD04C0F8010085C3
:100460001185ECCF89810F90DF91CF911F910F9172
:100470000895615030F02091F100FC012083019635
:10048000F8CF289884E680937D020895CF93DF9378
:100490001F92CDB7DEB76983DC01ED91FC9102803C
:1004A000F381E02D41E050E0BE016F5F7F4F099581
:1004B0000F90DF91CF91089583E08093E9008091C0
:1004C000F200882319F08AE38093E80008950E94DF
:1004D0008D0190E00895CF93DF931F92CDB7DEB7E3
:1004E000FC018485958597FD08C02FEF3FEF358788
:1004F00024870F90DF91CF910895CE0101960E943D
:100500006301019719F4898190E0F3CF8FEF9FEF9A
:10051000F0CF0F931F93CF93DF931F92CDB7DEB72A
:100520008C01FC018485958597FF0BC0CE01019657
:100530000E946301019771F4898190E0F801958729
:100540008487F801848595850F90DF91CF911F9165
:100550000F9108958FEF9FEFF1CFFC018485958572
:1005600097FD0BC09FB7F89482E08093E9008091DB
:10057000F2009FBF90E0019608959FB7F89482E043
:100580008093E9008091F2009FBF90E0089582512E
:10059000E82FF0E0E455FF4FE49190917B008E2F1F
:1005A000880F880F80729F7D892B80937B00E77076
:1005B000E064E0937C0080917A00806480937A000C
:1005C00080917A0086FDFCCF80917800909179002F
:1005D00008953FB7F8948091100290911102A09174
:1005E0001202B091130226B5A89B05C02F3F19F047
:1005F0000196A11DB11D3FBFBA2FA92F982F8827A3
:10060000BC01CD01620F711D811D911D42E0660F7D
:10061000771F881F991F4A95D1F708958F929F924F
:10062000AF92BF92CF92DF92EF92FF924B015C01AB
:100630000E94E9026B017C010E94E9026C197D09AC
:100640008E099F09683E734081059105A8F321E05A
:10065000821A9108A108B10888EEC80E83E0D81E5E
:10066000E11CF11C81149104A104B10429F7FF904D
:10067000EF90DF90CF90BF90AF909F908F900895B4
:100680008F929F92AF92BF92CF92DF92EF92FF92A2
:100690000F931F93CF93DF936C017B018A018091AD
:1006A0000B01882309F45CC080917E02882309F441
:1006B00057C080911A0280FF05C08091E0008260DF
:1006C0008093E000E801B12C8AEFA82E93E0892EF8
:1006D0002AE3922E209711F4BB20D9F10E948D01BC
:1006E00081110AC0AA94AA20D9F161E070E080E0EB
:1006F00090E00E940E03EECF8C171D0611F00CF057
:100700008C2F9FB7F8948092E9002091E80025FD96
:1007100002C09FBFDFCF282F30E0C21BD30BF701F1
:10072000815020F041914093F100FACFE20EF31E88
:10073000BB2021F09092E800B12CEBCF8091E80033
:1007400085FDE7CF9092E800BB24B394209709F38E
:10075000F3CF5D9884E680931902101611063CF0E1
:1007600081E090E0F6019383828310E000E0C8010D
:10077000DF91CF911F910F91FF90EF90DF90CF907D
:10078000BF90AF909F908F90089585ED8093BC00AF
:100790008091BC0084FDFCCF109248020895209106
:1007A000E801260F3327331F21323105ECF4209165
:1007B0004802FC0190E080E0243069F082E0089576
:1007C000A091E8012191AC0148535E4FA40FB52FD1
:1007D000B11D2C930196861798F38091E801680F5C
:1007E0006093E80180E0089581E008950895E09124
:1007F000210280912002E81730F4F0E0E855FE4F26
:10080000808190E008958FEF9FEF089590912102ED
:10081000809120022FEF3FEF981748F4E92FF0E086
:10082000E855FE4F208130E09F5F90932102C9017F
:1008300008958091200290912102891B990B0895BF
:10084000CF92DF92EF92FF920F931F93CF93DF939C
:100850007C01CB018A0120914902222389F0EB011E
:100860006B01C40ED51ECC15DD0569F06991D70169
:10087000ED91FC910190F081E02DC7010995F3CF36
:10088000642F0E94CF03C801DF91CF911F910F9178
:10089000FF90EF90DF90CF900895CF93DF931F925A
:1008A000CDB7DEB76983209149022223F9F0209168
:1008B0006C02203258F021E030E0FC0133832283C7
:1008C00090E080E00F90DF91CF91089580914A02EF
:1008D000E82FF0E0E55BFD4F998190838F5F809377
:1008E0004A0280936C0281E090E0ECCF61E0CE019F
:1008F00001960E94CF03F7CF90E080E00895FC01BD
:1009000001900020E9F73197AF01481B590BBC015A
:100910008FE792E00C9440038F929F92AF92BF9228
:100920000F931F93CF93DF93CDB7DEB7A1970FB689
:10093000F894DEBF0FBECDBF19A2423008F44AE0E2
:100940008E010F5D1F4F842E912CB12CA12CA5017F
:1009500094010E942D0CE62FB901CA01EA30F4F48B
:10096000E05DD801EE938D01232B242B252B79F705
:1009700090E080E0109719F0CD010E947F04A196CD
:100980000FB6F894DEBF0FBECDBFDF91CF911F91A0
:100990000F91BF90AF909F908F900895E95CE1CF49
:1009A000CF92DF92EF92FF92CF93DF936B017C01A6
:1009B0006DE28FE792E00E944602EC0166277727FE
:1009C000CB016C197D098E099F094AE00E948C04B5
:1009D0008C0F9D1FDF91CF91FF90EF90DF90CF9014
:1009E0000895BC01990F880B990B97FD0C94D004C6
:1009F0004AE00C948C041F920F920FB60F921124B0
:100A00008F939F938091E1009091E100937F909369
:100A1000E10083FF0FC01092E90091E09093EB009A
:100A20001092EC0092E39093ED0010927E0298E019
:100A30009093F00082FF22C093E09093E9009091A0
:100A4000F200992319F09AE39093E800909119022B
:100A5000992341F0909119029150909319029111AC
:100A600001C05D9A90917D02992341F090917D02A1
:100A7000915090937D02911101C0289A84FF18C073
:100A80008091E2008E7E81608093E2008091E1009F
:100A90008F7E8093E10080911A028E7E8061809328
:100AA0001A029F918F910F900FBE0F901F90189573
:100AB00080FFF7CF8091E2008E7E80618093E2001C
:100AC0008091E1008E7E8093E10080911A028E7EFB
:100AD0008160E5CF1F920F920FB60F921124CF9233
:100AE000DF92EF92FF920F931F932F933F934F93B9
:100AF0005F936F937F938F939F93AF93BF93EF9386
:100B0000FF93CF93DF93CDB7DEB76C97DEBFCDBF3A
:100B10001092E9008091E80083FF25C068E0CE01D3
:100B200045960E94390282EF8093E8008D8987FF05
:100B300039C09091E80090FFFCCF982F907609F093
:100B400034C19E894F89588D2F89F88C911131C0FD
:100B5000803861F580911B028093F1001092F100C2
:100B60008EEF8093E8006C960FB6F894DEBF0FBE50
:100B7000CDBFDF91CF91FF91EF91BF91AF919F9149
:100B80008F917F916F915F914F913F912F911F9125
:100B90000F91FF90EF90DF90CF900F900FBE0F90CE
:100BA0001F9018959EEF9093E800C7CF1092F10028
:100BB000D5CF913059F48111D3CF4130510581F611
:100BC00080911B028D7F80931B02CACF933049F422
:100BD0008111C6CF4130510519F680911B02826008
:100BE000F2CF953041F48091E80080FFFCCF20687F
:100BF0002093E300B5CF963009F0A9C00B8D1C8D72
:100C000022E01092E9001092170210921602F212DE
:100C10002EC010921502109214020E9408021F8228
:100C200099E09983FA8291E09E8390EA98879AEFFF
:100C300099872091160230911702275F3F4F3C831E
:100C40002B838D831092E9001092170210921602E6
:100C5000109315020093140249E050E0BE016F5F4B
:100C60007F4F80E00E94E2010E94080279CF10933A
:100C70001502009314020E949E01DC0112960D9150
:100C80001C910115110509F451C1D801ED91FC9198
:100C90000480F581E02DBE016B5E7F4FC801099590
:100CA000009709F03EC1F80100851185EACFF3E015
:100CB000FF120EC08F89882309F440C0823061F48E
:100CC00040E862E189E191E00E940509811148CF85
:100CD00081E28093EB0047CF813029F440E868E05F
:100CE00080E191E0F1CF833099F70E949E01DC0111
:100CF0001296ED90FC908E010F5F1F4F6801E1147A
:100D0000F10479F0D701ED91FC910680F781E02D97
:100D1000B801C7010995080F111DF701E084F1849E
:100D2000EECFD8011C92F60101900020E9F731972F
:100D3000BF016C197D0940E0C601C6CF6AEF70E0C3
:100D4000FB01449150E080E80E94E20109CF973016
:100D500009F4BECF983021F481E08093F10000CFF8
:100D6000993009F0FDCE837009F0B2CFE5E1F1E0F2
:100D700081E031E096E32191222371F08093E90034
:100D80003093EB00DF0111972C912093EC009093AE
:100D9000ED008F5F873079F78EE78093EA0010923D
:100DA000EA008F8980937E02DBCE8B8D9C8D109222
:100DB000E900109217021092160290931502809388
:100DC0001402898D811192C08E899D89913A49F4CE
:100DD000813209F07DCF47E050E064E071E080E0CF
:100DE000B3CF913209F074CF833269F48F89988D33
:100DF000B0E0A0E08093000190930101A093020174
:100E0000B0930301ADCE803269F48091E80082FF97
:100E1000FCCF67E084E091E00E9439028BEF809381
:100E2000E8009ECE823209F09BCE8F8980930B0121
:100E3000EEEFFFE7859194918B3F9C4D51F1E0E0FF
:100E4000F8E08091040190910501A0910601B09114
:100E50000701803B9440A105B105F1F480910B019D
:100E600080FD1AC0EE3F8AE0F80789F587E797E72B
:100E700091838083809160008093180288E19BE0D9
:100E80000FB6F894A895809360000FBE9093600011
:100E900067CEEEEFFAE0D5CF808191818737974713
:100EA00009F05ECEA8958091600088618093600013
:100EB0008091180280936000EE3F2AE0F20789F0EB
:100EC0008091FE0A9091FF0A9183808349CE8081B0
:100ED00091818737980751F29093FF0A8093FE0A19
:100EE000C5CF1092FF0A1092FE0A3ACE0E949E01D0
:100EF000DC0112960D911C910115110509F4E8CE43
:100F0000D801ED91FC910190F081E02DBE016B5E66
:100F10007F4FC8010995811123CEF8010085118505
:100F2000EBCF181619060CF41BCED2CEF1E0FF124F
:100F3000BECE6EEF70E004CF1F920F920FB60F92ED
:100F400011242F933F938F939F93AF93BF938091DF
:100F50000C0290910D02A0910E02B0910F023091FF
:100F60000B0223E0230F2D3758F50196A11DB11D6B
:100F700020930B0280930C0290930D02A0930E021B
:100F8000B0930F028091100290911102A091120271
:100F9000B09113020196A11DB11D80931002909390
:100FA0001102A0931202B0931302BF91AF919F91CF
:100FB0008F913F912F910F900FBE0F901F9018951A
:100FC00026E8230F0296A11DB11DD2CF1F920F92CA
:100FD0000FB60F9211242F933F934F935F936F930C
:100FE0007F938F939F93AF93BF93EF93FF938091E2
:100FF000B900887F803609F44AC0F0F5883209F4D8
:10100000A7C018F5803109F49BC0B8F4882309F40F
:10101000F9C0883009F494C0FF91EF91BF91AF916E
:101020009F918F917F916F915F914F913F912F9100
:101030000F900FBE0F901F901895883109F488C04B
:10104000803251F78093460214C0803409F49DC069
:1010500040F48033B9F38833F9F68093460285EC87
:10106000B0C0803509F485C0883509F496C088344D
:1010700099F60E94C503D0CF883909F48CC038F5A1
:10108000883729F050F4883611F0803729F683E04C
:101090008093480210920A0257C0883809F47BC036
:1010A000803919F0803809F0B7CF80910A02803278
:1010B00008F071C0E0910A0281E08E0F80930A026D
:1010C0008091BB00F0E0E651FE4F80833DC0803B45
:1010D00039F0E0F4803A09F479C0883A09F09CCFFD
:1010E00084E0809348021092E9011092E801E091B7
:1010F0001E02F0911F0209958091E80181110FC035
:1011000081E08093E8011092C80109C0803C09F495
:10111000A6CF883C09F4A3CF883B09F07DCFE091AE
:10112000E90181E08E0F8093E901F0E0E853FE4F82
:1011300080818093BB009091E9018091E80129C0F2
:10114000809123028093BB0085EC8093BC0064CF28
:101150009091450280914402981758F5E09145021C
:1011600081E08E0F80934502F0E0EC5DFD4F8081C1
:10117000E9CFE091450281E08E0F80934502809196
:10118000BB00F0E0EC5DFD4F8083909145028091C3
:1011900044029817C8F285E8D8CFE091450281E073
:1011A0008E0F809345028091BB00F0E0EC5DFD4F17
:1011B00080838091470281115CCF81E0809322027D
:1011C00084EA8093BC001092480226CF85EC80937D
:1011D000BC001092480280910A02803230F4E09103
:1011E0000A02F0E0E651FE4F108260910A0270E0C0
:1011F000E0911C02F0911D028AEE91E00995109297
:101200000A020ACF1092460234CFEF92FF920F9358
:101210001F93CF93DF93F82E192FE62E042F81E032
:10122000860F880F0E94B40183E00E94B401CF2D85
:10123000D12FEC0EFD2EF11CCE15DF05B9F007FF06
:1012400013C0FE0184910E94B401182F80E00E9417
:10125000B401812321968111EFCFDF91CF911F91AE
:101260000F91FF90EF9008958881EDCF81E0F5CF49
:10127000EF92FF920F931F93CF93DF93EC017B01CB
:10128000198218821B821A821D821C82FB01019026
:101290000020E9F731978F01061B170BB8016F5F2C
:1012A0007F4F90E080E00E94B80D0097B9F09983DD
:1012B00088831B830A832C813D81232B11F4FC013D
:1012C00010821D830C83B70188819981DF91CF91B2
:1012D0001F910F91FF90EF900C947E0E8881998161
:1012E000009711F00E942F0D198218821D821C8216
:1012F0001B821A82DF91CF911F910F91FF90EF9087
:101300000895EFE7F2E01382128288EE93E0A0E006
:10131000B0E084839583A683B7832FE131E03183E6
:1013200020832FEF3FEF35872487EFECF2E0138225
:10133000128284839583A683B78381E391E09183AE
:1013400080836FE371E083EE92E00E9438096AE4E3
:1013500071E089EE92E00E94380969E571E08FEE54
:1013600092E00E94380966E671E085EF92E00E9403
:10137000380963E771E08BEF92E00E9438096DE76E
:1013800071E08DED92E00E94380980910C019091FE
:101390000D0165E070E00E945E0C9093DC0280938A
:1013A000DB020895789484B5826084BD84B5816041
:1013B00084BD85B5826085BD85B5816085BD809120
:1013C0006E00816080936E00109281008091810098
:1013D0008260809381008091810081608093810090
:1013E0008091800081608093800080919100826074
:1013F0008093910080919100816080939100809111
:1014000090008160809390008091C10084608093FF
:10141000C1008091C10082608093C1008091C100B1
:1014200081608093C1008091C30081608093C3007C
:101430008091C00082608093C0008091C200816072
:101440008093C20080917A00846080937A008091BA
:101450007A00826080937A0080917A008160809324
:101460007A0080917A00806880937A0010927E02E0
:1014700010921B0210921A028091D7008160809313
:10148000D70080EA8093D80089B5806189BD89B58D
:10149000826089BD09B400FEFDCF61E070E080E0AC
:1014A00090E00E940E038091D8008F7C8061809331
:1014B000D8008091E000807F8093E0008091E1007F
:1014C0008E7E8093E1008DE08093E200559A209A11
:1014D0008FEF9FEF90938C0280938B0210922102EA
:1014E0001092200210924A0210926C02109248024E
:1014F00081E0809347021092220282E00E94F7006E
:1015000083E00E94F7008091B9008E7F8093B9003C
:101510008091B9008D7F8093B90088E48093B800F2
:1015200085E48093BC0082EB91E090931F0280934E
:101530001E0283EB91E090931D0280931C02CC2449
:10154000CA9423E0D22EE12CF12C35E0832E912C8D
:1015500046E0342E44244A9450E0A52E50E0B52EA7
:1015600011E068E0562E02E085EE782E95EC692EAB
:1015700082E10E94C7022FEF30E0DC010E94780C6C
:10158000A70196010E94D70BE901309370022093C6
:101590006F0283E10E94C7022FEF30E0DC010E945E
:1015A000780CA70196010E94D70B30936E0220930E
:1015B0006D0224313105C4F580910C0190910D012B
:1015C000C734D1050CF4CDC0019690930D018093E2
:1015D0000C0180910C0190910D01B4010E945E0CF0
:1015E0009093DC028093DB0282E891E00E947F040A
:1015F00088E090E00E94F10484E991E00E947F0479
:1016000088E891E00E947F046091DB027091DC0227
:10161000072E000C880B990B97FFA8C00E94D004DE
:1016200083E991E00E947F0480916D0290916E02A7
:10163000813591050CF488C084E991E00E947F0413
:1016400082E891E00E947F0488E090E00E94F1042B
:1016500084E991E00E947F0486E991E00E947F0482
:101660008091DB029091DC02389EE001399ED00D22
:101670001124CD51DD4F4C815D81688179818FE7E7
:1016800092E00E94400383E991E00E947F0410935E
:10169000490250926B0210924A0210926C024C81E5
:1016A0005D81688179818FEC92E00E9420046091D5
:1016B000DB028FEC92E00E944D0420916C022132FB
:1016C000E8F5809148028111FCCF80916B02009374
:1016D000480210934702409246021092450220931E
:1016E0004402EBE4F2E0A4E2B2E090E0291342C04D
:1016F0001092230290912302880F892B809323025A
:10170000809122028130D1F5109222028091230231
:101710008093BB008091BC0083FDF8CF6092BC0039
:10172000809148028230E1F3809146028F3F31F090
:1017300080914602803211F08091460210924A0256
:1017400010926C02109249026CE271E080E090E02D
:101750000E940E03A114B10409F40ACF0E940000F4
:1017600003CF64970CF035CF01972FCF4AE00E944A
:101770008C0456CF31913D939F5FB8CF7092BC00DF
:10178000CFCFCF93DF938091DD029091DE020E9454
:101790002F0DC1E0D3E02697888199810E942F0DFB
:1017A00082E0C33ED807B9F7DF91CF910895052EA7
:1017B00097FB1EF400940E94EE0B57FD07D00E9489
:1017C0002D0C07FC03D04EF40C94EE0B5095409575
:1017D000309521953F4F4F4F5F4F089590958095DD
:1017E000709561957F4F8F4F9F4F08952F923F9235
:1017F0004F925F926F927F928F929F92AF92BF9221
:10180000CF92DF92EF92FF920F931F93CF93DF93CC
:10181000CDB7DEB7CA1BDB0B0FB6F894DEBF0FBE29
:10182000CDBF09942A88398848885F846E847D8476
:101830008C849B84AA84B984C884DF80EE80FD8078
:101840000C811B81AA81B981CE0FD11D0FB6F894EE
:10185000DEBF0FBECDBFED010895A1E21A2EAA1B77
:10186000BB1BFD010DC0AA1FBB1FEE1FFF1FA21750
:10187000B307E407F50720F0A21BB30BE40BF50B4D
:10188000661F771F881F991F1A9469F760957095D6
:10189000809590959B01AC01BD01CF010895A29F59
:1018A000B001B39FC001A39F700D811D1124911D34
:1018B000B29F700D811D1124911D089597FB072E75
:1018C00016F4009407D077FD09D00E947F0C07FC26
:1018D00005D03EF4909581959F4F08957095619540
:1018E0007F4F0895EE0FFF1F0590F491E02D0994AE
:1018F0000E944F0CB7FF0895821B930B0895AA1BFB
:10190000BB1B51E107C0AA1FBB1FA617B70710F0EA
:10191000A61BB70B881F991F5A95A9F7809590951C
:10192000BC01CD0108950F931F93CF93DF938230B5
:10193000910510F482E090E0E0910303F09104033C
:1019400030E020E0B0E0A0E0309799F421153105B7
:1019500009F44AC0281B390B24303105D8F58A8197
:101960009B816115710589F1FB0193838283FE01DF
:1019700011C0408151810281138148175907E0F05D
:101980004817590799F4109761F012960C93129723
:1019900013961C933296CF01DF91CF911F910F9137
:1019A00008950093030310930403F4CF2115310528
:1019B00051F04217530738F0A901DB019A01BD012C
:1019C000DF01F801C1CFEF01F9CF909304038093B9
:1019D0000303CDCFFE01E20FF31F819391932250B9
:1019E000310939832883D7CF209101033091020335
:1019F000232B41F420911001309111013093020307
:101A00002093010320910E0130910F012115310522
:101A100041F42DB73EB74091120150911301241BA0
:101A2000350BE0910103F0910203E217F307A0F4F4
:101A30002E1B3F0B2817390778F0AC014E5F5F4F24
:101A40002417350748F04E0F5F1F50930203409351
:101A50000103819391939FCFF0E0E0E09CCFCF937F
:101A6000DF930097E9F0FC01329713821282A09174
:101A70000303B0910403ED0130E020E01097A1F4DE
:101A800020813181820F931F209101033091020345
:101A90002817390709F061C0F0930203E0930103AE
:101AA000DF91CF910895EA01CE17DF07E8F54A816B
:101AB0005B819E0141155105B1F7E901FB83EA8382
:101AC00049915991C40FD51FEC17FD0761F480812E
:101AD00091810296840F951FE90199838883828101
:101AE00093819B838A83F0E0E0E012968D919C9134
:101AF00013970097B9F52D913C911197CD0102965E
:101B0000820F931F20910103309102032817390798
:101B100039F6309751F51092040310920303B093F5
:101B20000203A0930103BCCFD383C28340815181C0
:101B3000840F951FC817D90761F44E5F5F4F8881E6
:101B40009981480F591F518340838A819B819383D8
:101B500082832115310509F0B0CFF0930403E0939F
:101B600003039ECFFD01DC01C0CF13821282D7CFC9
:101B7000B0E0A0E0EEEBFDE00C94F80B8C010097D8
:101B800051F4CB010E94930C8C01C801CDB7DEB794
:101B9000E0E10C94140CFC01E60FF71F9C012250AD
:101BA0003109E217F30708F49DC0D901CD91DC910A
:101BB0001197C617D70798F0C530D10530F3CE017D
:101BC00004978617970708F3C61BD70B2297C19374
:101BD000D1936D937C93CF010E942F0DD6CF5B01E3
:101BE000AC1ABD0A4C018C0E9D1EA0910303B0914E
:101BF0000403512C412CF12CE12C109731F58091EC
:101C00000103909102038815990509F05CC04616FE
:101C1000570608F058C080910E0190910F0100976F
:101C200041F48DB79EB74091120150911301841B6E
:101C3000950BE817F90708F055C0F0930203E093FD
:101C40000103F90171836083A0CF8D919C9111975D
:101C500012966C90129713967C901397A815B9055D
:101C600059F56C0142E0C40ED11CCA14DB0420F10A
:101C7000AC014A195B09DA011296159780F062826D
:101C8000738251834083D9016D937C93E114F104F5
:101C900071F0D7011396FC93EE93129776CF2296AC
:101CA0008C0F9D1FF90191838083F301EFCFF09397
:101CB0000403E093030369CF4816590608F42C0186
:101CC0007D01D3019ACFCB010E94930C7C01009738
:101CD00049F0AE01B8010E94750EC8010E942F0D97
:101CE000870153CF10E000E050CFFB01DC0102C0C0
:101CF00001900D9241505040D8F70895FB01DC014E
:101D000001900D920020E1F7089510E0CCECD0E0B6
:101D100004C0FE010E94720C2196CD3CD107C9F788
:041D2000F894FFCF65
:101D2400FFFFFFFF00E10000000000008813000037
:101D34000503800000C1808100000000000000460F
:101D440002400367025C02AD026B028902000000DC
:101D5400004D0420047C04F60319040604F7033A36
:101D6400696E6E6F63656E743A003A6E657574726F
:101D7400616C5F666163653A003A73756E676C61A6
:101D8400737365733A003A68656172745F65796567
:101D9400733A003A72656C617865643A00667567F7
:101DA40061004920616D2000656D6F6A695F58208C
:101DB4003D20000D0A004E4F5720656D6F6A692063
:081DC4006973202E2E2E000091
:00000001FF
